{
	"contracts/solidity/solidity102/SendETH.sol": {
		"SendETH": {
			"abi": [
				{
					"inputs": [],
					"stateMutability": "payable",
					"type": "constructor"
				},
				{
					"inputs": [
						{
							"internalType": "string",
							"name": "msg",
							"type": "string"
						}
					],
					"name": "BalanceOOM",
					"type": "error"
				},
				{
					"inputs": [
						{
							"internalType": "string",
							"name": "msg",
							"type": "string"
						}
					],
					"name": "SendError",
					"type": "error"
				},
				{
					"inputs": [
						{
							"internalType": "address payable",
							"name": "to",
							"type": "address"
						},
						{
							"internalType": "uint256",
							"name": "value",
							"type": "uint256"
						}
					],
					"name": "callETH",
					"outputs": [],
					"stateMutability": "payable",
					"type": "function"
				},
				{
					"inputs": [
						{
							"internalType": "address payable",
							"name": "to",
							"type": "address"
						},
						{
							"internalType": "uint256",
							"name": "value",
							"type": "uint256"
						}
					],
					"name": "sendETH",
					"outputs": [],
					"stateMutability": "payable",
					"type": "function"
				},
				{
					"inputs": [
						{
							"internalType": "address payable",
							"name": "to",
							"type": "address"
						},
						{
							"internalType": "uint256",
							"name": "value",
							"type": "uint256"
						}
					],
					"name": "transferETH",
					"outputs": [],
					"stateMutability": "payable",
					"type": "function"
				},
				{
					"stateMutability": "payable",
					"type": "receive"
				}
			],
			"devdoc": {
				"kind": "dev",
				"methods": {},
				"version": 1
			},
			"evm": {
				"assembly": "    /* \"contracts/solidity/solidity102/SendETH.sol\":106:1517  contract SendETH {... */\n  mstore(0x40, 0x80)\n  dataSize(sub_0)\n  dup1\n  dataOffset(sub_0)\n  0x00\n  codecopy\n  0x00\n  return\nstop\n\nsub_0: assembly {\n        /* \"contracts/solidity/solidity102/SendETH.sol\":106:1517  contract SendETH {... */\n      mstore(0x40, 0x80)\n      jumpi(tag_1, lt(calldatasize, 0x04))\n      shr(0xe0, calldataload(0x00))\n      dup1\n      0x64a197f3\n      eq\n      tag_3\n      jumpi\n      dup1\n      0x7b1a4909\n      eq\n      tag_4\n      jumpi\n      dup1\n      0x8419cf50\n      eq\n      tag_5\n      jumpi\n      jump(tag_2)\n    tag_1:\n      jumpi(tag_2, calldatasize)\n      stop\n    tag_2:\n      0x00\n      dup1\n      revert\n        /* \"contracts/solidity/solidity102/SendETH.sol\":854:1150  function sendETH(address payable to, uint256 value)... */\n    tag_3:\n      tag_8\n      0x04\n      dup1\n      calldatasize\n      sub\n      dup2\n      add\n      swap1\n      tag_9\n      swap2\n      swap1\n      tag_10\n      jump\t// in\n    tag_9:\n      tag_11\n      jump\t// in\n    tag_8:\n      stop\n        /* \"contracts/solidity/solidity102/SendETH.sol\":591:826  function transferETH(address payable to, uint256 value)... */\n    tag_4:\n      tag_12\n      0x04\n      dup1\n      calldatasize\n      sub\n      dup2\n      add\n      swap1\n      tag_13\n      swap2\n      swap1\n      tag_10\n      jump\t// in\n    tag_13:\n      tag_14\n      jump\t// in\n    tag_12:\n      stop\n        /* \"contracts/solidity/solidity102/SendETH.sol\":1178:1515  function callETH(address payable to, uint256 value)... */\n    tag_5:\n      tag_15\n      0x04\n      dup1\n      calldatasize\n      sub\n      dup2\n      add\n      swap1\n      tag_16\n      swap2\n      swap1\n      tag_10\n      jump\t// in\n    tag_16:\n      tag_17\n      jump\t// in\n    tag_15:\n      stop\n        /* \"contracts/solidity/solidity102/SendETH.sol\":854:1150  function sendETH(address payable to, uint256 value)... */\n    tag_11:\n        /* \"contracts/solidity/solidity102/SendETH.sol\":960:965  value */\n      dup1\n        /* \"contracts/solidity/solidity102/SendETH.sol\":498:503  value */\n      dup1\n        /* \"contracts/solidity/solidity102/SendETH.sol\":474:495  address(this).balance */\n      selfbalance\n        /* \"contracts/solidity/solidity102/SendETH.sol\":474:503  address(this).balance < value */\n      lt\n        /* \"contracts/solidity/solidity102/SendETH.sol\":470:537  if (address(this).balance < value) revert BalanceOOM(\"balance oom\") */\n      iszero\n      tag_19\n      jumpi\n        /* \"contracts/solidity/solidity102/SendETH.sol\":512:537  BalanceOOM(\"balance oom\") */\n      mload(0x40)\n      0xbb04ff7d00000000000000000000000000000000000000000000000000000000\n      dup2\n      mstore\n      0x04\n      add\n      tag_20\n      swap1\n      tag_21\n      jump\t// in\n    tag_20:\n      mload(0x40)\n      dup1\n      swap2\n      sub\n      swap1\n      revert\n        /* \"contracts/solidity/solidity102/SendETH.sol\":470:537  if (address(this).balance < value) revert BalanceOOM(\"balance oom\") */\n    tag_19:\n        /* \"contracts/solidity/solidity102/SendETH.sol\":1060:1072  bool success */\n      0x00\n        /* \"contracts/solidity/solidity102/SendETH.sol\":1075:1077  to */\n      dup4\n        /* \"contracts/solidity/solidity102/SendETH.sol\":1075:1082  to.send */\n      0xffffffffffffffffffffffffffffffffffffffff\n      and\n        /* \"contracts/solidity/solidity102/SendETH.sol\":1075:1089  to.send(value) */\n      0x08fc\n        /* \"contracts/solidity/solidity102/SendETH.sol\":1083:1088  value */\n      dup5\n        /* \"contracts/solidity/solidity102/SendETH.sol\":1075:1089  to.send(value) */\n      swap1\n      dup2\n      iszero\n      mul\n      swap1\n      mload(0x40)\n      0x00\n      mload(0x40)\n      dup1\n      dup4\n      sub\n      dup2\n      dup6\n      dup9\n      dup9\n      call\n      swap4\n      pop\n      pop\n      pop\n      pop\n        /* \"contracts/solidity/solidity102/SendETH.sol\":1060:1089  bool success = to.send(value) */\n      swap1\n      pop\n        /* \"contracts/solidity/solidity102/SendETH.sol\":1104:1111  success */\n      dup1\n        /* \"contracts/solidity/solidity102/SendETH.sol\":1099:1143  if (!success) revert SendError(\"send error\") */\n      tag_24\n      jumpi\n        /* \"contracts/solidity/solidity102/SendETH.sol\":1120:1143  SendError(\"send error\") */\n      mload(0x40)\n      0x6af55cc400000000000000000000000000000000000000000000000000000000\n      dup2\n      mstore\n      0x04\n      add\n      tag_25\n      swap1\n      tag_26\n      jump\t// in\n    tag_25:\n      mload(0x40)\n      dup1\n      swap2\n      sub\n      swap1\n      revert\n        /* \"contracts/solidity/solidity102/SendETH.sol\":1099:1143  if (!success) revert SendError(\"send error\") */\n    tag_24:\n        /* \"contracts/solidity/solidity102/SendETH.sol\":971:1150  {... */\n      pop\n        /* \"contracts/solidity/solidity102/SendETH.sol\":854:1150  function sendETH(address payable to, uint256 value)... */\n      pop\n      pop\n      pop\n      jump\t// out\n        /* \"contracts/solidity/solidity102/SendETH.sol\":591:826  function transferETH(address payable to, uint256 value)... */\n    tag_14:\n        /* \"contracts/solidity/solidity102/SendETH.sol\":701:706  value */\n      dup1\n        /* \"contracts/solidity/solidity102/SendETH.sol\":498:503  value */\n      dup1\n        /* \"contracts/solidity/solidity102/SendETH.sol\":474:495  address(this).balance */\n      selfbalance\n        /* \"contracts/solidity/solidity102/SendETH.sol\":474:503  address(this).balance < value */\n      lt\n        /* \"contracts/solidity/solidity102/SendETH.sol\":470:537  if (address(this).balance < value) revert BalanceOOM(\"balance oom\") */\n      iszero\n      tag_28\n      jumpi\n        /* \"contracts/solidity/solidity102/SendETH.sol\":512:537  BalanceOOM(\"balance oom\") */\n      mload(0x40)\n      0xbb04ff7d00000000000000000000000000000000000000000000000000000000\n      dup2\n      mstore\n      0x04\n      add\n      tag_29\n      swap1\n      tag_21\n      jump\t// in\n    tag_29:\n      mload(0x40)\n      dup1\n      swap2\n      sub\n      swap1\n      revert\n        /* \"contracts/solidity/solidity102/SendETH.sol\":470:537  if (address(this).balance < value) revert BalanceOOM(\"balance oom\") */\n    tag_28:\n        /* \"contracts/solidity/solidity102/SendETH.sol\":801:803  to */\n      dup3\n        /* \"contracts/solidity/solidity102/SendETH.sol\":801:812  to.transfer */\n      0xffffffffffffffffffffffffffffffffffffffff\n      and\n        /* \"contracts/solidity/solidity102/SendETH.sol\":801:819  to.transfer(value) */\n      0x08fc\n        /* \"contracts/solidity/solidity102/SendETH.sol\":813:818  value */\n      dup4\n        /* \"contracts/solidity/solidity102/SendETH.sol\":801:819  to.transfer(value) */\n      swap1\n      dup2\n      iszero\n      mul\n      swap1\n      mload(0x40)\n      0x00\n      mload(0x40)\n      dup1\n      dup4\n      sub\n      dup2\n      dup6\n      dup9\n      dup9\n      call\n      swap4\n      pop\n      pop\n      pop\n      pop\n      iszero\n      dup1\n      iszero\n      tag_32\n      jumpi\n      returndatasize\n      0x00\n      dup1\n      returndatacopy\n      revert(0x00, returndatasize)\n    tag_32:\n      pop\n        /* \"contracts/solidity/solidity102/SendETH.sol\":591:826  function transferETH(address payable to, uint256 value)... */\n      pop\n      pop\n      pop\n      jump\t// out\n        /* \"contracts/solidity/solidity102/SendETH.sol\":1178:1515  function callETH(address payable to, uint256 value)... */\n    tag_17:\n        /* \"contracts/solidity/solidity102/SendETH.sol\":1284:1289  value */\n      dup1\n        /* \"contracts/solidity/solidity102/SendETH.sol\":498:503  value */\n      dup1\n        /* \"contracts/solidity/solidity102/SendETH.sol\":474:495  address(this).balance */\n      selfbalance\n        /* \"contracts/solidity/solidity102/SendETH.sol\":474:503  address(this).balance < value */\n      lt\n        /* \"contracts/solidity/solidity102/SendETH.sol\":470:537  if (address(this).balance < value) revert BalanceOOM(\"balance oom\") */\n      iszero\n      tag_34\n      jumpi\n        /* \"contracts/solidity/solidity102/SendETH.sol\":512:537  BalanceOOM(\"balance oom\") */\n      mload(0x40)\n      0xbb04ff7d00000000000000000000000000000000000000000000000000000000\n      dup2\n      mstore\n      0x04\n      add\n      tag_35\n      swap1\n      tag_21\n      jump\t// in\n    tag_35:\n      mload(0x40)\n      dup1\n      swap2\n      sub\n      swap1\n      revert\n        /* \"contracts/solidity/solidity102/SendETH.sol\":470:537  if (address(this).balance < value) revert BalanceOOM(\"balance oom\") */\n    tag_34:\n        /* \"contracts/solidity/solidity102/SendETH.sol\":1387:1399  bool success */\n      0x00\n        /* \"contracts/solidity/solidity102/SendETH.sol\":1405:1407  to */\n      dup4\n        /* \"contracts/solidity/solidity102/SendETH.sol\":1405:1412  to.call */\n      0xffffffffffffffffffffffffffffffffffffffff\n      and\n        /* \"contracts/solidity/solidity102/SendETH.sol\":1420:1425  value */\n      dup4\n        /* \"contracts/solidity/solidity102/SendETH.sol\":1405:1430  to.call{value: value}(\"\") */\n      mload(0x40)\n      tag_37\n      swap1\n      tag_38\n      jump\t// in\n    tag_37:\n      0x00\n      mload(0x40)\n      dup1\n      dup4\n      sub\n      dup2\n      dup6\n      dup8\n      gas\n      call\n      swap3\n      pop\n      pop\n      pop\n      returndatasize\n      dup1\n      0x00\n      dup2\n      eq\n      tag_41\n      jumpi\n      mload(0x40)\n      swap2\n      pop\n      and(add(returndatasize, 0x3f), not(0x1f))\n      dup3\n      add\n      0x40\n      mstore\n      returndatasize\n      dup3\n      mstore\n      returndatasize\n      0x00\n      0x20\n      dup5\n      add\n      returndatacopy\n      jump(tag_40)\n    tag_41:\n      0x60\n      swap2\n      pop\n    tag_40:\n      pop\n        /* \"contracts/solidity/solidity102/SendETH.sol\":1386:1430  (bool success, ) = to.call{value: value}(\"\") */\n      pop\n      swap1\n      pop\n        /* \"contracts/solidity/solidity102/SendETH.sol\":1445:1452  success */\n      dup1\n        /* \"contracts/solidity/solidity102/SendETH.sol\":1440:1509  if (!success) {... */\n      tag_42\n      jumpi\n        /* \"contracts/solidity/solidity102/SendETH.sol\":1475:1498  SendError(\"call error\") */\n      mload(0x40)\n      0x6af55cc400000000000000000000000000000000000000000000000000000000\n      dup2\n      mstore\n      0x04\n      add\n      tag_43\n      swap1\n      tag_44\n      jump\t// in\n    tag_43:\n      mload(0x40)\n      dup1\n      swap2\n      sub\n      swap1\n      revert\n        /* \"contracts/solidity/solidity102/SendETH.sol\":1440:1509  if (!success) {... */\n    tag_42:\n        /* \"contracts/solidity/solidity102/SendETH.sol\":1295:1515  {... */\n      pop\n        /* \"contracts/solidity/solidity102/SendETH.sol\":1178:1515  function callETH(address payable to, uint256 value)... */\n      pop\n      pop\n      pop\n      jump\t// out\n        /* \"#utility.yul\":88:205   */\n    tag_46:\n        /* \"#utility.yul\":197:198   */\n      0x00\n        /* \"#utility.yul\":194:195   */\n      dup1\n        /* \"#utility.yul\":187:199   */\n      revert\n        /* \"#utility.yul\":334:460   */\n    tag_48:\n        /* \"#utility.yul\":371:378   */\n      0x00\n        /* \"#utility.yul\":411:453   */\n      0xffffffffffffffffffffffffffffffffffffffff\n        /* \"#utility.yul\":404:409   */\n      dup3\n        /* \"#utility.yul\":400:454   */\n      and\n        /* \"#utility.yul\":389:454   */\n      swap1\n      pop\n        /* \"#utility.yul\":334:460   */\n      swap2\n      swap1\n      pop\n      jump\t// out\n        /* \"#utility.yul\":466:570   */\n    tag_49:\n        /* \"#utility.yul\":511:518   */\n      0x00\n        /* \"#utility.yul\":540:564   */\n      tag_71\n        /* \"#utility.yul\":558:563   */\n      dup3\n        /* \"#utility.yul\":540:564   */\n      tag_48\n      jump\t// in\n    tag_71:\n        /* \"#utility.yul\":529:564   */\n      swap1\n      pop\n        /* \"#utility.yul\":466:570   */\n      swap2\n      swap1\n      pop\n      jump\t// out\n        /* \"#utility.yul\":576:714   */\n    tag_50:\n        /* \"#utility.yul\":657:689   */\n      tag_73\n        /* \"#utility.yul\":683:688   */\n      dup2\n        /* \"#utility.yul\":657:689   */\n      tag_49\n      jump\t// in\n    tag_73:\n        /* \"#utility.yul\":650:655   */\n      dup2\n        /* \"#utility.yul\":647:690   */\n      eq\n        /* \"#utility.yul\":637:708   */\n      tag_74\n      jumpi\n        /* \"#utility.yul\":704:705   */\n      0x00\n        /* \"#utility.yul\":701:702   */\n      dup1\n        /* \"#utility.yul\":694:706   */\n      revert\n        /* \"#utility.yul\":637:708   */\n    tag_74:\n        /* \"#utility.yul\":576:714   */\n      pop\n      jump\t// out\n        /* \"#utility.yul\":720:875   */\n    tag_51:\n        /* \"#utility.yul\":774:779   */\n      0x00\n        /* \"#utility.yul\":812:818   */\n      dup2\n        /* \"#utility.yul\":799:819   */\n      calldataload\n        /* \"#utility.yul\":790:819   */\n      swap1\n      pop\n        /* \"#utility.yul\":828:869   */\n      tag_76\n        /* \"#utility.yul\":863:868   */\n      dup2\n        /* \"#utility.yul\":828:869   */\n      tag_50\n      jump\t// in\n    tag_76:\n        /* \"#utility.yul\":720:875   */\n      swap3\n      swap2\n      pop\n      pop\n      jump\t// out\n        /* \"#utility.yul\":881:958   */\n    tag_52:\n        /* \"#utility.yul\":918:925   */\n      0x00\n        /* \"#utility.yul\":947:952   */\n      dup2\n        /* \"#utility.yul\":936:952   */\n      swap1\n      pop\n        /* \"#utility.yul\":881:958   */\n      swap2\n      swap1\n      pop\n      jump\t// out\n        /* \"#utility.yul\":964:1086   */\n    tag_53:\n        /* \"#utility.yul\":1037:1061   */\n      tag_79\n        /* \"#utility.yul\":1055:1060   */\n      dup2\n        /* \"#utility.yul\":1037:1061   */\n      tag_52\n      jump\t// in\n    tag_79:\n        /* \"#utility.yul\":1030:1035   */\n      dup2\n        /* \"#utility.yul\":1027:1062   */\n      eq\n        /* \"#utility.yul\":1017:1080   */\n      tag_80\n      jumpi\n        /* \"#utility.yul\":1076:1077   */\n      0x00\n        /* \"#utility.yul\":1073:1074   */\n      dup1\n        /* \"#utility.yul\":1066:1078   */\n      revert\n        /* \"#utility.yul\":1017:1080   */\n    tag_80:\n        /* \"#utility.yul\":964:1086   */\n      pop\n      jump\t// out\n        /* \"#utility.yul\":1092:1231   */\n    tag_54:\n        /* \"#utility.yul\":1138:1143   */\n      0x00\n        /* \"#utility.yul\":1176:1182   */\n      dup2\n        /* \"#utility.yul\":1163:1183   */\n      calldataload\n        /* \"#utility.yul\":1154:1183   */\n      swap1\n      pop\n        /* \"#utility.yul\":1192:1225   */\n      tag_82\n        /* \"#utility.yul\":1219:1224   */\n      dup2\n        /* \"#utility.yul\":1192:1225   */\n      tag_53\n      jump\t// in\n    tag_82:\n        /* \"#utility.yul\":1092:1231   */\n      swap3\n      swap2\n      pop\n      pop\n      jump\t// out\n        /* \"#utility.yul\":1237:1727   */\n    tag_10:\n        /* \"#utility.yul\":1313:1319   */\n      0x00\n        /* \"#utility.yul\":1321:1327   */\n      dup1\n        /* \"#utility.yul\":1370:1372   */\n      0x40\n        /* \"#utility.yul\":1358:1367   */\n      dup4\n        /* \"#utility.yul\":1349:1356   */\n      dup6\n        /* \"#utility.yul\":1345:1368   */\n      sub\n        /* \"#utility.yul\":1341:1373   */\n      slt\n        /* \"#utility.yul\":1338:1457   */\n      iszero\n      tag_84\n      jumpi\n        /* \"#utility.yul\":1376:1455   */\n      tag_85\n      tag_46\n      jump\t// in\n    tag_85:\n        /* \"#utility.yul\":1338:1457   */\n    tag_84:\n        /* \"#utility.yul\":1496:1497   */\n      0x00\n        /* \"#utility.yul\":1521:1582   */\n      tag_86\n        /* \"#utility.yul\":1574:1581   */\n      dup6\n        /* \"#utility.yul\":1565:1571   */\n      dup3\n        /* \"#utility.yul\":1554:1563   */\n      dup7\n        /* \"#utility.yul\":1550:1572   */\n      add\n        /* \"#utility.yul\":1521:1582   */\n      tag_51\n      jump\t// in\n    tag_86:\n        /* \"#utility.yul\":1511:1582   */\n      swap3\n      pop\n        /* \"#utility.yul\":1467:1592   */\n      pop\n        /* \"#utility.yul\":1631:1633   */\n      0x20\n        /* \"#utility.yul\":1657:1710   */\n      tag_87\n        /* \"#utility.yul\":1702:1709   */\n      dup6\n        /* \"#utility.yul\":1693:1699   */\n      dup3\n        /* \"#utility.yul\":1682:1691   */\n      dup7\n        /* \"#utility.yul\":1678:1700   */\n      add\n        /* \"#utility.yul\":1657:1710   */\n      tag_54\n      jump\t// in\n    tag_87:\n        /* \"#utility.yul\":1647:1710   */\n      swap2\n      pop\n        /* \"#utility.yul\":1602:1720   */\n      pop\n        /* \"#utility.yul\":1237:1727   */\n      swap3\n      pop\n      swap3\n      swap1\n      pop\n      jump\t// out\n        /* \"#utility.yul\":1733:1902   */\n    tag_55:\n        /* \"#utility.yul\":1817:1828   */\n      0x00\n        /* \"#utility.yul\":1851:1857   */\n      dup3\n        /* \"#utility.yul\":1846:1849   */\n      dup3\n        /* \"#utility.yul\":1839:1858   */\n      mstore\n        /* \"#utility.yul\":1891:1895   */\n      0x20\n        /* \"#utility.yul\":1886:1889   */\n      dup3\n        /* \"#utility.yul\":1882:1896   */\n      add\n        /* \"#utility.yul\":1867:1896   */\n      swap1\n      pop\n        /* \"#utility.yul\":1733:1902   */\n      swap3\n      swap2\n      pop\n      pop\n      jump\t// out\n        /* \"#utility.yul\":1908:2069   */\n    tag_56:\n        /* \"#utility.yul\":2048:2061   */\n      0x62616c616e6365206f6f6d000000000000000000000000000000000000000000\n        /* \"#utility.yul\":2044:2045   */\n      0x00\n        /* \"#utility.yul\":2036:2042   */\n      dup3\n        /* \"#utility.yul\":2032:2046   */\n      add\n        /* \"#utility.yul\":2025:2062   */\n      mstore\n        /* \"#utility.yul\":1908:2069   */\n      pop\n      jump\t// out\n        /* \"#utility.yul\":2075:2441   */\n    tag_57:\n        /* \"#utility.yul\":2217:2220   */\n      0x00\n        /* \"#utility.yul\":2238:2305   */\n      tag_91\n        /* \"#utility.yul\":2302:2304   */\n      0x0b\n        /* \"#utility.yul\":2297:2300   */\n      dup4\n        /* \"#utility.yul\":2238:2305   */\n      tag_55\n      jump\t// in\n    tag_91:\n        /* \"#utility.yul\":2231:2305   */\n      swap2\n      pop\n        /* \"#utility.yul\":2314:2407   */\n      tag_92\n        /* \"#utility.yul\":2403:2406   */\n      dup3\n        /* \"#utility.yul\":2314:2407   */\n      tag_56\n      jump\t// in\n    tag_92:\n        /* \"#utility.yul\":2432:2434   */\n      0x20\n        /* \"#utility.yul\":2427:2430   */\n      dup3\n        /* \"#utility.yul\":2423:2435   */\n      add\n        /* \"#utility.yul\":2416:2435   */\n      swap1\n      pop\n        /* \"#utility.yul\":2075:2441   */\n      swap2\n      swap1\n      pop\n      jump\t// out\n        /* \"#utility.yul\":2447:2866   */\n    tag_21:\n        /* \"#utility.yul\":2613:2617   */\n      0x00\n        /* \"#utility.yul\":2651:2653   */\n      0x20\n        /* \"#utility.yul\":2640:2649   */\n      dup3\n        /* \"#utility.yul\":2636:2654   */\n      add\n        /* \"#utility.yul\":2628:2654   */\n      swap1\n      pop\n        /* \"#utility.yul\":2700:2709   */\n      dup2\n        /* \"#utility.yul\":2694:2698   */\n      dup2\n        /* \"#utility.yul\":2690:2710   */\n      sub\n        /* \"#utility.yul\":2686:2687   */\n      0x00\n        /* \"#utility.yul\":2675:2684   */\n      dup4\n        /* \"#utility.yul\":2671:2688   */\n      add\n        /* \"#utility.yul\":2664:2711   */\n      mstore\n        /* \"#utility.yul\":2728:2859   */\n      tag_94\n        /* \"#utility.yul\":2854:2858   */\n      dup2\n        /* \"#utility.yul\":2728:2859   */\n      tag_57\n      jump\t// in\n    tag_94:\n        /* \"#utility.yul\":2720:2859   */\n      swap1\n      pop\n        /* \"#utility.yul\":2447:2866   */\n      swap2\n      swap1\n      pop\n      jump\t// out\n        /* \"#utility.yul\":2872:3032   */\n    tag_58:\n        /* \"#utility.yul\":3012:3024   */\n      0x73656e64206572726f7200000000000000000000000000000000000000000000\n        /* \"#utility.yul\":3008:3009   */\n      0x00\n        /* \"#utility.yul\":3000:3006   */\n      dup3\n        /* \"#utility.yul\":2996:3010   */\n      add\n        /* \"#utility.yul\":2989:3025   */\n      mstore\n        /* \"#utility.yul\":2872:3032   */\n      pop\n      jump\t// out\n        /* \"#utility.yul\":3038:3404   */\n    tag_59:\n        /* \"#utility.yul\":3180:3183   */\n      0x00\n        /* \"#utility.yul\":3201:3268   */\n      tag_97\n        /* \"#utility.yul\":3265:3267   */\n      0x0a\n        /* \"#utility.yul\":3260:3263   */\n      dup4\n        /* \"#utility.yul\":3201:3268   */\n      tag_55\n      jump\t// in\n    tag_97:\n        /* \"#utility.yul\":3194:3268   */\n      swap2\n      pop\n        /* \"#utility.yul\":3277:3370   */\n      tag_98\n        /* \"#utility.yul\":3366:3369   */\n      dup3\n        /* \"#utility.yul\":3277:3370   */\n      tag_58\n      jump\t// in\n    tag_98:\n        /* \"#utility.yul\":3395:3397   */\n      0x20\n        /* \"#utility.yul\":3390:3393   */\n      dup3\n        /* \"#utility.yul\":3386:3398   */\n      add\n        /* \"#utility.yul\":3379:3398   */\n      swap1\n      pop\n        /* \"#utility.yul\":3038:3404   */\n      swap2\n      swap1\n      pop\n      jump\t// out\n        /* \"#utility.yul\":3410:3829   */\n    tag_26:\n        /* \"#utility.yul\":3576:3580   */\n      0x00\n        /* \"#utility.yul\":3614:3616   */\n      0x20\n        /* \"#utility.yul\":3603:3612   */\n      dup3\n        /* \"#utility.yul\":3599:3617   */\n      add\n        /* \"#utility.yul\":3591:3617   */\n      swap1\n      pop\n        /* \"#utility.yul\":3663:3672   */\n      dup2\n        /* \"#utility.yul\":3657:3661   */\n      dup2\n        /* \"#utility.yul\":3653:3673   */\n      sub\n        /* \"#utility.yul\":3649:3650   */\n      0x00\n        /* \"#utility.yul\":3638:3647   */\n      dup4\n        /* \"#utility.yul\":3634:3651   */\n      add\n        /* \"#utility.yul\":3627:3674   */\n      mstore\n        /* \"#utility.yul\":3691:3822   */\n      tag_100\n        /* \"#utility.yul\":3817:3821   */\n      dup2\n        /* \"#utility.yul\":3691:3822   */\n      tag_59\n      jump\t// in\n    tag_100:\n        /* \"#utility.yul\":3683:3822   */\n      swap1\n      pop\n        /* \"#utility.yul\":3410:3829   */\n      swap2\n      swap1\n      pop\n      jump\t// out\n        /* \"#utility.yul\":3835:3982   */\n    tag_60:\n        /* \"#utility.yul\":3936:3947   */\n      0x00\n        /* \"#utility.yul\":3973:3976   */\n      dup2\n        /* \"#utility.yul\":3958:3976   */\n      swap1\n      pop\n        /* \"#utility.yul\":3835:3982   */\n      swap3\n      swap2\n      pop\n      pop\n      jump\t// out\n        /* \"#utility.yul\":3988:4102   */\n    tag_61:\n      pop\n      jump\t// out\n        /* \"#utility.yul\":4108:4506   */\n    tag_62:\n        /* \"#utility.yul\":4267:4270   */\n      0x00\n        /* \"#utility.yul\":4288:4371   */\n      tag_104\n        /* \"#utility.yul\":4369:4370   */\n      0x00\n        /* \"#utility.yul\":4364:4367   */\n      dup4\n        /* \"#utility.yul\":4288:4371   */\n      tag_60\n      jump\t// in\n    tag_104:\n        /* \"#utility.yul\":4281:4371   */\n      swap2\n      pop\n        /* \"#utility.yul\":4380:4473   */\n      tag_105\n        /* \"#utility.yul\":4469:4472   */\n      dup3\n        /* \"#utility.yul\":4380:4473   */\n      tag_61\n      jump\t// in\n    tag_105:\n        /* \"#utility.yul\":4498:4499   */\n      0x00\n        /* \"#utility.yul\":4493:4496   */\n      dup3\n        /* \"#utility.yul\":4489:4500   */\n      add\n        /* \"#utility.yul\":4482:4500   */\n      swap1\n      pop\n        /* \"#utility.yul\":4108:4506   */\n      swap2\n      swap1\n      pop\n      jump\t// out\n        /* \"#utility.yul\":4512:4891   */\n    tag_38:\n        /* \"#utility.yul\":4696:4699   */\n      0x00\n        /* \"#utility.yul\":4718:4865   */\n      tag_107\n        /* \"#utility.yul\":4861:4864   */\n      dup3\n        /* \"#utility.yul\":4718:4865   */\n      tag_62\n      jump\t// in\n    tag_107:\n        /* \"#utility.yul\":4711:4865   */\n      swap2\n      pop\n        /* \"#utility.yul\":4882:4885   */\n      dup2\n        /* \"#utility.yul\":4875:4885   */\n      swap1\n      pop\n        /* \"#utility.yul\":4512:4891   */\n      swap2\n      swap1\n      pop\n      jump\t// out\n        /* \"#utility.yul\":4897:5057   */\n    tag_63:\n        /* \"#utility.yul\":5037:5049   */\n      0x63616c6c206572726f7200000000000000000000000000000000000000000000\n        /* \"#utility.yul\":5033:5034   */\n      0x00\n        /* \"#utility.yul\":5025:5031   */\n      dup3\n        /* \"#utility.yul\":5021:5035   */\n      add\n        /* \"#utility.yul\":5014:5050   */\n      mstore\n        /* \"#utility.yul\":4897:5057   */\n      pop\n      jump\t// out\n        /* \"#utility.yul\":5063:5429   */\n    tag_64:\n        /* \"#utility.yul\":5205:5208   */\n      0x00\n        /* \"#utility.yul\":5226:5293   */\n      tag_110\n        /* \"#utility.yul\":5290:5292   */\n      0x0a\n        /* \"#utility.yul\":5285:5288   */\n      dup4\n        /* \"#utility.yul\":5226:5293   */\n      tag_55\n      jump\t// in\n    tag_110:\n        /* \"#utility.yul\":5219:5293   */\n      swap2\n      pop\n        /* \"#utility.yul\":5302:5395   */\n      tag_111\n        /* \"#utility.yul\":5391:5394   */\n      dup3\n        /* \"#utility.yul\":5302:5395   */\n      tag_63\n      jump\t// in\n    tag_111:\n        /* \"#utility.yul\":5420:5422   */\n      0x20\n        /* \"#utility.yul\":5415:5418   */\n      dup3\n        /* \"#utility.yul\":5411:5423   */\n      add\n        /* \"#utility.yul\":5404:5423   */\n      swap1\n      pop\n        /* \"#utility.yul\":5063:5429   */\n      swap2\n      swap1\n      pop\n      jump\t// out\n        /* \"#utility.yul\":5435:5854   */\n    tag_44:\n        /* \"#utility.yul\":5601:5605   */\n      0x00\n        /* \"#utility.yul\":5639:5641   */\n      0x20\n        /* \"#utility.yul\":5628:5637   */\n      dup3\n        /* \"#utility.yul\":5624:5642   */\n      add\n        /* \"#utility.yul\":5616:5642   */\n      swap1\n      pop\n        /* \"#utility.yul\":5688:5697   */\n      dup2\n        /* \"#utility.yul\":5682:5686   */\n      dup2\n        /* \"#utility.yul\":5678:5698   */\n      sub\n        /* \"#utility.yul\":5674:5675   */\n      0x00\n        /* \"#utility.yul\":5663:5672   */\n      dup4\n        /* \"#utility.yul\":5659:5676   */\n      add\n        /* \"#utility.yul\":5652:5699   */\n      mstore\n        /* \"#utility.yul\":5716:5847   */\n      tag_113\n        /* \"#utility.yul\":5842:5846   */\n      dup2\n        /* \"#utility.yul\":5716:5847   */\n      tag_64\n      jump\t// in\n    tag_113:\n        /* \"#utility.yul\":5708:5847   */\n      swap1\n      pop\n        /* \"#utility.yul\":5435:5854   */\n      swap2\n      swap1\n      pop\n      jump\t// out\n\n    auxdata: 0xa264697066735822122074b23fee171edef16ac2ddf2198d171123d448ac19ca00fe74e68edc972e9dbf64736f6c634300081a0033\n}\n",
				"bytecode": {
					"linkReferences": {},
					"object": "6080604052610564806100115f395ff3fe608060405260043610610037575f3560e01c806364a197f3146100425780637b1a49091461005e5780638419cf501461007a5761003e565b3661003e57005b5f80fd5b61005c60048036038101906100579190610367565b610096565b005b61007860048036038101906100739190610367565b610157565b005b610094600480360381019061008f9190610367565b6101e4565b005b80804710156100da576040517fbb04ff7d0000000000000000000000000000000000000000000000000000000081526004016100d1906103ff565b60405180910390fd5b5f8373ffffffffffffffffffffffffffffffffffffffff166108fc8490811502906040515f60405180830381858888f19350505050905080610151576040517f6af55cc400000000000000000000000000000000000000000000000000000000815260040161014890610467565b60405180910390fd5b50505050565b808047101561019b576040517fbb04ff7d000000000000000000000000000000000000000000000000000000008152600401610192906103ff565b60405180910390fd5b8273ffffffffffffffffffffffffffffffffffffffff166108fc8390811502906040515f60405180830381858888f193505050501580156101de573d5f803e3d5ffd5b50505050565b8080471015610228576040517fbb04ff7d00000000000000000000000000000000000000000000000000000000815260040161021f906103ff565b60405180910390fd5b5f8373ffffffffffffffffffffffffffffffffffffffff168360405161024d906104b2565b5f6040518083038185875af1925050503d805f8114610287576040519150601f19603f3d011682016040523d82523d5f602084013e61028c565b606091505b50509050806102d0576040517f6af55cc40000000000000000000000000000000000000000000000000000000081526004016102c790610510565b60405180910390fd5b50505050565b5f80fd5b5f73ffffffffffffffffffffffffffffffffffffffff82169050919050565b5f610303826102da565b9050919050565b610313816102f9565b811461031d575f80fd5b50565b5f8135905061032e8161030a565b92915050565b5f819050919050565b61034681610334565b8114610350575f80fd5b50565b5f813590506103618161033d565b92915050565b5f806040838503121561037d5761037c6102d6565b5b5f61038a85828601610320565b925050602061039b85828601610353565b9150509250929050565b5f82825260208201905092915050565b7f62616c616e6365206f6f6d0000000000000000000000000000000000000000005f82015250565b5f6103e9600b836103a5565b91506103f4826103b5565b602082019050919050565b5f6020820190508181035f830152610416816103dd565b9050919050565b7f73656e64206572726f72000000000000000000000000000000000000000000005f82015250565b5f610451600a836103a5565b915061045c8261041d565b602082019050919050565b5f6020820190508181035f83015261047e81610445565b9050919050565b5f81905092915050565b50565b5f61049d5f83610485565b91506104a88261048f565b5f82019050919050565b5f6104bc82610492565b9150819050919050565b7f63616c6c206572726f72000000000000000000000000000000000000000000005f82015250565b5f6104fa600a836103a5565b9150610505826104c6565b602082019050919050565b5f6020820190508181035f830152610527816104ee565b905091905056fea264697066735822122074b23fee171edef16ac2ddf2198d171123d448ac19ca00fe74e68edc972e9dbf64736f6c634300081a0033",
					"opcodes": "PUSH1 0x80 PUSH1 0x40 MSTORE PUSH2 0x564 DUP1 PUSH2 0x11 PUSH0 CODECOPY PUSH0 RETURN INVALID PUSH1 0x80 PUSH1 0x40 MSTORE PUSH1 0x4 CALLDATASIZE LT PUSH2 0x37 JUMPI PUSH0 CALLDATALOAD PUSH1 0xE0 SHR DUP1 PUSH4 0x64A197F3 EQ PUSH2 0x42 JUMPI DUP1 PUSH4 0x7B1A4909 EQ PUSH2 0x5E JUMPI DUP1 PUSH4 0x8419CF50 EQ PUSH2 0x7A JUMPI PUSH2 0x3E JUMP JUMPDEST CALLDATASIZE PUSH2 0x3E JUMPI STOP JUMPDEST PUSH0 DUP1 REVERT JUMPDEST PUSH2 0x5C PUSH1 0x4 DUP1 CALLDATASIZE SUB DUP2 ADD SWAP1 PUSH2 0x57 SWAP2 SWAP1 PUSH2 0x367 JUMP JUMPDEST PUSH2 0x96 JUMP JUMPDEST STOP JUMPDEST PUSH2 0x78 PUSH1 0x4 DUP1 CALLDATASIZE SUB DUP2 ADD SWAP1 PUSH2 0x73 SWAP2 SWAP1 PUSH2 0x367 JUMP JUMPDEST PUSH2 0x157 JUMP JUMPDEST STOP JUMPDEST PUSH2 0x94 PUSH1 0x4 DUP1 CALLDATASIZE SUB DUP2 ADD SWAP1 PUSH2 0x8F SWAP2 SWAP1 PUSH2 0x367 JUMP JUMPDEST PUSH2 0x1E4 JUMP JUMPDEST STOP JUMPDEST DUP1 DUP1 SELFBALANCE LT ISZERO PUSH2 0xDA JUMPI PUSH1 0x40 MLOAD PUSH32 0xBB04FF7D00000000000000000000000000000000000000000000000000000000 DUP2 MSTORE PUSH1 0x4 ADD PUSH2 0xD1 SWAP1 PUSH2 0x3FF JUMP JUMPDEST PUSH1 0x40 MLOAD DUP1 SWAP2 SUB SWAP1 REVERT JUMPDEST PUSH0 DUP4 PUSH20 0xFFFFFFFFFFFFFFFFFFFFFFFFFFFFFFFFFFFFFFFF AND PUSH2 0x8FC DUP5 SWAP1 DUP2 ISZERO MUL SWAP1 PUSH1 0x40 MLOAD PUSH0 PUSH1 0x40 MLOAD DUP1 DUP4 SUB DUP2 DUP6 DUP9 DUP9 CALL SWAP4 POP POP POP POP SWAP1 POP DUP1 PUSH2 0x151 JUMPI PUSH1 0x40 MLOAD PUSH32 0x6AF55CC400000000000000000000000000000000000000000000000000000000 DUP2 MSTORE PUSH1 0x4 ADD PUSH2 0x148 SWAP1 PUSH2 0x467 JUMP JUMPDEST PUSH1 0x40 MLOAD DUP1 SWAP2 SUB SWAP1 REVERT JUMPDEST POP POP POP POP JUMP JUMPDEST DUP1 DUP1 SELFBALANCE LT ISZERO PUSH2 0x19B JUMPI PUSH1 0x40 MLOAD PUSH32 0xBB04FF7D00000000000000000000000000000000000000000000000000000000 DUP2 MSTORE PUSH1 0x4 ADD PUSH2 0x192 SWAP1 PUSH2 0x3FF JUMP JUMPDEST PUSH1 0x40 MLOAD DUP1 SWAP2 SUB SWAP1 REVERT JUMPDEST DUP3 PUSH20 0xFFFFFFFFFFFFFFFFFFFFFFFFFFFFFFFFFFFFFFFF AND PUSH2 0x8FC DUP4 SWAP1 DUP2 ISZERO MUL SWAP1 PUSH1 0x40 MLOAD PUSH0 PUSH1 0x40 MLOAD DUP1 DUP4 SUB DUP2 DUP6 DUP9 DUP9 CALL SWAP4 POP POP POP POP ISZERO DUP1 ISZERO PUSH2 0x1DE JUMPI RETURNDATASIZE PUSH0 DUP1 RETURNDATACOPY RETURNDATASIZE PUSH0 REVERT JUMPDEST POP POP POP POP JUMP JUMPDEST DUP1 DUP1 SELFBALANCE LT ISZERO PUSH2 0x228 JUMPI PUSH1 0x40 MLOAD PUSH32 0xBB04FF7D00000000000000000000000000000000000000000000000000000000 DUP2 MSTORE PUSH1 0x4 ADD PUSH2 0x21F SWAP1 PUSH2 0x3FF JUMP JUMPDEST PUSH1 0x40 MLOAD DUP1 SWAP2 SUB SWAP1 REVERT JUMPDEST PUSH0 DUP4 PUSH20 0xFFFFFFFFFFFFFFFFFFFFFFFFFFFFFFFFFFFFFFFF AND DUP4 PUSH1 0x40 MLOAD PUSH2 0x24D SWAP1 PUSH2 0x4B2 JUMP JUMPDEST PUSH0 PUSH1 0x40 MLOAD DUP1 DUP4 SUB DUP2 DUP6 DUP8 GAS CALL SWAP3 POP POP POP RETURNDATASIZE DUP1 PUSH0 DUP2 EQ PUSH2 0x287 JUMPI PUSH1 0x40 MLOAD SWAP2 POP PUSH1 0x1F NOT PUSH1 0x3F RETURNDATASIZE ADD AND DUP3 ADD PUSH1 0x40 MSTORE RETURNDATASIZE DUP3 MSTORE RETURNDATASIZE PUSH0 PUSH1 0x20 DUP5 ADD RETURNDATACOPY PUSH2 0x28C JUMP JUMPDEST PUSH1 0x60 SWAP2 POP JUMPDEST POP POP SWAP1 POP DUP1 PUSH2 0x2D0 JUMPI PUSH1 0x40 MLOAD PUSH32 0x6AF55CC400000000000000000000000000000000000000000000000000000000 DUP2 MSTORE PUSH1 0x4 ADD PUSH2 0x2C7 SWAP1 PUSH2 0x510 JUMP JUMPDEST PUSH1 0x40 MLOAD DUP1 SWAP2 SUB SWAP1 REVERT JUMPDEST POP POP POP POP JUMP JUMPDEST PUSH0 DUP1 REVERT JUMPDEST PUSH0 PUSH20 0xFFFFFFFFFFFFFFFFFFFFFFFFFFFFFFFFFFFFFFFF DUP3 AND SWAP1 POP SWAP2 SWAP1 POP JUMP JUMPDEST PUSH0 PUSH2 0x303 DUP3 PUSH2 0x2DA JUMP JUMPDEST SWAP1 POP SWAP2 SWAP1 POP JUMP JUMPDEST PUSH2 0x313 DUP2 PUSH2 0x2F9 JUMP JUMPDEST DUP2 EQ PUSH2 0x31D JUMPI PUSH0 DUP1 REVERT JUMPDEST POP JUMP JUMPDEST PUSH0 DUP2 CALLDATALOAD SWAP1 POP PUSH2 0x32E DUP2 PUSH2 0x30A JUMP JUMPDEST SWAP3 SWAP2 POP POP JUMP JUMPDEST PUSH0 DUP2 SWAP1 POP SWAP2 SWAP1 POP JUMP JUMPDEST PUSH2 0x346 DUP2 PUSH2 0x334 JUMP JUMPDEST DUP2 EQ PUSH2 0x350 JUMPI PUSH0 DUP1 REVERT JUMPDEST POP JUMP JUMPDEST PUSH0 DUP2 CALLDATALOAD SWAP1 POP PUSH2 0x361 DUP2 PUSH2 0x33D JUMP JUMPDEST SWAP3 SWAP2 POP POP JUMP JUMPDEST PUSH0 DUP1 PUSH1 0x40 DUP4 DUP6 SUB SLT ISZERO PUSH2 0x37D JUMPI PUSH2 0x37C PUSH2 0x2D6 JUMP JUMPDEST JUMPDEST PUSH0 PUSH2 0x38A DUP6 DUP3 DUP7 ADD PUSH2 0x320 JUMP JUMPDEST SWAP3 POP POP PUSH1 0x20 PUSH2 0x39B DUP6 DUP3 DUP7 ADD PUSH2 0x353 JUMP JUMPDEST SWAP2 POP POP SWAP3 POP SWAP3 SWAP1 POP JUMP JUMPDEST PUSH0 DUP3 DUP3 MSTORE PUSH1 0x20 DUP3 ADD SWAP1 POP SWAP3 SWAP2 POP POP JUMP JUMPDEST PUSH32 0x62616C616E6365206F6F6D000000000000000000000000000000000000000000 PUSH0 DUP3 ADD MSTORE POP JUMP JUMPDEST PUSH0 PUSH2 0x3E9 PUSH1 0xB DUP4 PUSH2 0x3A5 JUMP JUMPDEST SWAP2 POP PUSH2 0x3F4 DUP3 PUSH2 0x3B5 JUMP JUMPDEST PUSH1 0x20 DUP3 ADD SWAP1 POP SWAP2 SWAP1 POP JUMP JUMPDEST PUSH0 PUSH1 0x20 DUP3 ADD SWAP1 POP DUP2 DUP2 SUB PUSH0 DUP4 ADD MSTORE PUSH2 0x416 DUP2 PUSH2 0x3DD JUMP JUMPDEST SWAP1 POP SWAP2 SWAP1 POP JUMP JUMPDEST PUSH32 0x73656E64206572726F7200000000000000000000000000000000000000000000 PUSH0 DUP3 ADD MSTORE POP JUMP JUMPDEST PUSH0 PUSH2 0x451 PUSH1 0xA DUP4 PUSH2 0x3A5 JUMP JUMPDEST SWAP2 POP PUSH2 0x45C DUP3 PUSH2 0x41D JUMP JUMPDEST PUSH1 0x20 DUP3 ADD SWAP1 POP SWAP2 SWAP1 POP JUMP JUMPDEST PUSH0 PUSH1 0x20 DUP3 ADD SWAP1 POP DUP2 DUP2 SUB PUSH0 DUP4 ADD MSTORE PUSH2 0x47E DUP2 PUSH2 0x445 JUMP JUMPDEST SWAP1 POP SWAP2 SWAP1 POP JUMP JUMPDEST PUSH0 DUP2 SWAP1 POP SWAP3 SWAP2 POP POP JUMP JUMPDEST POP JUMP JUMPDEST PUSH0 PUSH2 0x49D PUSH0 DUP4 PUSH2 0x485 JUMP JUMPDEST SWAP2 POP PUSH2 0x4A8 DUP3 PUSH2 0x48F JUMP JUMPDEST PUSH0 DUP3 ADD SWAP1 POP SWAP2 SWAP1 POP JUMP JUMPDEST PUSH0 PUSH2 0x4BC DUP3 PUSH2 0x492 JUMP JUMPDEST SWAP2 POP DUP2 SWAP1 POP SWAP2 SWAP1 POP JUMP JUMPDEST PUSH32 0x63616C6C206572726F7200000000000000000000000000000000000000000000 PUSH0 DUP3 ADD MSTORE POP JUMP JUMPDEST PUSH0 PUSH2 0x4FA PUSH1 0xA DUP4 PUSH2 0x3A5 JUMP JUMPDEST SWAP2 POP PUSH2 0x505 DUP3 PUSH2 0x4C6 JUMP JUMPDEST PUSH1 0x20 DUP3 ADD SWAP1 POP SWAP2 SWAP1 POP JUMP JUMPDEST PUSH0 PUSH1 0x20 DUP3 ADD SWAP1 POP DUP2 DUP2 SUB PUSH0 DUP4 ADD MSTORE PUSH2 0x527 DUP2 PUSH2 0x4EE JUMP JUMPDEST SWAP1 POP SWAP2 SWAP1 POP JUMP INVALID LOG2 PUSH5 0x6970667358 0x22 SLT KECCAK256 PUSH21 0xB23FEE171EDEF16AC2DDF2198D171123D448AC19CA STOP INVALID PUSH21 0xE68EDC972E9DBF64736F6C634300081A0033000000 "
				},
				"gasEstimates": {
					"creation": {
						"codeDepositCost": "276000",
						"executionCost": "292",
						"totalCost": "276292"
					},
					"external": {
						"callETH(address,uint256)": "infinite",
						"sendETH(address,uint256)": "infinite",
						"transferETH(address,uint256)": "infinite"
					}
				},
				"methodIdentifiers": {
					"callETH(address,uint256)": "8419cf50",
					"sendETH(address,uint256)": "64a197f3",
					"transferETH(address,uint256)": "7b1a4909"
				}
			},
			"storageLayout": {
				"storage": [],
				"types": null
			},
			"userdoc": {
				"kind": "user",
				"methods": {},
				"notice": "三种方式向合约转账",
				"version": 1
			}
		}
	}
}