{
	"contracts/solidity/solidity102/Selector.sol": {
		"Selector": {
			"abi": [
				{
					"anonymous": false,
					"inputs": [
						{
							"indexed": false,
							"internalType": "bytes",
							"name": "data",
							"type": "bytes"
						}
					],
					"name": "Log",
					"type": "event"
				},
				{
					"anonymous": false,
					"inputs": [
						{
							"indexed": false,
							"internalType": "bytes4",
							"name": "",
							"type": "bytes4"
						}
					],
					"name": "SelectorEvent",
					"type": "event"
				},
				{
					"inputs": [],
					"name": "callWithSignature",
					"outputs": [],
					"stateMutability": "nonpayable",
					"type": "function"
				},
				{
					"inputs": [
						{
							"internalType": "uint256",
							"name": "param1",
							"type": "uint256"
						},
						{
							"internalType": "bool",
							"name": "param2",
							"type": "bool"
						}
					],
					"name": "elementaryParamSelector",
					"outputs": [
						{
							"internalType": "bytes4",
							"name": "selectorWithElementaryParam",
							"type": "bytes4"
						}
					],
					"stateMutability": "nonpayable",
					"type": "function"
				},
				{
					"inputs": [
						{
							"internalType": "uint256[3]",
							"name": "param1",
							"type": "uint256[3]"
						}
					],
					"name": "fixedSizeParamSelector",
					"outputs": [
						{
							"internalType": "bytes4",
							"name": "selectorWithFixedSizeParam",
							"type": "bytes4"
						}
					],
					"stateMutability": "nonpayable",
					"type": "function"
				},
				{
					"inputs": [
						{
							"internalType": "contract DemoContract",
							"name": "demo",
							"type": "address"
						},
						{
							"components": [
								{
									"internalType": "uint256",
									"name": "uid",
									"type": "uint256"
								},
								{
									"internalType": "bytes",
									"name": "name",
									"type": "bytes"
								}
							],
							"internalType": "struct Selector.User",
							"name": "user",
							"type": "tuple"
						},
						{
							"internalType": "uint256[]",
							"name": "count",
							"type": "uint256[]"
						},
						{
							"internalType": "enum Selector.School",
							"name": "mySchool",
							"type": "uint8"
						}
					],
					"name": "mappingParamSelector",
					"outputs": [
						{
							"internalType": "bytes4",
							"name": "selectorWithMappingParam",
							"type": "bytes4"
						}
					],
					"stateMutability": "nonpayable",
					"type": "function"
				},
				{
					"inputs": [
						{
							"internalType": "address",
							"name": "",
							"type": "address"
						}
					],
					"name": "mint",
					"outputs": [],
					"stateMutability": "nonpayable",
					"type": "function"
				},
				{
					"inputs": [],
					"name": "mintSelector",
					"outputs": [
						{
							"internalType": "bytes4",
							"name": "mSelector",
							"type": "bytes4"
						}
					],
					"stateMutability": "pure",
					"type": "function"
				},
				{
					"inputs": [
						{
							"internalType": "uint256[]",
							"name": "param1",
							"type": "uint256[]"
						},
						{
							"internalType": "string",
							"name": "param2",
							"type": "string"
						}
					],
					"name": "nonFixedSizeParamSelector",
					"outputs": [
						{
							"internalType": "bytes4",
							"name": "selectorWithNonFixedSizeParam",
							"type": "bytes4"
						}
					],
					"stateMutability": "nonpayable",
					"type": "function"
				},
				{
					"inputs": [
						{
							"internalType": "address",
							"name": "recipient",
							"type": "address"
						},
						{
							"internalType": "uint256",
							"name": "amount",
							"type": "uint256"
						}
					],
					"name": "transfer",
					"outputs": [
						{
							"internalType": "bool",
							"name": "",
							"type": "bool"
						}
					],
					"stateMutability": "nonpayable",
					"type": "function"
				},
				{
					"inputs": [],
					"name": "transferSelector",
					"outputs": [
						{
							"internalType": "bytes4",
							"name": "mSelector",
							"type": "bytes4"
						}
					],
					"stateMutability": "pure",
					"type": "function"
				}
			],
			"devdoc": {
				"kind": "dev",
				"methods": {},
				"version": 1
			},
			"evm": {
				"assembly": "    /* \"contracts/solidity/solidity102/Selector.sol\":115:4315  contract Selector {... */\n  mstore(0x40, 0x80)\n  callvalue\n  dup1\n  iszero\n  tag_1\n  jumpi\n  0x00\n  dup1\n  revert\ntag_1:\n  pop\n  dataSize(sub_0)\n  dup1\n  dataOffset(sub_0)\n  0x00\n  codecopy\n  0x00\n  return\nstop\n\nsub_0: assembly {\n        /* \"contracts/solidity/solidity102/Selector.sol\":115:4315  contract Selector {... */\n      mstore(0x40, 0x80)\n      callvalue\n      dup1\n      iszero\n      tag_1\n      jumpi\n      0x00\n      dup1\n      revert\n    tag_1:\n      pop\n      jumpi(tag_2, lt(calldatasize, 0x04))\n      shr(0xe0, calldataload(0x00))\n      dup1\n      0x6a627842\n      gt\n      tag_12\n      jumpi\n      dup1\n      0x6a627842\n      eq\n      tag_7\n      jumpi\n      dup1\n      0xa9059cbb\n      eq\n      tag_8\n      jumpi\n      dup1\n      0xe355b0ce\n      eq\n      tag_9\n      jumpi\n      dup1\n      0xead6b8bd\n      eq\n      tag_10\n      jumpi\n      dup1\n      0xf0ca01de\n      eq\n      tag_11\n      jumpi\n      jump(tag_2)\n    tag_12:\n      dup1\n      0x046dab16\n      eq\n      tag_3\n      jumpi\n      dup1\n      0x3ec37834\n      eq\n      tag_4\n      jumpi\n      dup1\n      0x59ebea23\n      eq\n      tag_5\n      jumpi\n      dup1\n      0x5c62f90c\n      eq\n      tag_6\n      jumpi\n    tag_2:\n      0x00\n      dup1\n      revert\n        /* \"contracts/solidity/solidity102/Selector.sol\":240:363  function mintSelector() external pure returns (bytes4 mSelector) {... */\n    tag_3:\n      tag_13\n      tag_14\n      jump\t// in\n    tag_13:\n      mload(0x40)\n      tag_15\n      swap2\n      swap1\n      tag_16\n      jump\t// in\n    tag_15:\n      mload(0x40)\n      dup1\n      swap2\n      sub\n      swap1\n      return\n        /* \"contracts/solidity/solidity102/Selector.sol\":549:834  function elementaryParamSelector(uint256 param1, bool param2)... */\n    tag_4:\n      tag_17\n      0x04\n      dup1\n      calldatasize\n      sub\n      dup2\n      add\n      swap1\n      tag_18\n      swap2\n      swap1\n      tag_19\n      jump\t// in\n    tag_18:\n      tag_20\n      jump\t// in\n    tag_17:\n      mload(0x40)\n      tag_21\n      swap2\n      swap1\n      tag_16\n      jump\t// in\n    tag_21:\n      mload(0x40)\n      dup1\n      swap2\n      sub\n      swap1\n      return\n        /* \"contracts/solidity/solidity102/Selector.sol\":2722:4011  function callWithSignature() external{... */\n    tag_5:\n      tag_22\n      tag_23\n      jump\t// in\n    tag_22:\n      stop\n        /* \"contracts/solidity/solidity102/Selector.sol\":4173:4312  function transferSelector() external pure returns (bytes4 mSelector) {... */\n    tag_6:\n      tag_24\n      tag_25\n      jump\t// in\n    tag_24:\n      mload(0x40)\n      tag_26\n      swap2\n      swap1\n      tag_16\n      jump\t// in\n    tag_26:\n      mload(0x40)\n      dup1\n      swap2\n      sub\n      swap1\n      return\n        /* \"contracts/solidity/solidity102/Selector.sol\":167:234  function mint(address) external {... */\n    tag_7:\n      tag_27\n      0x04\n      dup1\n      calldatasize\n      sub\n      dup2\n      add\n      swap1\n      tag_28\n      swap2\n      swap1\n      tag_29\n      jump\t// in\n    tag_28:\n      tag_30\n      jump\t// in\n    tag_27:\n      stop\n        /* \"contracts/solidity/solidity102/Selector.sol\":4016:4171  function transfer(address recipient, uint amount) external  returns (bool) {... */\n    tag_8:\n      tag_31\n      0x04\n      dup1\n      calldatasize\n      sub\n      dup2\n      add\n      swap1\n      tag_32\n      swap2\n      swap1\n      tag_33\n      jump\t// in\n    tag_32:\n      tag_34\n      jump\t// in\n    tag_31:\n      mload(0x40)\n      tag_35\n      swap2\n      swap1\n      tag_36\n      jump\t// in\n    tag_35:\n      mload(0x40)\n      dup1\n      swap2\n      sub\n      swap1\n      return\n        /* \"contracts/solidity/solidity102/Selector.sol\":2231:2678  function mappingParamSelector(... */\n    tag_9:\n      tag_37\n      0x04\n      dup1\n      calldatasize\n      sub\n      dup2\n      add\n      swap1\n      tag_38\n      swap2\n      swap1\n      tag_39\n      jump\t// in\n    tag_38:\n      tag_40\n      jump\t// in\n    tag_37:\n      mload(0x40)\n      tag_41\n      swap2\n      swap1\n      tag_16\n      jump\t// in\n    tag_41:\n      mload(0x40)\n      dup1\n      swap2\n      sub\n      swap1\n      return\n        /* \"contracts/solidity/solidity102/Selector.sol\":984:1304  function fixedSizeParamSelector(uint256[3] memory param1)... */\n    tag_10:\n      tag_42\n      0x04\n      dup1\n      calldatasize\n      sub\n      dup2\n      add\n      swap1\n      tag_43\n      swap2\n      swap1\n      tag_44\n      jump\t// in\n    tag_43:\n      tag_45\n      jump\t// in\n    tag_42:\n      mload(0x40)\n      tag_46\n      swap2\n      swap1\n      tag_16\n      jump\t// in\n    tag_46:\n      mload(0x40)\n      dup1\n      swap2\n      sub\n      swap1\n      return\n        /* \"contracts/solidity/solidity102/Selector.sol\":1484:1801  function nonFixedSizeParamSelector(... */\n    tag_11:\n      tag_47\n      0x04\n      dup1\n      calldatasize\n      sub\n      dup2\n      add\n      swap1\n      tag_48\n      swap2\n      swap1\n      tag_49\n      jump\t// in\n    tag_48:\n      tag_50\n      jump\t// in\n    tag_47:\n      mload(0x40)\n      tag_51\n      swap2\n      swap1\n      tag_16\n      jump\t// in\n    tag_51:\n      mload(0x40)\n      dup1\n      swap2\n      sub\n      swap1\n      return\n        /* \"contracts/solidity/solidity102/Selector.sol\":240:363  function mintSelector() external pure returns (bytes4 mSelector) {... */\n    tag_14:\n        /* \"contracts/solidity/solidity102/Selector.sol\":287:303  bytes4 mSelector */\n      0x00\n        /* \"contracts/solidity/solidity102/Selector.sol\":329:355  keccak256(\"mint(address)\") */\n      0x6a627842f752de95745ef8f3ca67858982b5f585d752f8163e5855050041cb3c\n        /* \"contracts/solidity/solidity102/Selector.sol\":315:356  return bytes4(keccak256(\"mint(address)\")) */\n      swap1\n      pop\n        /* \"contracts/solidity/solidity102/Selector.sol\":240:363  function mintSelector() external pure returns (bytes4 mSelector) {... */\n      swap1\n      jump\t// out\n        /* \"contracts/solidity/solidity102/Selector.sol\":549:834  function elementaryParamSelector(uint256 param1, bool param2)... */\n    tag_20:\n        /* \"contracts/solidity/solidity102/Selector.sol\":645:679  bytes4 selectorWithElementaryParam */\n      0x00\n        /* \"contracts/solidity/solidity102/Selector.sol\":700:752  SelectorEvent(this.elementaryParamSelector.selector) */\n      0x87c76683e354abe8640b03c72d02c9175d9a00a6c0101d5bc4be081b9b8199eb\n        /* \"contracts/solidity/solidity102/Selector.sol\":714:751  this.elementaryParamSelector.selector */\n      shl(0xe0, 0x3ec37834)\n        /* \"contracts/solidity/solidity102/Selector.sol\":700:752  SelectorEvent(this.elementaryParamSelector.selector) */\n      mload(0x40)\n      tag_54\n      swap2\n      swap1\n      tag_16\n      jump\t// in\n    tag_54:\n      mload(0x40)\n      dup1\n      swap2\n      sub\n      swap1\n      log1\n        /* \"contracts/solidity/solidity102/Selector.sol\":776:826  keccak256(\"elementaryParamSelector(uint256,bool)\") */\n      0x3ec3783488bfc90ed98dc398cd67f30f42b252c8ce7d59a4dce63a149c452548\n        /* \"contracts/solidity/solidity102/Selector.sol\":762:827  return bytes4(keccak256(\"elementaryParamSelector(uint256,bool)\")) */\n      swap1\n      pop\n        /* \"contracts/solidity/solidity102/Selector.sol\":549:834  function elementaryParamSelector(uint256 param1, bool param2)... */\n      swap3\n      swap2\n      pop\n      pop\n      jump\t// out\n        /* \"contracts/solidity/solidity102/Selector.sol\":2722:4011  function callWithSignature() external{... */\n    tag_23:\n        /* \"contracts/solidity/solidity102/Selector.sol\":2803:2826  uint256[] memory param1 */\n      0x00\n        /* \"contracts/solidity/solidity102/Selector.sol\":2843:2844  3 */\n      0x03\n        /* \"contracts/solidity/solidity102/Selector.sol\":2829:2845  new uint256[](3) */\n      0xffffffffffffffff\n      dup2\n      gt\n      iszero\n      tag_56\n      jumpi\n      tag_57\n      tag_58\n      jump\t// in\n    tag_57:\n    tag_56:\n      mload(0x40)\n      swap1\n      dup1\n      dup3\n      mstore\n      dup1\n      0x20\n      mul\n      0x20\n      add\n      dup3\n      add\n      0x40\n      mstore\n      dup1\n      iszero\n      tag_59\n      jumpi\n      dup2\n      0x20\n      add\n      0x20\n      dup3\n      mul\n      dup1\n      calldatasize\n      dup4\n      calldatacopy\n      dup1\n      dup3\n      add\n      swap2\n      pop\n      pop\n      swap1\n      pop\n    tag_59:\n      pop\n        /* \"contracts/solidity/solidity102/Selector.sol\":2803:2845  uint256[] memory param1 = new uint256[](3) */\n      swap1\n      pop\n        /* \"contracts/solidity/solidity102/Selector.sol\":2867:2868  1 */\n      0x01\n        /* \"contracts/solidity/solidity102/Selector.sol\":2855:2861  param1 */\n      dup2\n        /* \"contracts/solidity/solidity102/Selector.sol\":2862:2863  0 */\n      0x00\n        /* \"contracts/solidity/solidity102/Selector.sol\":2855:2864  param1[0] */\n      dup2\n      mload\n      dup2\n      lt\n      tag_60\n      jumpi\n      tag_61\n      tag_62\n      jump\t// in\n    tag_61:\n    tag_60:\n      0x20\n      mul\n      0x20\n      add\n      add\n        /* \"contracts/solidity/solidity102/Selector.sol\":2855:2868  param1[0] = 1 */\n      dup2\n      dup2\n      mstore\n      pop\n      pop\n        /* \"contracts/solidity/solidity102/Selector.sol\":2890:2891  2 */\n      0x02\n        /* \"contracts/solidity/solidity102/Selector.sol\":2878:2884  param1 */\n      dup2\n        /* \"contracts/solidity/solidity102/Selector.sol\":2885:2886  1 */\n      0x01\n        /* \"contracts/solidity/solidity102/Selector.sol\":2878:2887  param1[1] */\n      dup2\n      mload\n      dup2\n      lt\n      tag_63\n      jumpi\n      tag_64\n      tag_62\n      jump\t// in\n    tag_64:\n    tag_63:\n      0x20\n      mul\n      0x20\n      add\n      add\n        /* \"contracts/solidity/solidity102/Selector.sol\":2878:2891  param1[1] = 2 */\n      dup2\n      dup2\n      mstore\n      pop\n      pop\n        /* \"contracts/solidity/solidity102/Selector.sol\":2913:2914  3 */\n      0x03\n        /* \"contracts/solidity/solidity102/Selector.sol\":2901:2907  param1 */\n      dup2\n        /* \"contracts/solidity/solidity102/Selector.sol\":2908:2909  2 */\n      0x02\n        /* \"contracts/solidity/solidity102/Selector.sol\":2901:2910  param1[2] */\n      dup2\n      mload\n      dup2\n      lt\n      tag_65\n      jumpi\n      tag_66\n      tag_62\n      jump\t// in\n    tag_66:\n    tag_65:\n      0x20\n      mul\n      0x20\n      add\n      add\n        /* \"contracts/solidity/solidity102/Selector.sol\":2901:2914  param1[2] = 3 */\n      dup2\n      dup2\n      mstore\n      pop\n      pop\n        /* \"contracts/solidity/solidity102/Selector.sol\":2952:2968  User memory user */\n      tag_67\n      tag_68\n      jump\t// in\n    tag_67:\n        /* \"contracts/solidity/solidity102/Selector.sol\":2989:2990  1 */\n      0x01\n        /* \"contracts/solidity/solidity102/Selector.sol\":2978:2982  user */\n      dup2\n        /* \"contracts/solidity/solidity102/Selector.sol\":2978:2986  user.uid */\n      0x00\n      add\n        /* \"contracts/solidity/solidity102/Selector.sol\":2978:2990  user.uid = 1 */\n      dup2\n      dup2\n      mstore\n      pop\n      pop\n        /* \"contracts/solidity/solidity102/Selector.sol\":3000:3020  user.name = \"0xa0b1\" */\n      mload(0x40)\n      dup1\n      0x40\n      add\n      0x40\n      mstore\n      dup1\n      0x06\n      dup2\n      mstore\n      0x20\n      add\n      0x3078613062310000000000000000000000000000000000000000000000000000\n      dup2\n      mstore\n      pop\n        /* \"contracts/solidity/solidity102/Selector.sol\":3000:3004  user */\n      dup2\n        /* \"contracts/solidity/solidity102/Selector.sol\":3000:3009  user.name */\n      0x20\n      add\n        /* \"contracts/solidity/solidity102/Selector.sol\":3000:3020  user.name = \"0xa0b1\" */\n      dup2\n      swap1\n      mstore\n      pop\n        /* \"contracts/solidity/solidity102/Selector.sol\":3153:3166  bool success0 */\n      0x00\n        /* \"contracts/solidity/solidity102/Selector.sol\":3168:3186  bytes memory data0 */\n      dup1\n        /* \"contracts/solidity/solidity102/Selector.sol\":3198:3202  this */\n      address\n        /* \"contracts/solidity/solidity102/Selector.sol\":3190:3208  address(this).call */\n      0xffffffffffffffffffffffffffffffffffffffff\n      and\n        /* \"contracts/solidity/solidity102/Selector.sol\":3232:3242  0x03817936 */\n      0x03817936\n        /* \"contracts/solidity/solidity102/Selector.sol\":3209:3243  abi.encodeWithSelector(0x03817936) */\n      add(0x24, mload(0x40))\n      mload(0x40)\n      0x20\n      dup2\n      dup4\n      sub\n      sub\n      dup2\n      mstore\n      swap1\n      0x40\n      mstore\n      swap1\n      0xe0\n      shl\n      0x20\n      dup3\n      add\n      dup1\n      mload\n      0xffffffffffffffffffffffffffffffffffffffffffffffffffffffff\n      dup4\n      dup2\n      dup4\n      and\n      or\n      dup4\n      mstore\n      pop\n      pop\n      pop\n      pop\n        /* \"contracts/solidity/solidity102/Selector.sol\":3190:3244  address(this).call(abi.encodeWithSelector(0x03817936)) */\n      mload(0x40)\n      tag_69\n      swap2\n      swap1\n      tag_70\n      jump\t// in\n    tag_69:\n      0x00\n      mload(0x40)\n      dup1\n      dup4\n      sub\n      dup2\n      0x00\n      dup7\n      gas\n      call\n      swap2\n      pop\n      pop\n      returndatasize\n      dup1\n      0x00\n      dup2\n      eq\n      tag_73\n      jumpi\n      mload(0x40)\n      swap2\n      pop\n      and(add(returndatasize, 0x3f), not(0x1f))\n      dup3\n      add\n      0x40\n      mstore\n      returndatasize\n      dup3\n      mstore\n      returndatasize\n      0x00\n      0x20\n      dup5\n      add\n      returndatacopy\n      jump(tag_72)\n    tag_73:\n      0x60\n      swap2\n      pop\n    tag_72:\n      pop\n        /* \"contracts/solidity/solidity102/Selector.sol\":3152:3244  (bool success0, bytes memory data0) = address(this).call(abi.encodeWithSelector(0x03817936)) */\n      swap2\n      pop\n      swap2\n      pop\n        /* \"contracts/solidity/solidity102/Selector.sol\":3302:3315  bool success1 */\n      0x00\n        /* \"contracts/solidity/solidity102/Selector.sol\":3317:3335  bytes memory data1 */\n      dup1\n        /* \"contracts/solidity/solidity102/Selector.sol\":3347:3351  this */\n      address\n        /* \"contracts/solidity/solidity102/Selector.sol\":3339:3357  address(this).call */\n      0xffffffffffffffffffffffffffffffffffffffff\n      and\n        /* \"contracts/solidity/solidity102/Selector.sol\":3381:3391  0x3ec37834 */\n      0x3ec37834\n        /* \"contracts/solidity/solidity102/Selector.sol\":3393:3394  1 */\n      0x01\n        /* \"contracts/solidity/solidity102/Selector.sol\":3396:3397  0 */\n      0x00\n        /* \"contracts/solidity/solidity102/Selector.sol\":3358:3398  abi.encodeWithSelector(0x3ec37834, 1, 0) */\n      add(0x24, mload(0x40))\n      tag_74\n      swap3\n      swap2\n      swap1\n      tag_75\n      jump\t// in\n    tag_74:\n      mload(0x40)\n      0x20\n      dup2\n      dup4\n      sub\n      sub\n      dup2\n      mstore\n      swap1\n      0x40\n      mstore\n      swap1\n      0xe0\n      shl\n      0x20\n      dup3\n      add\n      dup1\n      mload\n      0xffffffffffffffffffffffffffffffffffffffffffffffffffffffff\n      dup4\n      dup2\n      dup4\n      and\n      or\n      dup4\n      mstore\n      pop\n      pop\n      pop\n      pop\n        /* \"contracts/solidity/solidity102/Selector.sol\":3339:3399  address(this).call(abi.encodeWithSelector(0x3ec37834, 1, 0)) */\n      mload(0x40)\n      tag_76\n      swap2\n      swap1\n      tag_70\n      jump\t// in\n    tag_76:\n      0x00\n      mload(0x40)\n      dup1\n      dup4\n      sub\n      dup2\n      0x00\n      dup7\n      gas\n      call\n      swap2\n      pop\n      pop\n      returndatasize\n      dup1\n      0x00\n      dup2\n      eq\n      tag_79\n      jumpi\n      mload(0x40)\n      swap2\n      pop\n      and(add(returndatasize, 0x3f), not(0x1f))\n      dup3\n      add\n      0x40\n      mstore\n      returndatasize\n      dup3\n      mstore\n      returndatasize\n      0x00\n      0x20\n      dup5\n      add\n      returndatacopy\n      jump(tag_78)\n    tag_79:\n      0x60\n      swap2\n      pop\n    tag_78:\n      pop\n        /* \"contracts/solidity/solidity102/Selector.sol\":3301:3399  (bool success1, bytes memory data1) = address(this).call(abi.encodeWithSelector(0x3ec37834, 1, 0)) */\n      swap2\n      pop\n      swap2\n      pop\n        /* \"contracts/solidity/solidity102/Selector.sol\":3456:3469  bool success2 */\n      0x00\n        /* \"contracts/solidity/solidity102/Selector.sol\":3471:3489  bytes memory data2 */\n      dup1\n        /* \"contracts/solidity/solidity102/Selector.sol\":3501:3505  this */\n      address\n        /* \"contracts/solidity/solidity102/Selector.sol\":3493:3511  address(this).call */\n      0xffffffffffffffffffffffffffffffffffffffff\n      and\n        /* \"contracts/solidity/solidity102/Selector.sol\":3535:3545  0xead6b8bd */\n      0xead6b8bd\n        /* \"contracts/solidity/solidity102/Selector.sol\":3512:3555  abi.encodeWithSelector(0xead6b8bd, [1,2,3]) */\n      mload(0x40)\n      dup1\n      0x60\n      add\n      0x40\n      mstore\n      dup1\n        /* \"contracts/solidity/solidity102/Selector.sol\":3548:3549  1 */\n      0x01\n        /* \"contracts/solidity/solidity102/Selector.sol\":3512:3555  abi.encodeWithSelector(0xead6b8bd, [1,2,3]) */\n      0xff\n      and\n      dup2\n      mstore\n      0x20\n      add\n        /* \"contracts/solidity/solidity102/Selector.sol\":3550:3551  2 */\n      0x02\n        /* \"contracts/solidity/solidity102/Selector.sol\":3512:3555  abi.encodeWithSelector(0xead6b8bd, [1,2,3]) */\n      0xff\n      and\n      dup2\n      mstore\n      0x20\n      add\n        /* \"contracts/solidity/solidity102/Selector.sol\":3552:3553  3 */\n      0x03\n        /* \"contracts/solidity/solidity102/Selector.sol\":3512:3555  abi.encodeWithSelector(0xead6b8bd, [1,2,3]) */\n      0xff\n      and\n      dup2\n      mstore\n      pop\n      add(0x24, mload(0x40))\n      tag_80\n      swap2\n      swap1\n      tag_81\n      jump\t// in\n    tag_80:\n      mload(0x40)\n      0x20\n      dup2\n      dup4\n      sub\n      sub\n      dup2\n      mstore\n      swap1\n      0x40\n      mstore\n      swap1\n      0xe0\n      shl\n      0x20\n      dup3\n      add\n      dup1\n      mload\n      0xffffffffffffffffffffffffffffffffffffffffffffffffffffffff\n      dup4\n      dup2\n      dup4\n      and\n      or\n      dup4\n      mstore\n      pop\n      pop\n      pop\n      pop\n        /* \"contracts/solidity/solidity102/Selector.sol\":3493:3556  address(this).call(abi.encodeWithSelector(0xead6b8bd, [1,2,3])) */\n      mload(0x40)\n      tag_82\n      swap2\n      swap1\n      tag_70\n      jump\t// in\n    tag_82:\n      0x00\n      mload(0x40)\n      dup1\n      dup4\n      sub\n      dup2\n      0x00\n      dup7\n      gas\n      call\n      swap2\n      pop\n      pop\n      returndatasize\n      dup1\n      0x00\n      dup2\n      eq\n      tag_85\n      jumpi\n      mload(0x40)\n      swap2\n      pop\n      and(add(returndatasize, 0x3f), not(0x1f))\n      dup3\n      add\n      0x40\n      mstore\n      returndatasize\n      dup3\n      mstore\n      returndatasize\n      0x00\n      0x20\n      dup5\n      add\n      returndatacopy\n      jump(tag_84)\n    tag_85:\n      0x60\n      swap2\n      pop\n    tag_84:\n      pop\n        /* \"contracts/solidity/solidity102/Selector.sol\":3455:3556  (bool success2, bytes memory data2) = address(this).call(abi.encodeWithSelector(0xead6b8bd, [1,2,3])) */\n      swap2\n      pop\n      swap2\n      pop\n        /* \"contracts/solidity/solidity102/Selector.sol\":3616:3629  bool success3 */\n      0x00\n        /* \"contracts/solidity/solidity102/Selector.sol\":3631:3649  bytes memory data3 */\n      dup1\n        /* \"contracts/solidity/solidity102/Selector.sol\":3661:3665  this */\n      address\n        /* \"contracts/solidity/solidity102/Selector.sol\":3653:3671  address(this).call */\n      0xffffffffffffffffffffffffffffffffffffffff\n      and\n        /* \"contracts/solidity/solidity102/Selector.sol\":3695:3705  0xf0ca01de */\n      0xf0ca01de\n        /* \"contracts/solidity/solidity102/Selector.sol\":3707:3713  param1 */\n      dup12\n        /* \"contracts/solidity/solidity102/Selector.sol\":3672:3721  abi.encodeWithSelector(0xf0ca01de, param1, \"abc\") */\n      add(0x24, mload(0x40))\n      tag_86\n      swap2\n      swap1\n      tag_87\n      jump\t// in\n    tag_86:\n      mload(0x40)\n      0x20\n      dup2\n      dup4\n      sub\n      sub\n      dup2\n      mstore\n      swap1\n      0x40\n      mstore\n      swap1\n      0xe0\n      shl\n      0x20\n      dup3\n      add\n      dup1\n      mload\n      0xffffffffffffffffffffffffffffffffffffffffffffffffffffffff\n      dup4\n      dup2\n      dup4\n      and\n      or\n      dup4\n      mstore\n      pop\n      pop\n      pop\n      pop\n        /* \"contracts/solidity/solidity102/Selector.sol\":3653:3722  address(this).call(abi.encodeWithSelector(0xf0ca01de, param1, \"abc\")) */\n      mload(0x40)\n      tag_88\n      swap2\n      swap1\n      tag_70\n      jump\t// in\n    tag_88:\n      0x00\n      mload(0x40)\n      dup1\n      dup4\n      sub\n      dup2\n      0x00\n      dup7\n      gas\n      call\n      swap2\n      pop\n      pop\n      returndatasize\n      dup1\n      0x00\n      dup2\n      eq\n      tag_91\n      jumpi\n      mload(0x40)\n      swap2\n      pop\n      and(add(returndatasize, 0x3f), not(0x1f))\n      dup3\n      add\n      0x40\n      mstore\n      returndatasize\n      dup3\n      mstore\n      returndatasize\n      0x00\n      0x20\n      dup5\n      add\n      returndatacopy\n      jump(tag_90)\n    tag_91:\n      0x60\n      swap2\n      pop\n    tag_90:\n      pop\n        /* \"contracts/solidity/solidity102/Selector.sol\":3615:3722  (bool success3, bytes memory data3) = address(this).call(abi.encodeWithSelector(0xf0ca01de, param1, \"abc\")) */\n      swap2\n      pop\n      swap2\n      pop\n        /* \"contracts/solidity/solidity102/Selector.sol\":3777:3790  bool success4 */\n      0x00\n        /* \"contracts/solidity/solidity102/Selector.sol\":3792:3810  bytes memory data4 */\n      dup1\n        /* \"contracts/solidity/solidity102/Selector.sol\":3822:3826  this */\n      address\n        /* \"contracts/solidity/solidity102/Selector.sol\":3814:3832  address(this).call */\n      0xffffffffffffffffffffffffffffffffffffffff\n      and\n        /* \"contracts/solidity/solidity102/Selector.sol\":3856:3866  0xe355b0ce */\n      0xe355b0ce\n        /* \"contracts/solidity/solidity102/Selector.sol\":3868:3910  0x9D7f74d0C41E726EC95884E0e97Fa6129e3b5E99 */\n      0x9d7f74d0c41e726ec95884e0e97fa6129e3b5e99\n        /* \"contracts/solidity/solidity102/Selector.sol\":3912:3916  user */\n      dup14\n        /* \"contracts/solidity/solidity102/Selector.sol\":3918:3924  param1 */\n      dup16\n        /* \"contracts/solidity/solidity102/Selector.sol\":3926:3927  1 */\n      0x01\n        /* \"contracts/solidity/solidity102/Selector.sol\":3833:3928  abi.encodeWithSelector(0xe355b0ce, 0x9D7f74d0C41E726EC95884E0e97Fa6129e3b5E99, user, param1, 1) */\n      add(0x24, mload(0x40))\n      tag_92\n      swap5\n      swap4\n      swap3\n      swap2\n      swap1\n      tag_93\n      jump\t// in\n    tag_92:\n      mload(0x40)\n      0x20\n      dup2\n      dup4\n      sub\n      sub\n      dup2\n      mstore\n      swap1\n      0x40\n      mstore\n      swap1\n      0xe0\n      shl\n      0x20\n      dup3\n      add\n      dup1\n      mload\n      0xffffffffffffffffffffffffffffffffffffffffffffffffffffffff\n      dup4\n      dup2\n      dup4\n      and\n      or\n      dup4\n      mstore\n      pop\n      pop\n      pop\n      pop\n        /* \"contracts/solidity/solidity102/Selector.sol\":3814:3929  address(this).call(abi.encodeWithSelector(0xe355b0ce, 0x9D7f74d0C41E726EC95884E0e97Fa6129e3b5E99, user, param1, 1)) */\n      mload(0x40)\n      tag_94\n      swap2\n      swap1\n      tag_70\n      jump\t// in\n    tag_94:\n      0x00\n      mload(0x40)\n      dup1\n      dup4\n      sub\n      dup2\n      0x00\n      dup7\n      gas\n      call\n      swap2\n      pop\n      pop\n      returndatasize\n      dup1\n      0x00\n      dup2\n      eq\n      tag_97\n      jumpi\n      mload(0x40)\n      swap2\n      pop\n      and(add(returndatasize, 0x3f), not(0x1f))\n      dup3\n      add\n      0x40\n      mstore\n      returndatasize\n      dup3\n      mstore\n      returndatasize\n      0x00\n      0x20\n      dup5\n      add\n      returndatacopy\n      jump(tag_96)\n    tag_97:\n      0x60\n      swap2\n      pop\n    tag_96:\n      pop\n        /* \"contracts/solidity/solidity102/Selector.sol\":3776:3929  (bool success4, bytes memory data4) = address(this).call(abi.encodeWithSelector(0xe355b0ce, 0x9D7f74d0C41E726EC95884E0e97Fa6129e3b5E99, user, param1, 1)) */\n      swap2\n      pop\n      swap2\n      pop\n        /* \"contracts/solidity/solidity102/Selector.sol\":3947:3955  success0 */\n      dup10\n        /* \"contracts/solidity/solidity102/Selector.sol\":3947:3967  success0 && success1 */\n      dup1\n      iszero\n      tag_98\n      jumpi\n      pop\n        /* \"contracts/solidity/solidity102/Selector.sol\":3959:3967  success1 */\n      dup8\n        /* \"contracts/solidity/solidity102/Selector.sol\":3947:3967  success0 && success1 */\n    tag_98:\n        /* \"contracts/solidity/solidity102/Selector.sol\":3947:3979  success0 && success1 && success2 */\n      dup1\n      iszero\n      tag_99\n      jumpi\n      pop\n        /* \"contracts/solidity/solidity102/Selector.sol\":3971:3979  success2 */\n      dup6\n        /* \"contracts/solidity/solidity102/Selector.sol\":3947:3979  success0 && success1 && success2 */\n    tag_99:\n        /* \"contracts/solidity/solidity102/Selector.sol\":3947:3991  success0 && success1 && success2 && success3 */\n      dup1\n      iszero\n      tag_100\n      jumpi\n      pop\n        /* \"contracts/solidity/solidity102/Selector.sol\":3983:3991  success3 */\n      dup4\n        /* \"contracts/solidity/solidity102/Selector.sol\":3947:3991  success0 && success1 && success2 && success3 */\n    tag_100:\n        /* \"contracts/solidity/solidity102/Selector.sol\":3947:4003  success0 && success1 && success2 && success3 && success4 */\n      dup1\n      iszero\n      tag_101\n      jumpi\n      pop\n        /* \"contracts/solidity/solidity102/Selector.sol\":3995:4003  success4 */\n      dup2\n        /* \"contracts/solidity/solidity102/Selector.sol\":3947:4003  success0 && success1 && success2 && success3 && success4 */\n    tag_101:\n        /* \"contracts/solidity/solidity102/Selector.sol\":3939:4004  require(success0 && success1 && success2 && success3 && success4) */\n      tag_102\n      jumpi\n      0x00\n      dup1\n      revert\n    tag_102:\n        /* \"contracts/solidity/solidity102/Selector.sol\":2759:4011  {... */\n      pop\n      pop\n      pop\n      pop\n      pop\n      pop\n      pop\n      pop\n      pop\n      pop\n      pop\n      pop\n        /* \"contracts/solidity/solidity102/Selector.sol\":2722:4011  function callWithSignature() external{... */\n      jump\t// out\n        /* \"contracts/solidity/solidity102/Selector.sol\":4173:4312  function transferSelector() external pure returns (bytes4 mSelector) {... */\n    tag_25:\n        /* \"contracts/solidity/solidity102/Selector.sol\":4224:4240  bytes4 mSelector */\n      0x00\n        /* \"contracts/solidity/solidity102/Selector.sol\":4266:4304  keccak256(\"transfer(address,uint256)\") */\n      0xa9059cbb2ab09eb219583f4a59a5d0623ade346d962bcd4e46b11da047c9049b\n        /* \"contracts/solidity/solidity102/Selector.sol\":4252:4305  return bytes4(keccak256(\"transfer(address,uint256)\")) */\n      swap1\n      pop\n        /* \"contracts/solidity/solidity102/Selector.sol\":4173:4312  function transferSelector() external pure returns (bytes4 mSelector) {... */\n      swap1\n      jump\t// out\n        /* \"contracts/solidity/solidity102/Selector.sol\":167:234  function mint(address) external {... */\n    tag_30:\n        /* \"contracts/solidity/solidity102/Selector.sol\":214:227  Log(msg.data) */\n      0xafabcf2dd47e06a477a89e49c03f8ebe8e0a7e94f775b25bbb24227c9d0110b2\n        /* \"contracts/solidity/solidity102/Selector.sol\":218:226  msg.data */\n      0x00\n      calldatasize\n        /* \"contracts/solidity/solidity102/Selector.sol\":214:227  Log(msg.data) */\n      mload(0x40)\n      tag_105\n      swap3\n      swap2\n      swap1\n      tag_106\n      jump\t// in\n    tag_105:\n      mload(0x40)\n      dup1\n      swap2\n      sub\n      swap1\n      log1\n        /* \"contracts/solidity/solidity102/Selector.sol\":167:234  function mint(address) external {... */\n      pop\n      jump\t// out\n        /* \"contracts/solidity/solidity102/Selector.sol\":4016:4171  function transfer(address recipient, uint amount) external  returns (bool) {... */\n    tag_34:\n        /* \"contracts/solidity/solidity102/Selector.sol\":4085:4089  bool */\n      0x00\n        /* \"contracts/solidity/solidity102/Selector.sol\":4106:4143  SelectorEvent(this.transfer.selector) */\n      0x87c76683e354abe8640b03c72d02c9175d9a00a6c0101d5bc4be081b9b8199eb\n        /* \"contracts/solidity/solidity102/Selector.sol\":4120:4142  this.transfer.selector */\n      shl(0xe0, 0xa9059cbb)\n        /* \"contracts/solidity/solidity102/Selector.sol\":4106:4143  SelectorEvent(this.transfer.selector) */\n      mload(0x40)\n      tag_108\n      swap2\n      swap1\n      tag_16\n      jump\t// in\n    tag_108:\n      mload(0x40)\n      dup1\n      swap2\n      sub\n      swap1\n      log1\n        /* \"contracts/solidity/solidity102/Selector.sol\":4160:4164  true */\n      0x01\n        /* \"contracts/solidity/solidity102/Selector.sol\":4153:4164  return true */\n      swap1\n      pop\n        /* \"contracts/solidity/solidity102/Selector.sol\":4016:4171  function transfer(address recipient, uint amount) external  returns (bool) {... */\n      swap3\n      swap2\n      pop\n      pop\n      jump\t// out\n        /* \"contracts/solidity/solidity102/Selector.sol\":2231:2678  function mappingParamSelector(... */\n    tag_40:\n        /* \"contracts/solidity/solidity102/Selector.sol\":2395:2426  bytes4 selectorWithMappingParam */\n      0x00\n        /* \"contracts/solidity/solidity102/Selector.sol\":2443:2492  SelectorEvent(this.mappingParamSelector.selector) */\n      0x87c76683e354abe8640b03c72d02c9175d9a00a6c0101d5bc4be081b9b8199eb\n        /* \"contracts/solidity/solidity102/Selector.sol\":2457:2491  this.mappingParamSelector.selector */\n      shl(0xe0, 0xe355b0ce)\n        /* \"contracts/solidity/solidity102/Selector.sol\":2443:2492  SelectorEvent(this.mappingParamSelector.selector) */\n      mload(0x40)\n      tag_110\n      swap2\n      swap1\n      tag_16\n      jump\t// in\n    tag_110:\n      mload(0x40)\n      dup1\n      swap2\n      sub\n      swap1\n      log1\n        /* \"contracts/solidity/solidity102/Selector.sol\":2545:2657  keccak256(... */\n      0xe355b0ceecdc5a85bc460808aed3b4d8eaa7935dbf79d2db6ffcf71e5c352576\n        /* \"contracts/solidity/solidity102/Selector.sol\":2502:2671  return... */\n      swap1\n      pop\n        /* \"contracts/solidity/solidity102/Selector.sol\":2231:2678  function mappingParamSelector(... */\n      swap5\n      swap4\n      pop\n      pop\n      pop\n      pop\n      jump\t// out\n        /* \"contracts/solidity/solidity102/Selector.sol\":984:1304  function fixedSizeParamSelector(uint256[3] memory param1)... */\n    tag_45:\n        /* \"contracts/solidity/solidity102/Selector.sol\":1076:1109  bytes4 selectorWithFixedSizeParam */\n      0x00\n        /* \"contracts/solidity/solidity102/Selector.sol\":1130:1181  SelectorEvent(this.fixedSizeParamSelector.selector) */\n      0x87c76683e354abe8640b03c72d02c9175d9a00a6c0101d5bc4be081b9b8199eb\n        /* \"contracts/solidity/solidity102/Selector.sol\":1144:1180  this.fixedSizeParamSelector.selector */\n      shl(0xe0, 0xead6b8bd)\n        /* \"contracts/solidity/solidity102/Selector.sol\":1130:1181  SelectorEvent(this.fixedSizeParamSelector.selector) */\n      mload(0x40)\n      tag_112\n      swap2\n      swap1\n      tag_16\n      jump\t// in\n    tag_112:\n      mload(0x40)\n      dup1\n      swap2\n      sub\n      swap1\n      log1\n        /* \"contracts/solidity/solidity102/Selector.sol\":1240:1287  keccak256(\"fixedSizeParamSelector(uint256[3])\") */\n      0xead6b8bdece33532847146a6fe63967e794ef7c18f3b888ae6fb3aebb4ef1b95\n        /* \"contracts/solidity/solidity102/Selector.sol\":1191:1297  selectorWithFixedSizeParam = bytes4(... */\n      swap1\n      pop\n        /* \"contracts/solidity/solidity102/Selector.sol\":984:1304  function fixedSizeParamSelector(uint256[3] memory param1)... */\n      swap2\n      swap1\n      pop\n      jump\t// out\n        /* \"contracts/solidity/solidity102/Selector.sol\":1484:1801  function nonFixedSizeParamSelector(... */\n    tag_50:\n        /* \"contracts/solidity/solidity102/Selector.sol\":1606:1642  bytes4 selectorWithNonFixedSizeParam */\n      0x00\n        /* \"contracts/solidity/solidity102/Selector.sol\":1659:1713  SelectorEvent(this.nonFixedSizeParamSelector.selector) */\n      0x87c76683e354abe8640b03c72d02c9175d9a00a6c0101d5bc4be081b9b8199eb\n        /* \"contracts/solidity/solidity102/Selector.sol\":1673:1712  this.nonFixedSizeParamSelector.selector */\n      shl(0xe0, 0xf0ca01de)\n        /* \"contracts/solidity/solidity102/Selector.sol\":1659:1713  SelectorEvent(this.nonFixedSizeParamSelector.selector) */\n      mload(0x40)\n      tag_114\n      swap2\n      swap1\n      tag_16\n      jump\t// in\n    tag_114:\n      mload(0x40)\n      dup1\n      swap2\n      sub\n      swap1\n      log1\n        /* \"contracts/solidity/solidity102/Selector.sol\":1737:1793  keccak256(\"nonFixedSizeParamSelector(uint256[],string)\") */\n      0xf0ca01de95639524000d6ff4e9309b96c7f67f7961bf24b33f8b20e85f6ad977\n        /* \"contracts/solidity/solidity102/Selector.sol\":1723:1794  return bytes4(keccak256(\"nonFixedSizeParamSelector(uint256[],string)\")) */\n      swap1\n      pop\n        /* \"contracts/solidity/solidity102/Selector.sol\":1484:1801  function nonFixedSizeParamSelector(... */\n      swap3\n      swap2\n      pop\n      pop\n      jump\t// out\n    tag_68:\n      mload(0x40)\n      dup1\n      0x40\n      add\n      0x40\n      mstore\n      dup1\n      0x00\n      dup2\n      mstore\n      0x20\n      add\n      0x60\n      dup2\n      mstore\n      pop\n      swap1\n      jump\t// out\n        /* \"#utility.yul\":7:156   */\n    tag_115:\n        /* \"#utility.yul\":43:50   */\n      0x00\n        /* \"#utility.yul\":83:149   */\n      0xffffffff00000000000000000000000000000000000000000000000000000000\n        /* \"#utility.yul\":76:81   */\n      dup3\n        /* \"#utility.yul\":72:150   */\n      and\n        /* \"#utility.yul\":61:150   */\n      swap1\n      pop\n        /* \"#utility.yul\":7:156   */\n      swap2\n      swap1\n      pop\n      jump\t// out\n        /* \"#utility.yul\":162:277   */\n    tag_116:\n        /* \"#utility.yul\":247:270   */\n      tag_196\n        /* \"#utility.yul\":264:269   */\n      dup2\n        /* \"#utility.yul\":247:270   */\n      tag_115\n      jump\t// in\n    tag_196:\n        /* \"#utility.yul\":242:245   */\n      dup3\n        /* \"#utility.yul\":235:271   */\n      mstore\n        /* \"#utility.yul\":162:277   */\n      pop\n      pop\n      jump\t// out\n        /* \"#utility.yul\":283:501   */\n    tag_16:\n        /* \"#utility.yul\":374:378   */\n      0x00\n        /* \"#utility.yul\":412:414   */\n      0x20\n        /* \"#utility.yul\":401:410   */\n      dup3\n        /* \"#utility.yul\":397:415   */\n      add\n        /* \"#utility.yul\":389:415   */\n      swap1\n      pop\n        /* \"#utility.yul\":425:494   */\n      tag_198\n        /* \"#utility.yul\":491:492   */\n      0x00\n        /* \"#utility.yul\":480:489   */\n      dup4\n        /* \"#utility.yul\":476:493   */\n      add\n        /* \"#utility.yul\":467:473   */\n      dup5\n        /* \"#utility.yul\":425:494   */\n      tag_116\n      jump\t// in\n    tag_198:\n        /* \"#utility.yul\":283:501   */\n      swap3\n      swap2\n      pop\n      pop\n      jump\t// out\n        /* \"#utility.yul\":507:582   */\n    tag_117:\n        /* \"#utility.yul\":540:546   */\n      0x00\n        /* \"#utility.yul\":573:575   */\n      0x40\n        /* \"#utility.yul\":567:576   */\n      mload\n        /* \"#utility.yul\":557:576   */\n      swap1\n      pop\n        /* \"#utility.yul\":507:582   */\n      swap1\n      jump\t// out\n        /* \"#utility.yul\":588:705   */\n    tag_118:\n        /* \"#utility.yul\":697:698   */\n      0x00\n        /* \"#utility.yul\":694:695   */\n      dup1\n        /* \"#utility.yul\":687:699   */\n      revert\n        /* \"#utility.yul\":711:828   */\n    tag_119:\n        /* \"#utility.yul\":820:821   */\n      0x00\n        /* \"#utility.yul\":817:818   */\n      dup1\n        /* \"#utility.yul\":810:822   */\n      revert\n        /* \"#utility.yul\":834:911   */\n    tag_120:\n        /* \"#utility.yul\":871:878   */\n      0x00\n        /* \"#utility.yul\":900:905   */\n      dup2\n        /* \"#utility.yul\":889:905   */\n      swap1\n      pop\n        /* \"#utility.yul\":834:911   */\n      swap2\n      swap1\n      pop\n      jump\t// out\n        /* \"#utility.yul\":917:1039   */\n    tag_121:\n        /* \"#utility.yul\":990:1014   */\n      tag_204\n        /* \"#utility.yul\":1008:1013   */\n      dup2\n        /* \"#utility.yul\":990:1014   */\n      tag_120\n      jump\t// in\n    tag_204:\n        /* \"#utility.yul\":983:988   */\n      dup2\n        /* \"#utility.yul\":980:1015   */\n      eq\n        /* \"#utility.yul\":970:1033   */\n      tag_205\n      jumpi\n        /* \"#utility.yul\":1029:1030   */\n      0x00\n        /* \"#utility.yul\":1026:1027   */\n      dup1\n        /* \"#utility.yul\":1019:1031   */\n      revert\n        /* \"#utility.yul\":970:1033   */\n    tag_205:\n        /* \"#utility.yul\":917:1039   */\n      pop\n      jump\t// out\n        /* \"#utility.yul\":1045:1184   */\n    tag_122:\n        /* \"#utility.yul\":1091:1096   */\n      0x00\n        /* \"#utility.yul\":1129:1135   */\n      dup2\n        /* \"#utility.yul\":1116:1136   */\n      calldataload\n        /* \"#utility.yul\":1107:1136   */\n      swap1\n      pop\n        /* \"#utility.yul\":1145:1178   */\n      tag_207\n        /* \"#utility.yul\":1172:1177   */\n      dup2\n        /* \"#utility.yul\":1145:1178   */\n      tag_121\n      jump\t// in\n    tag_207:\n        /* \"#utility.yul\":1045:1184   */\n      swap3\n      swap2\n      pop\n      pop\n      jump\t// out\n        /* \"#utility.yul\":1190:1280   */\n    tag_123:\n        /* \"#utility.yul\":1224:1231   */\n      0x00\n        /* \"#utility.yul\":1267:1272   */\n      dup2\n        /* \"#utility.yul\":1260:1273   */\n      iszero\n        /* \"#utility.yul\":1253:1274   */\n      iszero\n        /* \"#utility.yul\":1242:1274   */\n      swap1\n      pop\n        /* \"#utility.yul\":1190:1280   */\n      swap2\n      swap1\n      pop\n      jump\t// out\n        /* \"#utility.yul\":1286:1402   */\n    tag_124:\n        /* \"#utility.yul\":1356:1377   */\n      tag_210\n        /* \"#utility.yul\":1371:1376   */\n      dup2\n        /* \"#utility.yul\":1356:1377   */\n      tag_123\n      jump\t// in\n    tag_210:\n        /* \"#utility.yul\":1349:1354   */\n      dup2\n        /* \"#utility.yul\":1346:1378   */\n      eq\n        /* \"#utility.yul\":1336:1396   */\n      tag_211\n      jumpi\n        /* \"#utility.yul\":1392:1393   */\n      0x00\n        /* \"#utility.yul\":1389:1390   */\n      dup1\n        /* \"#utility.yul\":1382:1394   */\n      revert\n        /* \"#utility.yul\":1336:1396   */\n    tag_211:\n        /* \"#utility.yul\":1286:1402   */\n      pop\n      jump\t// out\n        /* \"#utility.yul\":1408:1541   */\n    tag_125:\n        /* \"#utility.yul\":1451:1456   */\n      0x00\n        /* \"#utility.yul\":1489:1495   */\n      dup2\n        /* \"#utility.yul\":1476:1496   */\n      calldataload\n        /* \"#utility.yul\":1467:1496   */\n      swap1\n      pop\n        /* \"#utility.yul\":1505:1535   */\n      tag_213\n        /* \"#utility.yul\":1529:1534   */\n      dup2\n        /* \"#utility.yul\":1505:1535   */\n      tag_124\n      jump\t// in\n    tag_213:\n        /* \"#utility.yul\":1408:1541   */\n      swap3\n      swap2\n      pop\n      pop\n      jump\t// out\n        /* \"#utility.yul\":1547:2015   */\n    tag_19:\n        /* \"#utility.yul\":1612:1618   */\n      0x00\n        /* \"#utility.yul\":1620:1626   */\n      dup1\n        /* \"#utility.yul\":1669:1671   */\n      0x40\n        /* \"#utility.yul\":1657:1666   */\n      dup4\n        /* \"#utility.yul\":1648:1655   */\n      dup6\n        /* \"#utility.yul\":1644:1667   */\n      sub\n        /* \"#utility.yul\":1640:1672   */\n      slt\n        /* \"#utility.yul\":1637:1756   */\n      iszero\n      tag_215\n      jumpi\n        /* \"#utility.yul\":1675:1754   */\n      tag_216\n      tag_118\n      jump\t// in\n    tag_216:\n        /* \"#utility.yul\":1637:1756   */\n    tag_215:\n        /* \"#utility.yul\":1795:1796   */\n      0x00\n        /* \"#utility.yul\":1820:1873   */\n      tag_217\n        /* \"#utility.yul\":1865:1872   */\n      dup6\n        /* \"#utility.yul\":1856:1862   */\n      dup3\n        /* \"#utility.yul\":1845:1854   */\n      dup7\n        /* \"#utility.yul\":1841:1863   */\n      add\n        /* \"#utility.yul\":1820:1873   */\n      tag_122\n      jump\t// in\n    tag_217:\n        /* \"#utility.yul\":1810:1873   */\n      swap3\n      pop\n        /* \"#utility.yul\":1766:1883   */\n      pop\n        /* \"#utility.yul\":1922:1924   */\n      0x20\n        /* \"#utility.yul\":1948:1998   */\n      tag_218\n        /* \"#utility.yul\":1990:1997   */\n      dup6\n        /* \"#utility.yul\":1981:1987   */\n      dup3\n        /* \"#utility.yul\":1970:1979   */\n      dup7\n        /* \"#utility.yul\":1966:1988   */\n      add\n        /* \"#utility.yul\":1948:1998   */\n      tag_125\n      jump\t// in\n    tag_218:\n        /* \"#utility.yul\":1938:1998   */\n      swap2\n      pop\n        /* \"#utility.yul\":1893:2008   */\n      pop\n        /* \"#utility.yul\":1547:2015   */\n      swap3\n      pop\n      swap3\n      swap1\n      pop\n      jump\t// out\n        /* \"#utility.yul\":2021:2147   */\n    tag_126:\n        /* \"#utility.yul\":2058:2065   */\n      0x00\n        /* \"#utility.yul\":2098:2140   */\n      0xffffffffffffffffffffffffffffffffffffffff\n        /* \"#utility.yul\":2091:2096   */\n      dup3\n        /* \"#utility.yul\":2087:2141   */\n      and\n        /* \"#utility.yul\":2076:2141   */\n      swap1\n      pop\n        /* \"#utility.yul\":2021:2147   */\n      swap2\n      swap1\n      pop\n      jump\t// out\n        /* \"#utility.yul\":2153:2249   */\n    tag_127:\n        /* \"#utility.yul\":2190:2197   */\n      0x00\n        /* \"#utility.yul\":2219:2243   */\n      tag_221\n        /* \"#utility.yul\":2237:2242   */\n      dup3\n        /* \"#utility.yul\":2219:2243   */\n      tag_126\n      jump\t// in\n    tag_221:\n        /* \"#utility.yul\":2208:2243   */\n      swap1\n      pop\n        /* \"#utility.yul\":2153:2249   */\n      swap2\n      swap1\n      pop\n      jump\t// out\n        /* \"#utility.yul\":2255:2377   */\n    tag_128:\n        /* \"#utility.yul\":2328:2352   */\n      tag_223\n        /* \"#utility.yul\":2346:2351   */\n      dup2\n        /* \"#utility.yul\":2328:2352   */\n      tag_127\n      jump\t// in\n    tag_223:\n        /* \"#utility.yul\":2321:2326   */\n      dup2\n        /* \"#utility.yul\":2318:2353   */\n      eq\n        /* \"#utility.yul\":2308:2371   */\n      tag_224\n      jumpi\n        /* \"#utility.yul\":2367:2368   */\n      0x00\n        /* \"#utility.yul\":2364:2365   */\n      dup1\n        /* \"#utility.yul\":2357:2369   */\n      revert\n        /* \"#utility.yul\":2308:2371   */\n    tag_224:\n        /* \"#utility.yul\":2255:2377   */\n      pop\n      jump\t// out\n        /* \"#utility.yul\":2383:2522   */\n    tag_129:\n        /* \"#utility.yul\":2429:2434   */\n      0x00\n        /* \"#utility.yul\":2467:2473   */\n      dup2\n        /* \"#utility.yul\":2454:2474   */\n      calldataload\n        /* \"#utility.yul\":2445:2474   */\n      swap1\n      pop\n        /* \"#utility.yul\":2483:2516   */\n      tag_226\n        /* \"#utility.yul\":2510:2515   */\n      dup2\n        /* \"#utility.yul\":2483:2516   */\n      tag_128\n      jump\t// in\n    tag_226:\n        /* \"#utility.yul\":2383:2522   */\n      swap3\n      swap2\n      pop\n      pop\n      jump\t// out\n        /* \"#utility.yul\":2528:2857   */\n    tag_29:\n        /* \"#utility.yul\":2587:2593   */\n      0x00\n        /* \"#utility.yul\":2636:2638   */\n      0x20\n        /* \"#utility.yul\":2624:2633   */\n      dup3\n        /* \"#utility.yul\":2615:2622   */\n      dup5\n        /* \"#utility.yul\":2611:2634   */\n      sub\n        /* \"#utility.yul\":2607:2639   */\n      slt\n        /* \"#utility.yul\":2604:2723   */\n      iszero\n      tag_228\n      jumpi\n        /* \"#utility.yul\":2642:2721   */\n      tag_229\n      tag_118\n      jump\t// in\n    tag_229:\n        /* \"#utility.yul\":2604:2723   */\n    tag_228:\n        /* \"#utility.yul\":2762:2763   */\n      0x00\n        /* \"#utility.yul\":2787:2840   */\n      tag_230\n        /* \"#utility.yul\":2832:2839   */\n      dup5\n        /* \"#utility.yul\":2823:2829   */\n      dup3\n        /* \"#utility.yul\":2812:2821   */\n      dup6\n        /* \"#utility.yul\":2808:2830   */\n      add\n        /* \"#utility.yul\":2787:2840   */\n      tag_129\n      jump\t// in\n    tag_230:\n        /* \"#utility.yul\":2777:2840   */\n      swap2\n      pop\n        /* \"#utility.yul\":2733:2850   */\n      pop\n        /* \"#utility.yul\":2528:2857   */\n      swap3\n      swap2\n      pop\n      pop\n      jump\t// out\n        /* \"#utility.yul\":2863:3337   */\n    tag_33:\n        /* \"#utility.yul\":2931:2937   */\n      0x00\n        /* \"#utility.yul\":2939:2945   */\n      dup1\n        /* \"#utility.yul\":2988:2990   */\n      0x40\n        /* \"#utility.yul\":2976:2985   */\n      dup4\n        /* \"#utility.yul\":2967:2974   */\n      dup6\n        /* \"#utility.yul\":2963:2986   */\n      sub\n        /* \"#utility.yul\":2959:2991   */\n      slt\n        /* \"#utility.yul\":2956:3075   */\n      iszero\n      tag_232\n      jumpi\n        /* \"#utility.yul\":2994:3073   */\n      tag_233\n      tag_118\n      jump\t// in\n    tag_233:\n        /* \"#utility.yul\":2956:3075   */\n    tag_232:\n        /* \"#utility.yul\":3114:3115   */\n      0x00\n        /* \"#utility.yul\":3139:3192   */\n      tag_234\n        /* \"#utility.yul\":3184:3191   */\n      dup6\n        /* \"#utility.yul\":3175:3181   */\n      dup3\n        /* \"#utility.yul\":3164:3173   */\n      dup7\n        /* \"#utility.yul\":3160:3182   */\n      add\n        /* \"#utility.yul\":3139:3192   */\n      tag_129\n      jump\t// in\n    tag_234:\n        /* \"#utility.yul\":3129:3192   */\n      swap3\n      pop\n        /* \"#utility.yul\":3085:3202   */\n      pop\n        /* \"#utility.yul\":3241:3243   */\n      0x20\n        /* \"#utility.yul\":3267:3320   */\n      tag_235\n        /* \"#utility.yul\":3312:3319   */\n      dup6\n        /* \"#utility.yul\":3303:3309   */\n      dup3\n        /* \"#utility.yul\":3292:3301   */\n      dup7\n        /* \"#utility.yul\":3288:3310   */\n      add\n        /* \"#utility.yul\":3267:3320   */\n      tag_122\n      jump\t// in\n    tag_235:\n        /* \"#utility.yul\":3257:3320   */\n      swap2\n      pop\n        /* \"#utility.yul\":3212:3330   */\n      pop\n        /* \"#utility.yul\":2863:3337   */\n      swap3\n      pop\n      swap3\n      swap1\n      pop\n      jump\t// out\n        /* \"#utility.yul\":3343:3452   */\n    tag_130:\n        /* \"#utility.yul\":3424:3445   */\n      tag_237\n        /* \"#utility.yul\":3439:3444   */\n      dup2\n        /* \"#utility.yul\":3424:3445   */\n      tag_123\n      jump\t// in\n    tag_237:\n        /* \"#utility.yul\":3419:3422   */\n      dup3\n        /* \"#utility.yul\":3412:3446   */\n      mstore\n        /* \"#utility.yul\":3343:3452   */\n      pop\n      pop\n      jump\t// out\n        /* \"#utility.yul\":3458:3668   */\n    tag_36:\n        /* \"#utility.yul\":3545:3549   */\n      0x00\n        /* \"#utility.yul\":3583:3585   */\n      0x20\n        /* \"#utility.yul\":3572:3581   */\n      dup3\n        /* \"#utility.yul\":3568:3586   */\n      add\n        /* \"#utility.yul\":3560:3586   */\n      swap1\n      pop\n        /* \"#utility.yul\":3596:3661   */\n      tag_239\n        /* \"#utility.yul\":3658:3659   */\n      0x00\n        /* \"#utility.yul\":3647:3656   */\n      dup4\n        /* \"#utility.yul\":3643:3660   */\n      add\n        /* \"#utility.yul\":3634:3640   */\n      dup5\n        /* \"#utility.yul\":3596:3661   */\n      tag_130\n      jump\t// in\n    tag_239:\n        /* \"#utility.yul\":3458:3668   */\n      swap3\n      swap2\n      pop\n      pop\n      jump\t// out\n        /* \"#utility.yul\":3674:3788   */\n    tag_131:\n        /* \"#utility.yul\":3729:3736   */\n      0x00\n        /* \"#utility.yul\":3758:3782   */\n      tag_241\n        /* \"#utility.yul\":3776:3781   */\n      dup3\n        /* \"#utility.yul\":3758:3782   */\n      tag_127\n      jump\t// in\n    tag_241:\n        /* \"#utility.yul\":3747:3782   */\n      swap1\n      pop\n        /* \"#utility.yul\":3674:3788   */\n      swap2\n      swap1\n      pop\n      jump\t// out\n        /* \"#utility.yul\":3794:3952   */\n    tag_132:\n        /* \"#utility.yul\":3885:3927   */\n      tag_243\n        /* \"#utility.yul\":3921:3926   */\n      dup2\n        /* \"#utility.yul\":3885:3927   */\n      tag_131\n      jump\t// in\n    tag_243:\n        /* \"#utility.yul\":3878:3883   */\n      dup2\n        /* \"#utility.yul\":3875:3928   */\n      eq\n        /* \"#utility.yul\":3865:3946   */\n      tag_244\n      jumpi\n        /* \"#utility.yul\":3942:3943   */\n      0x00\n        /* \"#utility.yul\":3939:3940   */\n      dup1\n        /* \"#utility.yul\":3932:3944   */\n      revert\n        /* \"#utility.yul\":3865:3946   */\n    tag_244:\n        /* \"#utility.yul\":3794:3952   */\n      pop\n      jump\t// out\n        /* \"#utility.yul\":3958:4133   */\n    tag_133:\n        /* \"#utility.yul\":4022:4027   */\n      0x00\n        /* \"#utility.yul\":4060:4066   */\n      dup2\n        /* \"#utility.yul\":4047:4067   */\n      calldataload\n        /* \"#utility.yul\":4038:4067   */\n      swap1\n      pop\n        /* \"#utility.yul\":4076:4127   */\n      tag_246\n        /* \"#utility.yul\":4121:4126   */\n      dup2\n        /* \"#utility.yul\":4076:4127   */\n      tag_132\n      jump\t// in\n    tag_246:\n        /* \"#utility.yul\":3958:4133   */\n      swap3\n      swap2\n      pop\n      pop\n      jump\t// out\n        /* \"#utility.yul\":4139:4256   */\n    tag_134:\n        /* \"#utility.yul\":4248:4249   */\n      0x00\n        /* \"#utility.yul\":4245:4246   */\n      dup1\n        /* \"#utility.yul\":4238:4250   */\n      revert\n        /* \"#utility.yul\":4262:4364   */\n    tag_135:\n        /* \"#utility.yul\":4303:4309   */\n      0x00\n        /* \"#utility.yul\":4354:4356   */\n      0x1f\n        /* \"#utility.yul\":4350:4357   */\n      not\n        /* \"#utility.yul\":4345:4347   */\n      0x1f\n        /* \"#utility.yul\":4338:4343   */\n      dup4\n        /* \"#utility.yul\":4334:4348   */\n      add\n        /* \"#utility.yul\":4330:4358   */\n      and\n        /* \"#utility.yul\":4320:4358   */\n      swap1\n      pop\n        /* \"#utility.yul\":4262:4364   */\n      swap2\n      swap1\n      pop\n      jump\t// out\n        /* \"#utility.yul\":4370:4550   */\n    tag_58:\n        /* \"#utility.yul\":4418:4495   */\n      0x4e487b7100000000000000000000000000000000000000000000000000000000\n        /* \"#utility.yul\":4415:4416   */\n      0x00\n        /* \"#utility.yul\":4408:4496   */\n      mstore\n        /* \"#utility.yul\":4515:4519   */\n      0x41\n        /* \"#utility.yul\":4512:4513   */\n      0x04\n        /* \"#utility.yul\":4505:4520   */\n      mstore\n        /* \"#utility.yul\":4539:4543   */\n      0x24\n        /* \"#utility.yul\":4536:4537   */\n      0x00\n        /* \"#utility.yul\":4529:4544   */\n      revert\n        /* \"#utility.yul\":4556:4837   */\n    tag_136:\n        /* \"#utility.yul\":4639:4666   */\n      tag_251\n        /* \"#utility.yul\":4661:4665   */\n      dup3\n        /* \"#utility.yul\":4639:4666   */\n      tag_135\n      jump\t// in\n    tag_251:\n        /* \"#utility.yul\":4631:4637   */\n      dup2\n        /* \"#utility.yul\":4627:4667   */\n      add\n        /* \"#utility.yul\":4769:4775   */\n      dup2\n        /* \"#utility.yul\":4757:4767   */\n      dup2\n        /* \"#utility.yul\":4754:4776   */\n      lt\n        /* \"#utility.yul\":4733:4751   */\n      0xffffffffffffffff\n        /* \"#utility.yul\":4721:4731   */\n      dup3\n        /* \"#utility.yul\":4718:4752   */\n      gt\n        /* \"#utility.yul\":4715:4777   */\n      or\n        /* \"#utility.yul\":4712:4800   */\n      iszero\n      tag_252\n      jumpi\n        /* \"#utility.yul\":4780:4798   */\n      tag_253\n      tag_58\n      jump\t// in\n    tag_253:\n        /* \"#utility.yul\":4712:4800   */\n    tag_252:\n        /* \"#utility.yul\":4820:4830   */\n      dup1\n        /* \"#utility.yul\":4816:4818   */\n      0x40\n        /* \"#utility.yul\":4809:4831   */\n      mstore\n        /* \"#utility.yul\":4599:4837   */\n      pop\n        /* \"#utility.yul\":4556:4837   */\n      pop\n      pop\n      jump\t// out\n        /* \"#utility.yul\":4843:4972   */\n    tag_137:\n        /* \"#utility.yul\":4877:4883   */\n      0x00\n        /* \"#utility.yul\":4904:4924   */\n      tag_255\n      tag_117\n      jump\t// in\n    tag_255:\n        /* \"#utility.yul\":4894:4924   */\n      swap1\n      pop\n        /* \"#utility.yul\":4933:4966   */\n      tag_256\n        /* \"#utility.yul\":4961:4965   */\n      dup3\n        /* \"#utility.yul\":4953:4959   */\n      dup3\n        /* \"#utility.yul\":4933:4966   */\n      tag_136\n      jump\t// in\n    tag_256:\n        /* \"#utility.yul\":4843:4972   */\n      swap2\n      swap1\n      pop\n      jump\t// out\n        /* \"#utility.yul\":4978:5095   */\n    tag_138:\n        /* \"#utility.yul\":5087:5088   */\n      0x00\n        /* \"#utility.yul\":5084:5085   */\n      dup1\n        /* \"#utility.yul\":5077:5089   */\n      revert\n        /* \"#utility.yul\":5101:5218   */\n    tag_139:\n        /* \"#utility.yul\":5210:5211   */\n      0x00\n        /* \"#utility.yul\":5207:5208   */\n      dup1\n        /* \"#utility.yul\":5200:5212   */\n      revert\n        /* \"#utility.yul\":5224:5341   */\n    tag_140:\n        /* \"#utility.yul\":5333:5334   */\n      0x00\n        /* \"#utility.yul\":5330:5331   */\n      dup1\n        /* \"#utility.yul\":5323:5335   */\n      revert\n        /* \"#utility.yul\":5347:5654   */\n    tag_141:\n        /* \"#utility.yul\":5408:5412   */\n      0x00\n        /* \"#utility.yul\":5498:5516   */\n      0xffffffffffffffff\n        /* \"#utility.yul\":5490:5496   */\n      dup3\n        /* \"#utility.yul\":5487:5517   */\n      gt\n        /* \"#utility.yul\":5484:5540   */\n      iszero\n      tag_261\n      jumpi\n        /* \"#utility.yul\":5520:5538   */\n      tag_262\n      tag_58\n      jump\t// in\n    tag_262:\n        /* \"#utility.yul\":5484:5540   */\n    tag_261:\n        /* \"#utility.yul\":5558:5587   */\n      tag_263\n        /* \"#utility.yul\":5580:5586   */\n      dup3\n        /* \"#utility.yul\":5558:5587   */\n      tag_135\n      jump\t// in\n    tag_263:\n        /* \"#utility.yul\":5550:5587   */\n      swap1\n      pop\n        /* \"#utility.yul\":5642:5646   */\n      0x20\n        /* \"#utility.yul\":5636:5640   */\n      dup2\n        /* \"#utility.yul\":5632:5647   */\n      add\n        /* \"#utility.yul\":5624:5647   */\n      swap1\n      pop\n        /* \"#utility.yul\":5347:5654   */\n      swap2\n      swap1\n      pop\n      jump\t// out\n        /* \"#utility.yul\":5660:5808   */\n    tag_142:\n        /* \"#utility.yul\":5758:5764   */\n      dup3\n        /* \"#utility.yul\":5753:5756   */\n      dup2\n        /* \"#utility.yul\":5748:5751   */\n      dup4\n        /* \"#utility.yul\":5735:5765   */\n      calldatacopy\n        /* \"#utility.yul\":5799:5800   */\n      0x00\n        /* \"#utility.yul\":5790:5796   */\n      dup4\n        /* \"#utility.yul\":5785:5788   */\n      dup4\n        /* \"#utility.yul\":5781:5797   */\n      add\n        /* \"#utility.yul\":5774:5801   */\n      mstore\n        /* \"#utility.yul\":5660:5808   */\n      pop\n      pop\n      pop\n      jump\t// out\n        /* \"#utility.yul\":5814:6237   */\n    tag_143:\n        /* \"#utility.yul\":5891:5896   */\n      0x00\n        /* \"#utility.yul\":5916:5981   */\n      tag_266\n        /* \"#utility.yul\":5932:5980   */\n      tag_267\n        /* \"#utility.yul\":5973:5979   */\n      dup5\n        /* \"#utility.yul\":5932:5980   */\n      tag_141\n      jump\t// in\n    tag_267:\n        /* \"#utility.yul\":5916:5981   */\n      tag_137\n      jump\t// in\n    tag_266:\n        /* \"#utility.yul\":5907:5981   */\n      swap1\n      pop\n        /* \"#utility.yul\":6004:6010   */\n      dup3\n        /* \"#utility.yul\":5997:6002   */\n      dup2\n        /* \"#utility.yul\":5990:6011   */\n      mstore\n        /* \"#utility.yul\":6042:6046   */\n      0x20\n        /* \"#utility.yul\":6035:6040   */\n      dup2\n        /* \"#utility.yul\":6031:6047   */\n      add\n        /* \"#utility.yul\":6080:6083   */\n      dup5\n        /* \"#utility.yul\":6071:6077   */\n      dup5\n        /* \"#utility.yul\":6066:6069   */\n      dup5\n        /* \"#utility.yul\":6062:6078   */\n      add\n        /* \"#utility.yul\":6059:6084   */\n      gt\n        /* \"#utility.yul\":6056:6168   */\n      iszero\n      tag_268\n      jumpi\n        /* \"#utility.yul\":6087:6166   */\n      tag_269\n      tag_140\n      jump\t// in\n    tag_269:\n        /* \"#utility.yul\":6056:6168   */\n    tag_268:\n        /* \"#utility.yul\":6177:6231   */\n      tag_270\n        /* \"#utility.yul\":6224:6230   */\n      dup5\n        /* \"#utility.yul\":6219:6222   */\n      dup3\n        /* \"#utility.yul\":6214:6217   */\n      dup6\n        /* \"#utility.yul\":6177:6231   */\n      tag_142\n      jump\t// in\n    tag_270:\n        /* \"#utility.yul\":5897:6237   */\n      pop\n        /* \"#utility.yul\":5814:6237   */\n      swap4\n      swap3\n      pop\n      pop\n      pop\n      jump\t// out\n        /* \"#utility.yul\":6256:6594   */\n    tag_144:\n        /* \"#utility.yul\":6311:6316   */\n      0x00\n        /* \"#utility.yul\":6360:6363   */\n      dup3\n        /* \"#utility.yul\":6353:6357   */\n      0x1f\n        /* \"#utility.yul\":6345:6351   */\n      dup4\n        /* \"#utility.yul\":6341:6358   */\n      add\n        /* \"#utility.yul\":6337:6364   */\n      slt\n        /* \"#utility.yul\":6327:6449   */\n      tag_272\n      jumpi\n        /* \"#utility.yul\":6368:6447   */\n      tag_273\n      tag_139\n      jump\t// in\n    tag_273:\n        /* \"#utility.yul\":6327:6449   */\n    tag_272:\n        /* \"#utility.yul\":6485:6491   */\n      dup2\n        /* \"#utility.yul\":6472:6492   */\n      calldataload\n        /* \"#utility.yul\":6510:6588   */\n      tag_274\n        /* \"#utility.yul\":6584:6587   */\n      dup5\n        /* \"#utility.yul\":6576:6582   */\n      dup3\n        /* \"#utility.yul\":6569:6573   */\n      0x20\n        /* \"#utility.yul\":6561:6567   */\n      dup7\n        /* \"#utility.yul\":6557:6574   */\n      add\n        /* \"#utility.yul\":6510:6588   */\n      tag_143\n      jump\t// in\n    tag_274:\n        /* \"#utility.yul\":6501:6588   */\n      swap2\n      pop\n        /* \"#utility.yul\":6317:6594   */\n      pop\n        /* \"#utility.yul\":6256:6594   */\n      swap3\n      swap2\n      pop\n      pop\n      jump\t// out\n        /* \"#utility.yul\":6628:7366   */\n    tag_145:\n        /* \"#utility.yul\":6698:6703   */\n      0x00\n        /* \"#utility.yul\":6742:6746   */\n      0x40\n        /* \"#utility.yul\":6730:6739   */\n      dup3\n        /* \"#utility.yul\":6725:6728   */\n      dup5\n        /* \"#utility.yul\":6721:6740   */\n      sub\n        /* \"#utility.yul\":6717:6747   */\n      slt\n        /* \"#utility.yul\":6714:6831   */\n      iszero\n      tag_276\n      jumpi\n        /* \"#utility.yul\":6750:6829   */\n      tag_277\n      tag_134\n      jump\t// in\n    tag_277:\n        /* \"#utility.yul\":6714:6831   */\n    tag_276:\n        /* \"#utility.yul\":6849:6870   */\n      tag_278\n        /* \"#utility.yul\":6865:6869   */\n      0x40\n        /* \"#utility.yul\":6849:6870   */\n      tag_137\n      jump\t// in\n    tag_278:\n        /* \"#utility.yul\":6840:6870   */\n      swap1\n      pop\n        /* \"#utility.yul\":6928:6929   */\n      0x00\n        /* \"#utility.yul\":6968:7017   */\n      tag_279\n        /* \"#utility.yul\":7013:7016   */\n      dup5\n        /* \"#utility.yul\":7004:7010   */\n      dup3\n        /* \"#utility.yul\":6993:7002   */\n      dup6\n        /* \"#utility.yul\":6989:7011   */\n      add\n        /* \"#utility.yul\":6968:7017   */\n      tag_122\n      jump\t// in\n    tag_279:\n        /* \"#utility.yul\":6961:6965   */\n      0x00\n        /* \"#utility.yul\":6954:6959   */\n      dup4\n        /* \"#utility.yul\":6950:6966   */\n      add\n        /* \"#utility.yul\":6943:7018   */\n      mstore\n        /* \"#utility.yul\":6880:7029   */\n      pop\n        /* \"#utility.yul\":7116:7118   */\n      0x20\n        /* \"#utility.yul\":7105:7114   */\n      dup3\n        /* \"#utility.yul\":7101:7119   */\n      add\n        /* \"#utility.yul\":7088:7120   */\n      calldataload\n        /* \"#utility.yul\":7147:7165   */\n      0xffffffffffffffff\n        /* \"#utility.yul\":7139:7145   */\n      dup2\n        /* \"#utility.yul\":7136:7166   */\n      gt\n        /* \"#utility.yul\":7133:7250   */\n      iszero\n      tag_280\n      jumpi\n        /* \"#utility.yul\":7169:7248   */\n      tag_281\n      tag_138\n      jump\t// in\n    tag_281:\n        /* \"#utility.yul\":7133:7250   */\n    tag_280:\n        /* \"#utility.yul\":7289:7347   */\n      tag_282\n        /* \"#utility.yul\":7343:7346   */\n      dup5\n        /* \"#utility.yul\":7334:7340   */\n      dup3\n        /* \"#utility.yul\":7323:7332   */\n      dup6\n        /* \"#utility.yul\":7319:7341   */\n      add\n        /* \"#utility.yul\":7289:7347   */\n      tag_144\n      jump\t// in\n    tag_282:\n        /* \"#utility.yul\":7282:7286   */\n      0x20\n        /* \"#utility.yul\":7275:7280   */\n      dup4\n        /* \"#utility.yul\":7271:7287   */\n      add\n        /* \"#utility.yul\":7264:7348   */\n      mstore\n        /* \"#utility.yul\":7039:7359   */\n      pop\n        /* \"#utility.yul\":6628:7366   */\n      swap3\n      swap2\n      pop\n      pop\n      jump\t// out\n        /* \"#utility.yul\":7372:7683   */\n    tag_146:\n        /* \"#utility.yul\":7449:7453   */\n      0x00\n        /* \"#utility.yul\":7539:7557   */\n      0xffffffffffffffff\n        /* \"#utility.yul\":7531:7537   */\n      dup3\n        /* \"#utility.yul\":7528:7558   */\n      gt\n        /* \"#utility.yul\":7525:7581   */\n      iszero\n      tag_284\n      jumpi\n        /* \"#utility.yul\":7561:7579   */\n      tag_285\n      tag_58\n      jump\t// in\n    tag_285:\n        /* \"#utility.yul\":7525:7581   */\n    tag_284:\n        /* \"#utility.yul\":7611:7615   */\n      0x20\n        /* \"#utility.yul\":7603:7609   */\n      dup3\n        /* \"#utility.yul\":7599:7616   */\n      mul\n        /* \"#utility.yul\":7591:7616   */\n      swap1\n      pop\n        /* \"#utility.yul\":7671:7675   */\n      0x20\n        /* \"#utility.yul\":7665:7669   */\n      dup2\n        /* \"#utility.yul\":7661:7676   */\n      add\n        /* \"#utility.yul\":7653:7676   */\n      swap1\n      pop\n        /* \"#utility.yul\":7372:7683   */\n      swap2\n      swap1\n      pop\n      jump\t// out\n        /* \"#utility.yul\":7689:7806   */\n    tag_147:\n        /* \"#utility.yul\":7798:7799   */\n      0x00\n        /* \"#utility.yul\":7795:7796   */\n      dup1\n        /* \"#utility.yul\":7788:7800   */\n      revert\n        /* \"#utility.yul\":7829:8539   */\n    tag_148:\n        /* \"#utility.yul\":7925:7930   */\n      0x00\n        /* \"#utility.yul\":7950:8031   */\n      tag_288\n        /* \"#utility.yul\":7966:8030   */\n      tag_289\n        /* \"#utility.yul\":8023:8029   */\n      dup5\n        /* \"#utility.yul\":7966:8030   */\n      tag_146\n      jump\t// in\n    tag_289:\n        /* \"#utility.yul\":7950:8031   */\n      tag_137\n      jump\t// in\n    tag_288:\n        /* \"#utility.yul\":7941:8031   */\n      swap1\n      pop\n        /* \"#utility.yul\":8051:8056   */\n      dup1\n        /* \"#utility.yul\":8080:8086   */\n      dup4\n        /* \"#utility.yul\":8073:8078   */\n      dup3\n        /* \"#utility.yul\":8066:8087   */\n      mstore\n        /* \"#utility.yul\":8114:8118   */\n      0x20\n        /* \"#utility.yul\":8107:8112   */\n      dup3\n        /* \"#utility.yul\":8103:8119   */\n      add\n        /* \"#utility.yul\":8096:8119   */\n      swap1\n      pop\n        /* \"#utility.yul\":8167:8171   */\n      0x20\n        /* \"#utility.yul\":8159:8165   */\n      dup5\n        /* \"#utility.yul\":8155:8172   */\n      mul\n        /* \"#utility.yul\":8147:8153   */\n      dup4\n        /* \"#utility.yul\":8143:8173   */\n      add\n        /* \"#utility.yul\":8196:8199   */\n      dup6\n        /* \"#utility.yul\":8188:8194   */\n      dup2\n        /* \"#utility.yul\":8185:8200   */\n      gt\n        /* \"#utility.yul\":8182:8304   */\n      iszero\n      tag_290\n      jumpi\n        /* \"#utility.yul\":8215:8294   */\n      tag_291\n      tag_147\n      jump\t// in\n    tag_291:\n        /* \"#utility.yul\":8182:8304   */\n    tag_290:\n        /* \"#utility.yul\":8330:8336   */\n      dup4\n        /* \"#utility.yul\":8313:8533   */\n    tag_292:\n        /* \"#utility.yul\":8347:8353   */\n      dup2\n        /* \"#utility.yul\":8342:8345   */\n      dup2\n        /* \"#utility.yul\":8339:8354   */\n      lt\n        /* \"#utility.yul\":8313:8533   */\n      iszero\n      tag_294\n      jumpi\n        /* \"#utility.yul\":8422:8425   */\n      dup1\n        /* \"#utility.yul\":8451:8488   */\n      tag_295\n        /* \"#utility.yul\":8484:8487   */\n      dup9\n        /* \"#utility.yul\":8472:8482   */\n      dup3\n        /* \"#utility.yul\":8451:8488   */\n      tag_122\n      jump\t// in\n    tag_295:\n        /* \"#utility.yul\":8446:8449   */\n      dup5\n        /* \"#utility.yul\":8439:8489   */\n      mstore\n        /* \"#utility.yul\":8518:8522   */\n      0x20\n        /* \"#utility.yul\":8513:8516   */\n      dup5\n        /* \"#utility.yul\":8509:8523   */\n      add\n        /* \"#utility.yul\":8502:8523   */\n      swap4\n      pop\n        /* \"#utility.yul\":8389:8533   */\n      pop\n        /* \"#utility.yul\":8373:8377   */\n      0x20\n        /* \"#utility.yul\":8368:8371   */\n      dup2\n        /* \"#utility.yul\":8364:8378   */\n      add\n        /* \"#utility.yul\":8357:8378   */\n      swap1\n      pop\n        /* \"#utility.yul\":8313:8533   */\n      jump(tag_292)\n    tag_294:\n        /* \"#utility.yul\":8317:8338   */\n      pop\n        /* \"#utility.yul\":7931:8539   */\n      pop\n      pop\n        /* \"#utility.yul\":7829:8539   */\n      swap4\n      swap3\n      pop\n      pop\n      pop\n      jump\t// out\n        /* \"#utility.yul\":8562:8932   */\n    tag_149:\n        /* \"#utility.yul\":8633:8638   */\n      0x00\n        /* \"#utility.yul\":8682:8685   */\n      dup3\n        /* \"#utility.yul\":8675:8679   */\n      0x1f\n        /* \"#utility.yul\":8667:8673   */\n      dup4\n        /* \"#utility.yul\":8663:8680   */\n      add\n        /* \"#utility.yul\":8659:8686   */\n      slt\n        /* \"#utility.yul\":8649:8771   */\n      tag_297\n      jumpi\n        /* \"#utility.yul\":8690:8769   */\n      tag_298\n      tag_139\n      jump\t// in\n    tag_298:\n        /* \"#utility.yul\":8649:8771   */\n    tag_297:\n        /* \"#utility.yul\":8807:8813   */\n      dup2\n        /* \"#utility.yul\":8794:8814   */\n      calldataload\n        /* \"#utility.yul\":8832:8926   */\n      tag_299\n        /* \"#utility.yul\":8922:8925   */\n      dup5\n        /* \"#utility.yul\":8914:8920   */\n      dup3\n        /* \"#utility.yul\":8907:8911   */\n      0x20\n        /* \"#utility.yul\":8899:8905   */\n      dup7\n        /* \"#utility.yul\":8895:8912   */\n      add\n        /* \"#utility.yul\":8832:8926   */\n      tag_148\n      jump\t// in\n    tag_299:\n        /* \"#utility.yul\":8823:8926   */\n      swap2\n      pop\n        /* \"#utility.yul\":8639:8932   */\n      pop\n        /* \"#utility.yul\":8562:8932   */\n      swap3\n      swap2\n      pop\n      pop\n      jump\t// out\n        /* \"#utility.yul\":8938:9047   */\n    tag_150:\n        /* \"#utility.yul\":9021:9022   */\n      0x03\n        /* \"#utility.yul\":9014:9019   */\n      dup2\n        /* \"#utility.yul\":9011:9023   */\n      lt\n        /* \"#utility.yul\":9001:9041   */\n      tag_301\n      jumpi\n        /* \"#utility.yul\":9037:9038   */\n      0x00\n        /* \"#utility.yul\":9034:9035   */\n      dup1\n        /* \"#utility.yul\":9027:9039   */\n      revert\n        /* \"#utility.yul\":9001:9041   */\n    tag_301:\n        /* \"#utility.yul\":8938:9047   */\n      pop\n      jump\t// out\n        /* \"#utility.yul\":9053:9212   */\n    tag_151:\n        /* \"#utility.yul\":9109:9114   */\n      0x00\n        /* \"#utility.yul\":9147:9153   */\n      dup2\n        /* \"#utility.yul\":9134:9154   */\n      calldataload\n        /* \"#utility.yul\":9125:9154   */\n      swap1\n      pop\n        /* \"#utility.yul\":9163:9206   */\n      tag_303\n        /* \"#utility.yul\":9200:9205   */\n      dup2\n        /* \"#utility.yul\":9163:9206   */\n      tag_150\n      jump\t// in\n    tag_303:\n        /* \"#utility.yul\":9053:9212   */\n      swap3\n      swap2\n      pop\n      pop\n      jump\t// out\n        /* \"#utility.yul\":9218:10451   */\n    tag_39:\n        /* \"#utility.yul\":9378:9384   */\n      0x00\n        /* \"#utility.yul\":9386:9392   */\n      dup1\n        /* \"#utility.yul\":9394:9400   */\n      0x00\n        /* \"#utility.yul\":9402:9408   */\n      dup1\n        /* \"#utility.yul\":9451:9454   */\n      0x80\n        /* \"#utility.yul\":9439:9448   */\n      dup6\n        /* \"#utility.yul\":9430:9437   */\n      dup8\n        /* \"#utility.yul\":9426:9449   */\n      sub\n        /* \"#utility.yul\":9422:9455   */\n      slt\n        /* \"#utility.yul\":9419:9539   */\n      iszero\n      tag_305\n      jumpi\n        /* \"#utility.yul\":9458:9537   */\n      tag_306\n      tag_118\n      jump\t// in\n    tag_306:\n        /* \"#utility.yul\":9419:9539   */\n    tag_305:\n        /* \"#utility.yul\":9578:9579   */\n      0x00\n        /* \"#utility.yul\":9603:9674   */\n      tag_307\n        /* \"#utility.yul\":9666:9673   */\n      dup8\n        /* \"#utility.yul\":9657:9663   */\n      dup3\n        /* \"#utility.yul\":9646:9655   */\n      dup9\n        /* \"#utility.yul\":9642:9664   */\n      add\n        /* \"#utility.yul\":9603:9674   */\n      tag_133\n      jump\t// in\n    tag_307:\n        /* \"#utility.yul\":9593:9674   */\n      swap5\n      pop\n        /* \"#utility.yul\":9549:9684   */\n      pop\n        /* \"#utility.yul\":9751:9753   */\n      0x20\n        /* \"#utility.yul\":9740:9749   */\n      dup6\n        /* \"#utility.yul\":9736:9754   */\n      add\n        /* \"#utility.yul\":9723:9755   */\n      calldataload\n        /* \"#utility.yul\":9782:9800   */\n      0xffffffffffffffff\n        /* \"#utility.yul\":9774:9780   */\n      dup2\n        /* \"#utility.yul\":9771:9801   */\n      gt\n        /* \"#utility.yul\":9768:9885   */\n      iszero\n      tag_308\n      jumpi\n        /* \"#utility.yul\":9804:9883   */\n      tag_309\n      tag_119\n      jump\t// in\n    tag_309:\n        /* \"#utility.yul\":9768:9885   */\n    tag_308:\n        /* \"#utility.yul\":9909:9983   */\n      tag_310\n        /* \"#utility.yul\":9975:9982   */\n      dup8\n        /* \"#utility.yul\":9966:9972   */\n      dup3\n        /* \"#utility.yul\":9955:9964   */\n      dup9\n        /* \"#utility.yul\":9951:9973   */\n      add\n        /* \"#utility.yul\":9909:9983   */\n      tag_145\n      jump\t// in\n    tag_310:\n        /* \"#utility.yul\":9899:9983   */\n      swap4\n      pop\n        /* \"#utility.yul\":9694:9993   */\n      pop\n        /* \"#utility.yul\":10060:10062   */\n      0x40\n        /* \"#utility.yul\":10049:10058   */\n      dup6\n        /* \"#utility.yul\":10045:10063   */\n      add\n        /* \"#utility.yul\":10032:10064   */\n      calldataload\n        /* \"#utility.yul\":10091:10109   */\n      0xffffffffffffffff\n        /* \"#utility.yul\":10083:10089   */\n      dup2\n        /* \"#utility.yul\":10080:10110   */\n      gt\n        /* \"#utility.yul\":10077:10194   */\n      iszero\n      tag_311\n      jumpi\n        /* \"#utility.yul\":10113:10192   */\n      tag_312\n      tag_119\n      jump\t// in\n    tag_312:\n        /* \"#utility.yul\":10077:10194   */\n    tag_311:\n        /* \"#utility.yul\":10218:10296   */\n      tag_313\n        /* \"#utility.yul\":10288:10295   */\n      dup8\n        /* \"#utility.yul\":10279:10285   */\n      dup3\n        /* \"#utility.yul\":10268:10277   */\n      dup9\n        /* \"#utility.yul\":10264:10286   */\n      add\n        /* \"#utility.yul\":10218:10296   */\n      tag_149\n      jump\t// in\n    tag_313:\n        /* \"#utility.yul\":10208:10296   */\n      swap3\n      pop\n        /* \"#utility.yul\":10003:10306   */\n      pop\n        /* \"#utility.yul\":10345:10347   */\n      0x60\n        /* \"#utility.yul\":10371:10434   */\n      tag_314\n        /* \"#utility.yul\":10426:10433   */\n      dup8\n        /* \"#utility.yul\":10417:10423   */\n      dup3\n        /* \"#utility.yul\":10406:10415   */\n      dup9\n        /* \"#utility.yul\":10402:10424   */\n      add\n        /* \"#utility.yul\":10371:10434   */\n      tag_151\n      jump\t// in\n    tag_314:\n        /* \"#utility.yul\":10361:10434   */\n      swap2\n      pop\n        /* \"#utility.yul\":10316:10444   */\n      pop\n        /* \"#utility.yul\":9218:10451   */\n      swap3\n      swap6\n      swap2\n      swap5\n      pop\n      swap3\n      pop\n      jump\t// out\n        /* \"#utility.yul\":10457:10706   */\n    tag_152:\n        /* \"#utility.yul\":10532:10536   */\n      0x00\n        /* \"#utility.yul\":10622:10640   */\n      0xffffffffffffffff\n        /* \"#utility.yul\":10614:10620   */\n      dup3\n        /* \"#utility.yul\":10611:10641   */\n      gt\n        /* \"#utility.yul\":10608:10664   */\n      iszero\n      tag_316\n      jumpi\n        /* \"#utility.yul\":10644:10662   */\n      tag_317\n      tag_58\n      jump\t// in\n    tag_317:\n        /* \"#utility.yul\":10608:10664   */\n    tag_316:\n        /* \"#utility.yul\":10694:10698   */\n      0x20\n        /* \"#utility.yul\":10686:10692   */\n      dup3\n        /* \"#utility.yul\":10682:10699   */\n      mul\n        /* \"#utility.yul\":10674:10699   */\n      swap1\n      pop\n        /* \"#utility.yul\":10457:10706   */\n      swap2\n      swap1\n      pop\n      jump\t// out\n        /* \"#utility.yul\":10730:11373   */\n    tag_153:\n        /* \"#utility.yul\":10824:10829   */\n      0x00\n        /* \"#utility.yul\":10849:10928   */\n      tag_319\n        /* \"#utility.yul\":10865:10927   */\n      tag_320\n        /* \"#utility.yul\":10920:10926   */\n      dup5\n        /* \"#utility.yul\":10865:10927   */\n      tag_152\n      jump\t// in\n    tag_320:\n        /* \"#utility.yul\":10849:10928   */\n      tag_137\n      jump\t// in\n    tag_319:\n        /* \"#utility.yul\":10840:10928   */\n      swap1\n      pop\n        /* \"#utility.yul\":10948:10953   */\n      dup1\n        /* \"#utility.yul\":11001:11005   */\n      0x20\n        /* \"#utility.yul\":10993:10999   */\n      dup5\n        /* \"#utility.yul\":10989:11006   */\n      mul\n        /* \"#utility.yul\":10981:10987   */\n      dup4\n        /* \"#utility.yul\":10977:11007   */\n      add\n        /* \"#utility.yul\":11030:11033   */\n      dup6\n        /* \"#utility.yul\":11022:11028   */\n      dup2\n        /* \"#utility.yul\":11019:11034   */\n      gt\n        /* \"#utility.yul\":11016:11138   */\n      iszero\n      tag_321\n      jumpi\n        /* \"#utility.yul\":11049:11128   */\n      tag_322\n      tag_147\n      jump\t// in\n    tag_322:\n        /* \"#utility.yul\":11016:11138   */\n    tag_321:\n        /* \"#utility.yul\":11164:11170   */\n      dup4\n        /* \"#utility.yul\":11147:11367   */\n    tag_323:\n        /* \"#utility.yul\":11181:11187   */\n      dup2\n        /* \"#utility.yul\":11176:11179   */\n      dup2\n        /* \"#utility.yul\":11173:11188   */\n      lt\n        /* \"#utility.yul\":11147:11367   */\n      iszero\n      tag_325\n      jumpi\n        /* \"#utility.yul\":11256:11259   */\n      dup1\n        /* \"#utility.yul\":11285:11322   */\n      tag_326\n        /* \"#utility.yul\":11318:11321   */\n      dup9\n        /* \"#utility.yul\":11306:11316   */\n      dup3\n        /* \"#utility.yul\":11285:11322   */\n      tag_122\n      jump\t// in\n    tag_326:\n        /* \"#utility.yul\":11280:11283   */\n      dup5\n        /* \"#utility.yul\":11273:11323   */\n      mstore\n        /* \"#utility.yul\":11352:11356   */\n      0x20\n        /* \"#utility.yul\":11347:11350   */\n      dup5\n        /* \"#utility.yul\":11343:11357   */\n      add\n        /* \"#utility.yul\":11336:11357   */\n      swap4\n      pop\n        /* \"#utility.yul\":11223:11367   */\n      pop\n        /* \"#utility.yul\":11207:11211   */\n      0x20\n        /* \"#utility.yul\":11202:11205   */\n      dup2\n        /* \"#utility.yul\":11198:11212   */\n      add\n        /* \"#utility.yul\":11191:11212   */\n      swap1\n      pop\n        /* \"#utility.yul\":11147:11367   */\n      jump(tag_323)\n    tag_325:\n        /* \"#utility.yul\":11151:11172   */\n      pop\n        /* \"#utility.yul\":10830:11373   */\n      pop\n      pop\n        /* \"#utility.yul\":10730:11373   */\n      swap4\n      swap3\n      pop\n      pop\n      pop\n      jump\t// out\n        /* \"#utility.yul\":11397:11736   */\n    tag_154:\n        /* \"#utility.yul\":11466:11471   */\n      0x00\n        /* \"#utility.yul\":11515:11518   */\n      dup3\n        /* \"#utility.yul\":11508:11512   */\n      0x1f\n        /* \"#utility.yul\":11500:11506   */\n      dup4\n        /* \"#utility.yul\":11496:11513   */\n      add\n        /* \"#utility.yul\":11492:11519   */\n      slt\n        /* \"#utility.yul\":11482:11604   */\n      tag_328\n      jumpi\n        /* \"#utility.yul\":11523:11602   */\n      tag_329\n      tag_139\n      jump\t// in\n    tag_329:\n        /* \"#utility.yul\":11482:11604   */\n    tag_328:\n        /* \"#utility.yul\":11627:11631   */\n      0x03\n        /* \"#utility.yul\":11649:11730   */\n      tag_330\n        /* \"#utility.yul\":11726:11729   */\n      dup5\n        /* \"#utility.yul\":11718:11724   */\n      dup3\n        /* \"#utility.yul\":11710:11716   */\n      dup6\n        /* \"#utility.yul\":11649:11730   */\n      tag_153\n      jump\t// in\n    tag_330:\n        /* \"#utility.yul\":11640:11730   */\n      swap2\n      pop\n        /* \"#utility.yul\":11472:11736   */\n      pop\n        /* \"#utility.yul\":11397:11736   */\n      swap3\n      swap2\n      pop\n      pop\n      jump\t// out\n        /* \"#utility.yul\":11742:12117   */\n    tag_44:\n        /* \"#utility.yul\":11824:11830   */\n      0x00\n        /* \"#utility.yul\":11873:11875   */\n      0x60\n        /* \"#utility.yul\":11861:11870   */\n      dup3\n        /* \"#utility.yul\":11852:11859   */\n      dup5\n        /* \"#utility.yul\":11848:11871   */\n      sub\n        /* \"#utility.yul\":11844:11876   */\n      slt\n        /* \"#utility.yul\":11841:11960   */\n      iszero\n      tag_332\n      jumpi\n        /* \"#utility.yul\":11879:11958   */\n      tag_333\n      tag_118\n      jump\t// in\n    tag_333:\n        /* \"#utility.yul\":11841:11960   */\n    tag_332:\n        /* \"#utility.yul\":11999:12000   */\n      0x00\n        /* \"#utility.yul\":12024:12100   */\n      tag_334\n        /* \"#utility.yul\":12092:12099   */\n      dup5\n        /* \"#utility.yul\":12083:12089   */\n      dup3\n        /* \"#utility.yul\":12072:12081   */\n      dup6\n        /* \"#utility.yul\":12068:12090   */\n      add\n        /* \"#utility.yul\":12024:12100   */\n      tag_154\n      jump\t// in\n    tag_334:\n        /* \"#utility.yul\":12014:12100   */\n      swap2\n      pop\n        /* \"#utility.yul\":11970:12110   */\n      pop\n        /* \"#utility.yul\":11742:12117   */\n      swap3\n      swap2\n      pop\n      pop\n      jump\t// out\n        /* \"#utility.yul\":12123:12431   */\n    tag_155:\n        /* \"#utility.yul\":12185:12189   */\n      0x00\n        /* \"#utility.yul\":12275:12293   */\n      0xffffffffffffffff\n        /* \"#utility.yul\":12267:12273   */\n      dup3\n        /* \"#utility.yul\":12264:12294   */\n      gt\n        /* \"#utility.yul\":12261:12317   */\n      iszero\n      tag_336\n      jumpi\n        /* \"#utility.yul\":12297:12315   */\n      tag_337\n      tag_58\n      jump\t// in\n    tag_337:\n        /* \"#utility.yul\":12261:12317   */\n    tag_336:\n        /* \"#utility.yul\":12335:12364   */\n      tag_338\n        /* \"#utility.yul\":12357:12363   */\n      dup3\n        /* \"#utility.yul\":12335:12364   */\n      tag_135\n      jump\t// in\n    tag_338:\n        /* \"#utility.yul\":12327:12364   */\n      swap1\n      pop\n        /* \"#utility.yul\":12419:12423   */\n      0x20\n        /* \"#utility.yul\":12413:12417   */\n      dup2\n        /* \"#utility.yul\":12409:12424   */\n      add\n        /* \"#utility.yul\":12401:12424   */\n      swap1\n      pop\n        /* \"#utility.yul\":12123:12431   */\n      swap2\n      swap1\n      pop\n      jump\t// out\n        /* \"#utility.yul\":12437:12862   */\n    tag_156:\n        /* \"#utility.yul\":12515:12520   */\n      0x00\n        /* \"#utility.yul\":12540:12606   */\n      tag_340\n        /* \"#utility.yul\":12556:12605   */\n      tag_341\n        /* \"#utility.yul\":12598:12604   */\n      dup5\n        /* \"#utility.yul\":12556:12605   */\n      tag_155\n      jump\t// in\n    tag_341:\n        /* \"#utility.yul\":12540:12606   */\n      tag_137\n      jump\t// in\n    tag_340:\n        /* \"#utility.yul\":12531:12606   */\n      swap1\n      pop\n        /* \"#utility.yul\":12629:12635   */\n      dup3\n        /* \"#utility.yul\":12622:12627   */\n      dup2\n        /* \"#utility.yul\":12615:12636   */\n      mstore\n        /* \"#utility.yul\":12667:12671   */\n      0x20\n        /* \"#utility.yul\":12660:12665   */\n      dup2\n        /* \"#utility.yul\":12656:12672   */\n      add\n        /* \"#utility.yul\":12705:12708   */\n      dup5\n        /* \"#utility.yul\":12696:12702   */\n      dup5\n        /* \"#utility.yul\":12691:12694   */\n      dup5\n        /* \"#utility.yul\":12687:12703   */\n      add\n        /* \"#utility.yul\":12684:12709   */\n      gt\n        /* \"#utility.yul\":12681:12793   */\n      iszero\n      tag_342\n      jumpi\n        /* \"#utility.yul\":12712:12791   */\n      tag_343\n      tag_140\n      jump\t// in\n    tag_343:\n        /* \"#utility.yul\":12681:12793   */\n    tag_342:\n        /* \"#utility.yul\":12802:12856   */\n      tag_344\n        /* \"#utility.yul\":12849:12855   */\n      dup5\n        /* \"#utility.yul\":12844:12847   */\n      dup3\n        /* \"#utility.yul\":12839:12842   */\n      dup6\n        /* \"#utility.yul\":12802:12856   */\n      tag_142\n      jump\t// in\n    tag_344:\n        /* \"#utility.yul\":12521:12862   */\n      pop\n        /* \"#utility.yul\":12437:12862   */\n      swap4\n      swap3\n      pop\n      pop\n      pop\n      jump\t// out\n        /* \"#utility.yul\":12882:13222   */\n    tag_157:\n        /* \"#utility.yul\":12938:12943   */\n      0x00\n        /* \"#utility.yul\":12987:12990   */\n      dup3\n        /* \"#utility.yul\":12980:12984   */\n      0x1f\n        /* \"#utility.yul\":12972:12978   */\n      dup4\n        /* \"#utility.yul\":12968:12985   */\n      add\n        /* \"#utility.yul\":12964:12991   */\n      slt\n        /* \"#utility.yul\":12954:13076   */\n      tag_346\n      jumpi\n        /* \"#utility.yul\":12995:13074   */\n      tag_347\n      tag_139\n      jump\t// in\n    tag_347:\n        /* \"#utility.yul\":12954:13076   */\n    tag_346:\n        /* \"#utility.yul\":13112:13118   */\n      dup2\n        /* \"#utility.yul\":13099:13119   */\n      calldataload\n        /* \"#utility.yul\":13137:13216   */\n      tag_348\n        /* \"#utility.yul\":13212:13215   */\n      dup5\n        /* \"#utility.yul\":13204:13210   */\n      dup3\n        /* \"#utility.yul\":13197:13201   */\n      0x20\n        /* \"#utility.yul\":13189:13195   */\n      dup7\n        /* \"#utility.yul\":13185:13202   */\n      add\n        /* \"#utility.yul\":13137:13216   */\n      tag_156\n      jump\t// in\n    tag_348:\n        /* \"#utility.yul\":13128:13216   */\n      swap2\n      pop\n        /* \"#utility.yul\":12944:13222   */\n      pop\n        /* \"#utility.yul\":12882:13222   */\n      swap3\n      swap2\n      pop\n      pop\n      jump\t// out\n        /* \"#utility.yul\":13228:14092   */\n    tag_49:\n        /* \"#utility.yul\":13331:13337   */\n      0x00\n        /* \"#utility.yul\":13339:13345   */\n      dup1\n        /* \"#utility.yul\":13388:13390   */\n      0x40\n        /* \"#utility.yul\":13376:13385   */\n      dup4\n        /* \"#utility.yul\":13367:13374   */\n      dup6\n        /* \"#utility.yul\":13363:13386   */\n      sub\n        /* \"#utility.yul\":13359:13391   */\n      slt\n        /* \"#utility.yul\":13356:13475   */\n      iszero\n      tag_350\n      jumpi\n        /* \"#utility.yul\":13394:13473   */\n      tag_351\n      tag_118\n      jump\t// in\n    tag_351:\n        /* \"#utility.yul\":13356:13475   */\n    tag_350:\n        /* \"#utility.yul\":13542:13543   */\n      0x00\n        /* \"#utility.yul\":13531:13540   */\n      dup4\n        /* \"#utility.yul\":13527:13544   */\n      add\n        /* \"#utility.yul\":13514:13545   */\n      calldataload\n        /* \"#utility.yul\":13572:13590   */\n      0xffffffffffffffff\n        /* \"#utility.yul\":13564:13570   */\n      dup2\n        /* \"#utility.yul\":13561:13591   */\n      gt\n        /* \"#utility.yul\":13558:13675   */\n      iszero\n      tag_352\n      jumpi\n        /* \"#utility.yul\":13594:13673   */\n      tag_353\n      tag_119\n      jump\t// in\n    tag_353:\n        /* \"#utility.yul\":13558:13675   */\n    tag_352:\n        /* \"#utility.yul\":13699:13777   */\n      tag_354\n        /* \"#utility.yul\":13769:13776   */\n      dup6\n        /* \"#utility.yul\":13760:13766   */\n      dup3\n        /* \"#utility.yul\":13749:13758   */\n      dup7\n        /* \"#utility.yul\":13745:13767   */\n      add\n        /* \"#utility.yul\":13699:13777   */\n      tag_149\n      jump\t// in\n    tag_354:\n        /* \"#utility.yul\":13689:13777   */\n      swap3\n      pop\n        /* \"#utility.yul\":13485:13787   */\n      pop\n        /* \"#utility.yul\":13854:13856   */\n      0x20\n        /* \"#utility.yul\":13843:13852   */\n      dup4\n        /* \"#utility.yul\":13839:13857   */\n      add\n        /* \"#utility.yul\":13826:13858   */\n      calldataload\n        /* \"#utility.yul\":13885:13903   */\n      0xffffffffffffffff\n        /* \"#utility.yul\":13877:13883   */\n      dup2\n        /* \"#utility.yul\":13874:13904   */\n      gt\n        /* \"#utility.yul\":13871:13988   */\n      iszero\n      tag_355\n      jumpi\n        /* \"#utility.yul\":13907:13986   */\n      tag_356\n      tag_119\n      jump\t// in\n    tag_356:\n        /* \"#utility.yul\":13871:13988   */\n    tag_355:\n        /* \"#utility.yul\":14012:14075   */\n      tag_357\n        /* \"#utility.yul\":14067:14074   */\n      dup6\n        /* \"#utility.yul\":14058:14064   */\n      dup3\n        /* \"#utility.yul\":14047:14056   */\n      dup7\n        /* \"#utility.yul\":14043:14065   */\n      add\n        /* \"#utility.yul\":14012:14075   */\n      tag_157\n      jump\t// in\n    tag_357:\n        /* \"#utility.yul\":14002:14075   */\n      swap2\n      pop\n        /* \"#utility.yul\":13797:14085   */\n      pop\n        /* \"#utility.yul\":13228:14092   */\n      swap3\n      pop\n      swap3\n      swap1\n      pop\n      jump\t// out\n        /* \"#utility.yul\":14098:14278   */\n    tag_62:\n        /* \"#utility.yul\":14146:14223   */\n      0x4e487b7100000000000000000000000000000000000000000000000000000000\n        /* \"#utility.yul\":14143:14144   */\n      0x00\n        /* \"#utility.yul\":14136:14224   */\n      mstore\n        /* \"#utility.yul\":14243:14247   */\n      0x32\n        /* \"#utility.yul\":14240:14241   */\n      0x04\n        /* \"#utility.yul\":14233:14248   */\n      mstore\n        /* \"#utility.yul\":14267:14271   */\n      0x24\n        /* \"#utility.yul\":14264:14265   */\n      0x00\n        /* \"#utility.yul\":14257:14272   */\n      revert\n        /* \"#utility.yul\":14284:14382   */\n    tag_158:\n        /* \"#utility.yul\":14335:14341   */\n      0x00\n        /* \"#utility.yul\":14369:14374   */\n      dup2\n        /* \"#utility.yul\":14363:14375   */\n      mload\n        /* \"#utility.yul\":14353:14375   */\n      swap1\n      pop\n        /* \"#utility.yul\":14284:14382   */\n      swap2\n      swap1\n      pop\n      jump\t// out\n        /* \"#utility.yul\":14388:14535   */\n    tag_159:\n        /* \"#utility.yul\":14489:14500   */\n      0x00\n        /* \"#utility.yul\":14526:14529   */\n      dup2\n        /* \"#utility.yul\":14511:14529   */\n      swap1\n      pop\n        /* \"#utility.yul\":14388:14535   */\n      swap3\n      swap2\n      pop\n      pop\n      jump\t// out\n        /* \"#utility.yul\":14541:14680   */\n    tag_160:\n        /* \"#utility.yul\":14630:14636   */\n      dup3\n        /* \"#utility.yul\":14625:14628   */\n      dup2\n        /* \"#utility.yul\":14620:14623   */\n      dup4\n        /* \"#utility.yul\":14614:14637   */\n      mcopy\n        /* \"#utility.yul\":14671:14672   */\n      0x00\n        /* \"#utility.yul\":14662:14668   */\n      dup4\n        /* \"#utility.yul\":14657:14660   */\n      dup4\n        /* \"#utility.yul\":14653:14669   */\n      add\n        /* \"#utility.yul\":14646:14673   */\n      mstore\n        /* \"#utility.yul\":14541:14680   */\n      pop\n      pop\n      pop\n      jump\t// out\n        /* \"#utility.yul\":14686:15072   */\n    tag_161:\n        /* \"#utility.yul\":14790:14793   */\n      0x00\n        /* \"#utility.yul\":14818:14856   */\n      tag_363\n        /* \"#utility.yul\":14850:14855   */\n      dup3\n        /* \"#utility.yul\":14818:14856   */\n      tag_158\n      jump\t// in\n    tag_363:\n        /* \"#utility.yul\":14872:14960   */\n      tag_364\n        /* \"#utility.yul\":14953:14959   */\n      dup2\n        /* \"#utility.yul\":14948:14951   */\n      dup6\n        /* \"#utility.yul\":14872:14960   */\n      tag_159\n      jump\t// in\n    tag_364:\n        /* \"#utility.yul\":14865:14960   */\n      swap4\n      pop\n        /* \"#utility.yul\":14969:15034   */\n      tag_365\n        /* \"#utility.yul\":15027:15033   */\n      dup2\n        /* \"#utility.yul\":15022:15025   */\n      dup6\n        /* \"#utility.yul\":15015:15019   */\n      0x20\n        /* \"#utility.yul\":15008:15013   */\n      dup7\n        /* \"#utility.yul\":15004:15020   */\n      add\n        /* \"#utility.yul\":14969:15034   */\n      tag_160\n      jump\t// in\n    tag_365:\n        /* \"#utility.yul\":15059:15065   */\n      dup1\n        /* \"#utility.yul\":15054:15057   */\n      dup5\n        /* \"#utility.yul\":15050:15066   */\n      add\n        /* \"#utility.yul\":15043:15066   */\n      swap2\n      pop\n        /* \"#utility.yul\":14794:15072   */\n      pop\n        /* \"#utility.yul\":14686:15072   */\n      swap3\n      swap2\n      pop\n      pop\n      jump\t// out\n        /* \"#utility.yul\":15078:15349   */\n    tag_70:\n        /* \"#utility.yul\":15208:15211   */\n      0x00\n        /* \"#utility.yul\":15230:15323   */\n      tag_367\n        /* \"#utility.yul\":15319:15322   */\n      dup3\n        /* \"#utility.yul\":15310:15316   */\n      dup5\n        /* \"#utility.yul\":15230:15323   */\n      tag_161\n      jump\t// in\n    tag_367:\n        /* \"#utility.yul\":15223:15323   */\n      swap2\n      pop\n        /* \"#utility.yul\":15340:15343   */\n      dup2\n        /* \"#utility.yul\":15333:15343   */\n      swap1\n      pop\n        /* \"#utility.yul\":15078:15349   */\n      swap3\n      swap2\n      pop\n      pop\n      jump\t// out\n        /* \"#utility.yul\":15355:15440   */\n    tag_162:\n        /* \"#utility.yul\":15400:15407   */\n      0x00\n        /* \"#utility.yul\":15429:15434   */\n      dup2\n        /* \"#utility.yul\":15418:15434   */\n      swap1\n      pop\n        /* \"#utility.yul\":15355:15440   */\n      swap2\n      swap1\n      pop\n      jump\t// out\n        /* \"#utility.yul\":15446:15532   */\n    tag_163:\n        /* \"#utility.yul\":15481:15488   */\n      0x00\n        /* \"#utility.yul\":15521:15525   */\n      0xff\n        /* \"#utility.yul\":15514:15519   */\n      dup3\n        /* \"#utility.yul\":15510:15526   */\n      and\n        /* \"#utility.yul\":15499:15526   */\n      swap1\n      pop\n        /* \"#utility.yul\":15446:15532   */\n      swap2\n      swap1\n      pop\n      jump\t// out\n        /* \"#utility.yul\":15538:15598   */\n    tag_164:\n        /* \"#utility.yul\":15566:15569   */\n      0x00\n        /* \"#utility.yul\":15587:15592   */\n      dup2\n        /* \"#utility.yul\":15580:15592   */\n      swap1\n      pop\n        /* \"#utility.yul\":15538:15598   */\n      swap2\n      swap1\n      pop\n      jump\t// out\n        /* \"#utility.yul\":15604:15758   */\n    tag_165:\n        /* \"#utility.yul\":15660:15669   */\n      0x00\n        /* \"#utility.yul\":15693:15752   */\n      tag_372\n        /* \"#utility.yul\":15709:15751   */\n      tag_373\n        /* \"#utility.yul\":15718:15750   */\n      tag_374\n        /* \"#utility.yul\":15744:15749   */\n      dup5\n        /* \"#utility.yul\":15718:15750   */\n      tag_162\n      jump\t// in\n    tag_374:\n        /* \"#utility.yul\":15709:15751   */\n      tag_164\n      jump\t// in\n    tag_373:\n        /* \"#utility.yul\":15693:15752   */\n      tag_163\n      jump\t// in\n    tag_372:\n        /* \"#utility.yul\":15680:15752   */\n      swap1\n      pop\n        /* \"#utility.yul\":15604:15758   */\n      swap2\n      swap1\n      pop\n      jump\t// out\n        /* \"#utility.yul\":15764:15907   */\n    tag_166:\n        /* \"#utility.yul\":15857:15900   */\n      tag_376\n        /* \"#utility.yul\":15894:15899   */\n      dup2\n        /* \"#utility.yul\":15857:15900   */\n      tag_165\n      jump\t// in\n    tag_376:\n        /* \"#utility.yul\":15852:15855   */\n      dup3\n        /* \"#utility.yul\":15845:15901   */\n      mstore\n        /* \"#utility.yul\":15764:15907   */\n      pop\n      pop\n      jump\t// out\n        /* \"#utility.yul\":15913:15998   */\n    tag_167:\n        /* \"#utility.yul\":15958:15965   */\n      0x00\n        /* \"#utility.yul\":15987:15992   */\n      dup2\n        /* \"#utility.yul\":15976:15992   */\n      swap1\n      pop\n        /* \"#utility.yul\":15913:15998   */\n      swap2\n      swap1\n      pop\n      jump\t// out\n        /* \"#utility.yul\":16004:16158   */\n    tag_168:\n        /* \"#utility.yul\":16060:16069   */\n      0x00\n        /* \"#utility.yul\":16093:16152   */\n      tag_379\n        /* \"#utility.yul\":16109:16151   */\n      tag_380\n        /* \"#utility.yul\":16118:16150   */\n      tag_381\n        /* \"#utility.yul\":16144:16149   */\n      dup5\n        /* \"#utility.yul\":16118:16150   */\n      tag_167\n      jump\t// in\n    tag_381:\n        /* \"#utility.yul\":16109:16151   */\n      tag_164\n      jump\t// in\n    tag_380:\n        /* \"#utility.yul\":16093:16152   */\n      tag_163\n      jump\t// in\n    tag_379:\n        /* \"#utility.yul\":16080:16152   */\n      swap1\n      pop\n        /* \"#utility.yul\":16004:16158   */\n      swap2\n      swap1\n      pop\n      jump\t// out\n        /* \"#utility.yul\":16164:16307   */\n    tag_169:\n        /* \"#utility.yul\":16257:16300   */\n      tag_383\n        /* \"#utility.yul\":16294:16299   */\n      dup2\n        /* \"#utility.yul\":16257:16300   */\n      tag_168\n      jump\t// in\n    tag_383:\n        /* \"#utility.yul\":16252:16255   */\n      dup3\n        /* \"#utility.yul\":16245:16301   */\n      mstore\n        /* \"#utility.yul\":16164:16307   */\n      pop\n      pop\n      jump\t// out\n        /* \"#utility.yul\":16313:16669   */\n    tag_75:\n        /* \"#utility.yul\":16446:16450   */\n      0x00\n        /* \"#utility.yul\":16484:16486   */\n      0x40\n        /* \"#utility.yul\":16473:16482   */\n      dup3\n        /* \"#utility.yul\":16469:16487   */\n      add\n        /* \"#utility.yul\":16461:16487   */\n      swap1\n      pop\n        /* \"#utility.yul\":16497:16574   */\n      tag_385\n        /* \"#utility.yul\":16571:16572   */\n      0x00\n        /* \"#utility.yul\":16560:16569   */\n      dup4\n        /* \"#utility.yul\":16556:16573   */\n      add\n        /* \"#utility.yul\":16547:16553   */\n      dup6\n        /* \"#utility.yul\":16497:16574   */\n      tag_166\n      jump\t// in\n    tag_385:\n        /* \"#utility.yul\":16584:16662   */\n      tag_386\n        /* \"#utility.yul\":16658:16660   */\n      0x20\n        /* \"#utility.yul\":16647:16656   */\n      dup4\n        /* \"#utility.yul\":16643:16661   */\n      add\n        /* \"#utility.yul\":16634:16640   */\n      dup5\n        /* \"#utility.yul\":16584:16662   */\n      tag_169\n      jump\t// in\n    tag_386:\n        /* \"#utility.yul\":16313:16669   */\n      swap4\n      swap3\n      pop\n      pop\n      pop\n      jump\t// out\n        /* \"#utility.yul\":16675:16777   */\n    tag_170:\n        /* \"#utility.yul\":16738:16744   */\n      0x00\n        /* \"#utility.yul\":16766:16770   */\n      0x03\n        /* \"#utility.yul\":16756:16770   */\n      swap1\n      pop\n        /* \"#utility.yul\":16675:16777   */\n      swap2\n      swap1\n      pop\n      jump\t// out\n        /* \"#utility.yul\":16783:16924   */\n    tag_171:\n        /* \"#utility.yul\":16878:16889   */\n      0x00\n        /* \"#utility.yul\":16915:16918   */\n      dup2\n        /* \"#utility.yul\":16900:16918   */\n      swap1\n      pop\n        /* \"#utility.yul\":16783:16924   */\n      swap3\n      swap2\n      pop\n      pop\n      jump\t// out\n        /* \"#utility.yul\":16930:17026   */\n    tag_172:\n        /* \"#utility.yul\":16993:16997   */\n      0x00\n        /* \"#utility.yul\":17016:17019   */\n      dup2\n        /* \"#utility.yul\":17008:17019   */\n      swap1\n      pop\n        /* \"#utility.yul\":16930:17026   */\n      swap2\n      swap1\n      pop\n      jump\t// out\n        /* \"#utility.yul\":17032:17134   */\n    tag_173:\n        /* \"#utility.yul\":17105:17127   */\n      tag_391\n        /* \"#utility.yul\":17121:17126   */\n      dup2\n        /* \"#utility.yul\":17105:17127   */\n      tag_163\n      jump\t// in\n    tag_391:\n        /* \"#utility.yul\":17100:17103   */\n      dup3\n        /* \"#utility.yul\":17093:17128   */\n      mstore\n        /* \"#utility.yul\":17032:17134   */\n      pop\n      pop\n      jump\t// out\n        /* \"#utility.yul\":17140:17311   */\n    tag_174:\n        /* \"#utility.yul\":17205:17215   */\n      0x00\n        /* \"#utility.yul\":17226:17268   */\n      tag_393\n        /* \"#utility.yul\":17264:17267   */\n      dup4\n        /* \"#utility.yul\":17256:17262   */\n      dup4\n        /* \"#utility.yul\":17226:17268   */\n      tag_173\n      jump\t// in\n    tag_393:\n        /* \"#utility.yul\":17300:17304   */\n      0x20\n        /* \"#utility.yul\":17295:17298   */\n      dup4\n        /* \"#utility.yul\":17291:17305   */\n      add\n        /* \"#utility.yul\":17277:17305   */\n      swap1\n      pop\n        /* \"#utility.yul\":17140:17311   */\n      swap3\n      swap2\n      pop\n      pop\n      jump\t// out\n        /* \"#utility.yul\":17317:17426   */\n    tag_175:\n        /* \"#utility.yul\":17383:17387   */\n      0x00\n        /* \"#utility.yul\":17415:17419   */\n      0x20\n        /* \"#utility.yul\":17410:17413   */\n      dup3\n        /* \"#utility.yul\":17406:17420   */\n      add\n        /* \"#utility.yul\":17398:17420   */\n      swap1\n      pop\n        /* \"#utility.yul\":17317:17426   */\n      swap2\n      swap1\n      pop\n      jump\t// out\n        /* \"#utility.yul\":17460:18138   */\n    tag_176:\n        /* \"#utility.yul\":17592:17642   */\n      tag_396\n        /* \"#utility.yul\":17636:17641   */\n      dup2\n        /* \"#utility.yul\":17592:17642   */\n      tag_170\n      jump\t// in\n    tag_396:\n        /* \"#utility.yul\":17658:17740   */\n      tag_397\n        /* \"#utility.yul\":17733:17739   */\n      dup2\n        /* \"#utility.yul\":17728:17731   */\n      dup5\n        /* \"#utility.yul\":17658:17740   */\n      tag_171\n      jump\t// in\n    tag_397:\n        /* \"#utility.yul\":17651:17740   */\n      swap3\n      pop\n        /* \"#utility.yul\":17764:17816   */\n      tag_398\n        /* \"#utility.yul\":17810:17815   */\n      dup3\n        /* \"#utility.yul\":17764:17816   */\n      tag_172\n      jump\t// in\n    tag_398:\n        /* \"#utility.yul\":17839:17846   */\n      dup1\n        /* \"#utility.yul\":17870:17871   */\n      0x00\n        /* \"#utility.yul\":17855:18131   */\n    tag_399:\n        /* \"#utility.yul\":17880:17886   */\n      dup4\n        /* \"#utility.yul\":17877:17878   */\n      dup2\n        /* \"#utility.yul\":17874:17887   */\n      lt\n        /* \"#utility.yul\":17855:18131   */\n      iszero\n      tag_401\n      jumpi\n        /* \"#utility.yul\":17956:17962   */\n      dup2\n        /* \"#utility.yul\":17950:17963   */\n      mload\n        /* \"#utility.yul\":17983:18042   */\n      tag_402\n        /* \"#utility.yul\":18038:18041   */\n      dup8\n        /* \"#utility.yul\":18023:18036   */\n      dup3\n        /* \"#utility.yul\":17983:18042   */\n      tag_174\n      jump\t// in\n    tag_402:\n        /* \"#utility.yul\":17976:18042   */\n      swap7\n      pop\n        /* \"#utility.yul\":18065:18121   */\n      tag_403\n        /* \"#utility.yul\":18114:18120   */\n      dup4\n        /* \"#utility.yul\":18065:18121   */\n      tag_175\n      jump\t// in\n    tag_403:\n        /* \"#utility.yul\":18055:18121   */\n      swap3\n      pop\n        /* \"#utility.yul\":17915:18131   */\n      pop\n        /* \"#utility.yul\":17902:17903   */\n      0x01\n        /* \"#utility.yul\":17899:17900   */\n      dup2\n        /* \"#utility.yul\":17895:17904   */\n      add\n        /* \"#utility.yul\":17890:17904   */\n      swap1\n      pop\n        /* \"#utility.yul\":17855:18131   */\n      jump(tag_399)\n    tag_401:\n        /* \"#utility.yul\":17859:17873   */\n      pop\n        /* \"#utility.yul\":17568:18138   */\n      pop\n      pop\n      pop\n        /* \"#utility.yul\":17460:18138   */\n      pop\n      pop\n      jump\t// out\n        /* \"#utility.yul\":18144:18450   */\n    tag_81:\n        /* \"#utility.yul\":18279:18283   */\n      0x00\n        /* \"#utility.yul\":18317:18319   */\n      0x60\n        /* \"#utility.yul\":18306:18315   */\n      dup3\n        /* \"#utility.yul\":18302:18320   */\n      add\n        /* \"#utility.yul\":18294:18320   */\n      swap1\n      pop\n        /* \"#utility.yul\":18330:18443   */\n      tag_405\n        /* \"#utility.yul\":18440:18441   */\n      0x00\n        /* \"#utility.yul\":18429:18438   */\n      dup4\n        /* \"#utility.yul\":18425:18442   */\n      add\n        /* \"#utility.yul\":18416:18422   */\n      dup5\n        /* \"#utility.yul\":18330:18443   */\n      tag_176\n      jump\t// in\n    tag_405:\n        /* \"#utility.yul\":18144:18450   */\n      swap3\n      swap2\n      pop\n      pop\n      jump\t// out\n        /* \"#utility.yul\":18456:18570   */\n    tag_177:\n        /* \"#utility.yul\":18523:18529   */\n      0x00\n        /* \"#utility.yul\":18557:18562   */\n      dup2\n        /* \"#utility.yul\":18551:18563   */\n      mload\n        /* \"#utility.yul\":18541:18563   */\n      swap1\n      pop\n        /* \"#utility.yul\":18456:18570   */\n      swap2\n      swap1\n      pop\n      jump\t// out\n        /* \"#utility.yul\":18576:18760   */\n    tag_178:\n        /* \"#utility.yul\":18675:18686   */\n      0x00\n        /* \"#utility.yul\":18709:18715   */\n      dup3\n        /* \"#utility.yul\":18704:18707   */\n      dup3\n        /* \"#utility.yul\":18697:18716   */\n      mstore\n        /* \"#utility.yul\":18749:18753   */\n      0x20\n        /* \"#utility.yul\":18744:18747   */\n      dup3\n        /* \"#utility.yul\":18740:18754   */\n      add\n        /* \"#utility.yul\":18725:18754   */\n      swap1\n      pop\n        /* \"#utility.yul\":18576:18760   */\n      swap3\n      swap2\n      pop\n      pop\n      jump\t// out\n        /* \"#utility.yul\":18766:18898   */\n    tag_179:\n        /* \"#utility.yul\":18833:18837   */\n      0x00\n        /* \"#utility.yul\":18856:18859   */\n      dup2\n        /* \"#utility.yul\":18848:18859   */\n      swap1\n      pop\n        /* \"#utility.yul\":18886:18890   */\n      0x20\n        /* \"#utility.yul\":18881:18884   */\n      dup3\n        /* \"#utility.yul\":18877:18891   */\n      add\n        /* \"#utility.yul\":18869:18891   */\n      swap1\n      pop\n        /* \"#utility.yul\":18766:18898   */\n      swap2\n      swap1\n      pop\n      jump\t// out\n        /* \"#utility.yul\":18904:19012   */\n    tag_180:\n        /* \"#utility.yul\":18981:19005   */\n      tag_410\n        /* \"#utility.yul\":18999:19004   */\n      dup2\n        /* \"#utility.yul\":18981:19005   */\n      tag_120\n      jump\t// in\n    tag_410:\n        /* \"#utility.yul\":18976:18979   */\n      dup3\n        /* \"#utility.yul\":18969:19006   */\n      mstore\n        /* \"#utility.yul\":18904:19012   */\n      pop\n      pop\n      jump\t// out\n        /* \"#utility.yul\":19018:19197   */\n    tag_181:\n        /* \"#utility.yul\":19087:19097   */\n      0x00\n        /* \"#utility.yul\":19108:19154   */\n      tag_412\n        /* \"#utility.yul\":19150:19153   */\n      dup4\n        /* \"#utility.yul\":19142:19148   */\n      dup4\n        /* \"#utility.yul\":19108:19154   */\n      tag_180\n      jump\t// in\n    tag_412:\n        /* \"#utility.yul\":19186:19190   */\n      0x20\n        /* \"#utility.yul\":19181:19184   */\n      dup4\n        /* \"#utility.yul\":19177:19191   */\n      add\n        /* \"#utility.yul\":19163:19191   */\n      swap1\n      pop\n        /* \"#utility.yul\":19018:19197   */\n      swap3\n      swap2\n      pop\n      pop\n      jump\t// out\n        /* \"#utility.yul\":19203:19316   */\n    tag_182:\n        /* \"#utility.yul\":19273:19277   */\n      0x00\n        /* \"#utility.yul\":19305:19309   */\n      0x20\n        /* \"#utility.yul\":19300:19303   */\n      dup3\n        /* \"#utility.yul\":19296:19310   */\n      add\n        /* \"#utility.yul\":19288:19310   */\n      swap1\n      pop\n        /* \"#utility.yul\":19203:19316   */\n      swap2\n      swap1\n      pop\n      jump\t// out\n        /* \"#utility.yul\":19352:20084   */\n    tag_183:\n        /* \"#utility.yul\":19471:19474   */\n      0x00\n        /* \"#utility.yul\":19500:19554   */\n      tag_415\n        /* \"#utility.yul\":19548:19553   */\n      dup3\n        /* \"#utility.yul\":19500:19554   */\n      tag_177\n      jump\t// in\n    tag_415:\n        /* \"#utility.yul\":19570:19656   */\n      tag_416\n        /* \"#utility.yul\":19649:19655   */\n      dup2\n        /* \"#utility.yul\":19644:19647   */\n      dup6\n        /* \"#utility.yul\":19570:19656   */\n      tag_178\n      jump\t// in\n    tag_416:\n        /* \"#utility.yul\":19563:19656   */\n      swap4\n      pop\n        /* \"#utility.yul\":19680:19736   */\n      tag_417\n        /* \"#utility.yul\":19730:19735   */\n      dup4\n        /* \"#utility.yul\":19680:19736   */\n      tag_179\n      jump\t// in\n    tag_417:\n        /* \"#utility.yul\":19759:19766   */\n      dup1\n        /* \"#utility.yul\":19790:19791   */\n      0x00\n        /* \"#utility.yul\":19775:20059   */\n    tag_418:\n        /* \"#utility.yul\":19800:19806   */\n      dup4\n        /* \"#utility.yul\":19797:19798   */\n      dup2\n        /* \"#utility.yul\":19794:19807   */\n      lt\n        /* \"#utility.yul\":19775:20059   */\n      iszero\n      tag_420\n      jumpi\n        /* \"#utility.yul\":19876:19882   */\n      dup2\n        /* \"#utility.yul\":19870:19883   */\n      mload\n        /* \"#utility.yul\":19903:19966   */\n      tag_421\n        /* \"#utility.yul\":19962:19965   */\n      dup9\n        /* \"#utility.yul\":19947:19960   */\n      dup3\n        /* \"#utility.yul\":19903:19966   */\n      tag_181\n      jump\t// in\n    tag_421:\n        /* \"#utility.yul\":19896:19966   */\n      swap8\n      pop\n        /* \"#utility.yul\":19989:20049   */\n      tag_422\n        /* \"#utility.yul\":20042:20048   */\n      dup4\n        /* \"#utility.yul\":19989:20049   */\n      tag_182\n      jump\t// in\n    tag_422:\n        /* \"#utility.yul\":19979:20049   */\n      swap3\n      pop\n        /* \"#utility.yul\":19835:20059   */\n      pop\n        /* \"#utility.yul\":19822:19823   */\n      0x01\n        /* \"#utility.yul\":19819:19820   */\n      dup2\n        /* \"#utility.yul\":19815:19824   */\n      add\n        /* \"#utility.yul\":19810:19824   */\n      swap1\n      pop\n        /* \"#utility.yul\":19775:20059   */\n      jump(tag_418)\n    tag_420:\n        /* \"#utility.yul\":19779:19793   */\n      pop\n        /* \"#utility.yul\":20075:20078   */\n      dup6\n        /* \"#utility.yul\":20068:20078   */\n      swap4\n      pop\n        /* \"#utility.yul\":19476:20084   */\n      pop\n      pop\n      pop\n        /* \"#utility.yul\":19352:20084   */\n      swap3\n      swap2\n      pop\n      pop\n      jump\t// out\n        /* \"#utility.yul\":20090:20259   */\n    tag_184:\n        /* \"#utility.yul\":20174:20185   */\n      0x00\n        /* \"#utility.yul\":20208:20214   */\n      dup3\n        /* \"#utility.yul\":20203:20206   */\n      dup3\n        /* \"#utility.yul\":20196:20215   */\n      mstore\n        /* \"#utility.yul\":20248:20252   */\n      0x20\n        /* \"#utility.yul\":20243:20246   */\n      dup3\n        /* \"#utility.yul\":20239:20253   */\n      add\n        /* \"#utility.yul\":20224:20253   */\n      swap1\n      pop\n        /* \"#utility.yul\":20090:20259   */\n      swap3\n      swap2\n      pop\n      pop\n      jump\t// out\n        /* \"#utility.yul\":20265:20418   */\n    tag_185:\n        /* \"#utility.yul\":20405:20410   */\n      0x6162630000000000000000000000000000000000000000000000000000000000\n        /* \"#utility.yul\":20401:20402   */\n      0x00\n        /* \"#utility.yul\":20393:20399   */\n      dup3\n        /* \"#utility.yul\":20389:20403   */\n      add\n        /* \"#utility.yul\":20382:20411   */\n      mstore\n        /* \"#utility.yul\":20265:20418   */\n      pop\n      jump\t// out\n        /* \"#utility.yul\":20424:20789   */\n    tag_186:\n        /* \"#utility.yul\":20566:20569   */\n      0x00\n        /* \"#utility.yul\":20587:20653   */\n      tag_426\n        /* \"#utility.yul\":20651:20652   */\n      0x03\n        /* \"#utility.yul\":20646:20649   */\n      dup4\n        /* \"#utility.yul\":20587:20653   */\n      tag_184\n      jump\t// in\n    tag_426:\n        /* \"#utility.yul\":20580:20653   */\n      swap2\n      pop\n        /* \"#utility.yul\":20662:20755   */\n      tag_427\n        /* \"#utility.yul\":20751:20754   */\n      dup3\n        /* \"#utility.yul\":20662:20755   */\n      tag_185\n      jump\t// in\n    tag_427:\n        /* \"#utility.yul\":20780:20782   */\n      0x20\n        /* \"#utility.yul\":20775:20778   */\n      dup3\n        /* \"#utility.yul\":20771:20783   */\n      add\n        /* \"#utility.yul\":20764:20783   */\n      swap1\n      pop\n        /* \"#utility.yul\":20424:20789   */\n      swap2\n      swap1\n      pop\n      jump\t// out\n        /* \"#utility.yul\":20795:21475   */\n    tag_87:\n        /* \"#utility.yul\":21039:21043   */\n      0x00\n        /* \"#utility.yul\":21077:21079   */\n      0x40\n        /* \"#utility.yul\":21066:21075   */\n      dup3\n        /* \"#utility.yul\":21062:21080   */\n      add\n        /* \"#utility.yul\":21054:21080   */\n      swap1\n      pop\n        /* \"#utility.yul\":21126:21135   */\n      dup2\n        /* \"#utility.yul\":21120:21124   */\n      dup2\n        /* \"#utility.yul\":21116:21136   */\n      sub\n        /* \"#utility.yul\":21112:21113   */\n      0x00\n        /* \"#utility.yul\":21101:21110   */\n      dup4\n        /* \"#utility.yul\":21097:21114   */\n      add\n        /* \"#utility.yul\":21090:21137   */\n      mstore\n        /* \"#utility.yul\":21154:21262   */\n      tag_429\n        /* \"#utility.yul\":21257:21261   */\n      dup2\n        /* \"#utility.yul\":21248:21254   */\n      dup5\n        /* \"#utility.yul\":21154:21262   */\n      tag_183\n      jump\t// in\n    tag_429:\n        /* \"#utility.yul\":21146:21262   */\n      swap1\n      pop\n        /* \"#utility.yul\":21309:21318   */\n      dup2\n        /* \"#utility.yul\":21303:21307   */\n      dup2\n        /* \"#utility.yul\":21299:21319   */\n      sub\n        /* \"#utility.yul\":21294:21296   */\n      0x20\n        /* \"#utility.yul\":21283:21292   */\n      dup4\n        /* \"#utility.yul\":21279:21297   */\n      add\n        /* \"#utility.yul\":21272:21320   */\n      mstore\n        /* \"#utility.yul\":21337:21468   */\n      tag_430\n        /* \"#utility.yul\":21463:21467   */\n      dup2\n        /* \"#utility.yul\":21337:21468   */\n      tag_186\n      jump\t// in\n    tag_430:\n        /* \"#utility.yul\":21329:21468   */\n      swap1\n      pop\n        /* \"#utility.yul\":20795:21475   */\n      swap3\n      swap2\n      pop\n      pop\n      jump\t// out\n        /* \"#utility.yul\":21481:21599   */\n    tag_187:\n        /* \"#utility.yul\":21568:21592   */\n      tag_432\n        /* \"#utility.yul\":21586:21591   */\n      dup2\n        /* \"#utility.yul\":21568:21592   */\n      tag_127\n      jump\t// in\n    tag_432:\n        /* \"#utility.yul\":21563:21566   */\n      dup3\n        /* \"#utility.yul\":21556:21593   */\n      mstore\n        /* \"#utility.yul\":21481:21599   */\n      pop\n      pop\n      jump\t// out\n        /* \"#utility.yul\":21605:21763   */\n    tag_188:\n        /* \"#utility.yul\":21678:21689   */\n      0x00\n        /* \"#utility.yul\":21712:21718   */\n      dup3\n        /* \"#utility.yul\":21707:21710   */\n      dup3\n        /* \"#utility.yul\":21700:21719   */\n      mstore\n        /* \"#utility.yul\":21752:21756   */\n      0x20\n        /* \"#utility.yul\":21747:21750   */\n      dup3\n        /* \"#utility.yul\":21743:21757   */\n      add\n        /* \"#utility.yul\":21728:21757   */\n      swap1\n      pop\n        /* \"#utility.yul\":21605:21763   */\n      swap3\n      swap2\n      pop\n      pop\n      jump\t// out\n        /* \"#utility.yul\":21769:22122   */\n    tag_189:\n        /* \"#utility.yul\":21845:21848   */\n      0x00\n        /* \"#utility.yul\":21873:21911   */\n      tag_435\n        /* \"#utility.yul\":21905:21910   */\n      dup3\n        /* \"#utility.yul\":21873:21911   */\n      tag_158\n      jump\t// in\n    tag_435:\n        /* \"#utility.yul\":21927:21987   */\n      tag_436\n        /* \"#utility.yul\":21980:21986   */\n      dup2\n        /* \"#utility.yul\":21975:21978   */\n      dup6\n        /* \"#utility.yul\":21927:21987   */\n      tag_188\n      jump\t// in\n    tag_436:\n        /* \"#utility.yul\":21920:21987   */\n      swap4\n      pop\n        /* \"#utility.yul\":21996:22061   */\n      tag_437\n        /* \"#utility.yul\":22054:22060   */\n      dup2\n        /* \"#utility.yul\":22049:22052   */\n      dup6\n        /* \"#utility.yul\":22042:22046   */\n      0x20\n        /* \"#utility.yul\":22035:22040   */\n      dup7\n        /* \"#utility.yul\":22031:22047   */\n      add\n        /* \"#utility.yul\":21996:22061   */\n      tag_160\n      jump\t// in\n    tag_437:\n        /* \"#utility.yul\":22086:22115   */\n      tag_438\n        /* \"#utility.yul\":22108:22114   */\n      dup2\n        /* \"#utility.yul\":22086:22115   */\n      tag_135\n      jump\t// in\n    tag_438:\n        /* \"#utility.yul\":22081:22084   */\n      dup5\n        /* \"#utility.yul\":22077:22116   */\n      add\n        /* \"#utility.yul\":22070:22116   */\n      swap2\n      pop\n        /* \"#utility.yul\":21849:22122   */\n      pop\n        /* \"#utility.yul\":21769:22122   */\n      swap3\n      swap2\n      pop\n      pop\n      jump\t// out\n        /* \"#utility.yul\":22180:22775   */\n    tag_190:\n        /* \"#utility.yul\":22291:22294   */\n      0x00\n        /* \"#utility.yul\":22327:22331   */\n      0x40\n        /* \"#utility.yul\":22322:22325   */\n      dup4\n        /* \"#utility.yul\":22318:22332   */\n      add\n        /* \"#utility.yul\":22413:22417   */\n      0x00\n        /* \"#utility.yul\":22406:22411   */\n      dup4\n        /* \"#utility.yul\":22402:22418   */\n      add\n        /* \"#utility.yul\":22396:22419   */\n      mload\n        /* \"#utility.yul\":22432:22495   */\n      tag_440\n        /* \"#utility.yul\":22489:22493   */\n      0x00\n        /* \"#utility.yul\":22484:22487   */\n      dup7\n        /* \"#utility.yul\":22480:22494   */\n      add\n        /* \"#utility.yul\":22466:22478   */\n      dup3\n        /* \"#utility.yul\":22432:22495   */\n      tag_180\n      jump\t// in\n    tag_440:\n        /* \"#utility.yul\":22342:22505   */\n      pop\n        /* \"#utility.yul\":22587:22591   */\n      0x20\n        /* \"#utility.yul\":22580:22585   */\n      dup4\n        /* \"#utility.yul\":22576:22592   */\n      add\n        /* \"#utility.yul\":22570:22593   */\n      mload\n        /* \"#utility.yul\":22640:22643   */\n      dup5\n        /* \"#utility.yul\":22634:22638   */\n      dup3\n        /* \"#utility.yul\":22630:22644   */\n      sub\n        /* \"#utility.yul\":22623:22627   */\n      0x20\n        /* \"#utility.yul\":22618:22621   */\n      dup7\n        /* \"#utility.yul\":22614:22628   */\n      add\n        /* \"#utility.yul\":22607:22645   */\n      mstore\n        /* \"#utility.yul\":22666:22737   */\n      tag_441\n        /* \"#utility.yul\":22732:22736   */\n      dup3\n        /* \"#utility.yul\":22718:22730   */\n      dup3\n        /* \"#utility.yul\":22666:22737   */\n      tag_189\n      jump\t// in\n    tag_441:\n        /* \"#utility.yul\":22658:22737   */\n      swap2\n      pop\n        /* \"#utility.yul\":22515:22748   */\n      pop\n        /* \"#utility.yul\":22765:22769   */\n      dup1\n        /* \"#utility.yul\":22758:22769   */\n      swap2\n      pop\n        /* \"#utility.yul\":22296:22775   */\n      pop\n        /* \"#utility.yul\":22180:22775   */\n      swap3\n      swap2\n      pop\n      pop\n      jump\t// out\n        /* \"#utility.yul\":22781:23632   */\n    tag_93:\n        /* \"#utility.yul\":23056:23060   */\n      0x00\n        /* \"#utility.yul\":23094:23097   */\n      0x80\n        /* \"#utility.yul\":23083:23092   */\n      dup3\n        /* \"#utility.yul\":23079:23098   */\n      add\n        /* \"#utility.yul\":23071:23098   */\n      swap1\n      pop\n        /* \"#utility.yul\":23108:23179   */\n      tag_443\n        /* \"#utility.yul\":23176:23177   */\n      0x00\n        /* \"#utility.yul\":23165:23174   */\n      dup4\n        /* \"#utility.yul\":23161:23178   */\n      add\n        /* \"#utility.yul\":23152:23158   */\n      dup8\n        /* \"#utility.yul\":23108:23179   */\n      tag_187\n      jump\t// in\n    tag_443:\n        /* \"#utility.yul\":23226:23235   */\n      dup2\n        /* \"#utility.yul\":23220:23224   */\n      dup2\n        /* \"#utility.yul\":23216:23236   */\n      sub\n        /* \"#utility.yul\":23211:23213   */\n      0x20\n        /* \"#utility.yul\":23200:23209   */\n      dup4\n        /* \"#utility.yul\":23196:23214   */\n      add\n        /* \"#utility.yul\":23189:23237   */\n      mstore\n        /* \"#utility.yul\":23254:23354   */\n      tag_444\n        /* \"#utility.yul\":23349:23353   */\n      dup2\n        /* \"#utility.yul\":23340:23346   */\n      dup7\n        /* \"#utility.yul\":23254:23354   */\n      tag_190\n      jump\t// in\n    tag_444:\n        /* \"#utility.yul\":23246:23354   */\n      swap1\n      pop\n        /* \"#utility.yul\":23401:23410   */\n      dup2\n        /* \"#utility.yul\":23395:23399   */\n      dup2\n        /* \"#utility.yul\":23391:23411   */\n      sub\n        /* \"#utility.yul\":23386:23388   */\n      0x40\n        /* \"#utility.yul\":23375:23384   */\n      dup4\n        /* \"#utility.yul\":23371:23389   */\n      add\n        /* \"#utility.yul\":23364:23412   */\n      mstore\n        /* \"#utility.yul\":23429:23537   */\n      tag_445\n        /* \"#utility.yul\":23532:23536   */\n      dup2\n        /* \"#utility.yul\":23523:23529   */\n      dup6\n        /* \"#utility.yul\":23429:23537   */\n      tag_183\n      jump\t// in\n    tag_445:\n        /* \"#utility.yul\":23421:23537   */\n      swap1\n      pop\n        /* \"#utility.yul\":23547:23625   */\n      tag_446\n        /* \"#utility.yul\":23621:23623   */\n      0x60\n        /* \"#utility.yul\":23610:23619   */\n      dup4\n        /* \"#utility.yul\":23606:23624   */\n      add\n        /* \"#utility.yul\":23597:23603   */\n      dup5\n        /* \"#utility.yul\":23547:23625   */\n      tag_166\n      jump\t// in\n    tag_446:\n        /* \"#utility.yul\":22781:23632   */\n      swap6\n      swap5\n      pop\n      pop\n      pop\n      pop\n      pop\n      jump\t// out\n        /* \"#utility.yul\":23638:23806   */\n    tag_191:\n        /* \"#utility.yul\":23721:23732   */\n      0x00\n        /* \"#utility.yul\":23755:23761   */\n      dup3\n        /* \"#utility.yul\":23750:23753   */\n      dup3\n        /* \"#utility.yul\":23743:23762   */\n      mstore\n        /* \"#utility.yul\":23795:23799   */\n      0x20\n        /* \"#utility.yul\":23790:23793   */\n      dup3\n        /* \"#utility.yul\":23786:23800   */\n      add\n        /* \"#utility.yul\":23771:23800   */\n      swap1\n      pop\n        /* \"#utility.yul\":23638:23806   */\n      swap3\n      swap2\n      pop\n      pop\n      jump\t// out\n        /* \"#utility.yul\":23834:24148   */\n    tag_192:\n        /* \"#utility.yul\":23930:23933   */\n      0x00\n        /* \"#utility.yul\":23951:24021   */\n      tag_449\n        /* \"#utility.yul\":24014:24020   */\n      dup4\n        /* \"#utility.yul\":24009:24012   */\n      dup6\n        /* \"#utility.yul\":23951:24021   */\n      tag_191\n      jump\t// in\n    tag_449:\n        /* \"#utility.yul\":23944:24021   */\n      swap4\n      pop\n        /* \"#utility.yul\":24031:24087   */\n      tag_450\n        /* \"#utility.yul\":24080:24086   */\n      dup4\n        /* \"#utility.yul\":24075:24078   */\n      dup6\n        /* \"#utility.yul\":24068:24073   */\n      dup5\n        /* \"#utility.yul\":24031:24087   */\n      tag_142\n      jump\t// in\n    tag_450:\n        /* \"#utility.yul\":24112:24141   */\n      tag_451\n        /* \"#utility.yul\":24134:24140   */\n      dup4\n        /* \"#utility.yul\":24112:24141   */\n      tag_135\n      jump\t// in\n    tag_451:\n        /* \"#utility.yul\":24107:24110   */\n      dup5\n        /* \"#utility.yul\":24103:24142   */\n      add\n        /* \"#utility.yul\":24096:24142   */\n      swap1\n      pop\n        /* \"#utility.yul\":23834:24148   */\n      swap4\n      swap3\n      pop\n      pop\n      pop\n      jump\t// out\n        /* \"#utility.yul\":24154:24483   */\n    tag_106:\n        /* \"#utility.yul\":24275:24279   */\n      0x00\n        /* \"#utility.yul\":24313:24315   */\n      0x20\n        /* \"#utility.yul\":24302:24311   */\n      dup3\n        /* \"#utility.yul\":24298:24316   */\n      add\n        /* \"#utility.yul\":24290:24316   */\n      swap1\n      pop\n        /* \"#utility.yul\":24362:24371   */\n      dup2\n        /* \"#utility.yul\":24356:24360   */\n      dup2\n        /* \"#utility.yul\":24352:24372   */\n      sub\n        /* \"#utility.yul\":24348:24349   */\n      0x00\n        /* \"#utility.yul\":24337:24346   */\n      dup4\n        /* \"#utility.yul\":24333:24350   */\n      add\n        /* \"#utility.yul\":24326:24373   */\n      mstore\n        /* \"#utility.yul\":24390:24476   */\n      tag_453\n        /* \"#utility.yul\":24471:24475   */\n      dup2\n        /* \"#utility.yul\":24462:24468   */\n      dup5\n        /* \"#utility.yul\":24454:24460   */\n      dup7\n        /* \"#utility.yul\":24390:24476   */\n      tag_192\n      jump\t// in\n    tag_453:\n        /* \"#utility.yul\":24382:24476   */\n      swap1\n      pop\n        /* \"#utility.yul\":24154:24483   */\n      swap4\n      swap3\n      pop\n      pop\n      pop\n      jump\t// out\n\n    auxdata: 0xa264697066735822122072d3798d93b9f15540204150ca2438c04d46ffee99990a9e125315f244ab5e2064736f6c634300081a0033\n}\n",
				"bytecode": {
					"linkReferences": {},
					"object": "6080604052348015600e575f80fd5b506115b28061001c5f395ff3fe608060405234801561000f575f80fd5b5060043610610091575f3560e01c80636a627842116100645780636a6278421461010b578063a9059cbb14610127578063e355b0ce14610157578063ead6b8bd14610187578063f0ca01de146101b757610091565b8063046dab16146100955780633ec37834146100b357806359ebea23146100e35780635c62f90c146100ed575b5f80fd5b61009d6101e7565b6040516100aa91906109e4565b60405180910390f35b6100cd60048036038101906100c89190610a76565b61020e565b6040516100da91906109e4565b60405180910390f35b6100eb610276565b005b6100f56107ac565b60405161010291906109e4565b60405180910390f35b61012560048036038101906101209190610b0e565b6107d3565b005b610141600480360381019061013c9190610b39565b61080f565b60405161014e9190610b86565b60405180910390f35b610171600480360381019061016c9190610e6e565b610858565b60405161017e91906109e4565b60405180910390f35b6101a1600480360381019061019c9190610fb8565b6108c2565b6040516101ae91906109e4565b60405180910390f35b6101d160048036038101906101cc9190611081565b610929565b6040516101de91906109e4565b60405180910390f35b5f7f6a627842f752de95745ef8f3ca67858982b5f585d752f8163e5855050041cb3c905090565b5f7f87c76683e354abe8640b03c72d02c9175d9a00a6c0101d5bc4be081b9b8199eb633ec3783460e01b60405161024591906109e4565b60405180910390a17f3ec3783488bfc90ed98dc398cd67f30f42b252c8ce7d59a4dce63a149c452548905092915050565b5f600367ffffffffffffffff81111561029257610291610bee565b5b6040519080825280602002602001820160405280156102c05781602001602082028036833780820191505090505b5090506001815f815181106102d8576102d76110f7565b5b6020026020010181815250506002816001815181106102fa576102f96110f7565b5b60200260200101818152505060038160028151811061031c5761031b6110f7565b5b602002602001018181525050610330610991565b6001815f0181815250506040518060400160405280600681526020017f307861306231000000000000000000000000000000000000000000000000000081525081602001819052505f803073ffffffffffffffffffffffffffffffffffffffff1663038179366040516024016040516020818303038152906040529060e01b6020820180517bffffffffffffffffffffffffffffffffffffffffffffffffffffffff83818316178352505050506040516103ea9190611176565b5f604051808303815f865af19150503d805f8114610423576040519150601f19603f3d011682016040523d82523d5f602084013e610428565b606091505b50915091505f803073ffffffffffffffffffffffffffffffffffffffff16633ec3783460015f60405160240161045f929190611213565b6040516020818303038152906040529060e01b6020820180517bffffffffffffffffffffffffffffffffffffffffffffffffffffffff83818316178352505050506040516104ad9190611176565b5f604051808303815f865af19150503d805f81146104e6576040519150601f19603f3d011682016040523d82523d5f602084013e6104eb565b606091505b50915091505f803073ffffffffffffffffffffffffffffffffffffffff1663ead6b8bd6040518060600160405280600160ff168152602001600260ff168152602001600360ff1681525060405160240161054591906112df565b6040516020818303038152906040529060e01b6020820180517bffffffffffffffffffffffffffffffffffffffffffffffffffffffff83818316178352505050506040516105939190611176565b5f604051808303815f865af19150503d805f81146105cc576040519150601f19603f3d011682016040523d82523d5f602084013e6105d1565b606091505b50915091505f803073ffffffffffffffffffffffffffffffffffffffff1663f0ca01de8b6040516024016106059190611409565b6040516020818303038152906040529060e01b6020820180517bffffffffffffffffffffffffffffffffffffffffffffffffffffffff83818316178352505050506040516106539190611176565b5f604051808303815f865af19150503d805f811461068c576040519150601f19603f3d011682016040523d82523d5f602084013e610691565b606091505b50915091505f803073ffffffffffffffffffffffffffffffffffffffff1663e355b0ce739d7f74d0c41e726ec95884e0e97fa6129e3b5e998d8f60016040516024016106e094939291906114cd565b6040516020818303038152906040529060e01b6020820180517bffffffffffffffffffffffffffffffffffffffffffffffffffffffff838183161783525050505060405161072e9190611176565b5f604051808303815f865af19150503d805f8114610767576040519150601f19603f3d011682016040523d82523d5f602084013e61076c565b606091505b509150915089801561077b5750875b80156107845750855b801561078d5750835b80156107965750815b61079e575f80fd5b505050505050505050505050565b5f7fa9059cbb2ab09eb219583f4a59a5d0623ade346d962bcd4e46b11da047c9049b905090565b7fafabcf2dd47e06a477a89e49c03f8ebe8e0a7e94f775b25bbb24227c9d0110b25f3660405161080492919061155a565b60405180910390a150565b5f7f87c76683e354abe8640b03c72d02c9175d9a00a6c0101d5bc4be081b9b8199eb63a9059cbb60e01b60405161084691906109e4565b60405180910390a16001905092915050565b5f7f87c76683e354abe8640b03c72d02c9175d9a00a6c0101d5bc4be081b9b8199eb63e355b0ce60e01b60405161088f91906109e4565b60405180910390a17fe355b0ceecdc5a85bc460808aed3b4d8eaa7935dbf79d2db6ffcf71e5c3525769050949350505050565b5f7f87c76683e354abe8640b03c72d02c9175d9a00a6c0101d5bc4be081b9b8199eb63ead6b8bd60e01b6040516108f991906109e4565b60405180910390a17fead6b8bdece33532847146a6fe63967e794ef7c18f3b888ae6fb3aebb4ef1b959050919050565b5f7f87c76683e354abe8640b03c72d02c9175d9a00a6c0101d5bc4be081b9b8199eb63f0ca01de60e01b60405161096091906109e4565b60405180910390a17ff0ca01de95639524000d6ff4e9309b96c7f67f7961bf24b33f8b20e85f6ad977905092915050565b60405180604001604052805f8152602001606081525090565b5f7fffffffff0000000000000000000000000000000000000000000000000000000082169050919050565b6109de816109aa565b82525050565b5f6020820190506109f75f8301846109d5565b92915050565b5f604051905090565b5f80fd5b5f80fd5b5f819050919050565b610a2081610a0e565b8114610a2a575f80fd5b50565b5f81359050610a3b81610a17565b92915050565b5f8115159050919050565b610a5581610a41565b8114610a5f575f80fd5b50565b5f81359050610a7081610a4c565b92915050565b5f8060408385031215610a8c57610a8b610a06565b5b5f610a9985828601610a2d565b9250506020610aaa85828601610a62565b9150509250929050565b5f73ffffffffffffffffffffffffffffffffffffffff82169050919050565b5f610add82610ab4565b9050919050565b610aed81610ad3565b8114610af7575f80fd5b50565b5f81359050610b0881610ae4565b92915050565b5f60208284031215610b2357610b22610a06565b5b5f610b3084828501610afa565b91505092915050565b5f8060408385031215610b4f57610b4e610a06565b5b5f610b5c85828601610afa565b9250506020610b6d85828601610a2d565b9150509250929050565b610b8081610a41565b82525050565b5f602082019050610b995f830184610b77565b92915050565b5f610ba982610ad3565b9050919050565b610bb981610b9f565b8114610bc3575f80fd5b50565b5f81359050610bd481610bb0565b92915050565b5f80fd5b5f601f19601f8301169050919050565b7f4e487b71000000000000000000000000000000000000000000000000000000005f52604160045260245ffd5b610c2482610bde565b810181811067ffffffffffffffff82111715610c4357610c42610bee565b5b80604052505050565b5f610c556109fd565b9050610c618282610c1b565b919050565b5f80fd5b5f80fd5b5f80fd5b5f67ffffffffffffffff821115610c8c57610c8b610bee565b5b610c9582610bde565b9050602081019050919050565b828183375f83830152505050565b5f610cc2610cbd84610c72565b610c4c565b905082815260208101848484011115610cde57610cdd610c6e565b5b610ce9848285610ca2565b509392505050565b5f82601f830112610d0557610d04610c6a565b5b8135610d15848260208601610cb0565b91505092915050565b5f60408284031215610d3357610d32610bda565b5b610d3d6040610c4c565b90505f610d4c84828501610a2d565b5f83015250602082013567ffffffffffffffff811115610d6f57610d6e610c66565b5b610d7b84828501610cf1565b60208301525092915050565b5f67ffffffffffffffff821115610da157610da0610bee565b5b602082029050602081019050919050565b5f80fd5b5f610dc8610dc384610d87565b610c4c565b90508083825260208201905060208402830185811115610deb57610dea610db2565b5b835b81811015610e145780610e008882610a2d565b845260208401935050602081019050610ded565b5050509392505050565b5f82601f830112610e3257610e31610c6a565b5b8135610e42848260208601610db6565b91505092915050565b60038110610e57575f80fd5b50565b5f81359050610e6881610e4b565b92915050565b5f805f8060808587031215610e8657610e85610a06565b5b5f610e9387828801610bc6565b945050602085013567ffffffffffffffff811115610eb457610eb3610a0a565b5b610ec087828801610d1e565b935050604085013567ffffffffffffffff811115610ee157610ee0610a0a565b5b610eed87828801610e1e565b9250506060610efe87828801610e5a565b91505092959194509250565b5f67ffffffffffffffff821115610f2457610f23610bee565b5b602082029050919050565b5f610f41610f3c84610f0a565b610c4c565b90508060208402830185811115610f5b57610f5a610db2565b5b835b81811015610f845780610f708882610a2d565b845260208401935050602081019050610f5d565b5050509392505050565b5f82601f830112610fa257610fa1610c6a565b5b6003610faf848285610f2f565b91505092915050565b5f60608284031215610fcd57610fcc610a06565b5b5f610fda84828501610f8e565b91505092915050565b5f67ffffffffffffffff821115610ffd57610ffc610bee565b5b61100682610bde565b9050602081019050919050565b5f61102561102084610fe3565b610c4c565b90508281526020810184848401111561104157611040610c6e565b5b61104c848285610ca2565b509392505050565b5f82601f83011261106857611067610c6a565b5b8135611078848260208601611013565b91505092915050565b5f806040838503121561109757611096610a06565b5b5f83013567ffffffffffffffff8111156110b4576110b3610a0a565b5b6110c085828601610e1e565b925050602083013567ffffffffffffffff8111156110e1576110e0610a0a565b5b6110ed85828601611054565b9150509250929050565b7f4e487b71000000000000000000000000000000000000000000000000000000005f52603260045260245ffd5b5f81519050919050565b5f81905092915050565b8281835e5f83830152505050565b5f61115082611124565b61115a818561112e565b935061116a818560208601611138565b80840191505092915050565b5f6111818284611146565b915081905092915050565b5f819050919050565b5f60ff82169050919050565b5f819050919050565b5f6111c46111bf6111ba8461118c565b6111a1565b611195565b9050919050565b6111d4816111aa565b82525050565b5f819050919050565b5f6111fd6111f86111f3846111da565b6111a1565b611195565b9050919050565b61120d816111e3565b82525050565b5f6040820190506112265f8301856111cb565b6112336020830184611204565b9392505050565b5f60039050919050565b5f81905092915050565b5f819050919050565b61126081611195565b82525050565b5f6112718383611257565b60208301905092915050565b5f602082019050919050565b6112928161123a565b61129c8184611244565b92506112a78261124e565b805f5b838110156112d75781516112be8782611266565b96506112c98361127d565b9250506001810190506112aa565b505050505050565b5f6060820190506112f25f830184611289565b92915050565b5f81519050919050565b5f82825260208201905092915050565b5f819050602082019050919050565b61132a81610a0e565b82525050565b5f61133b8383611321565b60208301905092915050565b5f602082019050919050565b5f61135d826112f8565b6113678185611302565b935061137283611312565b805f5b838110156113a25781516113898882611330565b975061139483611347565b925050600181019050611375565b5085935050505092915050565b5f82825260208201905092915050565b7f61626300000000000000000000000000000000000000000000000000000000005f82015250565b5f6113f36003836113af565b91506113fe826113bf565b602082019050919050565b5f6040820190508181035f8301526114218184611353565b90508181036020830152611434816113e7565b905092915050565b61144581610ad3565b82525050565b5f82825260208201905092915050565b5f61146582611124565b61146f818561144b565b935061147f818560208601611138565b61148881610bde565b840191505092915050565b5f604083015f8301516114a85f860182611321565b50602083015184820360208601526114c0828261145b565b9150508091505092915050565b5f6080820190506114e05f83018761143c565b81810360208301526114f28186611493565b905081810360408301526115068185611353565b905061151560608301846111cb565b95945050505050565b5f82825260208201905092915050565b5f611539838561151e565b9350611546838584610ca2565b61154f83610bde565b840190509392505050565b5f6020820190508181035f83015261157381848661152e565b9050939250505056fea264697066735822122072d3798d93b9f15540204150ca2438c04d46ffee99990a9e125315f244ab5e2064736f6c634300081a0033",
					"opcodes": "PUSH1 0x80 PUSH1 0x40 MSTORE CALLVALUE DUP1 ISZERO PUSH1 0xE JUMPI PUSH0 DUP1 REVERT JUMPDEST POP PUSH2 0x15B2 DUP1 PUSH2 0x1C PUSH0 CODECOPY PUSH0 RETURN INVALID PUSH1 0x80 PUSH1 0x40 MSTORE CALLVALUE DUP1 ISZERO PUSH2 0xF JUMPI PUSH0 DUP1 REVERT JUMPDEST POP PUSH1 0x4 CALLDATASIZE LT PUSH2 0x91 JUMPI PUSH0 CALLDATALOAD PUSH1 0xE0 SHR DUP1 PUSH4 0x6A627842 GT PUSH2 0x64 JUMPI DUP1 PUSH4 0x6A627842 EQ PUSH2 0x10B JUMPI DUP1 PUSH4 0xA9059CBB EQ PUSH2 0x127 JUMPI DUP1 PUSH4 0xE355B0CE EQ PUSH2 0x157 JUMPI DUP1 PUSH4 0xEAD6B8BD EQ PUSH2 0x187 JUMPI DUP1 PUSH4 0xF0CA01DE EQ PUSH2 0x1B7 JUMPI PUSH2 0x91 JUMP JUMPDEST DUP1 PUSH4 0x46DAB16 EQ PUSH2 0x95 JUMPI DUP1 PUSH4 0x3EC37834 EQ PUSH2 0xB3 JUMPI DUP1 PUSH4 0x59EBEA23 EQ PUSH2 0xE3 JUMPI DUP1 PUSH4 0x5C62F90C EQ PUSH2 0xED JUMPI JUMPDEST PUSH0 DUP1 REVERT JUMPDEST PUSH2 0x9D PUSH2 0x1E7 JUMP JUMPDEST PUSH1 0x40 MLOAD PUSH2 0xAA SWAP2 SWAP1 PUSH2 0x9E4 JUMP JUMPDEST PUSH1 0x40 MLOAD DUP1 SWAP2 SUB SWAP1 RETURN JUMPDEST PUSH2 0xCD PUSH1 0x4 DUP1 CALLDATASIZE SUB DUP2 ADD SWAP1 PUSH2 0xC8 SWAP2 SWAP1 PUSH2 0xA76 JUMP JUMPDEST PUSH2 0x20E JUMP JUMPDEST PUSH1 0x40 MLOAD PUSH2 0xDA SWAP2 SWAP1 PUSH2 0x9E4 JUMP JUMPDEST PUSH1 0x40 MLOAD DUP1 SWAP2 SUB SWAP1 RETURN JUMPDEST PUSH2 0xEB PUSH2 0x276 JUMP JUMPDEST STOP JUMPDEST PUSH2 0xF5 PUSH2 0x7AC JUMP JUMPDEST PUSH1 0x40 MLOAD PUSH2 0x102 SWAP2 SWAP1 PUSH2 0x9E4 JUMP JUMPDEST PUSH1 0x40 MLOAD DUP1 SWAP2 SUB SWAP1 RETURN JUMPDEST PUSH2 0x125 PUSH1 0x4 DUP1 CALLDATASIZE SUB DUP2 ADD SWAP1 PUSH2 0x120 SWAP2 SWAP1 PUSH2 0xB0E JUMP JUMPDEST PUSH2 0x7D3 JUMP JUMPDEST STOP JUMPDEST PUSH2 0x141 PUSH1 0x4 DUP1 CALLDATASIZE SUB DUP2 ADD SWAP1 PUSH2 0x13C SWAP2 SWAP1 PUSH2 0xB39 JUMP JUMPDEST PUSH2 0x80F JUMP JUMPDEST PUSH1 0x40 MLOAD PUSH2 0x14E SWAP2 SWAP1 PUSH2 0xB86 JUMP JUMPDEST PUSH1 0x40 MLOAD DUP1 SWAP2 SUB SWAP1 RETURN JUMPDEST PUSH2 0x171 PUSH1 0x4 DUP1 CALLDATASIZE SUB DUP2 ADD SWAP1 PUSH2 0x16C SWAP2 SWAP1 PUSH2 0xE6E JUMP JUMPDEST PUSH2 0x858 JUMP JUMPDEST PUSH1 0x40 MLOAD PUSH2 0x17E SWAP2 SWAP1 PUSH2 0x9E4 JUMP JUMPDEST PUSH1 0x40 MLOAD DUP1 SWAP2 SUB SWAP1 RETURN JUMPDEST PUSH2 0x1A1 PUSH1 0x4 DUP1 CALLDATASIZE SUB DUP2 ADD SWAP1 PUSH2 0x19C SWAP2 SWAP1 PUSH2 0xFB8 JUMP JUMPDEST PUSH2 0x8C2 JUMP JUMPDEST PUSH1 0x40 MLOAD PUSH2 0x1AE SWAP2 SWAP1 PUSH2 0x9E4 JUMP JUMPDEST PUSH1 0x40 MLOAD DUP1 SWAP2 SUB SWAP1 RETURN JUMPDEST PUSH2 0x1D1 PUSH1 0x4 DUP1 CALLDATASIZE SUB DUP2 ADD SWAP1 PUSH2 0x1CC SWAP2 SWAP1 PUSH2 0x1081 JUMP JUMPDEST PUSH2 0x929 JUMP JUMPDEST PUSH1 0x40 MLOAD PUSH2 0x1DE SWAP2 SWAP1 PUSH2 0x9E4 JUMP JUMPDEST PUSH1 0x40 MLOAD DUP1 SWAP2 SUB SWAP1 RETURN JUMPDEST PUSH0 PUSH32 0x6A627842F752DE95745EF8F3CA67858982B5F585D752F8163E5855050041CB3C SWAP1 POP SWAP1 JUMP JUMPDEST PUSH0 PUSH32 0x87C76683E354ABE8640B03C72D02C9175D9A00A6C0101D5BC4BE081B9B8199EB PUSH4 0x3EC37834 PUSH1 0xE0 SHL PUSH1 0x40 MLOAD PUSH2 0x245 SWAP2 SWAP1 PUSH2 0x9E4 JUMP JUMPDEST PUSH1 0x40 MLOAD DUP1 SWAP2 SUB SWAP1 LOG1 PUSH32 0x3EC3783488BFC90ED98DC398CD67F30F42B252C8CE7D59A4DCE63A149C452548 SWAP1 POP SWAP3 SWAP2 POP POP JUMP JUMPDEST PUSH0 PUSH1 0x3 PUSH8 0xFFFFFFFFFFFFFFFF DUP2 GT ISZERO PUSH2 0x292 JUMPI PUSH2 0x291 PUSH2 0xBEE JUMP JUMPDEST JUMPDEST PUSH1 0x40 MLOAD SWAP1 DUP1 DUP3 MSTORE DUP1 PUSH1 0x20 MUL PUSH1 0x20 ADD DUP3 ADD PUSH1 0x40 MSTORE DUP1 ISZERO PUSH2 0x2C0 JUMPI DUP2 PUSH1 0x20 ADD PUSH1 0x20 DUP3 MUL DUP1 CALLDATASIZE DUP4 CALLDATACOPY DUP1 DUP3 ADD SWAP2 POP POP SWAP1 POP JUMPDEST POP SWAP1 POP PUSH1 0x1 DUP2 PUSH0 DUP2 MLOAD DUP2 LT PUSH2 0x2D8 JUMPI PUSH2 0x2D7 PUSH2 0x10F7 JUMP JUMPDEST JUMPDEST PUSH1 0x20 MUL PUSH1 0x20 ADD ADD DUP2 DUP2 MSTORE POP POP PUSH1 0x2 DUP2 PUSH1 0x1 DUP2 MLOAD DUP2 LT PUSH2 0x2FA JUMPI PUSH2 0x2F9 PUSH2 0x10F7 JUMP JUMPDEST JUMPDEST PUSH1 0x20 MUL PUSH1 0x20 ADD ADD DUP2 DUP2 MSTORE POP POP PUSH1 0x3 DUP2 PUSH1 0x2 DUP2 MLOAD DUP2 LT PUSH2 0x31C JUMPI PUSH2 0x31B PUSH2 0x10F7 JUMP JUMPDEST JUMPDEST PUSH1 0x20 MUL PUSH1 0x20 ADD ADD DUP2 DUP2 MSTORE POP POP PUSH2 0x330 PUSH2 0x991 JUMP JUMPDEST PUSH1 0x1 DUP2 PUSH0 ADD DUP2 DUP2 MSTORE POP POP PUSH1 0x40 MLOAD DUP1 PUSH1 0x40 ADD PUSH1 0x40 MSTORE DUP1 PUSH1 0x6 DUP2 MSTORE PUSH1 0x20 ADD PUSH32 0x3078613062310000000000000000000000000000000000000000000000000000 DUP2 MSTORE POP DUP2 PUSH1 0x20 ADD DUP2 SWAP1 MSTORE POP PUSH0 DUP1 ADDRESS PUSH20 0xFFFFFFFFFFFFFFFFFFFFFFFFFFFFFFFFFFFFFFFF AND PUSH4 0x3817936 PUSH1 0x40 MLOAD PUSH1 0x24 ADD PUSH1 0x40 MLOAD PUSH1 0x20 DUP2 DUP4 SUB SUB DUP2 MSTORE SWAP1 PUSH1 0x40 MSTORE SWAP1 PUSH1 0xE0 SHL PUSH1 0x20 DUP3 ADD DUP1 MLOAD PUSH28 0xFFFFFFFFFFFFFFFFFFFFFFFFFFFFFFFFFFFFFFFFFFFFFFFFFFFFFFFF DUP4 DUP2 DUP4 AND OR DUP4 MSTORE POP POP POP POP PUSH1 0x40 MLOAD PUSH2 0x3EA SWAP2 SWAP1 PUSH2 0x1176 JUMP JUMPDEST PUSH0 PUSH1 0x40 MLOAD DUP1 DUP4 SUB DUP2 PUSH0 DUP7 GAS CALL SWAP2 POP POP RETURNDATASIZE DUP1 PUSH0 DUP2 EQ PUSH2 0x423 JUMPI PUSH1 0x40 MLOAD SWAP2 POP PUSH1 0x1F NOT PUSH1 0x3F RETURNDATASIZE ADD AND DUP3 ADD PUSH1 0x40 MSTORE RETURNDATASIZE DUP3 MSTORE RETURNDATASIZE PUSH0 PUSH1 0x20 DUP5 ADD RETURNDATACOPY PUSH2 0x428 JUMP JUMPDEST PUSH1 0x60 SWAP2 POP JUMPDEST POP SWAP2 POP SWAP2 POP PUSH0 DUP1 ADDRESS PUSH20 0xFFFFFFFFFFFFFFFFFFFFFFFFFFFFFFFFFFFFFFFF AND PUSH4 0x3EC37834 PUSH1 0x1 PUSH0 PUSH1 0x40 MLOAD PUSH1 0x24 ADD PUSH2 0x45F SWAP3 SWAP2 SWAP1 PUSH2 0x1213 JUMP JUMPDEST PUSH1 0x40 MLOAD PUSH1 0x20 DUP2 DUP4 SUB SUB DUP2 MSTORE SWAP1 PUSH1 0x40 MSTORE SWAP1 PUSH1 0xE0 SHL PUSH1 0x20 DUP3 ADD DUP1 MLOAD PUSH28 0xFFFFFFFFFFFFFFFFFFFFFFFFFFFFFFFFFFFFFFFFFFFFFFFFFFFFFFFF DUP4 DUP2 DUP4 AND OR DUP4 MSTORE POP POP POP POP PUSH1 0x40 MLOAD PUSH2 0x4AD SWAP2 SWAP1 PUSH2 0x1176 JUMP JUMPDEST PUSH0 PUSH1 0x40 MLOAD DUP1 DUP4 SUB DUP2 PUSH0 DUP7 GAS CALL SWAP2 POP POP RETURNDATASIZE DUP1 PUSH0 DUP2 EQ PUSH2 0x4E6 JUMPI PUSH1 0x40 MLOAD SWAP2 POP PUSH1 0x1F NOT PUSH1 0x3F RETURNDATASIZE ADD AND DUP3 ADD PUSH1 0x40 MSTORE RETURNDATASIZE DUP3 MSTORE RETURNDATASIZE PUSH0 PUSH1 0x20 DUP5 ADD RETURNDATACOPY PUSH2 0x4EB JUMP JUMPDEST PUSH1 0x60 SWAP2 POP JUMPDEST POP SWAP2 POP SWAP2 POP PUSH0 DUP1 ADDRESS PUSH20 0xFFFFFFFFFFFFFFFFFFFFFFFFFFFFFFFFFFFFFFFF AND PUSH4 0xEAD6B8BD PUSH1 0x40 MLOAD DUP1 PUSH1 0x60 ADD PUSH1 0x40 MSTORE DUP1 PUSH1 0x1 PUSH1 0xFF AND DUP2 MSTORE PUSH1 0x20 ADD PUSH1 0x2 PUSH1 0xFF AND DUP2 MSTORE PUSH1 0x20 ADD PUSH1 0x3 PUSH1 0xFF AND DUP2 MSTORE POP PUSH1 0x40 MLOAD PUSH1 0x24 ADD PUSH2 0x545 SWAP2 SWAP1 PUSH2 0x12DF JUMP JUMPDEST PUSH1 0x40 MLOAD PUSH1 0x20 DUP2 DUP4 SUB SUB DUP2 MSTORE SWAP1 PUSH1 0x40 MSTORE SWAP1 PUSH1 0xE0 SHL PUSH1 0x20 DUP3 ADD DUP1 MLOAD PUSH28 0xFFFFFFFFFFFFFFFFFFFFFFFFFFFFFFFFFFFFFFFFFFFFFFFFFFFFFFFF DUP4 DUP2 DUP4 AND OR DUP4 MSTORE POP POP POP POP PUSH1 0x40 MLOAD PUSH2 0x593 SWAP2 SWAP1 PUSH2 0x1176 JUMP JUMPDEST PUSH0 PUSH1 0x40 MLOAD DUP1 DUP4 SUB DUP2 PUSH0 DUP7 GAS CALL SWAP2 POP POP RETURNDATASIZE DUP1 PUSH0 DUP2 EQ PUSH2 0x5CC JUMPI PUSH1 0x40 MLOAD SWAP2 POP PUSH1 0x1F NOT PUSH1 0x3F RETURNDATASIZE ADD AND DUP3 ADD PUSH1 0x40 MSTORE RETURNDATASIZE DUP3 MSTORE RETURNDATASIZE PUSH0 PUSH1 0x20 DUP5 ADD RETURNDATACOPY PUSH2 0x5D1 JUMP JUMPDEST PUSH1 0x60 SWAP2 POP JUMPDEST POP SWAP2 POP SWAP2 POP PUSH0 DUP1 ADDRESS PUSH20 0xFFFFFFFFFFFFFFFFFFFFFFFFFFFFFFFFFFFFFFFF AND PUSH4 0xF0CA01DE DUP12 PUSH1 0x40 MLOAD PUSH1 0x24 ADD PUSH2 0x605 SWAP2 SWAP1 PUSH2 0x1409 JUMP JUMPDEST PUSH1 0x40 MLOAD PUSH1 0x20 DUP2 DUP4 SUB SUB DUP2 MSTORE SWAP1 PUSH1 0x40 MSTORE SWAP1 PUSH1 0xE0 SHL PUSH1 0x20 DUP3 ADD DUP1 MLOAD PUSH28 0xFFFFFFFFFFFFFFFFFFFFFFFFFFFFFFFFFFFFFFFFFFFFFFFFFFFFFFFF DUP4 DUP2 DUP4 AND OR DUP4 MSTORE POP POP POP POP PUSH1 0x40 MLOAD PUSH2 0x653 SWAP2 SWAP1 PUSH2 0x1176 JUMP JUMPDEST PUSH0 PUSH1 0x40 MLOAD DUP1 DUP4 SUB DUP2 PUSH0 DUP7 GAS CALL SWAP2 POP POP RETURNDATASIZE DUP1 PUSH0 DUP2 EQ PUSH2 0x68C JUMPI PUSH1 0x40 MLOAD SWAP2 POP PUSH1 0x1F NOT PUSH1 0x3F RETURNDATASIZE ADD AND DUP3 ADD PUSH1 0x40 MSTORE RETURNDATASIZE DUP3 MSTORE RETURNDATASIZE PUSH0 PUSH1 0x20 DUP5 ADD RETURNDATACOPY PUSH2 0x691 JUMP JUMPDEST PUSH1 0x60 SWAP2 POP JUMPDEST POP SWAP2 POP SWAP2 POP PUSH0 DUP1 ADDRESS PUSH20 0xFFFFFFFFFFFFFFFFFFFFFFFFFFFFFFFFFFFFFFFF AND PUSH4 0xE355B0CE PUSH20 0x9D7F74D0C41E726EC95884E0E97FA6129E3B5E99 DUP14 DUP16 PUSH1 0x1 PUSH1 0x40 MLOAD PUSH1 0x24 ADD PUSH2 0x6E0 SWAP5 SWAP4 SWAP3 SWAP2 SWAP1 PUSH2 0x14CD JUMP JUMPDEST PUSH1 0x40 MLOAD PUSH1 0x20 DUP2 DUP4 SUB SUB DUP2 MSTORE SWAP1 PUSH1 0x40 MSTORE SWAP1 PUSH1 0xE0 SHL PUSH1 0x20 DUP3 ADD DUP1 MLOAD PUSH28 0xFFFFFFFFFFFFFFFFFFFFFFFFFFFFFFFFFFFFFFFFFFFFFFFFFFFFFFFF DUP4 DUP2 DUP4 AND OR DUP4 MSTORE POP POP POP POP PUSH1 0x40 MLOAD PUSH2 0x72E SWAP2 SWAP1 PUSH2 0x1176 JUMP JUMPDEST PUSH0 PUSH1 0x40 MLOAD DUP1 DUP4 SUB DUP2 PUSH0 DUP7 GAS CALL SWAP2 POP POP RETURNDATASIZE DUP1 PUSH0 DUP2 EQ PUSH2 0x767 JUMPI PUSH1 0x40 MLOAD SWAP2 POP PUSH1 0x1F NOT PUSH1 0x3F RETURNDATASIZE ADD AND DUP3 ADD PUSH1 0x40 MSTORE RETURNDATASIZE DUP3 MSTORE RETURNDATASIZE PUSH0 PUSH1 0x20 DUP5 ADD RETURNDATACOPY PUSH2 0x76C JUMP JUMPDEST PUSH1 0x60 SWAP2 POP JUMPDEST POP SWAP2 POP SWAP2 POP DUP10 DUP1 ISZERO PUSH2 0x77B JUMPI POP DUP8 JUMPDEST DUP1 ISZERO PUSH2 0x784 JUMPI POP DUP6 JUMPDEST DUP1 ISZERO PUSH2 0x78D JUMPI POP DUP4 JUMPDEST DUP1 ISZERO PUSH2 0x796 JUMPI POP DUP2 JUMPDEST PUSH2 0x79E JUMPI PUSH0 DUP1 REVERT JUMPDEST POP POP POP POP POP POP POP POP POP POP POP POP JUMP JUMPDEST PUSH0 PUSH32 0xA9059CBB2AB09EB219583F4A59A5D0623ADE346D962BCD4E46B11DA047C9049B SWAP1 POP SWAP1 JUMP JUMPDEST PUSH32 0xAFABCF2DD47E06A477A89E49C03F8EBE8E0A7E94F775B25BBB24227C9D0110B2 PUSH0 CALLDATASIZE PUSH1 0x40 MLOAD PUSH2 0x804 SWAP3 SWAP2 SWAP1 PUSH2 0x155A JUMP JUMPDEST PUSH1 0x40 MLOAD DUP1 SWAP2 SUB SWAP1 LOG1 POP JUMP JUMPDEST PUSH0 PUSH32 0x87C76683E354ABE8640B03C72D02C9175D9A00A6C0101D5BC4BE081B9B8199EB PUSH4 0xA9059CBB PUSH1 0xE0 SHL PUSH1 0x40 MLOAD PUSH2 0x846 SWAP2 SWAP1 PUSH2 0x9E4 JUMP JUMPDEST PUSH1 0x40 MLOAD DUP1 SWAP2 SUB SWAP1 LOG1 PUSH1 0x1 SWAP1 POP SWAP3 SWAP2 POP POP JUMP JUMPDEST PUSH0 PUSH32 0x87C76683E354ABE8640B03C72D02C9175D9A00A6C0101D5BC4BE081B9B8199EB PUSH4 0xE355B0CE PUSH1 0xE0 SHL PUSH1 0x40 MLOAD PUSH2 0x88F SWAP2 SWAP1 PUSH2 0x9E4 JUMP JUMPDEST PUSH1 0x40 MLOAD DUP1 SWAP2 SUB SWAP1 LOG1 PUSH32 0xE355B0CEECDC5A85BC460808AED3B4D8EAA7935DBF79D2DB6FFCF71E5C352576 SWAP1 POP SWAP5 SWAP4 POP POP POP POP JUMP JUMPDEST PUSH0 PUSH32 0x87C76683E354ABE8640B03C72D02C9175D9A00A6C0101D5BC4BE081B9B8199EB PUSH4 0xEAD6B8BD PUSH1 0xE0 SHL PUSH1 0x40 MLOAD PUSH2 0x8F9 SWAP2 SWAP1 PUSH2 0x9E4 JUMP JUMPDEST PUSH1 0x40 MLOAD DUP1 SWAP2 SUB SWAP1 LOG1 PUSH32 0xEAD6B8BDECE33532847146A6FE63967E794EF7C18F3B888AE6FB3AEBB4EF1B95 SWAP1 POP SWAP2 SWAP1 POP JUMP JUMPDEST PUSH0 PUSH32 0x87C76683E354ABE8640B03C72D02C9175D9A00A6C0101D5BC4BE081B9B8199EB PUSH4 0xF0CA01DE PUSH1 0xE0 SHL PUSH1 0x40 MLOAD PUSH2 0x960 SWAP2 SWAP1 PUSH2 0x9E4 JUMP JUMPDEST PUSH1 0x40 MLOAD DUP1 SWAP2 SUB SWAP1 LOG1 PUSH32 0xF0CA01DE95639524000D6FF4E9309B96C7F67F7961BF24B33F8B20E85F6AD977 SWAP1 POP SWAP3 SWAP2 POP POP JUMP JUMPDEST PUSH1 0x40 MLOAD DUP1 PUSH1 0x40 ADD PUSH1 0x40 MSTORE DUP1 PUSH0 DUP2 MSTORE PUSH1 0x20 ADD PUSH1 0x60 DUP2 MSTORE POP SWAP1 JUMP JUMPDEST PUSH0 PUSH32 0xFFFFFFFF00000000000000000000000000000000000000000000000000000000 DUP3 AND SWAP1 POP SWAP2 SWAP1 POP JUMP JUMPDEST PUSH2 0x9DE DUP2 PUSH2 0x9AA JUMP JUMPDEST DUP3 MSTORE POP POP JUMP JUMPDEST PUSH0 PUSH1 0x20 DUP3 ADD SWAP1 POP PUSH2 0x9F7 PUSH0 DUP4 ADD DUP5 PUSH2 0x9D5 JUMP JUMPDEST SWAP3 SWAP2 POP POP JUMP JUMPDEST PUSH0 PUSH1 0x40 MLOAD SWAP1 POP SWAP1 JUMP JUMPDEST PUSH0 DUP1 REVERT JUMPDEST PUSH0 DUP1 REVERT JUMPDEST PUSH0 DUP2 SWAP1 POP SWAP2 SWAP1 POP JUMP JUMPDEST PUSH2 0xA20 DUP2 PUSH2 0xA0E JUMP JUMPDEST DUP2 EQ PUSH2 0xA2A JUMPI PUSH0 DUP1 REVERT JUMPDEST POP JUMP JUMPDEST PUSH0 DUP2 CALLDATALOAD SWAP1 POP PUSH2 0xA3B DUP2 PUSH2 0xA17 JUMP JUMPDEST SWAP3 SWAP2 POP POP JUMP JUMPDEST PUSH0 DUP2 ISZERO ISZERO SWAP1 POP SWAP2 SWAP1 POP JUMP JUMPDEST PUSH2 0xA55 DUP2 PUSH2 0xA41 JUMP JUMPDEST DUP2 EQ PUSH2 0xA5F JUMPI PUSH0 DUP1 REVERT JUMPDEST POP JUMP JUMPDEST PUSH0 DUP2 CALLDATALOAD SWAP1 POP PUSH2 0xA70 DUP2 PUSH2 0xA4C JUMP JUMPDEST SWAP3 SWAP2 POP POP JUMP JUMPDEST PUSH0 DUP1 PUSH1 0x40 DUP4 DUP6 SUB SLT ISZERO PUSH2 0xA8C JUMPI PUSH2 0xA8B PUSH2 0xA06 JUMP JUMPDEST JUMPDEST PUSH0 PUSH2 0xA99 DUP6 DUP3 DUP7 ADD PUSH2 0xA2D JUMP JUMPDEST SWAP3 POP POP PUSH1 0x20 PUSH2 0xAAA DUP6 DUP3 DUP7 ADD PUSH2 0xA62 JUMP JUMPDEST SWAP2 POP POP SWAP3 POP SWAP3 SWAP1 POP JUMP JUMPDEST PUSH0 PUSH20 0xFFFFFFFFFFFFFFFFFFFFFFFFFFFFFFFFFFFFFFFF DUP3 AND SWAP1 POP SWAP2 SWAP1 POP JUMP JUMPDEST PUSH0 PUSH2 0xADD DUP3 PUSH2 0xAB4 JUMP JUMPDEST SWAP1 POP SWAP2 SWAP1 POP JUMP JUMPDEST PUSH2 0xAED DUP2 PUSH2 0xAD3 JUMP JUMPDEST DUP2 EQ PUSH2 0xAF7 JUMPI PUSH0 DUP1 REVERT JUMPDEST POP JUMP JUMPDEST PUSH0 DUP2 CALLDATALOAD SWAP1 POP PUSH2 0xB08 DUP2 PUSH2 0xAE4 JUMP JUMPDEST SWAP3 SWAP2 POP POP JUMP JUMPDEST PUSH0 PUSH1 0x20 DUP3 DUP5 SUB SLT ISZERO PUSH2 0xB23 JUMPI PUSH2 0xB22 PUSH2 0xA06 JUMP JUMPDEST JUMPDEST PUSH0 PUSH2 0xB30 DUP5 DUP3 DUP6 ADD PUSH2 0xAFA JUMP JUMPDEST SWAP2 POP POP SWAP3 SWAP2 POP POP JUMP JUMPDEST PUSH0 DUP1 PUSH1 0x40 DUP4 DUP6 SUB SLT ISZERO PUSH2 0xB4F JUMPI PUSH2 0xB4E PUSH2 0xA06 JUMP JUMPDEST JUMPDEST PUSH0 PUSH2 0xB5C DUP6 DUP3 DUP7 ADD PUSH2 0xAFA JUMP JUMPDEST SWAP3 POP POP PUSH1 0x20 PUSH2 0xB6D DUP6 DUP3 DUP7 ADD PUSH2 0xA2D JUMP JUMPDEST SWAP2 POP POP SWAP3 POP SWAP3 SWAP1 POP JUMP JUMPDEST PUSH2 0xB80 DUP2 PUSH2 0xA41 JUMP JUMPDEST DUP3 MSTORE POP POP JUMP JUMPDEST PUSH0 PUSH1 0x20 DUP3 ADD SWAP1 POP PUSH2 0xB99 PUSH0 DUP4 ADD DUP5 PUSH2 0xB77 JUMP JUMPDEST SWAP3 SWAP2 POP POP JUMP JUMPDEST PUSH0 PUSH2 0xBA9 DUP3 PUSH2 0xAD3 JUMP JUMPDEST SWAP1 POP SWAP2 SWAP1 POP JUMP JUMPDEST PUSH2 0xBB9 DUP2 PUSH2 0xB9F JUMP JUMPDEST DUP2 EQ PUSH2 0xBC3 JUMPI PUSH0 DUP1 REVERT JUMPDEST POP JUMP JUMPDEST PUSH0 DUP2 CALLDATALOAD SWAP1 POP PUSH2 0xBD4 DUP2 PUSH2 0xBB0 JUMP JUMPDEST SWAP3 SWAP2 POP POP JUMP JUMPDEST PUSH0 DUP1 REVERT JUMPDEST PUSH0 PUSH1 0x1F NOT PUSH1 0x1F DUP4 ADD AND SWAP1 POP SWAP2 SWAP1 POP JUMP JUMPDEST PUSH32 0x4E487B7100000000000000000000000000000000000000000000000000000000 PUSH0 MSTORE PUSH1 0x41 PUSH1 0x4 MSTORE PUSH1 0x24 PUSH0 REVERT JUMPDEST PUSH2 0xC24 DUP3 PUSH2 0xBDE JUMP JUMPDEST DUP2 ADD DUP2 DUP2 LT PUSH8 0xFFFFFFFFFFFFFFFF DUP3 GT OR ISZERO PUSH2 0xC43 JUMPI PUSH2 0xC42 PUSH2 0xBEE JUMP JUMPDEST JUMPDEST DUP1 PUSH1 0x40 MSTORE POP POP POP JUMP JUMPDEST PUSH0 PUSH2 0xC55 PUSH2 0x9FD JUMP JUMPDEST SWAP1 POP PUSH2 0xC61 DUP3 DUP3 PUSH2 0xC1B JUMP JUMPDEST SWAP2 SWAP1 POP JUMP JUMPDEST PUSH0 DUP1 REVERT JUMPDEST PUSH0 DUP1 REVERT JUMPDEST PUSH0 DUP1 REVERT JUMPDEST PUSH0 PUSH8 0xFFFFFFFFFFFFFFFF DUP3 GT ISZERO PUSH2 0xC8C JUMPI PUSH2 0xC8B PUSH2 0xBEE JUMP JUMPDEST JUMPDEST PUSH2 0xC95 DUP3 PUSH2 0xBDE JUMP JUMPDEST SWAP1 POP PUSH1 0x20 DUP2 ADD SWAP1 POP SWAP2 SWAP1 POP JUMP JUMPDEST DUP3 DUP2 DUP4 CALLDATACOPY PUSH0 DUP4 DUP4 ADD MSTORE POP POP POP JUMP JUMPDEST PUSH0 PUSH2 0xCC2 PUSH2 0xCBD DUP5 PUSH2 0xC72 JUMP JUMPDEST PUSH2 0xC4C JUMP JUMPDEST SWAP1 POP DUP3 DUP2 MSTORE PUSH1 0x20 DUP2 ADD DUP5 DUP5 DUP5 ADD GT ISZERO PUSH2 0xCDE JUMPI PUSH2 0xCDD PUSH2 0xC6E JUMP JUMPDEST JUMPDEST PUSH2 0xCE9 DUP5 DUP3 DUP6 PUSH2 0xCA2 JUMP JUMPDEST POP SWAP4 SWAP3 POP POP POP JUMP JUMPDEST PUSH0 DUP3 PUSH1 0x1F DUP4 ADD SLT PUSH2 0xD05 JUMPI PUSH2 0xD04 PUSH2 0xC6A JUMP JUMPDEST JUMPDEST DUP2 CALLDATALOAD PUSH2 0xD15 DUP5 DUP3 PUSH1 0x20 DUP7 ADD PUSH2 0xCB0 JUMP JUMPDEST SWAP2 POP POP SWAP3 SWAP2 POP POP JUMP JUMPDEST PUSH0 PUSH1 0x40 DUP3 DUP5 SUB SLT ISZERO PUSH2 0xD33 JUMPI PUSH2 0xD32 PUSH2 0xBDA JUMP JUMPDEST JUMPDEST PUSH2 0xD3D PUSH1 0x40 PUSH2 0xC4C JUMP JUMPDEST SWAP1 POP PUSH0 PUSH2 0xD4C DUP5 DUP3 DUP6 ADD PUSH2 0xA2D JUMP JUMPDEST PUSH0 DUP4 ADD MSTORE POP PUSH1 0x20 DUP3 ADD CALLDATALOAD PUSH8 0xFFFFFFFFFFFFFFFF DUP2 GT ISZERO PUSH2 0xD6F JUMPI PUSH2 0xD6E PUSH2 0xC66 JUMP JUMPDEST JUMPDEST PUSH2 0xD7B DUP5 DUP3 DUP6 ADD PUSH2 0xCF1 JUMP JUMPDEST PUSH1 0x20 DUP4 ADD MSTORE POP SWAP3 SWAP2 POP POP JUMP JUMPDEST PUSH0 PUSH8 0xFFFFFFFFFFFFFFFF DUP3 GT ISZERO PUSH2 0xDA1 JUMPI PUSH2 0xDA0 PUSH2 0xBEE JUMP JUMPDEST JUMPDEST PUSH1 0x20 DUP3 MUL SWAP1 POP PUSH1 0x20 DUP2 ADD SWAP1 POP SWAP2 SWAP1 POP JUMP JUMPDEST PUSH0 DUP1 REVERT JUMPDEST PUSH0 PUSH2 0xDC8 PUSH2 0xDC3 DUP5 PUSH2 0xD87 JUMP JUMPDEST PUSH2 0xC4C JUMP JUMPDEST SWAP1 POP DUP1 DUP4 DUP3 MSTORE PUSH1 0x20 DUP3 ADD SWAP1 POP PUSH1 0x20 DUP5 MUL DUP4 ADD DUP6 DUP2 GT ISZERO PUSH2 0xDEB JUMPI PUSH2 0xDEA PUSH2 0xDB2 JUMP JUMPDEST JUMPDEST DUP4 JUMPDEST DUP2 DUP2 LT ISZERO PUSH2 0xE14 JUMPI DUP1 PUSH2 0xE00 DUP9 DUP3 PUSH2 0xA2D JUMP JUMPDEST DUP5 MSTORE PUSH1 0x20 DUP5 ADD SWAP4 POP POP PUSH1 0x20 DUP2 ADD SWAP1 POP PUSH2 0xDED JUMP JUMPDEST POP POP POP SWAP4 SWAP3 POP POP POP JUMP JUMPDEST PUSH0 DUP3 PUSH1 0x1F DUP4 ADD SLT PUSH2 0xE32 JUMPI PUSH2 0xE31 PUSH2 0xC6A JUMP JUMPDEST JUMPDEST DUP2 CALLDATALOAD PUSH2 0xE42 DUP5 DUP3 PUSH1 0x20 DUP7 ADD PUSH2 0xDB6 JUMP JUMPDEST SWAP2 POP POP SWAP3 SWAP2 POP POP JUMP JUMPDEST PUSH1 0x3 DUP2 LT PUSH2 0xE57 JUMPI PUSH0 DUP1 REVERT JUMPDEST POP JUMP JUMPDEST PUSH0 DUP2 CALLDATALOAD SWAP1 POP PUSH2 0xE68 DUP2 PUSH2 0xE4B JUMP JUMPDEST SWAP3 SWAP2 POP POP JUMP JUMPDEST PUSH0 DUP1 PUSH0 DUP1 PUSH1 0x80 DUP6 DUP8 SUB SLT ISZERO PUSH2 0xE86 JUMPI PUSH2 0xE85 PUSH2 0xA06 JUMP JUMPDEST JUMPDEST PUSH0 PUSH2 0xE93 DUP8 DUP3 DUP9 ADD PUSH2 0xBC6 JUMP JUMPDEST SWAP5 POP POP PUSH1 0x20 DUP6 ADD CALLDATALOAD PUSH8 0xFFFFFFFFFFFFFFFF DUP2 GT ISZERO PUSH2 0xEB4 JUMPI PUSH2 0xEB3 PUSH2 0xA0A JUMP JUMPDEST JUMPDEST PUSH2 0xEC0 DUP8 DUP3 DUP9 ADD PUSH2 0xD1E JUMP JUMPDEST SWAP4 POP POP PUSH1 0x40 DUP6 ADD CALLDATALOAD PUSH8 0xFFFFFFFFFFFFFFFF DUP2 GT ISZERO PUSH2 0xEE1 JUMPI PUSH2 0xEE0 PUSH2 0xA0A JUMP JUMPDEST JUMPDEST PUSH2 0xEED DUP8 DUP3 DUP9 ADD PUSH2 0xE1E JUMP JUMPDEST SWAP3 POP POP PUSH1 0x60 PUSH2 0xEFE DUP8 DUP3 DUP9 ADD PUSH2 0xE5A JUMP JUMPDEST SWAP2 POP POP SWAP3 SWAP6 SWAP2 SWAP5 POP SWAP3 POP JUMP JUMPDEST PUSH0 PUSH8 0xFFFFFFFFFFFFFFFF DUP3 GT ISZERO PUSH2 0xF24 JUMPI PUSH2 0xF23 PUSH2 0xBEE JUMP JUMPDEST JUMPDEST PUSH1 0x20 DUP3 MUL SWAP1 POP SWAP2 SWAP1 POP JUMP JUMPDEST PUSH0 PUSH2 0xF41 PUSH2 0xF3C DUP5 PUSH2 0xF0A JUMP JUMPDEST PUSH2 0xC4C JUMP JUMPDEST SWAP1 POP DUP1 PUSH1 0x20 DUP5 MUL DUP4 ADD DUP6 DUP2 GT ISZERO PUSH2 0xF5B JUMPI PUSH2 0xF5A PUSH2 0xDB2 JUMP JUMPDEST JUMPDEST DUP4 JUMPDEST DUP2 DUP2 LT ISZERO PUSH2 0xF84 JUMPI DUP1 PUSH2 0xF70 DUP9 DUP3 PUSH2 0xA2D JUMP JUMPDEST DUP5 MSTORE PUSH1 0x20 DUP5 ADD SWAP4 POP POP PUSH1 0x20 DUP2 ADD SWAP1 POP PUSH2 0xF5D JUMP JUMPDEST POP POP POP SWAP4 SWAP3 POP POP POP JUMP JUMPDEST PUSH0 DUP3 PUSH1 0x1F DUP4 ADD SLT PUSH2 0xFA2 JUMPI PUSH2 0xFA1 PUSH2 0xC6A JUMP JUMPDEST JUMPDEST PUSH1 0x3 PUSH2 0xFAF DUP5 DUP3 DUP6 PUSH2 0xF2F JUMP JUMPDEST SWAP2 POP POP SWAP3 SWAP2 POP POP JUMP JUMPDEST PUSH0 PUSH1 0x60 DUP3 DUP5 SUB SLT ISZERO PUSH2 0xFCD JUMPI PUSH2 0xFCC PUSH2 0xA06 JUMP JUMPDEST JUMPDEST PUSH0 PUSH2 0xFDA DUP5 DUP3 DUP6 ADD PUSH2 0xF8E JUMP JUMPDEST SWAP2 POP POP SWAP3 SWAP2 POP POP JUMP JUMPDEST PUSH0 PUSH8 0xFFFFFFFFFFFFFFFF DUP3 GT ISZERO PUSH2 0xFFD JUMPI PUSH2 0xFFC PUSH2 0xBEE JUMP JUMPDEST JUMPDEST PUSH2 0x1006 DUP3 PUSH2 0xBDE JUMP JUMPDEST SWAP1 POP PUSH1 0x20 DUP2 ADD SWAP1 POP SWAP2 SWAP1 POP JUMP JUMPDEST PUSH0 PUSH2 0x1025 PUSH2 0x1020 DUP5 PUSH2 0xFE3 JUMP JUMPDEST PUSH2 0xC4C JUMP JUMPDEST SWAP1 POP DUP3 DUP2 MSTORE PUSH1 0x20 DUP2 ADD DUP5 DUP5 DUP5 ADD GT ISZERO PUSH2 0x1041 JUMPI PUSH2 0x1040 PUSH2 0xC6E JUMP JUMPDEST JUMPDEST PUSH2 0x104C DUP5 DUP3 DUP6 PUSH2 0xCA2 JUMP JUMPDEST POP SWAP4 SWAP3 POP POP POP JUMP JUMPDEST PUSH0 DUP3 PUSH1 0x1F DUP4 ADD SLT PUSH2 0x1068 JUMPI PUSH2 0x1067 PUSH2 0xC6A JUMP JUMPDEST JUMPDEST DUP2 CALLDATALOAD PUSH2 0x1078 DUP5 DUP3 PUSH1 0x20 DUP7 ADD PUSH2 0x1013 JUMP JUMPDEST SWAP2 POP POP SWAP3 SWAP2 POP POP JUMP JUMPDEST PUSH0 DUP1 PUSH1 0x40 DUP4 DUP6 SUB SLT ISZERO PUSH2 0x1097 JUMPI PUSH2 0x1096 PUSH2 0xA06 JUMP JUMPDEST JUMPDEST PUSH0 DUP4 ADD CALLDATALOAD PUSH8 0xFFFFFFFFFFFFFFFF DUP2 GT ISZERO PUSH2 0x10B4 JUMPI PUSH2 0x10B3 PUSH2 0xA0A JUMP JUMPDEST JUMPDEST PUSH2 0x10C0 DUP6 DUP3 DUP7 ADD PUSH2 0xE1E JUMP JUMPDEST SWAP3 POP POP PUSH1 0x20 DUP4 ADD CALLDATALOAD PUSH8 0xFFFFFFFFFFFFFFFF DUP2 GT ISZERO PUSH2 0x10E1 JUMPI PUSH2 0x10E0 PUSH2 0xA0A JUMP JUMPDEST JUMPDEST PUSH2 0x10ED DUP6 DUP3 DUP7 ADD PUSH2 0x1054 JUMP JUMPDEST SWAP2 POP POP SWAP3 POP SWAP3 SWAP1 POP JUMP JUMPDEST PUSH32 0x4E487B7100000000000000000000000000000000000000000000000000000000 PUSH0 MSTORE PUSH1 0x32 PUSH1 0x4 MSTORE PUSH1 0x24 PUSH0 REVERT JUMPDEST PUSH0 DUP2 MLOAD SWAP1 POP SWAP2 SWAP1 POP JUMP JUMPDEST PUSH0 DUP2 SWAP1 POP SWAP3 SWAP2 POP POP JUMP JUMPDEST DUP3 DUP2 DUP4 MCOPY PUSH0 DUP4 DUP4 ADD MSTORE POP POP POP JUMP JUMPDEST PUSH0 PUSH2 0x1150 DUP3 PUSH2 0x1124 JUMP JUMPDEST PUSH2 0x115A DUP2 DUP6 PUSH2 0x112E JUMP JUMPDEST SWAP4 POP PUSH2 0x116A DUP2 DUP6 PUSH1 0x20 DUP7 ADD PUSH2 0x1138 JUMP JUMPDEST DUP1 DUP5 ADD SWAP2 POP POP SWAP3 SWAP2 POP POP JUMP JUMPDEST PUSH0 PUSH2 0x1181 DUP3 DUP5 PUSH2 0x1146 JUMP JUMPDEST SWAP2 POP DUP2 SWAP1 POP SWAP3 SWAP2 POP POP JUMP JUMPDEST PUSH0 DUP2 SWAP1 POP SWAP2 SWAP1 POP JUMP JUMPDEST PUSH0 PUSH1 0xFF DUP3 AND SWAP1 POP SWAP2 SWAP1 POP JUMP JUMPDEST PUSH0 DUP2 SWAP1 POP SWAP2 SWAP1 POP JUMP JUMPDEST PUSH0 PUSH2 0x11C4 PUSH2 0x11BF PUSH2 0x11BA DUP5 PUSH2 0x118C JUMP JUMPDEST PUSH2 0x11A1 JUMP JUMPDEST PUSH2 0x1195 JUMP JUMPDEST SWAP1 POP SWAP2 SWAP1 POP JUMP JUMPDEST PUSH2 0x11D4 DUP2 PUSH2 0x11AA JUMP JUMPDEST DUP3 MSTORE POP POP JUMP JUMPDEST PUSH0 DUP2 SWAP1 POP SWAP2 SWAP1 POP JUMP JUMPDEST PUSH0 PUSH2 0x11FD PUSH2 0x11F8 PUSH2 0x11F3 DUP5 PUSH2 0x11DA JUMP JUMPDEST PUSH2 0x11A1 JUMP JUMPDEST PUSH2 0x1195 JUMP JUMPDEST SWAP1 POP SWAP2 SWAP1 POP JUMP JUMPDEST PUSH2 0x120D DUP2 PUSH2 0x11E3 JUMP JUMPDEST DUP3 MSTORE POP POP JUMP JUMPDEST PUSH0 PUSH1 0x40 DUP3 ADD SWAP1 POP PUSH2 0x1226 PUSH0 DUP4 ADD DUP6 PUSH2 0x11CB JUMP JUMPDEST PUSH2 0x1233 PUSH1 0x20 DUP4 ADD DUP5 PUSH2 0x1204 JUMP JUMPDEST SWAP4 SWAP3 POP POP POP JUMP JUMPDEST PUSH0 PUSH1 0x3 SWAP1 POP SWAP2 SWAP1 POP JUMP JUMPDEST PUSH0 DUP2 SWAP1 POP SWAP3 SWAP2 POP POP JUMP JUMPDEST PUSH0 DUP2 SWAP1 POP SWAP2 SWAP1 POP JUMP JUMPDEST PUSH2 0x1260 DUP2 PUSH2 0x1195 JUMP JUMPDEST DUP3 MSTORE POP POP JUMP JUMPDEST PUSH0 PUSH2 0x1271 DUP4 DUP4 PUSH2 0x1257 JUMP JUMPDEST PUSH1 0x20 DUP4 ADD SWAP1 POP SWAP3 SWAP2 POP POP JUMP JUMPDEST PUSH0 PUSH1 0x20 DUP3 ADD SWAP1 POP SWAP2 SWAP1 POP JUMP JUMPDEST PUSH2 0x1292 DUP2 PUSH2 0x123A JUMP JUMPDEST PUSH2 0x129C DUP2 DUP5 PUSH2 0x1244 JUMP JUMPDEST SWAP3 POP PUSH2 0x12A7 DUP3 PUSH2 0x124E JUMP JUMPDEST DUP1 PUSH0 JUMPDEST DUP4 DUP2 LT ISZERO PUSH2 0x12D7 JUMPI DUP2 MLOAD PUSH2 0x12BE DUP8 DUP3 PUSH2 0x1266 JUMP JUMPDEST SWAP7 POP PUSH2 0x12C9 DUP4 PUSH2 0x127D JUMP JUMPDEST SWAP3 POP POP PUSH1 0x1 DUP2 ADD SWAP1 POP PUSH2 0x12AA JUMP JUMPDEST POP POP POP POP POP POP JUMP JUMPDEST PUSH0 PUSH1 0x60 DUP3 ADD SWAP1 POP PUSH2 0x12F2 PUSH0 DUP4 ADD DUP5 PUSH2 0x1289 JUMP JUMPDEST SWAP3 SWAP2 POP POP JUMP JUMPDEST PUSH0 DUP2 MLOAD SWAP1 POP SWAP2 SWAP1 POP JUMP JUMPDEST PUSH0 DUP3 DUP3 MSTORE PUSH1 0x20 DUP3 ADD SWAP1 POP SWAP3 SWAP2 POP POP JUMP JUMPDEST PUSH0 DUP2 SWAP1 POP PUSH1 0x20 DUP3 ADD SWAP1 POP SWAP2 SWAP1 POP JUMP JUMPDEST PUSH2 0x132A DUP2 PUSH2 0xA0E JUMP JUMPDEST DUP3 MSTORE POP POP JUMP JUMPDEST PUSH0 PUSH2 0x133B DUP4 DUP4 PUSH2 0x1321 JUMP JUMPDEST PUSH1 0x20 DUP4 ADD SWAP1 POP SWAP3 SWAP2 POP POP JUMP JUMPDEST PUSH0 PUSH1 0x20 DUP3 ADD SWAP1 POP SWAP2 SWAP1 POP JUMP JUMPDEST PUSH0 PUSH2 0x135D DUP3 PUSH2 0x12F8 JUMP JUMPDEST PUSH2 0x1367 DUP2 DUP6 PUSH2 0x1302 JUMP JUMPDEST SWAP4 POP PUSH2 0x1372 DUP4 PUSH2 0x1312 JUMP JUMPDEST DUP1 PUSH0 JUMPDEST DUP4 DUP2 LT ISZERO PUSH2 0x13A2 JUMPI DUP2 MLOAD PUSH2 0x1389 DUP9 DUP3 PUSH2 0x1330 JUMP JUMPDEST SWAP8 POP PUSH2 0x1394 DUP4 PUSH2 0x1347 JUMP JUMPDEST SWAP3 POP POP PUSH1 0x1 DUP2 ADD SWAP1 POP PUSH2 0x1375 JUMP JUMPDEST POP DUP6 SWAP4 POP POP POP POP SWAP3 SWAP2 POP POP JUMP JUMPDEST PUSH0 DUP3 DUP3 MSTORE PUSH1 0x20 DUP3 ADD SWAP1 POP SWAP3 SWAP2 POP POP JUMP JUMPDEST PUSH32 0x6162630000000000000000000000000000000000000000000000000000000000 PUSH0 DUP3 ADD MSTORE POP JUMP JUMPDEST PUSH0 PUSH2 0x13F3 PUSH1 0x3 DUP4 PUSH2 0x13AF JUMP JUMPDEST SWAP2 POP PUSH2 0x13FE DUP3 PUSH2 0x13BF JUMP JUMPDEST PUSH1 0x20 DUP3 ADD SWAP1 POP SWAP2 SWAP1 POP JUMP JUMPDEST PUSH0 PUSH1 0x40 DUP3 ADD SWAP1 POP DUP2 DUP2 SUB PUSH0 DUP4 ADD MSTORE PUSH2 0x1421 DUP2 DUP5 PUSH2 0x1353 JUMP JUMPDEST SWAP1 POP DUP2 DUP2 SUB PUSH1 0x20 DUP4 ADD MSTORE PUSH2 0x1434 DUP2 PUSH2 0x13E7 JUMP JUMPDEST SWAP1 POP SWAP3 SWAP2 POP POP JUMP JUMPDEST PUSH2 0x1445 DUP2 PUSH2 0xAD3 JUMP JUMPDEST DUP3 MSTORE POP POP JUMP JUMPDEST PUSH0 DUP3 DUP3 MSTORE PUSH1 0x20 DUP3 ADD SWAP1 POP SWAP3 SWAP2 POP POP JUMP JUMPDEST PUSH0 PUSH2 0x1465 DUP3 PUSH2 0x1124 JUMP JUMPDEST PUSH2 0x146F DUP2 DUP6 PUSH2 0x144B JUMP JUMPDEST SWAP4 POP PUSH2 0x147F DUP2 DUP6 PUSH1 0x20 DUP7 ADD PUSH2 0x1138 JUMP JUMPDEST PUSH2 0x1488 DUP2 PUSH2 0xBDE JUMP JUMPDEST DUP5 ADD SWAP2 POP POP SWAP3 SWAP2 POP POP JUMP JUMPDEST PUSH0 PUSH1 0x40 DUP4 ADD PUSH0 DUP4 ADD MLOAD PUSH2 0x14A8 PUSH0 DUP7 ADD DUP3 PUSH2 0x1321 JUMP JUMPDEST POP PUSH1 0x20 DUP4 ADD MLOAD DUP5 DUP3 SUB PUSH1 0x20 DUP7 ADD MSTORE PUSH2 0x14C0 DUP3 DUP3 PUSH2 0x145B JUMP JUMPDEST SWAP2 POP POP DUP1 SWAP2 POP POP SWAP3 SWAP2 POP POP JUMP JUMPDEST PUSH0 PUSH1 0x80 DUP3 ADD SWAP1 POP PUSH2 0x14E0 PUSH0 DUP4 ADD DUP8 PUSH2 0x143C JUMP JUMPDEST DUP2 DUP2 SUB PUSH1 0x20 DUP4 ADD MSTORE PUSH2 0x14F2 DUP2 DUP7 PUSH2 0x1493 JUMP JUMPDEST SWAP1 POP DUP2 DUP2 SUB PUSH1 0x40 DUP4 ADD MSTORE PUSH2 0x1506 DUP2 DUP6 PUSH2 0x1353 JUMP JUMPDEST SWAP1 POP PUSH2 0x1515 PUSH1 0x60 DUP4 ADD DUP5 PUSH2 0x11CB JUMP JUMPDEST SWAP6 SWAP5 POP POP POP POP POP JUMP JUMPDEST PUSH0 DUP3 DUP3 MSTORE PUSH1 0x20 DUP3 ADD SWAP1 POP SWAP3 SWAP2 POP POP JUMP JUMPDEST PUSH0 PUSH2 0x1539 DUP4 DUP6 PUSH2 0x151E JUMP JUMPDEST SWAP4 POP PUSH2 0x1546 DUP4 DUP6 DUP5 PUSH2 0xCA2 JUMP JUMPDEST PUSH2 0x154F DUP4 PUSH2 0xBDE JUMP JUMPDEST DUP5 ADD SWAP1 POP SWAP4 SWAP3 POP POP POP JUMP JUMPDEST PUSH0 PUSH1 0x20 DUP3 ADD SWAP1 POP DUP2 DUP2 SUB PUSH0 DUP4 ADD MSTORE PUSH2 0x1573 DUP2 DUP5 DUP7 PUSH2 0x152E JUMP JUMPDEST SWAP1 POP SWAP4 SWAP3 POP POP POP JUMP INVALID LOG2 PUSH5 0x6970667358 0x22 SLT KECCAK256 PUSH19 0xD3798D93B9F15540204150CA2438C04D46FFEE SWAP10 SWAP10 EXP SWAP15 SLT MSTORE8 ISZERO CALLCODE PREVRANDAO 0xAB MCOPY KECCAK256 PUSH5 0x736F6C6343 STOP ADDMOD BYTE STOP CALLER "
				},
				"gasEstimates": {
					"creation": {
						"codeDepositCost": "1110800",
						"executionCost": "1152",
						"totalCost": "1111952"
					},
					"external": {
						"callWithSignature()": "infinite",
						"elementaryParamSelector(uint256,bool)": "infinite",
						"fixedSizeParamSelector(uint256[3])": "infinite",
						"mappingParamSelector(address,(uint256,bytes),uint256[],uint8)": "infinite",
						"mint(address)": "infinite",
						"mintSelector()": "339",
						"nonFixedSizeParamSelector(uint256[],string)": "infinite",
						"transfer(address,uint256)": "2034",
						"transferSelector()": "405"
					}
				},
				"methodIdentifiers": {
					"callWithSignature()": "59ebea23",
					"elementaryParamSelector(uint256,bool)": "3ec37834",
					"fixedSizeParamSelector(uint256[3])": "ead6b8bd",
					"mappingParamSelector(address,(uint256,bytes),uint256[],uint8)": "e355b0ce",
					"mint(address)": "6a627842",
					"mintSelector()": "046dab16",
					"nonFixedSizeParamSelector(uint256[],string)": "f0ca01de",
					"transfer(address,uint256)": "a9059cbb",
					"transferSelector()": "5c62f90c"
				}
			},
			"storageLayout": {
				"storage": [],
				"types": null
			},
			"userdoc": {
				"kind": "user",
				"methods": {},
				"version": 1
			}
		}
	}
}