{
	"data": {
		"bytecode": {
			"linkReferences": {},
			"object": "6080604052348015600e575f80fd5b506102848061001c5f395ff3fe608060405234801561000f575f80fd5b506004361061003f575f3560e01c806302be1b4d146100435780639b71036d1461004d578063de3b261c14610057575b5f80fd5b61004b610061565b005b610055610098565b005b61005f6100cf565b005b7fcf34ef537ac33ee1ac626ca1587a0a7e8e51561e5514f8cb36afa1c5102b3bab60405161008e90610160565b60405180910390a1565b7fcf34ef537ac33ee1ac626ca1587a0a7e8e51561e5514f8cb36afa1c5102b3bab6040516100c5906101c8565b60405180910390a1565b7fcf34ef537ac33ee1ac626ca1587a0a7e8e51561e5514f8cb36afa1c5102b3bab6040516100fc90610230565b60405180910390a1565b5f82825260208201905092915050565b7f506172656e742066756e6374696f6e00000000000000000000000000000000005f82015250565b5f61014a600f83610106565b915061015582610116565b602082019050919050565b5f6020820190508181035f8301526101778161013e565b9050919050565b7f506172656e7432000000000000000000000000000000000000000000000000005f82015250565b5f6101b2600783610106565b91506101bd8261017e565b602082019050919050565b5f6020820190508181035f8301526101df816101a6565b9050919050565b7f506172656e7400000000000000000000000000000000000000000000000000005f82015250565b5f61021a600683610106565b9150610225826101e6565b602082019050919050565b5f6020820190508181035f8301526102478161020e565b905091905056fea2646970667358221220b5571bffd0931f182cdd9c85105e6e408d426e4cd4f631552c5d865346801f7c64736f6c634300081a0033",
			"opcodes": "PUSH1 0x80 PUSH1 0x40 MSTORE CALLVALUE DUP1 ISZERO PUSH1 0xE JUMPI PUSH0 DUP1 REVERT JUMPDEST POP PUSH2 0x284 DUP1 PUSH2 0x1C PUSH0 CODECOPY PUSH0 RETURN INVALID PUSH1 0x80 PUSH1 0x40 MSTORE CALLVALUE DUP1 ISZERO PUSH2 0xF JUMPI PUSH0 DUP1 REVERT JUMPDEST POP PUSH1 0x4 CALLDATASIZE LT PUSH2 0x3F JUMPI PUSH0 CALLDATALOAD PUSH1 0xE0 SHR DUP1 PUSH4 0x2BE1B4D EQ PUSH2 0x43 JUMPI DUP1 PUSH4 0x9B71036D EQ PUSH2 0x4D JUMPI DUP1 PUSH4 0xDE3B261C EQ PUSH2 0x57 JUMPI JUMPDEST PUSH0 DUP1 REVERT JUMPDEST PUSH2 0x4B PUSH2 0x61 JUMP JUMPDEST STOP JUMPDEST PUSH2 0x55 PUSH2 0x98 JUMP JUMPDEST STOP JUMPDEST PUSH2 0x5F PUSH2 0xCF JUMP JUMPDEST STOP JUMPDEST PUSH32 0xCF34EF537AC33EE1AC626CA1587A0A7E8E51561E5514F8CB36AFA1C5102B3BAB PUSH1 0x40 MLOAD PUSH2 0x8E SWAP1 PUSH2 0x160 JUMP JUMPDEST PUSH1 0x40 MLOAD DUP1 SWAP2 SUB SWAP1 LOG1 JUMP JUMPDEST PUSH32 0xCF34EF537AC33EE1AC626CA1587A0A7E8E51561E5514F8CB36AFA1C5102B3BAB PUSH1 0x40 MLOAD PUSH2 0xC5 SWAP1 PUSH2 0x1C8 JUMP JUMPDEST PUSH1 0x40 MLOAD DUP1 SWAP2 SUB SWAP1 LOG1 JUMP JUMPDEST PUSH32 0xCF34EF537AC33EE1AC626CA1587A0A7E8E51561E5514F8CB36AFA1C5102B3BAB PUSH1 0x40 MLOAD PUSH2 0xFC SWAP1 PUSH2 0x230 JUMP JUMPDEST PUSH1 0x40 MLOAD DUP1 SWAP2 SUB SWAP1 LOG1 JUMP JUMPDEST PUSH0 DUP3 DUP3 MSTORE PUSH1 0x20 DUP3 ADD SWAP1 POP SWAP3 SWAP2 POP POP JUMP JUMPDEST PUSH32 0x506172656E742066756E6374696F6E0000000000000000000000000000000000 PUSH0 DUP3 ADD MSTORE POP JUMP JUMPDEST PUSH0 PUSH2 0x14A PUSH1 0xF DUP4 PUSH2 0x106 JUMP JUMPDEST SWAP2 POP PUSH2 0x155 DUP3 PUSH2 0x116 JUMP JUMPDEST PUSH1 0x20 DUP3 ADD SWAP1 POP SWAP2 SWAP1 POP JUMP JUMPDEST PUSH0 PUSH1 0x20 DUP3 ADD SWAP1 POP DUP2 DUP2 SUB PUSH0 DUP4 ADD MSTORE PUSH2 0x177 DUP2 PUSH2 0x13E JUMP JUMPDEST SWAP1 POP SWAP2 SWAP1 POP JUMP JUMPDEST PUSH32 0x506172656E743200000000000000000000000000000000000000000000000000 PUSH0 DUP3 ADD MSTORE POP JUMP JUMPDEST PUSH0 PUSH2 0x1B2 PUSH1 0x7 DUP4 PUSH2 0x106 JUMP JUMPDEST SWAP2 POP PUSH2 0x1BD DUP3 PUSH2 0x17E JUMP JUMPDEST PUSH1 0x20 DUP3 ADD SWAP1 POP SWAP2 SWAP1 POP JUMP JUMPDEST PUSH0 PUSH1 0x20 DUP3 ADD SWAP1 POP DUP2 DUP2 SUB PUSH0 DUP4 ADD MSTORE PUSH2 0x1DF DUP2 PUSH2 0x1A6 JUMP JUMPDEST SWAP1 POP SWAP2 SWAP1 POP JUMP JUMPDEST PUSH32 0x506172656E740000000000000000000000000000000000000000000000000000 PUSH0 DUP3 ADD MSTORE POP JUMP JUMPDEST PUSH0 PUSH2 0x21A PUSH1 0x6 DUP4 PUSH2 0x106 JUMP JUMPDEST SWAP2 POP PUSH2 0x225 DUP3 PUSH2 0x1E6 JUMP JUMPDEST PUSH1 0x20 DUP3 ADD SWAP1 POP SWAP2 SWAP1 POP JUMP JUMPDEST PUSH0 PUSH1 0x20 DUP3 ADD SWAP1 POP DUP2 DUP2 SUB PUSH0 DUP4 ADD MSTORE PUSH2 0x247 DUP2 PUSH2 0x20E JUMP JUMPDEST SWAP1 POP SWAP2 SWAP1 POP JUMP INVALID LOG2 PUSH5 0x6970667358 0x22 SLT KECCAK256 0xB5 JUMPI SHL SELFDESTRUCT 0xD0 SWAP4 0x1F XOR 0x2C 0xDD SWAP13 DUP6 LT MCOPY PUSH15 0x408D426E4CD4F631552C5D86534680 0x1F PUSH29 0x64736F6C634300081A0033000000000000000000000000000000000000 "
		},
		"gasEstimates": {
			"creation": {
				"codeDepositCost": "128800",
				"executionCost": "175",
				"totalCost": "128975"
			},
			"external": {
				"talk2Super()": "1940",
				"talkParent()": "1918",
				"talkSuper()": "1962"
			}
		},
		"methodIdentifiers": {
			"talk2Super()": "9b71036d",
			"talkParent()": "02be1b4d",
			"talkSuper()": "de3b261c"
		}
	},
	"abi": [
		{
			"anonymous": false,
			"inputs": [
				{
					"indexed": false,
					"internalType": "string",
					"name": "",
					"type": "string"
				}
			],
			"name": "Log",
			"type": "event"
		},
		{
			"inputs": [],
			"name": "talk2Super",
			"outputs": [],
			"stateMutability": "nonpayable",
			"type": "function"
		},
		{
			"inputs": [],
			"name": "talkParent",
			"outputs": [],
			"stateMutability": "nonpayable",
			"type": "function"
		},
		{
			"inputs": [],
			"name": "talkSuper",
			"outputs": [],
			"stateMutability": "nonpayable",
			"type": "function"
		}
	]
}