{
	"data": {
		"bytecode": {
			"linkReferences": {},
			"object": "6080604052348015600e575f80fd5b506101d08061001c5f395ff3fe608060405234801561000f575f80fd5b5060043610610034575f3560e01c80639b71036d14610038578063de3b261c14610042575b5f80fd5b61004061004c565b005b61004a610083565b005b7fcf34ef537ac33ee1ac626ca1587a0a7e8e51561e5514f8cb36afa1c5102b3bab60405161007990610114565b60405180910390a1565b7fcf34ef537ac33ee1ac626ca1587a0a7e8e51561e5514f8cb36afa1c5102b3bab6040516100b09061017c565b60405180910390a1565b5f82825260208201905092915050565b7f696d20796f7572206772616e64466174686572320000000000000000000000005f82015250565b5f6100fe6014836100ba565b9150610109826100ca565b602082019050919050565b5f6020820190508181035f83015261012b816100f2565b9050919050565b7f696d20796f7572206772616e64466174686572000000000000000000000000005f82015250565b5f6101666013836100ba565b915061017182610132565b602082019050919050565b5f6020820190508181035f8301526101938161015a565b905091905056fea2646970667358221220baf4230ab1b26585133ec84076c60e191f3ff72debed8f4e54cd6d3d8f1a679e64736f6c634300081a0033",
			"opcodes": "PUSH1 0x80 PUSH1 0x40 MSTORE CALLVALUE DUP1 ISZERO PUSH1 0xE JUMPI PUSH0 DUP1 REVERT JUMPDEST POP PUSH2 0x1D0 DUP1 PUSH2 0x1C PUSH0 CODECOPY PUSH0 RETURN INVALID PUSH1 0x80 PUSH1 0x40 MSTORE CALLVALUE DUP1 ISZERO PUSH2 0xF JUMPI PUSH0 DUP1 REVERT JUMPDEST POP PUSH1 0x4 CALLDATASIZE LT PUSH2 0x34 JUMPI PUSH0 CALLDATALOAD PUSH1 0xE0 SHR DUP1 PUSH4 0x9B71036D EQ PUSH2 0x38 JUMPI DUP1 PUSH4 0xDE3B261C EQ PUSH2 0x42 JUMPI JUMPDEST PUSH0 DUP1 REVERT JUMPDEST PUSH2 0x40 PUSH2 0x4C JUMP JUMPDEST STOP JUMPDEST PUSH2 0x4A PUSH2 0x83 JUMP JUMPDEST STOP JUMPDEST PUSH32 0xCF34EF537AC33EE1AC626CA1587A0A7E8E51561E5514F8CB36AFA1C5102B3BAB PUSH1 0x40 MLOAD PUSH2 0x79 SWAP1 PUSH2 0x114 JUMP JUMPDEST PUSH1 0x40 MLOAD DUP1 SWAP2 SUB SWAP1 LOG1 JUMP JUMPDEST PUSH32 0xCF34EF537AC33EE1AC626CA1587A0A7E8E51561E5514F8CB36AFA1C5102B3BAB PUSH1 0x40 MLOAD PUSH2 0xB0 SWAP1 PUSH2 0x17C JUMP JUMPDEST PUSH1 0x40 MLOAD DUP1 SWAP2 SUB SWAP1 LOG1 JUMP JUMPDEST PUSH0 DUP3 DUP3 MSTORE PUSH1 0x20 DUP3 ADD SWAP1 POP SWAP3 SWAP2 POP POP JUMP JUMPDEST PUSH32 0x696D20796F7572206772616E6446617468657232000000000000000000000000 PUSH0 DUP3 ADD MSTORE POP JUMP JUMPDEST PUSH0 PUSH2 0xFE PUSH1 0x14 DUP4 PUSH2 0xBA JUMP JUMPDEST SWAP2 POP PUSH2 0x109 DUP3 PUSH2 0xCA JUMP JUMPDEST PUSH1 0x20 DUP3 ADD SWAP1 POP SWAP2 SWAP1 POP JUMP JUMPDEST PUSH0 PUSH1 0x20 DUP3 ADD SWAP1 POP DUP2 DUP2 SUB PUSH0 DUP4 ADD MSTORE PUSH2 0x12B DUP2 PUSH2 0xF2 JUMP JUMPDEST SWAP1 POP SWAP2 SWAP1 POP JUMP JUMPDEST PUSH32 0x696D20796F7572206772616E6446617468657200000000000000000000000000 PUSH0 DUP3 ADD MSTORE POP JUMP JUMPDEST PUSH0 PUSH2 0x166 PUSH1 0x13 DUP4 PUSH2 0xBA JUMP JUMPDEST SWAP2 POP PUSH2 0x171 DUP3 PUSH2 0x132 JUMP JUMPDEST PUSH1 0x20 DUP3 ADD SWAP1 POP SWAP2 SWAP1 POP JUMP JUMPDEST PUSH0 PUSH1 0x20 DUP3 ADD SWAP1 POP DUP2 DUP2 SUB PUSH0 DUP4 ADD MSTORE PUSH2 0x193 DUP2 PUSH2 0x15A JUMP JUMPDEST SWAP1 POP SWAP2 SWAP1 POP JUMP INVALID LOG2 PUSH5 0x6970667358 0x22 SLT KECCAK256 0xBA DELEGATECALL 0x23 EXP 0xB1 0xB2 PUSH6 0x85133EC84076 0xC6 0xE NOT 0x1F EXTCODEHASH 0xF7 0x2D 0xEB 0xED DUP16 0x4E SLOAD 0xCD PUSH14 0x3D8F1A679E64736F6C634300081A STOP CALLER "
		},
		"gasEstimates": {
			"creation": {
				"codeDepositCost": "92800",
				"executionCost": "139",
				"totalCost": "92939"
			},
			"external": {
				"talk2Super()": "1918",
				"talkSuper()": "1940"
			}
		},
		"methodIdentifiers": {
			"talk2Super()": "9b71036d",
			"talkSuper()": "de3b261c"
		}
	},
	"abi": [
		{
			"anonymous": false,
			"inputs": [
				{
					"indexed": false,
					"internalType": "string",
					"name": "",
					"type": "string"
				}
			],
			"name": "Log",
			"type": "event"
		},
		{
			"inputs": [],
			"name": "talk2Super",
			"outputs": [],
			"stateMutability": "nonpayable",
			"type": "function"
		},
		{
			"inputs": [],
			"name": "talkSuper",
			"outputs": [],
			"stateMutability": "nonpayable",
			"type": "function"
		}
	]
}