{
	"contracts/solidity/solidity102/delegateCall/DelegateCall.sol": {
		"B": {
			"abi": [
				{
					"anonymous": false,
					"inputs": [
						{
							"indexed": false,
							"internalType": "bool",
							"name": "success",
							"type": "bool"
						},
						{
							"indexed": false,
							"internalType": "bytes",
							"name": "data",
							"type": "bytes"
						}
					],
					"name": "Response",
					"type": "event"
				},
				{
					"inputs": [
						{
							"internalType": "address",
							"name": "_addr",
							"type": "address"
						},
						{
							"internalType": "uint256",
							"name": "_num",
							"type": "uint256"
						}
					],
					"name": "callSetVars",
					"outputs": [],
					"stateMutability": "nonpayable",
					"type": "function"
				},
				{
					"inputs": [
						{
							"internalType": "address",
							"name": "_addr",
							"type": "address"
						},
						{
							"internalType": "uint256",
							"name": "_num",
							"type": "uint256"
						}
					],
					"name": "delegatecallSetVars",
					"outputs": [],
					"stateMutability": "nonpayable",
					"type": "function"
				},
				{
					"inputs": [],
					"name": "num",
					"outputs": [
						{
							"internalType": "uint256",
							"name": "",
							"type": "uint256"
						}
					],
					"stateMutability": "view",
					"type": "function"
				},
				{
					"inputs": [],
					"name": "sender",
					"outputs": [
						{
							"internalType": "address",
							"name": "",
							"type": "address"
						}
					],
					"stateMutability": "view",
					"type": "function"
				}
			],
			"devdoc": {
				"kind": "dev",
				"methods": {},
				"version": 1
			},
			"evm": {
				"assembly": "    /* \"contracts/solidity/solidity102/delegateCall/DelegateCall.sol\":726:1667  contract B {... */\n  mstore(0x40, 0x80)\n  callvalue\n  dup1\n  iszero\n  tag_1\n  jumpi\n  0x00\n  dup1\n  revert\ntag_1:\n  pop\n  dataSize(sub_0)\n  dup1\n  dataOffset(sub_0)\n  0x00\n  codecopy\n  0x00\n  return\nstop\n\nsub_0: assembly {\n        /* \"contracts/solidity/solidity102/delegateCall/DelegateCall.sol\":726:1667  contract B {... */\n      mstore(0x40, 0x80)\n      callvalue\n      dup1\n      iszero\n      tag_1\n      jumpi\n      0x00\n      dup1\n      revert\n    tag_1:\n      pop\n      jumpi(tag_2, lt(calldatasize, 0x04))\n      shr(0xe0, calldataload(0x00))\n      dup1\n      0x1c1cba57\n      eq\n      tag_3\n      jumpi\n      dup1\n      0x4e70b1dc\n      eq\n      tag_4\n      jumpi\n      dup1\n      0x67e404ce\n      eq\n      tag_5\n      jumpi\n      dup1\n      0xb39a9641\n      eq\n      tag_6\n      jumpi\n    tag_2:\n      0x00\n      dup1\n      revert\n        /* \"contracts/solidity/solidity102/delegateCall/DelegateCall.sol\":1265:1548  function delegatecallSetVars(address _addr, uint256 _num) external {... */\n    tag_3:\n      tag_7\n      0x04\n      dup1\n      calldatasize\n      sub\n      dup2\n      add\n      swap1\n      tag_8\n      swap2\n      swap1\n      tag_9\n      jump\t// in\n    tag_8:\n      tag_10\n      jump\t// in\n    tag_7:\n      stop\n        /* \"contracts/solidity/solidity102/delegateCall/DelegateCall.sol\":743:761  uint256 public num */\n    tag_4:\n      tag_11\n      tag_12\n      jump\t// in\n    tag_11:\n      mload(0x40)\n      tag_13\n      swap2\n      swap1\n      tag_14\n      jump\t// in\n    tag_13:\n      mload(0x40)\n      dup1\n      swap2\n      sub\n      swap1\n      return\n        /* \"contracts/solidity/solidity102/delegateCall/DelegateCall.sol\":767:788  address public sender */\n    tag_5:\n      tag_15\n      tag_16\n      jump\t// in\n    tag_15:\n      mload(0x40)\n      tag_17\n      swap2\n      swap1\n      tag_18\n      jump\t// in\n    tag_17:\n      mload(0x40)\n      dup1\n      swap2\n      sub\n      swap1\n      return\n        /* \"contracts/solidity/solidity102/delegateCall/DelegateCall.sol\":909:1168  function callSetVars(address _addr, uint256 _num) external {... */\n    tag_6:\n      tag_19\n      0x04\n      dup1\n      calldatasize\n      sub\n      dup2\n      add\n      swap1\n      tag_20\n      swap2\n      swap1\n      tag_9\n      jump\t// in\n    tag_20:\n      tag_21\n      jump\t// in\n    tag_19:\n      stop\n        /* \"contracts/solidity/solidity102/delegateCall/DelegateCall.sol\":1265:1548  function delegatecallSetVars(address _addr, uint256 _num) external {... */\n    tag_10:\n        /* \"contracts/solidity/solidity102/delegateCall/DelegateCall.sol\":1377:1389  bool success */\n      0x00\n        /* \"contracts/solidity/solidity102/delegateCall/DelegateCall.sol\":1391:1408  bytes memory data */\n      dup1\n        /* \"contracts/solidity/solidity102/delegateCall/DelegateCall.sol\":1412:1417  _addr */\n      dup4\n        /* \"contracts/solidity/solidity102/delegateCall/DelegateCall.sol\":1412:1430  _addr.delegatecall */\n      0xffffffffffffffffffffffffffffffffffffffff\n      and\n        /* \"contracts/solidity/solidity102/delegateCall/DelegateCall.sol\":1488:1492  _num */\n      dup4\n        /* \"contracts/solidity/solidity102/delegateCall/DelegateCall.sol\":1444:1493  abi.encodeWithSignature(\"setVars(uint256)\", _num) */\n      add(0x24, mload(0x40))\n      tag_23\n      swap2\n      swap1\n      tag_14\n      jump\t// in\n    tag_23:\n      mload(0x40)\n      0x20\n      dup2\n      dup4\n      sub\n      sub\n      dup2\n      mstore\n      swap1\n      0x40\n      mstore\n      and(not(0xffffffffffffffffffffffffffffffffffffffffffffffffffffffff), 0x6466414b00000000000000000000000000000000000000000000000000000000)\n      0x20\n      dup3\n      add\n      dup1\n      mload\n      0xffffffffffffffffffffffffffffffffffffffffffffffffffffffff\n      dup4\n      dup2\n      dup4\n      and\n      or\n      dup4\n      mstore\n      pop\n      pop\n      pop\n      pop\n        /* \"contracts/solidity/solidity102/delegateCall/DelegateCall.sol\":1412:1503  _addr.delegatecall(... */\n      mload(0x40)\n      tag_24\n      swap2\n      swap1\n      tag_25\n      jump\t// in\n    tag_24:\n      0x00\n      mload(0x40)\n      dup1\n      dup4\n      sub\n      dup2\n      dup6\n      gas\n      delegatecall\n      swap2\n      pop\n      pop\n      returndatasize\n      dup1\n      0x00\n      dup2\n      eq\n      tag_28\n      jumpi\n      mload(0x40)\n      swap2\n      pop\n      and(add(returndatasize, 0x3f), not(0x1f))\n      dup3\n      add\n      0x40\n      mstore\n      returndatasize\n      dup3\n      mstore\n      returndatasize\n      0x00\n      0x20\n      dup5\n      add\n      returndatacopy\n      jump(tag_27)\n    tag_28:\n      0x60\n      swap2\n      pop\n    tag_27:\n      pop\n        /* \"contracts/solidity/solidity102/delegateCall/DelegateCall.sol\":1376:1503  (bool success, bytes memory data) = _addr.delegatecall(... */\n      swap2\n      pop\n      swap2\n      pop\n        /* \"contracts/solidity/solidity102/delegateCall/DelegateCall.sol\":1518:1541  Response(success, data) */\n      0x13848c3e38f8886f3f5d2ad9dff80d8092c2bbb8efd5b887a99c2c6cfc09ac2a\n        /* \"contracts/solidity/solidity102/delegateCall/DelegateCall.sol\":1527:1534  success */\n      dup3\n        /* \"contracts/solidity/solidity102/delegateCall/DelegateCall.sol\":1536:1540  data */\n      dup3\n        /* \"contracts/solidity/solidity102/delegateCall/DelegateCall.sol\":1518:1541  Response(success, data) */\n      mload(0x40)\n      tag_29\n      swap3\n      swap2\n      swap1\n      tag_30\n      jump\t// in\n    tag_29:\n      mload(0x40)\n      dup1\n      swap2\n      sub\n      swap1\n      log1\n        /* \"contracts/solidity/solidity102/delegateCall/DelegateCall.sol\":1332:1548  {... */\n      pop\n      pop\n        /* \"contracts/solidity/solidity102/delegateCall/DelegateCall.sol\":1265:1548  function delegatecallSetVars(address _addr, uint256 _num) external {... */\n      pop\n      pop\n      jump\t// out\n        /* \"contracts/solidity/solidity102/delegateCall/DelegateCall.sol\":743:761  uint256 public num */\n    tag_12:\n      sload(0x00)\n      dup2\n      jump\t// out\n        /* \"contracts/solidity/solidity102/delegateCall/DelegateCall.sol\":767:788  address public sender */\n    tag_16:\n      0x01\n      0x00\n      swap1\n      sload\n      swap1\n      0x0100\n      exp\n      swap1\n      div\n      0xffffffffffffffffffffffffffffffffffffffff\n      and\n      dup2\n      jump\t// out\n        /* \"contracts/solidity/solidity102/delegateCall/DelegateCall.sol\":909:1168  function callSetVars(address _addr, uint256 _num) external {... */\n    tag_21:\n        /* \"contracts/solidity/solidity102/delegateCall/DelegateCall.sol\":1005:1017  bool success */\n      0x00\n        /* \"contracts/solidity/solidity102/delegateCall/DelegateCall.sol\":1019:1036  bytes memory data */\n      dup1\n        /* \"contracts/solidity/solidity102/delegateCall/DelegateCall.sol\":1040:1045  _addr */\n      dup4\n        /* \"contracts/solidity/solidity102/delegateCall/DelegateCall.sol\":1040:1050  _addr.call */\n      0xffffffffffffffffffffffffffffffffffffffff\n      and\n        /* \"contracts/solidity/solidity102/delegateCall/DelegateCall.sol\":1108:1112  _num */\n      dup4\n        /* \"contracts/solidity/solidity102/delegateCall/DelegateCall.sol\":1064:1113  abi.encodeWithSignature(\"setVars(uint256)\", _num) */\n      add(0x24, mload(0x40))\n      tag_32\n      swap2\n      swap1\n      tag_14\n      jump\t// in\n    tag_32:\n      mload(0x40)\n      0x20\n      dup2\n      dup4\n      sub\n      sub\n      dup2\n      mstore\n      swap1\n      0x40\n      mstore\n      and(not(0xffffffffffffffffffffffffffffffffffffffffffffffffffffffff), 0x6466414b00000000000000000000000000000000000000000000000000000000)\n      0x20\n      dup3\n      add\n      dup1\n      mload\n      0xffffffffffffffffffffffffffffffffffffffffffffffffffffffff\n      dup4\n      dup2\n      dup4\n      and\n      or\n      dup4\n      mstore\n      pop\n      pop\n      pop\n      pop\n        /* \"contracts/solidity/solidity102/delegateCall/DelegateCall.sol\":1040:1123  _addr.call(... */\n      mload(0x40)\n      tag_33\n      swap2\n      swap1\n      tag_25\n      jump\t// in\n    tag_33:\n      0x00\n      mload(0x40)\n      dup1\n      dup4\n      sub\n      dup2\n      0x00\n      dup7\n      gas\n      call\n      swap2\n      pop\n      pop\n      returndatasize\n      dup1\n      0x00\n      dup2\n      eq\n      tag_36\n      jumpi\n      mload(0x40)\n      swap2\n      pop\n      and(add(returndatasize, 0x3f), not(0x1f))\n      dup3\n      add\n      0x40\n      mstore\n      returndatasize\n      dup3\n      mstore\n      returndatasize\n      0x00\n      0x20\n      dup5\n      add\n      returndatacopy\n      jump(tag_35)\n    tag_36:\n      0x60\n      swap2\n      pop\n    tag_35:\n      pop\n        /* \"contracts/solidity/solidity102/delegateCall/DelegateCall.sol\":1004:1123  (bool success, bytes memory data) = _addr.call(... */\n      swap2\n      pop\n      swap2\n      pop\n        /* \"contracts/solidity/solidity102/delegateCall/DelegateCall.sol\":1138:1161  Response(success, data) */\n      0x13848c3e38f8886f3f5d2ad9dff80d8092c2bbb8efd5b887a99c2c6cfc09ac2a\n        /* \"contracts/solidity/solidity102/delegateCall/DelegateCall.sol\":1147:1154  success */\n      dup3\n        /* \"contracts/solidity/solidity102/delegateCall/DelegateCall.sol\":1156:1160  data */\n      dup3\n        /* \"contracts/solidity/solidity102/delegateCall/DelegateCall.sol\":1138:1161  Response(success, data) */\n      mload(0x40)\n      tag_37\n      swap3\n      swap2\n      swap1\n      tag_30\n      jump\t// in\n    tag_37:\n      mload(0x40)\n      dup1\n      swap2\n      sub\n      swap1\n      log1\n        /* \"contracts/solidity/solidity102/delegateCall/DelegateCall.sol\":968:1168  {... */\n      pop\n      pop\n        /* \"contracts/solidity/solidity102/delegateCall/DelegateCall.sol\":909:1168  function callSetVars(address _addr, uint256 _num) external {... */\n      pop\n      pop\n      jump\t// out\n        /* \"#utility.yul\":88:205   */\n    tag_39:\n        /* \"#utility.yul\":197:198   */\n      0x00\n        /* \"#utility.yul\":194:195   */\n      dup1\n        /* \"#utility.yul\":187:199   */\n      revert\n        /* \"#utility.yul\":334:460   */\n    tag_41:\n        /* \"#utility.yul\":371:378   */\n      0x00\n        /* \"#utility.yul\":411:453   */\n      0xffffffffffffffffffffffffffffffffffffffff\n        /* \"#utility.yul\":404:409   */\n      dup3\n        /* \"#utility.yul\":400:454   */\n      and\n        /* \"#utility.yul\":389:454   */\n      swap1\n      pop\n        /* \"#utility.yul\":334:460   */\n      swap2\n      swap1\n      pop\n      jump\t// out\n        /* \"#utility.yul\":466:562   */\n    tag_42:\n        /* \"#utility.yul\":503:510   */\n      0x00\n        /* \"#utility.yul\":532:556   */\n      tag_65\n        /* \"#utility.yul\":550:555   */\n      dup3\n        /* \"#utility.yul\":532:556   */\n      tag_41\n      jump\t// in\n    tag_65:\n        /* \"#utility.yul\":521:556   */\n      swap1\n      pop\n        /* \"#utility.yul\":466:562   */\n      swap2\n      swap1\n      pop\n      jump\t// out\n        /* \"#utility.yul\":568:690   */\n    tag_43:\n        /* \"#utility.yul\":641:665   */\n      tag_67\n        /* \"#utility.yul\":659:664   */\n      dup2\n        /* \"#utility.yul\":641:665   */\n      tag_42\n      jump\t// in\n    tag_67:\n        /* \"#utility.yul\":634:639   */\n      dup2\n        /* \"#utility.yul\":631:666   */\n      eq\n        /* \"#utility.yul\":621:684   */\n      tag_68\n      jumpi\n        /* \"#utility.yul\":680:681   */\n      0x00\n        /* \"#utility.yul\":677:678   */\n      dup1\n        /* \"#utility.yul\":670:682   */\n      revert\n        /* \"#utility.yul\":621:684   */\n    tag_68:\n        /* \"#utility.yul\":568:690   */\n      pop\n      jump\t// out\n        /* \"#utility.yul\":696:835   */\n    tag_44:\n        /* \"#utility.yul\":742:747   */\n      0x00\n        /* \"#utility.yul\":780:786   */\n      dup2\n        /* \"#utility.yul\":767:787   */\n      calldataload\n        /* \"#utility.yul\":758:787   */\n      swap1\n      pop\n        /* \"#utility.yul\":796:829   */\n      tag_70\n        /* \"#utility.yul\":823:828   */\n      dup2\n        /* \"#utility.yul\":796:829   */\n      tag_43\n      jump\t// in\n    tag_70:\n        /* \"#utility.yul\":696:835   */\n      swap3\n      swap2\n      pop\n      pop\n      jump\t// out\n        /* \"#utility.yul\":841:918   */\n    tag_45:\n        /* \"#utility.yul\":878:885   */\n      0x00\n        /* \"#utility.yul\":907:912   */\n      dup2\n        /* \"#utility.yul\":896:912   */\n      swap1\n      pop\n        /* \"#utility.yul\":841:918   */\n      swap2\n      swap1\n      pop\n      jump\t// out\n        /* \"#utility.yul\":924:1046   */\n    tag_46:\n        /* \"#utility.yul\":997:1021   */\n      tag_73\n        /* \"#utility.yul\":1015:1020   */\n      dup2\n        /* \"#utility.yul\":997:1021   */\n      tag_45\n      jump\t// in\n    tag_73:\n        /* \"#utility.yul\":990:995   */\n      dup2\n        /* \"#utility.yul\":987:1022   */\n      eq\n        /* \"#utility.yul\":977:1040   */\n      tag_74\n      jumpi\n        /* \"#utility.yul\":1036:1037   */\n      0x00\n        /* \"#utility.yul\":1033:1034   */\n      dup1\n        /* \"#utility.yul\":1026:1038   */\n      revert\n        /* \"#utility.yul\":977:1040   */\n    tag_74:\n        /* \"#utility.yul\":924:1046   */\n      pop\n      jump\t// out\n        /* \"#utility.yul\":1052:1191   */\n    tag_47:\n        /* \"#utility.yul\":1098:1103   */\n      0x00\n        /* \"#utility.yul\":1136:1142   */\n      dup2\n        /* \"#utility.yul\":1123:1143   */\n      calldataload\n        /* \"#utility.yul\":1114:1143   */\n      swap1\n      pop\n        /* \"#utility.yul\":1152:1185   */\n      tag_76\n        /* \"#utility.yul\":1179:1184   */\n      dup2\n        /* \"#utility.yul\":1152:1185   */\n      tag_46\n      jump\t// in\n    tag_76:\n        /* \"#utility.yul\":1052:1191   */\n      swap3\n      swap2\n      pop\n      pop\n      jump\t// out\n        /* \"#utility.yul\":1197:1671   */\n    tag_9:\n        /* \"#utility.yul\":1265:1271   */\n      0x00\n        /* \"#utility.yul\":1273:1279   */\n      dup1\n        /* \"#utility.yul\":1322:1324   */\n      0x40\n        /* \"#utility.yul\":1310:1319   */\n      dup4\n        /* \"#utility.yul\":1301:1308   */\n      dup6\n        /* \"#utility.yul\":1297:1320   */\n      sub\n        /* \"#utility.yul\":1293:1325   */\n      slt\n        /* \"#utility.yul\":1290:1409   */\n      iszero\n      tag_78\n      jumpi\n        /* \"#utility.yul\":1328:1407   */\n      tag_79\n      tag_39\n      jump\t// in\n    tag_79:\n        /* \"#utility.yul\":1290:1409   */\n    tag_78:\n        /* \"#utility.yul\":1448:1449   */\n      0x00\n        /* \"#utility.yul\":1473:1526   */\n      tag_80\n        /* \"#utility.yul\":1518:1525   */\n      dup6\n        /* \"#utility.yul\":1509:1515   */\n      dup3\n        /* \"#utility.yul\":1498:1507   */\n      dup7\n        /* \"#utility.yul\":1494:1516   */\n      add\n        /* \"#utility.yul\":1473:1526   */\n      tag_44\n      jump\t// in\n    tag_80:\n        /* \"#utility.yul\":1463:1526   */\n      swap3\n      pop\n        /* \"#utility.yul\":1419:1536   */\n      pop\n        /* \"#utility.yul\":1575:1577   */\n      0x20\n        /* \"#utility.yul\":1601:1654   */\n      tag_81\n        /* \"#utility.yul\":1646:1653   */\n      dup6\n        /* \"#utility.yul\":1637:1643   */\n      dup3\n        /* \"#utility.yul\":1626:1635   */\n      dup7\n        /* \"#utility.yul\":1622:1644   */\n      add\n        /* \"#utility.yul\":1601:1654   */\n      tag_47\n      jump\t// in\n    tag_81:\n        /* \"#utility.yul\":1591:1654   */\n      swap2\n      pop\n        /* \"#utility.yul\":1546:1664   */\n      pop\n        /* \"#utility.yul\":1197:1671   */\n      swap3\n      pop\n      swap3\n      swap1\n      pop\n      jump\t// out\n        /* \"#utility.yul\":1677:1795   */\n    tag_48:\n        /* \"#utility.yul\":1764:1788   */\n      tag_83\n        /* \"#utility.yul\":1782:1787   */\n      dup2\n        /* \"#utility.yul\":1764:1788   */\n      tag_45\n      jump\t// in\n    tag_83:\n        /* \"#utility.yul\":1759:1762   */\n      dup3\n        /* \"#utility.yul\":1752:1789   */\n      mstore\n        /* \"#utility.yul\":1677:1795   */\n      pop\n      pop\n      jump\t// out\n        /* \"#utility.yul\":1801:2023   */\n    tag_14:\n        /* \"#utility.yul\":1894:1898   */\n      0x00\n        /* \"#utility.yul\":1932:1934   */\n      0x20\n        /* \"#utility.yul\":1921:1930   */\n      dup3\n        /* \"#utility.yul\":1917:1935   */\n      add\n        /* \"#utility.yul\":1909:1935   */\n      swap1\n      pop\n        /* \"#utility.yul\":1945:2016   */\n      tag_85\n        /* \"#utility.yul\":2013:2014   */\n      0x00\n        /* \"#utility.yul\":2002:2011   */\n      dup4\n        /* \"#utility.yul\":1998:2015   */\n      add\n        /* \"#utility.yul\":1989:1995   */\n      dup5\n        /* \"#utility.yul\":1945:2016   */\n      tag_48\n      jump\t// in\n    tag_85:\n        /* \"#utility.yul\":1801:2023   */\n      swap3\n      swap2\n      pop\n      pop\n      jump\t// out\n        /* \"#utility.yul\":2029:2147   */\n    tag_49:\n        /* \"#utility.yul\":2116:2140   */\n      tag_87\n        /* \"#utility.yul\":2134:2139   */\n      dup2\n        /* \"#utility.yul\":2116:2140   */\n      tag_42\n      jump\t// in\n    tag_87:\n        /* \"#utility.yul\":2111:2114   */\n      dup3\n        /* \"#utility.yul\":2104:2141   */\n      mstore\n        /* \"#utility.yul\":2029:2147   */\n      pop\n      pop\n      jump\t// out\n        /* \"#utility.yul\":2153:2375   */\n    tag_18:\n        /* \"#utility.yul\":2246:2250   */\n      0x00\n        /* \"#utility.yul\":2284:2286   */\n      0x20\n        /* \"#utility.yul\":2273:2282   */\n      dup3\n        /* \"#utility.yul\":2269:2287   */\n      add\n        /* \"#utility.yul\":2261:2287   */\n      swap1\n      pop\n        /* \"#utility.yul\":2297:2368   */\n      tag_89\n        /* \"#utility.yul\":2365:2366   */\n      0x00\n        /* \"#utility.yul\":2354:2363   */\n      dup4\n        /* \"#utility.yul\":2350:2367   */\n      add\n        /* \"#utility.yul\":2341:2347   */\n      dup5\n        /* \"#utility.yul\":2297:2368   */\n      tag_49\n      jump\t// in\n    tag_89:\n        /* \"#utility.yul\":2153:2375   */\n      swap3\n      swap2\n      pop\n      pop\n      jump\t// out\n        /* \"#utility.yul\":2381:2479   */\n    tag_50:\n        /* \"#utility.yul\":2432:2438   */\n      0x00\n        /* \"#utility.yul\":2466:2471   */\n      dup2\n        /* \"#utility.yul\":2460:2472   */\n      mload\n        /* \"#utility.yul\":2450:2472   */\n      swap1\n      pop\n        /* \"#utility.yul\":2381:2479   */\n      swap2\n      swap1\n      pop\n      jump\t// out\n        /* \"#utility.yul\":2485:2632   */\n    tag_51:\n        /* \"#utility.yul\":2586:2597   */\n      0x00\n        /* \"#utility.yul\":2623:2626   */\n      dup2\n        /* \"#utility.yul\":2608:2626   */\n      swap1\n      pop\n        /* \"#utility.yul\":2485:2632   */\n      swap3\n      swap2\n      pop\n      pop\n      jump\t// out\n        /* \"#utility.yul\":2638:2777   */\n    tag_52:\n        /* \"#utility.yul\":2727:2733   */\n      dup3\n        /* \"#utility.yul\":2722:2725   */\n      dup2\n        /* \"#utility.yul\":2717:2720   */\n      dup4\n        /* \"#utility.yul\":2711:2734   */\n      mcopy\n        /* \"#utility.yul\":2768:2769   */\n      0x00\n        /* \"#utility.yul\":2759:2765   */\n      dup4\n        /* \"#utility.yul\":2754:2757   */\n      dup4\n        /* \"#utility.yul\":2750:2766   */\n      add\n        /* \"#utility.yul\":2743:2770   */\n      mstore\n        /* \"#utility.yul\":2638:2777   */\n      pop\n      pop\n      pop\n      jump\t// out\n        /* \"#utility.yul\":2783:3169   */\n    tag_53:\n        /* \"#utility.yul\":2887:2890   */\n      0x00\n        /* \"#utility.yul\":2915:2953   */\n      tag_94\n        /* \"#utility.yul\":2947:2952   */\n      dup3\n        /* \"#utility.yul\":2915:2953   */\n      tag_50\n      jump\t// in\n    tag_94:\n        /* \"#utility.yul\":2969:3057   */\n      tag_95\n        /* \"#utility.yul\":3050:3056   */\n      dup2\n        /* \"#utility.yul\":3045:3048   */\n      dup6\n        /* \"#utility.yul\":2969:3057   */\n      tag_51\n      jump\t// in\n    tag_95:\n        /* \"#utility.yul\":2962:3057   */\n      swap4\n      pop\n        /* \"#utility.yul\":3066:3131   */\n      tag_96\n        /* \"#utility.yul\":3124:3130   */\n      dup2\n        /* \"#utility.yul\":3119:3122   */\n      dup6\n        /* \"#utility.yul\":3112:3116   */\n      0x20\n        /* \"#utility.yul\":3105:3110   */\n      dup7\n        /* \"#utility.yul\":3101:3117   */\n      add\n        /* \"#utility.yul\":3066:3131   */\n      tag_52\n      jump\t// in\n    tag_96:\n        /* \"#utility.yul\":3156:3162   */\n      dup1\n        /* \"#utility.yul\":3151:3154   */\n      dup5\n        /* \"#utility.yul\":3147:3163   */\n      add\n        /* \"#utility.yul\":3140:3163   */\n      swap2\n      pop\n        /* \"#utility.yul\":2891:3169   */\n      pop\n        /* \"#utility.yul\":2783:3169   */\n      swap3\n      swap2\n      pop\n      pop\n      jump\t// out\n        /* \"#utility.yul\":3175:3446   */\n    tag_25:\n        /* \"#utility.yul\":3305:3308   */\n      0x00\n        /* \"#utility.yul\":3327:3420   */\n      tag_98\n        /* \"#utility.yul\":3416:3419   */\n      dup3\n        /* \"#utility.yul\":3407:3413   */\n      dup5\n        /* \"#utility.yul\":3327:3420   */\n      tag_53\n      jump\t// in\n    tag_98:\n        /* \"#utility.yul\":3320:3420   */\n      swap2\n      pop\n        /* \"#utility.yul\":3437:3440   */\n      dup2\n        /* \"#utility.yul\":3430:3440   */\n      swap1\n      pop\n        /* \"#utility.yul\":3175:3446   */\n      swap3\n      swap2\n      pop\n      pop\n      jump\t// out\n        /* \"#utility.yul\":3452:3542   */\n    tag_54:\n        /* \"#utility.yul\":3486:3493   */\n      0x00\n        /* \"#utility.yul\":3529:3534   */\n      dup2\n        /* \"#utility.yul\":3522:3535   */\n      iszero\n        /* \"#utility.yul\":3515:3536   */\n      iszero\n        /* \"#utility.yul\":3504:3536   */\n      swap1\n      pop\n        /* \"#utility.yul\":3452:3542   */\n      swap2\n      swap1\n      pop\n      jump\t// out\n        /* \"#utility.yul\":3548:3657   */\n    tag_55:\n        /* \"#utility.yul\":3629:3650   */\n      tag_101\n        /* \"#utility.yul\":3644:3649   */\n      dup2\n        /* \"#utility.yul\":3629:3650   */\n      tag_54\n      jump\t// in\n    tag_101:\n        /* \"#utility.yul\":3624:3627   */\n      dup3\n        /* \"#utility.yul\":3617:3651   */\n      mstore\n        /* \"#utility.yul\":3548:3657   */\n      pop\n      pop\n      jump\t// out\n        /* \"#utility.yul\":3663:3831   */\n    tag_56:\n        /* \"#utility.yul\":3746:3757   */\n      0x00\n        /* \"#utility.yul\":3780:3786   */\n      dup3\n        /* \"#utility.yul\":3775:3778   */\n      dup3\n        /* \"#utility.yul\":3768:3787   */\n      mstore\n        /* \"#utility.yul\":3820:3824   */\n      0x20\n        /* \"#utility.yul\":3815:3818   */\n      dup3\n        /* \"#utility.yul\":3811:3825   */\n      add\n        /* \"#utility.yul\":3796:3825   */\n      swap1\n      pop\n        /* \"#utility.yul\":3663:3831   */\n      swap3\n      swap2\n      pop\n      pop\n      jump\t// out\n        /* \"#utility.yul\":3837:3939   */\n    tag_57:\n        /* \"#utility.yul\":3878:3884   */\n      0x00\n        /* \"#utility.yul\":3929:3931   */\n      0x1f\n        /* \"#utility.yul\":3925:3932   */\n      not\n        /* \"#utility.yul\":3920:3922   */\n      0x1f\n        /* \"#utility.yul\":3913:3918   */\n      dup4\n        /* \"#utility.yul\":3909:3923   */\n      add\n        /* \"#utility.yul\":3905:3933   */\n      and\n        /* \"#utility.yul\":3895:3933   */\n      swap1\n      pop\n        /* \"#utility.yul\":3837:3939   */\n      swap2\n      swap1\n      pop\n      jump\t// out\n        /* \"#utility.yul\":3945:4318   */\n    tag_58:\n        /* \"#utility.yul\":4031:4034   */\n      0x00\n        /* \"#utility.yul\":4059:4097   */\n      tag_105\n        /* \"#utility.yul\":4091:4096   */\n      dup3\n        /* \"#utility.yul\":4059:4097   */\n      tag_50\n      jump\t// in\n    tag_105:\n        /* \"#utility.yul\":4113:4183   */\n      tag_106\n        /* \"#utility.yul\":4176:4182   */\n      dup2\n        /* \"#utility.yul\":4171:4174   */\n      dup6\n        /* \"#utility.yul\":4113:4183   */\n      tag_56\n      jump\t// in\n    tag_106:\n        /* \"#utility.yul\":4106:4183   */\n      swap4\n      pop\n        /* \"#utility.yul\":4192:4257   */\n      tag_107\n        /* \"#utility.yul\":4250:4256   */\n      dup2\n        /* \"#utility.yul\":4245:4248   */\n      dup6\n        /* \"#utility.yul\":4238:4242   */\n      0x20\n        /* \"#utility.yul\":4231:4236   */\n      dup7\n        /* \"#utility.yul\":4227:4243   */\n      add\n        /* \"#utility.yul\":4192:4257   */\n      tag_52\n      jump\t// in\n    tag_107:\n        /* \"#utility.yul\":4282:4311   */\n      tag_108\n        /* \"#utility.yul\":4304:4310   */\n      dup2\n        /* \"#utility.yul\":4282:4311   */\n      tag_57\n      jump\t// in\n    tag_108:\n        /* \"#utility.yul\":4277:4280   */\n      dup5\n        /* \"#utility.yul\":4273:4312   */\n      add\n        /* \"#utility.yul\":4266:4312   */\n      swap2\n      pop\n        /* \"#utility.yul\":4035:4318   */\n      pop\n        /* \"#utility.yul\":3945:4318   */\n      swap3\n      swap2\n      pop\n      pop\n      jump\t// out\n        /* \"#utility.yul\":4324:4731   */\n    tag_30:\n        /* \"#utility.yul\":4457:4461   */\n      0x00\n        /* \"#utility.yul\":4495:4497   */\n      0x40\n        /* \"#utility.yul\":4484:4493   */\n      dup3\n        /* \"#utility.yul\":4480:4498   */\n      add\n        /* \"#utility.yul\":4472:4498   */\n      swap1\n      pop\n        /* \"#utility.yul\":4508:4573   */\n      tag_110\n        /* \"#utility.yul\":4570:4571   */\n      0x00\n        /* \"#utility.yul\":4559:4568   */\n      dup4\n        /* \"#utility.yul\":4555:4572   */\n      add\n        /* \"#utility.yul\":4546:4552   */\n      dup6\n        /* \"#utility.yul\":4508:4573   */\n      tag_55\n      jump\t// in\n    tag_110:\n        /* \"#utility.yul\":4620:4629   */\n      dup2\n        /* \"#utility.yul\":4614:4618   */\n      dup2\n        /* \"#utility.yul\":4610:4630   */\n      sub\n        /* \"#utility.yul\":4605:4607   */\n      0x20\n        /* \"#utility.yul\":4594:4603   */\n      dup4\n        /* \"#utility.yul\":4590:4608   */\n      add\n        /* \"#utility.yul\":4583:4631   */\n      mstore\n        /* \"#utility.yul\":4648:4724   */\n      tag_111\n        /* \"#utility.yul\":4719:4723   */\n      dup2\n        /* \"#utility.yul\":4710:4716   */\n      dup5\n        /* \"#utility.yul\":4648:4724   */\n      tag_58\n      jump\t// in\n    tag_111:\n        /* \"#utility.yul\":4640:4724   */\n      swap1\n      pop\n        /* \"#utility.yul\":4324:4731   */\n      swap4\n      swap3\n      pop\n      pop\n      pop\n      jump\t// out\n\n    auxdata: 0xa26469706673582212200d974f63c915f1a8b6b90c0b6da7e2f49c10094418728739acba1e4d8c74bd1e64736f6c634300081a0033\n}\n",
				"bytecode": {
					"linkReferences": {},
					"object": "6080604052348015600e575f80fd5b506105b48061001c5f395ff3fe608060405234801561000f575f80fd5b506004361061004a575f3560e01c80631c1cba571461004e5780634e70b1dc1461006a57806367e404ce14610088578063b39a9641146100a6575b5f80fd5b610068600480360381019061006391906103e8565b6100c2565b005b6100726101f7565b60405161007f9190610435565b60405180910390f35b6100906101fc565b60405161009d919061045d565b60405180910390f35b6100c060048036038101906100bb91906103e8565b610221565b005b5f808373ffffffffffffffffffffffffffffffffffffffff16836040516024016100ec9190610435565b6040516020818303038152906040527f6466414b000000000000000000000000000000000000000000000000000000007bffffffffffffffffffffffffffffffffffffffffffffffffffffffff19166020820180517bffffffffffffffffffffffffffffffffffffffffffffffffffffffff838183161783525050505060405161017691906104c8565b5f60405180830381855af49150503d805f81146101ae576040519150601f19603f3d011682016040523d82523d5f602084013e6101b3565b606091505b50915091507f13848c3e38f8886f3f5d2ad9dff80d8092c2bbb8efd5b887a99c2c6cfc09ac2a82826040516101e9929190610550565b60405180910390a150505050565b5f5481565b60015f9054906101000a900473ffffffffffffffffffffffffffffffffffffffff1681565b5f808373ffffffffffffffffffffffffffffffffffffffff168360405160240161024b9190610435565b6040516020818303038152906040527f6466414b000000000000000000000000000000000000000000000000000000007bffffffffffffffffffffffffffffffffffffffffffffffffffffffff19166020820180517bffffffffffffffffffffffffffffffffffffffffffffffffffffffff83818316178352505050506040516102d591906104c8565b5f604051808303815f865af19150503d805f811461030e576040519150601f19603f3d011682016040523d82523d5f602084013e610313565b606091505b50915091507f13848c3e38f8886f3f5d2ad9dff80d8092c2bbb8efd5b887a99c2c6cfc09ac2a8282604051610349929190610550565b60405180910390a150505050565b5f80fd5b5f73ffffffffffffffffffffffffffffffffffffffff82169050919050565b5f6103848261035b565b9050919050565b6103948161037a565b811461039e575f80fd5b50565b5f813590506103af8161038b565b92915050565b5f819050919050565b6103c7816103b5565b81146103d1575f80fd5b50565b5f813590506103e2816103be565b92915050565b5f80604083850312156103fe576103fd610357565b5b5f61040b858286016103a1565b925050602061041c858286016103d4565b9150509250929050565b61042f816103b5565b82525050565b5f6020820190506104485f830184610426565b92915050565b6104578161037a565b82525050565b5f6020820190506104705f83018461044e565b92915050565b5f81519050919050565b5f81905092915050565b8281835e5f83830152505050565b5f6104a282610476565b6104ac8185610480565b93506104bc81856020860161048a565b80840191505092915050565b5f6104d38284610498565b915081905092915050565b5f8115159050919050565b6104f2816104de565b82525050565b5f82825260208201905092915050565b5f601f19601f8301169050919050565b5f61052282610476565b61052c81856104f8565b935061053c81856020860161048a565b61054581610508565b840191505092915050565b5f6040820190506105635f8301856104e9565b81810360208301526105758184610518565b9050939250505056fea26469706673582212200d974f63c915f1a8b6b90c0b6da7e2f49c10094418728739acba1e4d8c74bd1e64736f6c634300081a0033",
					"opcodes": "PUSH1 0x80 PUSH1 0x40 MSTORE CALLVALUE DUP1 ISZERO PUSH1 0xE JUMPI PUSH0 DUP1 REVERT JUMPDEST POP PUSH2 0x5B4 DUP1 PUSH2 0x1C PUSH0 CODECOPY PUSH0 RETURN INVALID PUSH1 0x80 PUSH1 0x40 MSTORE CALLVALUE DUP1 ISZERO PUSH2 0xF JUMPI PUSH0 DUP1 REVERT JUMPDEST POP PUSH1 0x4 CALLDATASIZE LT PUSH2 0x4A JUMPI PUSH0 CALLDATALOAD PUSH1 0xE0 SHR DUP1 PUSH4 0x1C1CBA57 EQ PUSH2 0x4E JUMPI DUP1 PUSH4 0x4E70B1DC EQ PUSH2 0x6A JUMPI DUP1 PUSH4 0x67E404CE EQ PUSH2 0x88 JUMPI DUP1 PUSH4 0xB39A9641 EQ PUSH2 0xA6 JUMPI JUMPDEST PUSH0 DUP1 REVERT JUMPDEST PUSH2 0x68 PUSH1 0x4 DUP1 CALLDATASIZE SUB DUP2 ADD SWAP1 PUSH2 0x63 SWAP2 SWAP1 PUSH2 0x3E8 JUMP JUMPDEST PUSH2 0xC2 JUMP JUMPDEST STOP JUMPDEST PUSH2 0x72 PUSH2 0x1F7 JUMP JUMPDEST PUSH1 0x40 MLOAD PUSH2 0x7F SWAP2 SWAP1 PUSH2 0x435 JUMP JUMPDEST PUSH1 0x40 MLOAD DUP1 SWAP2 SUB SWAP1 RETURN JUMPDEST PUSH2 0x90 PUSH2 0x1FC JUMP JUMPDEST PUSH1 0x40 MLOAD PUSH2 0x9D SWAP2 SWAP1 PUSH2 0x45D JUMP JUMPDEST PUSH1 0x40 MLOAD DUP1 SWAP2 SUB SWAP1 RETURN JUMPDEST PUSH2 0xC0 PUSH1 0x4 DUP1 CALLDATASIZE SUB DUP2 ADD SWAP1 PUSH2 0xBB SWAP2 SWAP1 PUSH2 0x3E8 JUMP JUMPDEST PUSH2 0x221 JUMP JUMPDEST STOP JUMPDEST PUSH0 DUP1 DUP4 PUSH20 0xFFFFFFFFFFFFFFFFFFFFFFFFFFFFFFFFFFFFFFFF AND DUP4 PUSH1 0x40 MLOAD PUSH1 0x24 ADD PUSH2 0xEC SWAP2 SWAP1 PUSH2 0x435 JUMP JUMPDEST PUSH1 0x40 MLOAD PUSH1 0x20 DUP2 DUP4 SUB SUB DUP2 MSTORE SWAP1 PUSH1 0x40 MSTORE PUSH32 0x6466414B00000000000000000000000000000000000000000000000000000000 PUSH28 0xFFFFFFFFFFFFFFFFFFFFFFFFFFFFFFFFFFFFFFFFFFFFFFFFFFFFFFFF NOT AND PUSH1 0x20 DUP3 ADD DUP1 MLOAD PUSH28 0xFFFFFFFFFFFFFFFFFFFFFFFFFFFFFFFFFFFFFFFFFFFFFFFFFFFFFFFF DUP4 DUP2 DUP4 AND OR DUP4 MSTORE POP POP POP POP PUSH1 0x40 MLOAD PUSH2 0x176 SWAP2 SWAP1 PUSH2 0x4C8 JUMP JUMPDEST PUSH0 PUSH1 0x40 MLOAD DUP1 DUP4 SUB DUP2 DUP6 GAS DELEGATECALL SWAP2 POP POP RETURNDATASIZE DUP1 PUSH0 DUP2 EQ PUSH2 0x1AE JUMPI PUSH1 0x40 MLOAD SWAP2 POP PUSH1 0x1F NOT PUSH1 0x3F RETURNDATASIZE ADD AND DUP3 ADD PUSH1 0x40 MSTORE RETURNDATASIZE DUP3 MSTORE RETURNDATASIZE PUSH0 PUSH1 0x20 DUP5 ADD RETURNDATACOPY PUSH2 0x1B3 JUMP JUMPDEST PUSH1 0x60 SWAP2 POP JUMPDEST POP SWAP2 POP SWAP2 POP PUSH32 0x13848C3E38F8886F3F5D2AD9DFF80D8092C2BBB8EFD5B887A99C2C6CFC09AC2A DUP3 DUP3 PUSH1 0x40 MLOAD PUSH2 0x1E9 SWAP3 SWAP2 SWAP1 PUSH2 0x550 JUMP JUMPDEST PUSH1 0x40 MLOAD DUP1 SWAP2 SUB SWAP1 LOG1 POP POP POP POP JUMP JUMPDEST PUSH0 SLOAD DUP2 JUMP JUMPDEST PUSH1 0x1 PUSH0 SWAP1 SLOAD SWAP1 PUSH2 0x100 EXP SWAP1 DIV PUSH20 0xFFFFFFFFFFFFFFFFFFFFFFFFFFFFFFFFFFFFFFFF AND DUP2 JUMP JUMPDEST PUSH0 DUP1 DUP4 PUSH20 0xFFFFFFFFFFFFFFFFFFFFFFFFFFFFFFFFFFFFFFFF AND DUP4 PUSH1 0x40 MLOAD PUSH1 0x24 ADD PUSH2 0x24B SWAP2 SWAP1 PUSH2 0x435 JUMP JUMPDEST PUSH1 0x40 MLOAD PUSH1 0x20 DUP2 DUP4 SUB SUB DUP2 MSTORE SWAP1 PUSH1 0x40 MSTORE PUSH32 0x6466414B00000000000000000000000000000000000000000000000000000000 PUSH28 0xFFFFFFFFFFFFFFFFFFFFFFFFFFFFFFFFFFFFFFFFFFFFFFFFFFFFFFFF NOT AND PUSH1 0x20 DUP3 ADD DUP1 MLOAD PUSH28 0xFFFFFFFFFFFFFFFFFFFFFFFFFFFFFFFFFFFFFFFFFFFFFFFFFFFFFFFF DUP4 DUP2 DUP4 AND OR DUP4 MSTORE POP POP POP POP PUSH1 0x40 MLOAD PUSH2 0x2D5 SWAP2 SWAP1 PUSH2 0x4C8 JUMP JUMPDEST PUSH0 PUSH1 0x40 MLOAD DUP1 DUP4 SUB DUP2 PUSH0 DUP7 GAS CALL SWAP2 POP POP RETURNDATASIZE DUP1 PUSH0 DUP2 EQ PUSH2 0x30E JUMPI PUSH1 0x40 MLOAD SWAP2 POP PUSH1 0x1F NOT PUSH1 0x3F RETURNDATASIZE ADD AND DUP3 ADD PUSH1 0x40 MSTORE RETURNDATASIZE DUP3 MSTORE RETURNDATASIZE PUSH0 PUSH1 0x20 DUP5 ADD RETURNDATACOPY PUSH2 0x313 JUMP JUMPDEST PUSH1 0x60 SWAP2 POP JUMPDEST POP SWAP2 POP SWAP2 POP PUSH32 0x13848C3E38F8886F3F5D2AD9DFF80D8092C2BBB8EFD5B887A99C2C6CFC09AC2A DUP3 DUP3 PUSH1 0x40 MLOAD PUSH2 0x349 SWAP3 SWAP2 SWAP1 PUSH2 0x550 JUMP JUMPDEST PUSH1 0x40 MLOAD DUP1 SWAP2 SUB SWAP1 LOG1 POP POP POP POP JUMP JUMPDEST PUSH0 DUP1 REVERT JUMPDEST PUSH0 PUSH20 0xFFFFFFFFFFFFFFFFFFFFFFFFFFFFFFFFFFFFFFFF DUP3 AND SWAP1 POP SWAP2 SWAP1 POP JUMP JUMPDEST PUSH0 PUSH2 0x384 DUP3 PUSH2 0x35B JUMP JUMPDEST SWAP1 POP SWAP2 SWAP1 POP JUMP JUMPDEST PUSH2 0x394 DUP2 PUSH2 0x37A JUMP JUMPDEST DUP2 EQ PUSH2 0x39E JUMPI PUSH0 DUP1 REVERT JUMPDEST POP JUMP JUMPDEST PUSH0 DUP2 CALLDATALOAD SWAP1 POP PUSH2 0x3AF DUP2 PUSH2 0x38B JUMP JUMPDEST SWAP3 SWAP2 POP POP JUMP JUMPDEST PUSH0 DUP2 SWAP1 POP SWAP2 SWAP1 POP JUMP JUMPDEST PUSH2 0x3C7 DUP2 PUSH2 0x3B5 JUMP JUMPDEST DUP2 EQ PUSH2 0x3D1 JUMPI PUSH0 DUP1 REVERT JUMPDEST POP JUMP JUMPDEST PUSH0 DUP2 CALLDATALOAD SWAP1 POP PUSH2 0x3E2 DUP2 PUSH2 0x3BE JUMP JUMPDEST SWAP3 SWAP2 POP POP JUMP JUMPDEST PUSH0 DUP1 PUSH1 0x40 DUP4 DUP6 SUB SLT ISZERO PUSH2 0x3FE JUMPI PUSH2 0x3FD PUSH2 0x357 JUMP JUMPDEST JUMPDEST PUSH0 PUSH2 0x40B DUP6 DUP3 DUP7 ADD PUSH2 0x3A1 JUMP JUMPDEST SWAP3 POP POP PUSH1 0x20 PUSH2 0x41C DUP6 DUP3 DUP7 ADD PUSH2 0x3D4 JUMP JUMPDEST SWAP2 POP POP SWAP3 POP SWAP3 SWAP1 POP JUMP JUMPDEST PUSH2 0x42F DUP2 PUSH2 0x3B5 JUMP JUMPDEST DUP3 MSTORE POP POP JUMP JUMPDEST PUSH0 PUSH1 0x20 DUP3 ADD SWAP1 POP PUSH2 0x448 PUSH0 DUP4 ADD DUP5 PUSH2 0x426 JUMP JUMPDEST SWAP3 SWAP2 POP POP JUMP JUMPDEST PUSH2 0x457 DUP2 PUSH2 0x37A JUMP JUMPDEST DUP3 MSTORE POP POP JUMP JUMPDEST PUSH0 PUSH1 0x20 DUP3 ADD SWAP1 POP PUSH2 0x470 PUSH0 DUP4 ADD DUP5 PUSH2 0x44E JUMP JUMPDEST SWAP3 SWAP2 POP POP JUMP JUMPDEST PUSH0 DUP2 MLOAD SWAP1 POP SWAP2 SWAP1 POP JUMP JUMPDEST PUSH0 DUP2 SWAP1 POP SWAP3 SWAP2 POP POP JUMP JUMPDEST DUP3 DUP2 DUP4 MCOPY PUSH0 DUP4 DUP4 ADD MSTORE POP POP POP JUMP JUMPDEST PUSH0 PUSH2 0x4A2 DUP3 PUSH2 0x476 JUMP JUMPDEST PUSH2 0x4AC DUP2 DUP6 PUSH2 0x480 JUMP JUMPDEST SWAP4 POP PUSH2 0x4BC DUP2 DUP6 PUSH1 0x20 DUP7 ADD PUSH2 0x48A JUMP JUMPDEST DUP1 DUP5 ADD SWAP2 POP POP SWAP3 SWAP2 POP POP JUMP JUMPDEST PUSH0 PUSH2 0x4D3 DUP3 DUP5 PUSH2 0x498 JUMP JUMPDEST SWAP2 POP DUP2 SWAP1 POP SWAP3 SWAP2 POP POP JUMP JUMPDEST PUSH0 DUP2 ISZERO ISZERO SWAP1 POP SWAP2 SWAP1 POP JUMP JUMPDEST PUSH2 0x4F2 DUP2 PUSH2 0x4DE JUMP JUMPDEST DUP3 MSTORE POP POP JUMP JUMPDEST PUSH0 DUP3 DUP3 MSTORE PUSH1 0x20 DUP3 ADD SWAP1 POP SWAP3 SWAP2 POP POP JUMP JUMPDEST PUSH0 PUSH1 0x1F NOT PUSH1 0x1F DUP4 ADD AND SWAP1 POP SWAP2 SWAP1 POP JUMP JUMPDEST PUSH0 PUSH2 0x522 DUP3 PUSH2 0x476 JUMP JUMPDEST PUSH2 0x52C DUP2 DUP6 PUSH2 0x4F8 JUMP JUMPDEST SWAP4 POP PUSH2 0x53C DUP2 DUP6 PUSH1 0x20 DUP7 ADD PUSH2 0x48A JUMP JUMPDEST PUSH2 0x545 DUP2 PUSH2 0x508 JUMP JUMPDEST DUP5 ADD SWAP2 POP POP SWAP3 SWAP2 POP POP JUMP JUMPDEST PUSH0 PUSH1 0x40 DUP3 ADD SWAP1 POP PUSH2 0x563 PUSH0 DUP4 ADD DUP6 PUSH2 0x4E9 JUMP JUMPDEST DUP2 DUP2 SUB PUSH1 0x20 DUP4 ADD MSTORE PUSH2 0x575 DUP2 DUP5 PUSH2 0x518 JUMP JUMPDEST SWAP1 POP SWAP4 SWAP3 POP POP POP JUMP INVALID LOG2 PUSH5 0x6970667358 0x22 SLT KECCAK256 0xD SWAP8 0x4F PUSH4 0xC915F1A8 0xB6 0xB9 0xC SIGNEXTEND PUSH14 0xA7E2F49C10094418728739ACBA1E 0x4D DUP13 PUSH21 0xBD1E64736F6C634300081A00330000000000000000 "
				},
				"gasEstimates": {
					"creation": {
						"codeDepositCost": "292000",
						"executionCost": "329",
						"totalCost": "292329"
					},
					"external": {
						"callSetVars(address,uint256)": "infinite",
						"delegatecallSetVars(address,uint256)": "infinite",
						"num()": "2424",
						"sender()": "2530"
					}
				},
				"methodIdentifiers": {
					"callSetVars(address,uint256)": "b39a9641",
					"delegatecallSetVars(address,uint256)": "1c1cba57",
					"num()": "4e70b1dc",
					"sender()": "67e404ce"
				}
			},
			"storageLayout": {
				"storage": [
					{
						"astId": 23,
						"contract": "contracts/solidity/solidity102/delegateCall/DelegateCall.sol:B",
						"label": "num",
						"offset": 0,
						"slot": "0",
						"type": "t_uint256"
					},
					{
						"astId": 25,
						"contract": "contracts/solidity/solidity102/delegateCall/DelegateCall.sol:B",
						"label": "sender",
						"offset": 0,
						"slot": "1",
						"type": "t_address"
					}
				],
				"types": {
					"t_address": {
						"encoding": "inplace",
						"label": "address",
						"numberOfBytes": "20"
					},
					"t_uint256": {
						"encoding": "inplace",
						"label": "uint256",
						"numberOfBytes": "32"
					}
				}
			},
			"userdoc": {
				"kind": "user",
				"methods": {},
				"version": 1
			}
		}
	}
}