{
	"data": {
		"bytecode": {
			"linkReferences": {},
			"object": "6080604052348015600e575f80fd5b506104c08061001c5f395ff3fe60806040526004361061003e575f3560e01c80633004b1631461004257806394a7b4f41461005e578063a583e9e71461009a578063eb84d93e146100c2575b5f80fd5b61005c60048036038101906100579190610354565b6100fe565b005b348015610069575f80fd5b50610084600480360381019061007f9190610392565b61016a565b60405161009191906103cc565b60405180910390f35b3480156100a5575f80fd5b506100c060048036038101906100bb9190610354565b6101e4565b005b3480156100cd575f80fd5b506100e860048036038101906100e39190610420565b61024e565b6040516100f591906103cc565b60405180910390f35b8173ffffffffffffffffffffffffffffffffffffffff16634018d9aa34836040518363ffffffff1660e01b815260040161013891906103cc565b5f604051808303818588803b15801561014f575f80fd5b505af1158015610161573d5f803e3d5ffd5b50505050505050565b5f808290508073ffffffffffffffffffffffffffffffffffffffff16635197c7aa6040518163ffffffff1660e01b8152600401602060405180830381865afa1580156101b8573d5f803e3d5ffd5b505050506040513d601f19601f820116820180604052508101906101dc919061045f565b915050919050565b8173ffffffffffffffffffffffffffffffffffffffff16634018d9aa826040518263ffffffff1660e01b815260040161021d91906103cc565b5f604051808303815f87803b158015610234575f80fd5b505af1158015610246573d5f803e3d5ffd5b505050505050565b5f8173ffffffffffffffffffffffffffffffffffffffff16635197c7aa6040518163ffffffff1660e01b8152600401602060405180830381865afa158015610298573d5f803e3d5ffd5b505050506040513d601f19601f820116820180604052508101906102bc919061045f565b9050919050565b5f80fd5b5f73ffffffffffffffffffffffffffffffffffffffff82169050919050565b5f6102f0826102c7565b9050919050565b610300816102e6565b811461030a575f80fd5b50565b5f8135905061031b816102f7565b92915050565b5f819050919050565b61033381610321565b811461033d575f80fd5b50565b5f8135905061034e8161032a565b92915050565b5f806040838503121561036a576103696102c3565b5b5f6103778582860161030d565b925050602061038885828601610340565b9150509250929050565b5f602082840312156103a7576103a66102c3565b5b5f6103b48482850161030d565b91505092915050565b6103c681610321565b82525050565b5f6020820190506103df5f8301846103bd565b92915050565b5f6103ef826102e6565b9050919050565b6103ff816103e5565b8114610409575f80fd5b50565b5f8135905061041a816103f6565b92915050565b5f60208284031215610435576104346102c3565b5b5f6104428482850161040c565b91505092915050565b5f815190506104598161032a565b92915050565b5f60208284031215610474576104736102c3565b5b5f6104818482850161044b565b9150509291505056fea26469706673582212209d04d73bd684c463ca62d05a6d1fb37fec075e235b6f888a40e6ec90557d796e64736f6c634300081a0033",
			"opcodes": "PUSH1 0x80 PUSH1 0x40 MSTORE CALLVALUE DUP1 ISZERO PUSH1 0xE JUMPI PUSH0 DUP1 REVERT JUMPDEST POP PUSH2 0x4C0 DUP1 PUSH2 0x1C PUSH0 CODECOPY PUSH0 RETURN INVALID PUSH1 0x80 PUSH1 0x40 MSTORE PUSH1 0x4 CALLDATASIZE LT PUSH2 0x3E JUMPI PUSH0 CALLDATALOAD PUSH1 0xE0 SHR DUP1 PUSH4 0x3004B163 EQ PUSH2 0x42 JUMPI DUP1 PUSH4 0x94A7B4F4 EQ PUSH2 0x5E JUMPI DUP1 PUSH4 0xA583E9E7 EQ PUSH2 0x9A JUMPI DUP1 PUSH4 0xEB84D93E EQ PUSH2 0xC2 JUMPI JUMPDEST PUSH0 DUP1 REVERT JUMPDEST PUSH2 0x5C PUSH1 0x4 DUP1 CALLDATASIZE SUB DUP2 ADD SWAP1 PUSH2 0x57 SWAP2 SWAP1 PUSH2 0x354 JUMP JUMPDEST PUSH2 0xFE JUMP JUMPDEST STOP JUMPDEST CALLVALUE DUP1 ISZERO PUSH2 0x69 JUMPI PUSH0 DUP1 REVERT JUMPDEST POP PUSH2 0x84 PUSH1 0x4 DUP1 CALLDATASIZE SUB DUP2 ADD SWAP1 PUSH2 0x7F SWAP2 SWAP1 PUSH2 0x392 JUMP JUMPDEST PUSH2 0x16A JUMP JUMPDEST PUSH1 0x40 MLOAD PUSH2 0x91 SWAP2 SWAP1 PUSH2 0x3CC JUMP JUMPDEST PUSH1 0x40 MLOAD DUP1 SWAP2 SUB SWAP1 RETURN JUMPDEST CALLVALUE DUP1 ISZERO PUSH2 0xA5 JUMPI PUSH0 DUP1 REVERT JUMPDEST POP PUSH2 0xC0 PUSH1 0x4 DUP1 CALLDATASIZE SUB DUP2 ADD SWAP1 PUSH2 0xBB SWAP2 SWAP1 PUSH2 0x354 JUMP JUMPDEST PUSH2 0x1E4 JUMP JUMPDEST STOP JUMPDEST CALLVALUE DUP1 ISZERO PUSH2 0xCD JUMPI PUSH0 DUP1 REVERT JUMPDEST POP PUSH2 0xE8 PUSH1 0x4 DUP1 CALLDATASIZE SUB DUP2 ADD SWAP1 PUSH2 0xE3 SWAP2 SWAP1 PUSH2 0x420 JUMP JUMPDEST PUSH2 0x24E JUMP JUMPDEST PUSH1 0x40 MLOAD PUSH2 0xF5 SWAP2 SWAP1 PUSH2 0x3CC JUMP JUMPDEST PUSH1 0x40 MLOAD DUP1 SWAP2 SUB SWAP1 RETURN JUMPDEST DUP2 PUSH20 0xFFFFFFFFFFFFFFFFFFFFFFFFFFFFFFFFFFFFFFFF AND PUSH4 0x4018D9AA CALLVALUE DUP4 PUSH1 0x40 MLOAD DUP4 PUSH4 0xFFFFFFFF AND PUSH1 0xE0 SHL DUP2 MSTORE PUSH1 0x4 ADD PUSH2 0x138 SWAP2 SWAP1 PUSH2 0x3CC JUMP JUMPDEST PUSH0 PUSH1 0x40 MLOAD DUP1 DUP4 SUB DUP2 DUP6 DUP9 DUP1 EXTCODESIZE ISZERO DUP1 ISZERO PUSH2 0x14F JUMPI PUSH0 DUP1 REVERT JUMPDEST POP GAS CALL ISZERO DUP1 ISZERO PUSH2 0x161 JUMPI RETURNDATASIZE PUSH0 DUP1 RETURNDATACOPY RETURNDATASIZE PUSH0 REVERT JUMPDEST POP POP POP POP POP POP POP JUMP JUMPDEST PUSH0 DUP1 DUP3 SWAP1 POP DUP1 PUSH20 0xFFFFFFFFFFFFFFFFFFFFFFFFFFFFFFFFFFFFFFFF AND PUSH4 0x5197C7AA PUSH1 0x40 MLOAD DUP2 PUSH4 0xFFFFFFFF AND PUSH1 0xE0 SHL DUP2 MSTORE PUSH1 0x4 ADD PUSH1 0x20 PUSH1 0x40 MLOAD DUP1 DUP4 SUB DUP2 DUP7 GAS STATICCALL ISZERO DUP1 ISZERO PUSH2 0x1B8 JUMPI RETURNDATASIZE PUSH0 DUP1 RETURNDATACOPY RETURNDATASIZE PUSH0 REVERT JUMPDEST POP POP POP POP PUSH1 0x40 MLOAD RETURNDATASIZE PUSH1 0x1F NOT PUSH1 0x1F DUP3 ADD AND DUP3 ADD DUP1 PUSH1 0x40 MSTORE POP DUP2 ADD SWAP1 PUSH2 0x1DC SWAP2 SWAP1 PUSH2 0x45F JUMP JUMPDEST SWAP2 POP POP SWAP2 SWAP1 POP JUMP JUMPDEST DUP2 PUSH20 0xFFFFFFFFFFFFFFFFFFFFFFFFFFFFFFFFFFFFFFFF AND PUSH4 0x4018D9AA DUP3 PUSH1 0x40 MLOAD DUP3 PUSH4 0xFFFFFFFF AND PUSH1 0xE0 SHL DUP2 MSTORE PUSH1 0x4 ADD PUSH2 0x21D SWAP2 SWAP1 PUSH2 0x3CC JUMP JUMPDEST PUSH0 PUSH1 0x40 MLOAD DUP1 DUP4 SUB DUP2 PUSH0 DUP8 DUP1 EXTCODESIZE ISZERO DUP1 ISZERO PUSH2 0x234 JUMPI PUSH0 DUP1 REVERT JUMPDEST POP GAS CALL ISZERO DUP1 ISZERO PUSH2 0x246 JUMPI RETURNDATASIZE PUSH0 DUP1 RETURNDATACOPY RETURNDATASIZE PUSH0 REVERT JUMPDEST POP POP POP POP POP POP JUMP JUMPDEST PUSH0 DUP2 PUSH20 0xFFFFFFFFFFFFFFFFFFFFFFFFFFFFFFFFFFFFFFFF AND PUSH4 0x5197C7AA PUSH1 0x40 MLOAD DUP2 PUSH4 0xFFFFFFFF AND PUSH1 0xE0 SHL DUP2 MSTORE PUSH1 0x4 ADD PUSH1 0x20 PUSH1 0x40 MLOAD DUP1 DUP4 SUB DUP2 DUP7 GAS STATICCALL ISZERO DUP1 ISZERO PUSH2 0x298 JUMPI RETURNDATASIZE PUSH0 DUP1 RETURNDATACOPY RETURNDATASIZE PUSH0 REVERT JUMPDEST POP POP POP POP PUSH1 0x40 MLOAD RETURNDATASIZE PUSH1 0x1F NOT PUSH1 0x1F DUP3 ADD AND DUP3 ADD DUP1 PUSH1 0x40 MSTORE POP DUP2 ADD SWAP1 PUSH2 0x2BC SWAP2 SWAP1 PUSH2 0x45F JUMP JUMPDEST SWAP1 POP SWAP2 SWAP1 POP JUMP JUMPDEST PUSH0 DUP1 REVERT JUMPDEST PUSH0 PUSH20 0xFFFFFFFFFFFFFFFFFFFFFFFFFFFFFFFFFFFFFFFF DUP3 AND SWAP1 POP SWAP2 SWAP1 POP JUMP JUMPDEST PUSH0 PUSH2 0x2F0 DUP3 PUSH2 0x2C7 JUMP JUMPDEST SWAP1 POP SWAP2 SWAP1 POP JUMP JUMPDEST PUSH2 0x300 DUP2 PUSH2 0x2E6 JUMP JUMPDEST DUP2 EQ PUSH2 0x30A JUMPI PUSH0 DUP1 REVERT JUMPDEST POP JUMP JUMPDEST PUSH0 DUP2 CALLDATALOAD SWAP1 POP PUSH2 0x31B DUP2 PUSH2 0x2F7 JUMP JUMPDEST SWAP3 SWAP2 POP POP JUMP JUMPDEST PUSH0 DUP2 SWAP1 POP SWAP2 SWAP1 POP JUMP JUMPDEST PUSH2 0x333 DUP2 PUSH2 0x321 JUMP JUMPDEST DUP2 EQ PUSH2 0x33D JUMPI PUSH0 DUP1 REVERT JUMPDEST POP JUMP JUMPDEST PUSH0 DUP2 CALLDATALOAD SWAP1 POP PUSH2 0x34E DUP2 PUSH2 0x32A JUMP JUMPDEST SWAP3 SWAP2 POP POP JUMP JUMPDEST PUSH0 DUP1 PUSH1 0x40 DUP4 DUP6 SUB SLT ISZERO PUSH2 0x36A JUMPI PUSH2 0x369 PUSH2 0x2C3 JUMP JUMPDEST JUMPDEST PUSH0 PUSH2 0x377 DUP6 DUP3 DUP7 ADD PUSH2 0x30D JUMP JUMPDEST SWAP3 POP POP PUSH1 0x20 PUSH2 0x388 DUP6 DUP3 DUP7 ADD PUSH2 0x340 JUMP JUMPDEST SWAP2 POP POP SWAP3 POP SWAP3 SWAP1 POP JUMP JUMPDEST PUSH0 PUSH1 0x20 DUP3 DUP5 SUB SLT ISZERO PUSH2 0x3A7 JUMPI PUSH2 0x3A6 PUSH2 0x2C3 JUMP JUMPDEST JUMPDEST PUSH0 PUSH2 0x3B4 DUP5 DUP3 DUP6 ADD PUSH2 0x30D JUMP JUMPDEST SWAP2 POP POP SWAP3 SWAP2 POP POP JUMP JUMPDEST PUSH2 0x3C6 DUP2 PUSH2 0x321 JUMP JUMPDEST DUP3 MSTORE POP POP JUMP JUMPDEST PUSH0 PUSH1 0x20 DUP3 ADD SWAP1 POP PUSH2 0x3DF PUSH0 DUP4 ADD DUP5 PUSH2 0x3BD JUMP JUMPDEST SWAP3 SWAP2 POP POP JUMP JUMPDEST PUSH0 PUSH2 0x3EF DUP3 PUSH2 0x2E6 JUMP JUMPDEST SWAP1 POP SWAP2 SWAP1 POP JUMP JUMPDEST PUSH2 0x3FF DUP2 PUSH2 0x3E5 JUMP JUMPDEST DUP2 EQ PUSH2 0x409 JUMPI PUSH0 DUP1 REVERT JUMPDEST POP JUMP JUMPDEST PUSH0 DUP2 CALLDATALOAD SWAP1 POP PUSH2 0x41A DUP2 PUSH2 0x3F6 JUMP JUMPDEST SWAP3 SWAP2 POP POP JUMP JUMPDEST PUSH0 PUSH1 0x20 DUP3 DUP5 SUB SLT ISZERO PUSH2 0x435 JUMPI PUSH2 0x434 PUSH2 0x2C3 JUMP JUMPDEST JUMPDEST PUSH0 PUSH2 0x442 DUP5 DUP3 DUP6 ADD PUSH2 0x40C JUMP JUMPDEST SWAP2 POP POP SWAP3 SWAP2 POP POP JUMP JUMPDEST PUSH0 DUP2 MLOAD SWAP1 POP PUSH2 0x459 DUP2 PUSH2 0x32A JUMP JUMPDEST SWAP3 SWAP2 POP POP JUMP JUMPDEST PUSH0 PUSH1 0x20 DUP3 DUP5 SUB SLT ISZERO PUSH2 0x474 JUMPI PUSH2 0x473 PUSH2 0x2C3 JUMP JUMPDEST JUMPDEST PUSH0 PUSH2 0x481 DUP5 DUP3 DUP6 ADD PUSH2 0x44B JUMP JUMPDEST SWAP2 POP POP SWAP3 SWAP2 POP POP JUMP INVALID LOG2 PUSH5 0x6970667358 0x22 SLT KECCAK256 SWAP14 DIV 0xD7 EXTCODESIZE 0xD6 DUP5 0xC4 PUSH4 0xCA62D05A PUSH14 0x1FB37FEC075E235B6F888A40E6EC SWAP1 SSTORE PUSH30 0x796E64736F6C634300081A00330000000000000000000000000000000000 "
		},
		"gasEstimates": {
			"creation": {
				"codeDepositCost": "243200",
				"executionCost": "279",
				"totalCost": "243479"
			},
			"external": {
				"callGetX2(address)": "infinite",
				"callOtherGetX(address)": "infinite",
				"callOtherSetX(address,uint256)": "infinite",
				"setXTransferETH(address,uint256)": "infinite"
			}
		},
		"methodIdentifiers": {
			"callGetX2(address)": "94a7b4f4",
			"callOtherGetX(address)": "eb84d93e",
			"callOtherSetX(address,uint256)": "a583e9e7",
			"setXTransferETH(address,uint256)": "3004b163"
		}
	},
	"abi": [
		{
			"inputs": [
				{
					"internalType": "address",
					"name": "other",
					"type": "address"
				}
			],
			"name": "callGetX2",
			"outputs": [
				{
					"internalType": "uint256",
					"name": "x",
					"type": "uint256"
				}
			],
			"stateMutability": "view",
			"type": "function"
		},
		{
			"inputs": [
				{
					"internalType": "contract OtherContract",
					"name": "other",
					"type": "address"
				}
			],
			"name": "callOtherGetX",
			"outputs": [
				{
					"internalType": "uint256",
					"name": "",
					"type": "uint256"
				}
			],
			"stateMutability": "view",
			"type": "function"
		},
		{
			"inputs": [
				{
					"internalType": "address",
					"name": "other",
					"type": "address"
				},
				{
					"internalType": "uint256",
					"name": "x",
					"type": "uint256"
				}
			],
			"name": "callOtherSetX",
			"outputs": [],
			"stateMutability": "nonpayable",
			"type": "function"
		},
		{
			"inputs": [
				{
					"internalType": "address",
					"name": "otherContract",
					"type": "address"
				},
				{
					"internalType": "uint256",
					"name": "x",
					"type": "uint256"
				}
			],
			"name": "setXTransferETH",
			"outputs": [],
			"stateMutability": "payable",
			"type": "function"
		}
	]
}