{
	"data": {
		"bytecode": {
			"linkReferences": {},
			"object": "6080604052348015600e575f80fd5b506108b98061001c5f395ff3fe608060405234801561000f575f80fd5b506004361061007b575f3560e01c80636297206f116100595780636297206f146100fd5780637141fb001461012d578063b0cfa9fc1461015d578063b3de648b1461017b5761007b565b8063287663201461007f5780633120d434146100af5780635d14639d146100df575b5f80fd5b6100996004803603810190610094919061039a565b6101ab565b6040516100a691906103e7565b60405180910390f35b6100c960048036038101906100c49190610436565b6101c4565b6040516100d69190610470565b60405180910390f35b6100e76101cd565b6040516100f491906103e7565b60405180910390f35b610117600480360381019061011291906105d9565b6101f6565b60405161012491906106d7565b60405180910390f35b610147600480360381019061014291906106f7565b6102f6565b604051610154919061073c565b60405180910390f35b610165610310565b60405161017291906103e7565b60405180910390f35b610195600480360381019061019091906106f7565b61034d565b6040516101a291906103e7565b60405180910390f35b5f818310156101ba57816101bc565b825b905092915050565b5f819050919050565b5f805f90505b600a8110156101ef5780806101e790610782565b9150506101d3565b8091505090565b60605f600190505b82518110156102ed575f83828151811061021b5761021a6107c9565b5b602002602001015190505f8290505b6001811015801561026057508460018261024491906107f6565b81518110610255576102546107c9565b5b602002602001015182105b156102be578460018261027391906107f6565b81518110610284576102836107c9565b5b602002602001015185828151811061029f5761029e6107c9565b5b60200260200101818152505080806102b690610829565b91505061022a565b818582815181106102d2576102d16107c9565b5b602002602001018181525050505080806001019150506101fe565b50819050919050565b5f808203610307576001905061030b565b5f90505b919050565b5f80600190505f600190505b600a81116103455780826103309190610850565b9150808061033d90610782565b91505061031c565b508091505090565b5f819050919050565b5f604051905090565b5f80fd5b5f80fd5b5f819050919050565b61037981610367565b8114610383575f80fd5b50565b5f8135905061039481610370565b92915050565b5f80604083850312156103b0576103af61035f565b5b5f6103bd85828601610386565b92505060206103ce85828601610386565b9150509250929050565b6103e181610367565b82525050565b5f6020820190506103fa5f8301846103d8565b92915050565b5f60ff82169050919050565b61041581610400565b811461041f575f80fd5b50565b5f813590506104308161040c565b92915050565b5f6020828403121561044b5761044a61035f565b5b5f61045884828501610422565b91505092915050565b61046a81610400565b82525050565b5f6020820190506104835f830184610461565b92915050565b5f80fd5b5f601f19601f8301169050919050565b7f4e487b71000000000000000000000000000000000000000000000000000000005f52604160045260245ffd5b6104d38261048d565b810181811067ffffffffffffffff821117156104f2576104f161049d565b5b80604052505050565b5f610504610356565b905061051082826104ca565b919050565b5f67ffffffffffffffff82111561052f5761052e61049d565b5b602082029050602081019050919050565b5f80fd5b5f61055661055184610515565b6104fb565b9050808382526020820190506020840283018581111561057957610578610540565b5b835b818110156105a2578061058e8882610386565b84526020840193505060208101905061057b565b5050509392505050565b5f82601f8301126105c0576105bf610489565b5b81356105d0848260208601610544565b91505092915050565b5f602082840312156105ee576105ed61035f565b5b5f82013567ffffffffffffffff81111561060b5761060a610363565b5b610617848285016105ac565b91505092915050565b5f81519050919050565b5f82825260208201905092915050565b5f819050602082019050919050565b61065281610367565b82525050565b5f6106638383610649565b60208301905092915050565b5f602082019050919050565b5f61068582610620565b61068f818561062a565b935061069a8361063a565b805f5b838110156106ca5781516106b18882610658565b97506106bc8361066f565b92505060018101905061069d565b5085935050505092915050565b5f6020820190508181035f8301526106ef818461067b565b905092915050565b5f6020828403121561070c5761070b61035f565b5b5f61071984828501610386565b91505092915050565b5f8115159050919050565b61073681610722565b82525050565b5f60208201905061074f5f83018461072d565b92915050565b7f4e487b71000000000000000000000000000000000000000000000000000000005f52601160045260245ffd5b5f61078c82610367565b91507fffffffffffffffffffffffffffffffffffffffffffffffffffffffffffffffff82036107be576107bd610755565b5b600182019050919050565b7f4e487b71000000000000000000000000000000000000000000000000000000005f52603260045260245ffd5b5f61080082610367565b915061080b83610367565b925082820390508181111561082357610822610755565b5b92915050565b5f61083382610367565b91505f820361084557610844610755565b5b600182039050919050565b5f61085a82610367565b915061086583610367565b925082820190508082111561087d5761087c610755565b5b9291505056fea2646970667358221220d9ddbb1b3461d5a27ed9a8a0643bf7643e07e8559c55c0dba385f4bae1cc3c4364736f6c634300081a0033",
			"opcodes": "PUSH1 0x80 PUSH1 0x40 MSTORE CALLVALUE DUP1 ISZERO PUSH1 0xE JUMPI PUSH0 DUP1 REVERT JUMPDEST POP PUSH2 0x8B9 DUP1 PUSH2 0x1C PUSH0 CODECOPY PUSH0 RETURN INVALID PUSH1 0x80 PUSH1 0x40 MSTORE CALLVALUE DUP1 ISZERO PUSH2 0xF JUMPI PUSH0 DUP1 REVERT JUMPDEST POP PUSH1 0x4 CALLDATASIZE LT PUSH2 0x7B JUMPI PUSH0 CALLDATALOAD PUSH1 0xE0 SHR DUP1 PUSH4 0x6297206F GT PUSH2 0x59 JUMPI DUP1 PUSH4 0x6297206F EQ PUSH2 0xFD JUMPI DUP1 PUSH4 0x7141FB00 EQ PUSH2 0x12D JUMPI DUP1 PUSH4 0xB0CFA9FC EQ PUSH2 0x15D JUMPI DUP1 PUSH4 0xB3DE648B EQ PUSH2 0x17B JUMPI PUSH2 0x7B JUMP JUMPDEST DUP1 PUSH4 0x28766320 EQ PUSH2 0x7F JUMPI DUP1 PUSH4 0x3120D434 EQ PUSH2 0xAF JUMPI DUP1 PUSH4 0x5D14639D EQ PUSH2 0xDF JUMPI JUMPDEST PUSH0 DUP1 REVERT JUMPDEST PUSH2 0x99 PUSH1 0x4 DUP1 CALLDATASIZE SUB DUP2 ADD SWAP1 PUSH2 0x94 SWAP2 SWAP1 PUSH2 0x39A JUMP JUMPDEST PUSH2 0x1AB JUMP JUMPDEST PUSH1 0x40 MLOAD PUSH2 0xA6 SWAP2 SWAP1 PUSH2 0x3E7 JUMP JUMPDEST PUSH1 0x40 MLOAD DUP1 SWAP2 SUB SWAP1 RETURN JUMPDEST PUSH2 0xC9 PUSH1 0x4 DUP1 CALLDATASIZE SUB DUP2 ADD SWAP1 PUSH2 0xC4 SWAP2 SWAP1 PUSH2 0x436 JUMP JUMPDEST PUSH2 0x1C4 JUMP JUMPDEST PUSH1 0x40 MLOAD PUSH2 0xD6 SWAP2 SWAP1 PUSH2 0x470 JUMP JUMPDEST PUSH1 0x40 MLOAD DUP1 SWAP2 SUB SWAP1 RETURN JUMPDEST PUSH2 0xE7 PUSH2 0x1CD JUMP JUMPDEST PUSH1 0x40 MLOAD PUSH2 0xF4 SWAP2 SWAP1 PUSH2 0x3E7 JUMP JUMPDEST PUSH1 0x40 MLOAD DUP1 SWAP2 SUB SWAP1 RETURN JUMPDEST PUSH2 0x117 PUSH1 0x4 DUP1 CALLDATASIZE SUB DUP2 ADD SWAP1 PUSH2 0x112 SWAP2 SWAP1 PUSH2 0x5D9 JUMP JUMPDEST PUSH2 0x1F6 JUMP JUMPDEST PUSH1 0x40 MLOAD PUSH2 0x124 SWAP2 SWAP1 PUSH2 0x6D7 JUMP JUMPDEST PUSH1 0x40 MLOAD DUP1 SWAP2 SUB SWAP1 RETURN JUMPDEST PUSH2 0x147 PUSH1 0x4 DUP1 CALLDATASIZE SUB DUP2 ADD SWAP1 PUSH2 0x142 SWAP2 SWAP1 PUSH2 0x6F7 JUMP JUMPDEST PUSH2 0x2F6 JUMP JUMPDEST PUSH1 0x40 MLOAD PUSH2 0x154 SWAP2 SWAP1 PUSH2 0x73C JUMP JUMPDEST PUSH1 0x40 MLOAD DUP1 SWAP2 SUB SWAP1 RETURN JUMPDEST PUSH2 0x165 PUSH2 0x310 JUMP JUMPDEST PUSH1 0x40 MLOAD PUSH2 0x172 SWAP2 SWAP1 PUSH2 0x3E7 JUMP JUMPDEST PUSH1 0x40 MLOAD DUP1 SWAP2 SUB SWAP1 RETURN JUMPDEST PUSH2 0x195 PUSH1 0x4 DUP1 CALLDATASIZE SUB DUP2 ADD SWAP1 PUSH2 0x190 SWAP2 SWAP1 PUSH2 0x6F7 JUMP JUMPDEST PUSH2 0x34D JUMP JUMPDEST PUSH1 0x40 MLOAD PUSH2 0x1A2 SWAP2 SWAP1 PUSH2 0x3E7 JUMP JUMPDEST PUSH1 0x40 MLOAD DUP1 SWAP2 SUB SWAP1 RETURN JUMPDEST PUSH0 DUP2 DUP4 LT ISZERO PUSH2 0x1BA JUMPI DUP2 PUSH2 0x1BC JUMP JUMPDEST DUP3 JUMPDEST SWAP1 POP SWAP3 SWAP2 POP POP JUMP JUMPDEST PUSH0 DUP2 SWAP1 POP SWAP2 SWAP1 POP JUMP JUMPDEST PUSH0 DUP1 PUSH0 SWAP1 POP JUMPDEST PUSH1 0xA DUP2 LT ISZERO PUSH2 0x1EF JUMPI DUP1 DUP1 PUSH2 0x1E7 SWAP1 PUSH2 0x782 JUMP JUMPDEST SWAP2 POP POP PUSH2 0x1D3 JUMP JUMPDEST DUP1 SWAP2 POP POP SWAP1 JUMP JUMPDEST PUSH1 0x60 PUSH0 PUSH1 0x1 SWAP1 POP JUMPDEST DUP3 MLOAD DUP2 LT ISZERO PUSH2 0x2ED JUMPI PUSH0 DUP4 DUP3 DUP2 MLOAD DUP2 LT PUSH2 0x21B JUMPI PUSH2 0x21A PUSH2 0x7C9 JUMP JUMPDEST JUMPDEST PUSH1 0x20 MUL PUSH1 0x20 ADD ADD MLOAD SWAP1 POP PUSH0 DUP3 SWAP1 POP JUMPDEST PUSH1 0x1 DUP2 LT ISZERO DUP1 ISZERO PUSH2 0x260 JUMPI POP DUP5 PUSH1 0x1 DUP3 PUSH2 0x244 SWAP2 SWAP1 PUSH2 0x7F6 JUMP JUMPDEST DUP2 MLOAD DUP2 LT PUSH2 0x255 JUMPI PUSH2 0x254 PUSH2 0x7C9 JUMP JUMPDEST JUMPDEST PUSH1 0x20 MUL PUSH1 0x20 ADD ADD MLOAD DUP3 LT JUMPDEST ISZERO PUSH2 0x2BE JUMPI DUP5 PUSH1 0x1 DUP3 PUSH2 0x273 SWAP2 SWAP1 PUSH2 0x7F6 JUMP JUMPDEST DUP2 MLOAD DUP2 LT PUSH2 0x284 JUMPI PUSH2 0x283 PUSH2 0x7C9 JUMP JUMPDEST JUMPDEST PUSH1 0x20 MUL PUSH1 0x20 ADD ADD MLOAD DUP6 DUP3 DUP2 MLOAD DUP2 LT PUSH2 0x29F JUMPI PUSH2 0x29E PUSH2 0x7C9 JUMP JUMPDEST JUMPDEST PUSH1 0x20 MUL PUSH1 0x20 ADD ADD DUP2 DUP2 MSTORE POP POP DUP1 DUP1 PUSH2 0x2B6 SWAP1 PUSH2 0x829 JUMP JUMPDEST SWAP2 POP POP PUSH2 0x22A JUMP JUMPDEST DUP2 DUP6 DUP3 DUP2 MLOAD DUP2 LT PUSH2 0x2D2 JUMPI PUSH2 0x2D1 PUSH2 0x7C9 JUMP JUMPDEST JUMPDEST PUSH1 0x20 MUL PUSH1 0x20 ADD ADD DUP2 DUP2 MSTORE POP POP POP POP DUP1 DUP1 PUSH1 0x1 ADD SWAP2 POP POP PUSH2 0x1FE JUMP JUMPDEST POP DUP2 SWAP1 POP SWAP2 SWAP1 POP JUMP JUMPDEST PUSH0 DUP1 DUP3 SUB PUSH2 0x307 JUMPI PUSH1 0x1 SWAP1 POP PUSH2 0x30B JUMP JUMPDEST PUSH0 SWAP1 POP JUMPDEST SWAP2 SWAP1 POP JUMP JUMPDEST PUSH0 DUP1 PUSH1 0x1 SWAP1 POP PUSH0 PUSH1 0x1 SWAP1 POP JUMPDEST PUSH1 0xA DUP2 GT PUSH2 0x345 JUMPI DUP1 DUP3 PUSH2 0x330 SWAP2 SWAP1 PUSH2 0x850 JUMP JUMPDEST SWAP2 POP DUP1 DUP1 PUSH2 0x33D SWAP1 PUSH2 0x782 JUMP JUMPDEST SWAP2 POP POP PUSH2 0x31C JUMP JUMPDEST POP DUP1 SWAP2 POP POP SWAP1 JUMP JUMPDEST PUSH0 DUP2 SWAP1 POP SWAP2 SWAP1 POP JUMP JUMPDEST PUSH0 PUSH1 0x40 MLOAD SWAP1 POP SWAP1 JUMP JUMPDEST PUSH0 DUP1 REVERT JUMPDEST PUSH0 DUP1 REVERT JUMPDEST PUSH0 DUP2 SWAP1 POP SWAP2 SWAP1 POP JUMP JUMPDEST PUSH2 0x379 DUP2 PUSH2 0x367 JUMP JUMPDEST DUP2 EQ PUSH2 0x383 JUMPI PUSH0 DUP1 REVERT JUMPDEST POP JUMP JUMPDEST PUSH0 DUP2 CALLDATALOAD SWAP1 POP PUSH2 0x394 DUP2 PUSH2 0x370 JUMP JUMPDEST SWAP3 SWAP2 POP POP JUMP JUMPDEST PUSH0 DUP1 PUSH1 0x40 DUP4 DUP6 SUB SLT ISZERO PUSH2 0x3B0 JUMPI PUSH2 0x3AF PUSH2 0x35F JUMP JUMPDEST JUMPDEST PUSH0 PUSH2 0x3BD DUP6 DUP3 DUP7 ADD PUSH2 0x386 JUMP JUMPDEST SWAP3 POP POP PUSH1 0x20 PUSH2 0x3CE DUP6 DUP3 DUP7 ADD PUSH2 0x386 JUMP JUMPDEST SWAP2 POP POP SWAP3 POP SWAP3 SWAP1 POP JUMP JUMPDEST PUSH2 0x3E1 DUP2 PUSH2 0x367 JUMP JUMPDEST DUP3 MSTORE POP POP JUMP JUMPDEST PUSH0 PUSH1 0x20 DUP3 ADD SWAP1 POP PUSH2 0x3FA PUSH0 DUP4 ADD DUP5 PUSH2 0x3D8 JUMP JUMPDEST SWAP3 SWAP2 POP POP JUMP JUMPDEST PUSH0 PUSH1 0xFF DUP3 AND SWAP1 POP SWAP2 SWAP1 POP JUMP JUMPDEST PUSH2 0x415 DUP2 PUSH2 0x400 JUMP JUMPDEST DUP2 EQ PUSH2 0x41F JUMPI PUSH0 DUP1 REVERT JUMPDEST POP JUMP JUMPDEST PUSH0 DUP2 CALLDATALOAD SWAP1 POP PUSH2 0x430 DUP2 PUSH2 0x40C JUMP JUMPDEST SWAP3 SWAP2 POP POP JUMP JUMPDEST PUSH0 PUSH1 0x20 DUP3 DUP5 SUB SLT ISZERO PUSH2 0x44B JUMPI PUSH2 0x44A PUSH2 0x35F JUMP JUMPDEST JUMPDEST PUSH0 PUSH2 0x458 DUP5 DUP3 DUP6 ADD PUSH2 0x422 JUMP JUMPDEST SWAP2 POP POP SWAP3 SWAP2 POP POP JUMP JUMPDEST PUSH2 0x46A DUP2 PUSH2 0x400 JUMP JUMPDEST DUP3 MSTORE POP POP JUMP JUMPDEST PUSH0 PUSH1 0x20 DUP3 ADD SWAP1 POP PUSH2 0x483 PUSH0 DUP4 ADD DUP5 PUSH2 0x461 JUMP JUMPDEST SWAP3 SWAP2 POP POP JUMP JUMPDEST PUSH0 DUP1 REVERT JUMPDEST PUSH0 PUSH1 0x1F NOT PUSH1 0x1F DUP4 ADD AND SWAP1 POP SWAP2 SWAP1 POP JUMP JUMPDEST PUSH32 0x4E487B7100000000000000000000000000000000000000000000000000000000 PUSH0 MSTORE PUSH1 0x41 PUSH1 0x4 MSTORE PUSH1 0x24 PUSH0 REVERT JUMPDEST PUSH2 0x4D3 DUP3 PUSH2 0x48D JUMP JUMPDEST DUP2 ADD DUP2 DUP2 LT PUSH8 0xFFFFFFFFFFFFFFFF DUP3 GT OR ISZERO PUSH2 0x4F2 JUMPI PUSH2 0x4F1 PUSH2 0x49D JUMP JUMPDEST JUMPDEST DUP1 PUSH1 0x40 MSTORE POP POP POP JUMP JUMPDEST PUSH0 PUSH2 0x504 PUSH2 0x356 JUMP JUMPDEST SWAP1 POP PUSH2 0x510 DUP3 DUP3 PUSH2 0x4CA JUMP JUMPDEST SWAP2 SWAP1 POP JUMP JUMPDEST PUSH0 PUSH8 0xFFFFFFFFFFFFFFFF DUP3 GT ISZERO PUSH2 0x52F JUMPI PUSH2 0x52E PUSH2 0x49D JUMP JUMPDEST JUMPDEST PUSH1 0x20 DUP3 MUL SWAP1 POP PUSH1 0x20 DUP2 ADD SWAP1 POP SWAP2 SWAP1 POP JUMP JUMPDEST PUSH0 DUP1 REVERT JUMPDEST PUSH0 PUSH2 0x556 PUSH2 0x551 DUP5 PUSH2 0x515 JUMP JUMPDEST PUSH2 0x4FB JUMP JUMPDEST SWAP1 POP DUP1 DUP4 DUP3 MSTORE PUSH1 0x20 DUP3 ADD SWAP1 POP PUSH1 0x20 DUP5 MUL DUP4 ADD DUP6 DUP2 GT ISZERO PUSH2 0x579 JUMPI PUSH2 0x578 PUSH2 0x540 JUMP JUMPDEST JUMPDEST DUP4 JUMPDEST DUP2 DUP2 LT ISZERO PUSH2 0x5A2 JUMPI DUP1 PUSH2 0x58E DUP9 DUP3 PUSH2 0x386 JUMP JUMPDEST DUP5 MSTORE PUSH1 0x20 DUP5 ADD SWAP4 POP POP PUSH1 0x20 DUP2 ADD SWAP1 POP PUSH2 0x57B JUMP JUMPDEST POP POP POP SWAP4 SWAP3 POP POP POP JUMP JUMPDEST PUSH0 DUP3 PUSH1 0x1F DUP4 ADD SLT PUSH2 0x5C0 JUMPI PUSH2 0x5BF PUSH2 0x489 JUMP JUMPDEST JUMPDEST DUP2 CALLDATALOAD PUSH2 0x5D0 DUP5 DUP3 PUSH1 0x20 DUP7 ADD PUSH2 0x544 JUMP JUMPDEST SWAP2 POP POP SWAP3 SWAP2 POP POP JUMP JUMPDEST PUSH0 PUSH1 0x20 DUP3 DUP5 SUB SLT ISZERO PUSH2 0x5EE JUMPI PUSH2 0x5ED PUSH2 0x35F JUMP JUMPDEST JUMPDEST PUSH0 DUP3 ADD CALLDATALOAD PUSH8 0xFFFFFFFFFFFFFFFF DUP2 GT ISZERO PUSH2 0x60B JUMPI PUSH2 0x60A PUSH2 0x363 JUMP JUMPDEST JUMPDEST PUSH2 0x617 DUP5 DUP3 DUP6 ADD PUSH2 0x5AC JUMP JUMPDEST SWAP2 POP POP SWAP3 SWAP2 POP POP JUMP JUMPDEST PUSH0 DUP2 MLOAD SWAP1 POP SWAP2 SWAP1 POP JUMP JUMPDEST PUSH0 DUP3 DUP3 MSTORE PUSH1 0x20 DUP3 ADD SWAP1 POP SWAP3 SWAP2 POP POP JUMP JUMPDEST PUSH0 DUP2 SWAP1 POP PUSH1 0x20 DUP3 ADD SWAP1 POP SWAP2 SWAP1 POP JUMP JUMPDEST PUSH2 0x652 DUP2 PUSH2 0x367 JUMP JUMPDEST DUP3 MSTORE POP POP JUMP JUMPDEST PUSH0 PUSH2 0x663 DUP4 DUP4 PUSH2 0x649 JUMP JUMPDEST PUSH1 0x20 DUP4 ADD SWAP1 POP SWAP3 SWAP2 POP POP JUMP JUMPDEST PUSH0 PUSH1 0x20 DUP3 ADD SWAP1 POP SWAP2 SWAP1 POP JUMP JUMPDEST PUSH0 PUSH2 0x685 DUP3 PUSH2 0x620 JUMP JUMPDEST PUSH2 0x68F DUP2 DUP6 PUSH2 0x62A JUMP JUMPDEST SWAP4 POP PUSH2 0x69A DUP4 PUSH2 0x63A JUMP JUMPDEST DUP1 PUSH0 JUMPDEST DUP4 DUP2 LT ISZERO PUSH2 0x6CA JUMPI DUP2 MLOAD PUSH2 0x6B1 DUP9 DUP3 PUSH2 0x658 JUMP JUMPDEST SWAP8 POP PUSH2 0x6BC DUP4 PUSH2 0x66F JUMP JUMPDEST SWAP3 POP POP PUSH1 0x1 DUP2 ADD SWAP1 POP PUSH2 0x69D JUMP JUMPDEST POP DUP6 SWAP4 POP POP POP POP SWAP3 SWAP2 POP POP JUMP JUMPDEST PUSH0 PUSH1 0x20 DUP3 ADD SWAP1 POP DUP2 DUP2 SUB PUSH0 DUP4 ADD MSTORE PUSH2 0x6EF DUP2 DUP5 PUSH2 0x67B JUMP JUMPDEST SWAP1 POP SWAP3 SWAP2 POP POP JUMP JUMPDEST PUSH0 PUSH1 0x20 DUP3 DUP5 SUB SLT ISZERO PUSH2 0x70C JUMPI PUSH2 0x70B PUSH2 0x35F JUMP JUMPDEST JUMPDEST PUSH0 PUSH2 0x719 DUP5 DUP3 DUP6 ADD PUSH2 0x386 JUMP JUMPDEST SWAP2 POP POP SWAP3 SWAP2 POP POP JUMP JUMPDEST PUSH0 DUP2 ISZERO ISZERO SWAP1 POP SWAP2 SWAP1 POP JUMP JUMPDEST PUSH2 0x736 DUP2 PUSH2 0x722 JUMP JUMPDEST DUP3 MSTORE POP POP JUMP JUMPDEST PUSH0 PUSH1 0x20 DUP3 ADD SWAP1 POP PUSH2 0x74F PUSH0 DUP4 ADD DUP5 PUSH2 0x72D JUMP JUMPDEST SWAP3 SWAP2 POP POP JUMP JUMPDEST PUSH32 0x4E487B7100000000000000000000000000000000000000000000000000000000 PUSH0 MSTORE PUSH1 0x11 PUSH1 0x4 MSTORE PUSH1 0x24 PUSH0 REVERT JUMPDEST PUSH0 PUSH2 0x78C DUP3 PUSH2 0x367 JUMP JUMPDEST SWAP2 POP PUSH32 0xFFFFFFFFFFFFFFFFFFFFFFFFFFFFFFFFFFFFFFFFFFFFFFFFFFFFFFFFFFFFFFFF DUP3 SUB PUSH2 0x7BE JUMPI PUSH2 0x7BD PUSH2 0x755 JUMP JUMPDEST JUMPDEST PUSH1 0x1 DUP3 ADD SWAP1 POP SWAP2 SWAP1 POP JUMP JUMPDEST PUSH32 0x4E487B7100000000000000000000000000000000000000000000000000000000 PUSH0 MSTORE PUSH1 0x32 PUSH1 0x4 MSTORE PUSH1 0x24 PUSH0 REVERT JUMPDEST PUSH0 PUSH2 0x800 DUP3 PUSH2 0x367 JUMP JUMPDEST SWAP2 POP PUSH2 0x80B DUP4 PUSH2 0x367 JUMP JUMPDEST SWAP3 POP DUP3 DUP3 SUB SWAP1 POP DUP2 DUP2 GT ISZERO PUSH2 0x823 JUMPI PUSH2 0x822 PUSH2 0x755 JUMP JUMPDEST JUMPDEST SWAP3 SWAP2 POP POP JUMP JUMPDEST PUSH0 PUSH2 0x833 DUP3 PUSH2 0x367 JUMP JUMPDEST SWAP2 POP PUSH0 DUP3 SUB PUSH2 0x845 JUMPI PUSH2 0x844 PUSH2 0x755 JUMP JUMPDEST JUMPDEST PUSH1 0x1 DUP3 SUB SWAP1 POP SWAP2 SWAP1 POP JUMP JUMPDEST PUSH0 PUSH2 0x85A DUP3 PUSH2 0x367 JUMP JUMPDEST SWAP2 POP PUSH2 0x865 DUP4 PUSH2 0x367 JUMP JUMPDEST SWAP3 POP DUP3 DUP3 ADD SWAP1 POP DUP1 DUP3 GT ISZERO PUSH2 0x87D JUMPI PUSH2 0x87C PUSH2 0x755 JUMP JUMPDEST JUMPDEST SWAP3 SWAP2 POP POP JUMP INVALID LOG2 PUSH5 0x6970667358 0x22 SLT KECCAK256 0xD9 0xDD 0xBB SHL CALLVALUE PUSH2 0xD5A2 PUSH31 0xD9A8A0643BF7643E07E8559C55C0DBA385F4BAE1CC3C4364736F6C63430008 BYTE STOP CALLER "
		},
		"gasEstimates": {
			"creation": {
				"codeDepositCost": "446600",
				"executionCost": "478",
				"totalCost": "447078"
			},
			"external": {
				"f(uint256)": "infinite",
				"f(uint8)": "infinite",
				"forLoopTest()": "infinite",
				"ifElseTest(uint256)": "655",
				"insertionSort(uint256[])": "infinite",
				"ternaryTest(uint256,uint256)": "infinite",
				"whileTest()": "infinite"
			}
		},
		"methodIdentifiers": {
			"f(uint256)": "b3de648b",
			"f(uint8)": "3120d434",
			"forLoopTest()": "b0cfa9fc",
			"ifElseTest(uint256)": "7141fb00",
			"insertionSort(uint256[])": "6297206f",
			"ternaryTest(uint256,uint256)": "28766320",
			"whileTest()": "5d14639d"
		}
	},
	"abi": [
		{
			"inputs": [
				{
					"internalType": "uint8",
					"name": "_in",
					"type": "uint8"
				}
			],
			"name": "f",
			"outputs": [
				{
					"internalType": "uint8",
					"name": "out",
					"type": "uint8"
				}
			],
			"stateMutability": "pure",
			"type": "function"
		},
		{
			"inputs": [
				{
					"internalType": "uint256",
					"name": "_in",
					"type": "uint256"
				}
			],
			"name": "f",
			"outputs": [
				{
					"internalType": "uint256",
					"name": "out",
					"type": "uint256"
				}
			],
			"stateMutability": "pure",
			"type": "function"
		},
		{
			"inputs": [],
			"name": "forLoopTest",
			"outputs": [
				{
					"internalType": "uint256",
					"name": "",
					"type": "uint256"
				}
			],
			"stateMutability": "pure",
			"type": "function"
		},
		{
			"inputs": [
				{
					"internalType": "uint256",
					"name": "_number",
					"type": "uint256"
				}
			],
			"name": "ifElseTest",
			"outputs": [
				{
					"internalType": "bool",
					"name": "",
					"type": "bool"
				}
			],
			"stateMutability": "pure",
			"type": "function"
		},
		{
			"inputs": [
				{
					"internalType": "uint256[]",
					"name": "a",
					"type": "uint256[]"
				}
			],
			"name": "insertionSort",
			"outputs": [
				{
					"internalType": "uint256[]",
					"name": "",
					"type": "uint256[]"
				}
			],
			"stateMutability": "pure",
			"type": "function"
		},
		{
			"inputs": [
				{
					"internalType": "uint256",
					"name": "x",
					"type": "uint256"
				},
				{
					"internalType": "uint256",
					"name": "y",
					"type": "uint256"
				}
			],
			"name": "ternaryTest",
			"outputs": [
				{
					"internalType": "uint256",
					"name": "",
					"type": "uint256"
				}
			],
			"stateMutability": "pure",
			"type": "function"
		},
		{
			"inputs": [],
			"name": "whileTest",
			"outputs": [
				{
					"internalType": "uint256",
					"name": "",
					"type": "uint256"
				}
			],
			"stateMutability": "pure",
			"type": "function"
		}
	]
}