{
	"contracts/solidity/solidity101/ControlFlow.sol": {
		"ControlFlow": {
			"abi": [
				{
					"inputs": [
						{
							"internalType": "uint8",
							"name": "_in",
							"type": "uint8"
						}
					],
					"name": "f",
					"outputs": [
						{
							"internalType": "uint8",
							"name": "out",
							"type": "uint8"
						}
					],
					"stateMutability": "pure",
					"type": "function"
				},
				{
					"inputs": [
						{
							"internalType": "uint256",
							"name": "_in",
							"type": "uint256"
						}
					],
					"name": "f",
					"outputs": [
						{
							"internalType": "uint256",
							"name": "out",
							"type": "uint256"
						}
					],
					"stateMutability": "pure",
					"type": "function"
				},
				{
					"inputs": [],
					"name": "forLoopTest",
					"outputs": [
						{
							"internalType": "uint256",
							"name": "",
							"type": "uint256"
						}
					],
					"stateMutability": "pure",
					"type": "function"
				},
				{
					"inputs": [
						{
							"internalType": "uint256",
							"name": "_number",
							"type": "uint256"
						}
					],
					"name": "ifElseTest",
					"outputs": [
						{
							"internalType": "bool",
							"name": "",
							"type": "bool"
						}
					],
					"stateMutability": "pure",
					"type": "function"
				},
				{
					"inputs": [
						{
							"internalType": "uint256[]",
							"name": "a",
							"type": "uint256[]"
						}
					],
					"name": "insertionSort",
					"outputs": [
						{
							"internalType": "uint256[]",
							"name": "",
							"type": "uint256[]"
						}
					],
					"stateMutability": "pure",
					"type": "function"
				},
				{
					"inputs": [
						{
							"internalType": "uint256",
							"name": "x",
							"type": "uint256"
						},
						{
							"internalType": "uint256",
							"name": "y",
							"type": "uint256"
						}
					],
					"name": "ternaryTest",
					"outputs": [
						{
							"internalType": "uint256",
							"name": "",
							"type": "uint256"
						}
					],
					"stateMutability": "pure",
					"type": "function"
				},
				{
					"inputs": [],
					"name": "whileTest",
					"outputs": [
						{
							"internalType": "uint256",
							"name": "",
							"type": "uint256"
						}
					],
					"stateMutability": "pure",
					"type": "function"
				}
			],
			"devdoc": {
				"kind": "dev",
				"methods": {},
				"version": 1
			},
			"evm": {
				"assembly": "    /* \"contracts/solidity/solidity101/ControlFlow.sol\":119:1577  contract ControlFlow {... */\n  mstore(0x40, 0x80)\n  callvalue\n  dup1\n  iszero\n  tag_1\n  jumpi\n  0x00\n  dup1\n  revert\ntag_1:\n  pop\n  dataSize(sub_0)\n  dup1\n  dataOffset(sub_0)\n  0x00\n  codecopy\n  0x00\n  return\nstop\n\nsub_0: assembly {\n        /* \"contracts/solidity/solidity101/ControlFlow.sol\":119:1577  contract ControlFlow {... */\n      mstore(0x40, 0x80)\n      callvalue\n      dup1\n      iszero\n      tag_1\n      jumpi\n      0x00\n      dup1\n      revert\n    tag_1:\n      pop\n      jumpi(tag_2, lt(calldatasize, 0x04))\n      shr(0xe0, calldataload(0x00))\n      dup1\n      0x6297206f\n      gt\n      tag_10\n      jumpi\n      dup1\n      0x6297206f\n      eq\n      tag_6\n      jumpi\n      dup1\n      0x7141fb00\n      eq\n      tag_7\n      jumpi\n      dup1\n      0xb0cfa9fc\n      eq\n      tag_8\n      jumpi\n      dup1\n      0xb3de648b\n      eq\n      tag_9\n      jumpi\n      jump(tag_2)\n    tag_10:\n      dup1\n      0x28766320\n      eq\n      tag_3\n      jumpi\n      dup1\n      0x3120d434\n      eq\n      tag_4\n      jumpi\n      dup1\n      0x5d14639d\n      eq\n      tag_5\n      jumpi\n    tag_2:\n      0x00\n      dup1\n      revert\n        /* \"contracts/solidity/solidity101/ControlFlow.sol\":750:898  function ternaryTest(uint256 x, uint256 y) public pure returns (uint256) {... */\n    tag_3:\n      tag_11\n      0x04\n      dup1\n      calldatasize\n      sub\n      dup2\n      add\n      swap1\n      tag_12\n      swap2\n      swap1\n      tag_13\n      jump\t// in\n    tag_12:\n      tag_14\n      jump\t// in\n    tag_11:\n      mload(0x40)\n      tag_15\n      swap2\n      swap1\n      tag_16\n      jump\t// in\n    tag_15:\n      mload(0x40)\n      dup1\n      swap2\n      sub\n      swap1\n      return\n        /* \"contracts/solidity/solidity101/ControlFlow.sol\":1405:1485  function f(uint8 _in) public pure returns (uint8 out) {... */\n    tag_4:\n      tag_17\n      0x04\n      dup1\n      calldatasize\n      sub\n      dup2\n      add\n      swap1\n      tag_18\n      swap2\n      swap1\n      tag_19\n      jump\t// in\n    tag_18:\n      tag_20\n      jump\t// in\n    tag_17:\n      mload(0x40)\n      tag_21\n      swap2\n      swap1\n      tag_22\n      jump\t// in\n    tag_21:\n      mload(0x40)\n      dup1\n      swap2\n      sub\n      swap1\n      return\n        /* \"contracts/solidity/solidity101/ControlFlow.sol\":531:692  function whileTest() public pure returns (uint256) {... */\n    tag_5:\n      tag_23\n      tag_24\n      jump\t// in\n    tag_23:\n      mload(0x40)\n      tag_25\n      swap2\n      swap1\n      tag_16\n      jump\t// in\n    tag_25:\n      mload(0x40)\n      dup1\n      swap2\n      sub\n      swap1\n      return\n        /* \"contracts/solidity/solidity101/ControlFlow.sol\":944:1399  function insertionSort(uint256[] memory a)... */\n    tag_6:\n      tag_26\n      0x04\n      dup1\n      calldatasize\n      sub\n      dup2\n      add\n      swap1\n      tag_27\n      swap2\n      swap1\n      tag_28\n      jump\t// in\n    tag_27:\n      tag_29\n      jump\t// in\n    tag_26:\n      mload(0x40)\n      tag_30\n      swap2\n      swap1\n      tag_31\n      jump\t// in\n    tag_30:\n      mload(0x40)\n      dup1\n      swap2\n      sub\n      swap1\n      return\n        /* \"contracts/solidity/solidity101/ControlFlow.sol\":146:329  function ifElseTest(uint256 _number) external pure returns (bool) {... */\n    tag_7:\n      tag_32\n      0x04\n      dup1\n      calldatasize\n      sub\n      dup2\n      add\n      swap1\n      tag_33\n      swap2\n      swap1\n      tag_34\n      jump\t// in\n    tag_33:\n      tag_35\n      jump\t// in\n    tag_32:\n      mload(0x40)\n      tag_36\n      swap2\n      swap1\n      tag_37\n      jump\t// in\n    tag_36:\n      mload(0x40)\n      dup1\n      swap2\n      sub\n      swap1\n      return\n        /* \"contracts/solidity/solidity101/ControlFlow.sol\":335:525  function forLoopTest() external pure returns (uint256) {... */\n    tag_8:\n      tag_38\n      tag_39\n      jump\t// in\n    tag_38:\n      mload(0x40)\n      tag_40\n      swap2\n      swap1\n      tag_16\n      jump\t// in\n    tag_40:\n      mload(0x40)\n      dup1\n      swap2\n      sub\n      swap1\n      return\n        /* \"contracts/solidity/solidity101/ControlFlow.sol\":1491:1575  function f(uint256 _in) public pure returns (uint256 out) {... */\n    tag_9:\n      tag_41\n      0x04\n      dup1\n      calldatasize\n      sub\n      dup2\n      add\n      swap1\n      tag_42\n      swap2\n      swap1\n      tag_34\n      jump\t// in\n    tag_42:\n      tag_43\n      jump\t// in\n    tag_41:\n      mload(0x40)\n      tag_44\n      swap2\n      swap1\n      tag_16\n      jump\t// in\n    tag_44:\n      mload(0x40)\n      dup1\n      swap2\n      sub\n      swap1\n      return\n        /* \"contracts/solidity/solidity101/ControlFlow.sol\":750:898  function ternaryTest(uint256 x, uint256 y) public pure returns (uint256) {... */\n    tag_14:\n        /* \"contracts/solidity/solidity101/ControlFlow.sol\":814:821  uint256 */\n      0x00\n        /* \"contracts/solidity/solidity101/ControlFlow.sol\":882:883  y */\n      dup2\n        /* \"contracts/solidity/solidity101/ControlFlow.sol\":877:878  x */\n      dup4\n        /* \"contracts/solidity/solidity101/ControlFlow.sol\":877:883  x >= y */\n      lt\n      iszero\n        /* \"contracts/solidity/solidity101/ControlFlow.sol\":877:891  x >= y ? x : y */\n      tag_46\n      jumpi\n        /* \"contracts/solidity/solidity101/ControlFlow.sol\":890:891  y */\n      dup2\n        /* \"contracts/solidity/solidity101/ControlFlow.sol\":877:891  x >= y ? x : y */\n      jump(tag_47)\n    tag_46:\n        /* \"contracts/solidity/solidity101/ControlFlow.sol\":886:887  x */\n      dup3\n        /* \"contracts/solidity/solidity101/ControlFlow.sol\":877:891  x >= y ? x : y */\n    tag_47:\n        /* \"contracts/solidity/solidity101/ControlFlow.sol\":870:891  return x >= y ? x : y */\n      swap1\n      pop\n        /* \"contracts/solidity/solidity101/ControlFlow.sol\":750:898  function ternaryTest(uint256 x, uint256 y) public pure returns (uint256) {... */\n      swap3\n      swap2\n      pop\n      pop\n      jump\t// out\n        /* \"contracts/solidity/solidity101/ControlFlow.sol\":1405:1485  function f(uint8 _in) public pure returns (uint8 out) {... */\n    tag_20:\n        /* \"contracts/solidity/solidity101/ControlFlow.sol\":1448:1457  uint8 out */\n      0x00\n        /* \"contracts/solidity/solidity101/ControlFlow.sol\":1475:1478  _in */\n      dup2\n        /* \"contracts/solidity/solidity101/ControlFlow.sol\":1469:1478  out = _in */\n      swap1\n      pop\n        /* \"contracts/solidity/solidity101/ControlFlow.sol\":1405:1485  function f(uint8 _in) public pure returns (uint8 out) {... */\n      swap2\n      swap1\n      pop\n      jump\t// out\n        /* \"contracts/solidity/solidity101/ControlFlow.sol\":531:692  function whileTest() public pure returns (uint256) {... */\n    tag_24:\n        /* \"contracts/solidity/solidity101/ControlFlow.sol\":573:580  uint256 */\n      0x00\n        /* \"contracts/solidity/solidity101/ControlFlow.sol\":592:603  uint256 sum */\n      dup1\n        /* \"contracts/solidity/solidity101/ControlFlow.sol\":606:607  0 */\n      0x00\n        /* \"contracts/solidity/solidity101/ControlFlow.sol\":592:607  uint256 sum = 0 */\n      swap1\n      pop\n        /* \"contracts/solidity/solidity101/ControlFlow.sol\":617:664  while (sum < 10) {... */\n    tag_50:\n        /* \"contracts/solidity/solidity101/ControlFlow.sol\":630:632  10 */\n      0x0a\n        /* \"contracts/solidity/solidity101/ControlFlow.sol\":624:627  sum */\n      dup2\n        /* \"contracts/solidity/solidity101/ControlFlow.sol\":624:632  sum < 10 */\n      lt\n        /* \"contracts/solidity/solidity101/ControlFlow.sol\":617:664  while (sum < 10) {... */\n      iszero\n      tag_51\n      jumpi\n        /* \"contracts/solidity/solidity101/ControlFlow.sol\":648:653  sum++ */\n      dup1\n      dup1\n      tag_52\n      swap1\n      tag_53\n      jump\t// in\n    tag_52:\n      swap2\n      pop\n      pop\n        /* \"contracts/solidity/solidity101/ControlFlow.sol\":617:664  while (sum < 10) {... */\n      jump(tag_50)\n    tag_51:\n        /* \"contracts/solidity/solidity101/ControlFlow.sol\":681:684  sum */\n      dup1\n        /* \"contracts/solidity/solidity101/ControlFlow.sol\":673:685  return (sum) */\n      swap2\n      pop\n      pop\n        /* \"contracts/solidity/solidity101/ControlFlow.sol\":531:692  function whileTest() public pure returns (uint256) {... */\n      swap1\n      jump\t// out\n        /* \"contracts/solidity/solidity101/ControlFlow.sol\":944:1399  function insertionSort(uint256[] memory a)... */\n    tag_29:\n        /* \"contracts/solidity/solidity101/ControlFlow.sol\":1032:1048  uint256[] memory */\n      0x60\n        /* \"contracts/solidity/solidity101/ControlFlow.sol\":1123:1132  uint256 i */\n      0x00\n        /* \"contracts/solidity/solidity101/ControlFlow.sol\":1135:1136  1 */\n      0x01\n        /* \"contracts/solidity/solidity101/ControlFlow.sol\":1123:1136  uint256 i = 1 */\n      swap1\n      pop\n        /* \"contracts/solidity/solidity101/ControlFlow.sol\":1118:1373  for (uint256 i = 1; i < a.length; i++) {... */\n    tag_55:\n        /* \"contracts/solidity/solidity101/ControlFlow.sol\":1142:1143  a */\n      dup3\n        /* \"contracts/solidity/solidity101/ControlFlow.sol\":1142:1150  a.length */\n      mload\n        /* \"contracts/solidity/solidity101/ControlFlow.sol\":1138:1139  i */\n      dup2\n        /* \"contracts/solidity/solidity101/ControlFlow.sol\":1138:1150  i < a.length */\n      lt\n        /* \"contracts/solidity/solidity101/ControlFlow.sol\":1118:1373  for (uint256 i = 1; i < a.length; i++) {... */\n      iszero\n      tag_56\n      jumpi\n        /* \"contracts/solidity/solidity101/ControlFlow.sol\":1171:1183  uint256 temp */\n      0x00\n        /* \"contracts/solidity/solidity101/ControlFlow.sol\":1186:1187  a */\n      dup4\n        /* \"contracts/solidity/solidity101/ControlFlow.sol\":1188:1189  i */\n      dup3\n        /* \"contracts/solidity/solidity101/ControlFlow.sol\":1186:1190  a[i] */\n      dup2\n      mload\n      dup2\n      lt\n      tag_58\n      jumpi\n      tag_59\n      tag_60\n      jump\t// in\n    tag_59:\n    tag_58:\n      0x20\n      mul\n      0x20\n      add\n      add\n      mload\n        /* \"contracts/solidity/solidity101/ControlFlow.sol\":1171:1190  uint256 temp = a[i] */\n      swap1\n      pop\n        /* \"contracts/solidity/solidity101/ControlFlow.sol\":1204:1213  uint256 j */\n      0x00\n        /* \"contracts/solidity/solidity101/ControlFlow.sol\":1216:1217  i */\n      dup3\n        /* \"contracts/solidity/solidity101/ControlFlow.sol\":1204:1217  uint256 j = i */\n      swap1\n      pop\n        /* \"contracts/solidity/solidity101/ControlFlow.sol\":1231:1338  while ((j >= 1) && (temp < a[j - 1])) {... */\n    tag_61:\n        /* \"contracts/solidity/solidity101/ControlFlow.sol\":1244:1245  1 */\n      0x01\n        /* \"contracts/solidity/solidity101/ControlFlow.sol\":1239:1240  j */\n      dup2\n        /* \"contracts/solidity/solidity101/ControlFlow.sol\":1239:1245  j >= 1 */\n      lt\n      iszero\n        /* \"contracts/solidity/solidity101/ControlFlow.sol\":1238:1267  (j >= 1) && (temp < a[j - 1]) */\n      dup1\n      iszero\n      tag_63\n      jumpi\n      pop\n        /* \"contracts/solidity/solidity101/ControlFlow.sol\":1258:1259  a */\n      dup5\n        /* \"contracts/solidity/solidity101/ControlFlow.sol\":1264:1265  1 */\n      0x01\n        /* \"contracts/solidity/solidity101/ControlFlow.sol\":1260:1261  j */\n      dup3\n        /* \"contracts/solidity/solidity101/ControlFlow.sol\":1260:1265  j - 1 */\n      tag_64\n      swap2\n      swap1\n      tag_65\n      jump\t// in\n    tag_64:\n        /* \"contracts/solidity/solidity101/ControlFlow.sol\":1258:1266  a[j - 1] */\n      dup2\n      mload\n      dup2\n      lt\n      tag_66\n      jumpi\n      tag_67\n      tag_60\n      jump\t// in\n    tag_67:\n    tag_66:\n      0x20\n      mul\n      0x20\n      add\n      add\n      mload\n        /* \"contracts/solidity/solidity101/ControlFlow.sol\":1251:1255  temp */\n      dup3\n        /* \"contracts/solidity/solidity101/ControlFlow.sol\":1251:1266  temp < a[j - 1] */\n      lt\n        /* \"contracts/solidity/solidity101/ControlFlow.sol\":1238:1267  (j >= 1) && (temp < a[j - 1]) */\n    tag_63:\n        /* \"contracts/solidity/solidity101/ControlFlow.sol\":1231:1338  while ((j >= 1) && (temp < a[j - 1])) {... */\n      iszero\n      tag_62\n      jumpi\n        /* \"contracts/solidity/solidity101/ControlFlow.sol\":1294:1295  a */\n      dup5\n        /* \"contracts/solidity/solidity101/ControlFlow.sol\":1300:1301  1 */\n      0x01\n        /* \"contracts/solidity/solidity101/ControlFlow.sol\":1296:1297  j */\n      dup3\n        /* \"contracts/solidity/solidity101/ControlFlow.sol\":1296:1301  j - 1 */\n      tag_68\n      swap2\n      swap1\n      tag_65\n      jump\t// in\n    tag_68:\n        /* \"contracts/solidity/solidity101/ControlFlow.sol\":1294:1302  a[j - 1] */\n      dup2\n      mload\n      dup2\n      lt\n      tag_69\n      jumpi\n      tag_70\n      tag_60\n      jump\t// in\n    tag_70:\n    tag_69:\n      0x20\n      mul\n      0x20\n      add\n      add\n      mload\n        /* \"contracts/solidity/solidity101/ControlFlow.sol\":1287:1288  a */\n      dup6\n        /* \"contracts/solidity/solidity101/ControlFlow.sol\":1289:1290  j */\n      dup3\n        /* \"contracts/solidity/solidity101/ControlFlow.sol\":1287:1291  a[j] */\n      dup2\n      mload\n      dup2\n      lt\n      tag_71\n      jumpi\n      tag_72\n      tag_60\n      jump\t// in\n    tag_72:\n    tag_71:\n      0x20\n      mul\n      0x20\n      add\n      add\n        /* \"contracts/solidity/solidity101/ControlFlow.sol\":1287:1302  a[j] = a[j - 1] */\n      dup2\n      dup2\n      mstore\n      pop\n      pop\n        /* \"contracts/solidity/solidity101/ControlFlow.sol\":1320:1323  j-- */\n      dup1\n      dup1\n      tag_73\n      swap1\n      tag_74\n      jump\t// in\n    tag_73:\n      swap2\n      pop\n      pop\n        /* \"contracts/solidity/solidity101/ControlFlow.sol\":1231:1338  while ((j >= 1) && (temp < a[j - 1])) {... */\n      jump(tag_61)\n    tag_62:\n        /* \"contracts/solidity/solidity101/ControlFlow.sol\":1358:1362  temp */\n      dup2\n        /* \"contracts/solidity/solidity101/ControlFlow.sol\":1351:1352  a */\n      dup6\n        /* \"contracts/solidity/solidity101/ControlFlow.sol\":1353:1354  j */\n      dup3\n        /* \"contracts/solidity/solidity101/ControlFlow.sol\":1351:1355  a[j] */\n      dup2\n      mload\n      dup2\n      lt\n      tag_75\n      jumpi\n      tag_76\n      tag_60\n      jump\t// in\n    tag_76:\n    tag_75:\n      0x20\n      mul\n      0x20\n      add\n      add\n        /* \"contracts/solidity/solidity101/ControlFlow.sol\":1351:1362  a[j] = temp */\n      dup2\n      dup2\n      mstore\n      pop\n      pop\n        /* \"contracts/solidity/solidity101/ControlFlow.sol\":1157:1373  {... */\n      pop\n      pop\n        /* \"contracts/solidity/solidity101/ControlFlow.sol\":1152:1155  i++ */\n      dup1\n      dup1\n      0x01\n      add\n      swap2\n      pop\n      pop\n        /* \"contracts/solidity/solidity101/ControlFlow.sol\":1118:1373  for (uint256 i = 1; i < a.length; i++) {... */\n      jump(tag_55)\n    tag_56:\n      pop\n        /* \"contracts/solidity/solidity101/ControlFlow.sol\":1390:1391  a */\n      dup2\n        /* \"contracts/solidity/solidity101/ControlFlow.sol\":1382:1392  return (a) */\n      swap1\n      pop\n        /* \"contracts/solidity/solidity101/ControlFlow.sol\":944:1399  function insertionSort(uint256[] memory a)... */\n      swap2\n      swap1\n      pop\n      jump\t// out\n        /* \"contracts/solidity/solidity101/ControlFlow.sol\":146:329  function ifElseTest(uint256 _number) external pure returns (bool) {... */\n    tag_35:\n        /* \"contracts/solidity/solidity101/ControlFlow.sol\":206:210  bool */\n      0x00\n        /* \"contracts/solidity/solidity101/ControlFlow.sol\":237:238  0 */\n      dup1\n        /* \"contracts/solidity/solidity101/ControlFlow.sol\":226:233  _number */\n      dup3\n        /* \"contracts/solidity/solidity101/ControlFlow.sol\":226:238  _number == 0 */\n      sub\n        /* \"contracts/solidity/solidity101/ControlFlow.sol\":222:323  if (_number == 0) {... */\n      tag_78\n      jumpi\n        /* \"contracts/solidity/solidity101/ControlFlow.sol\":262:266  true */\n      0x01\n        /* \"contracts/solidity/solidity101/ControlFlow.sol\":254:267  return (true) */\n      swap1\n      pop\n      jump(tag_77)\n        /* \"contracts/solidity/solidity101/ControlFlow.sol\":222:323  if (_number == 0) {... */\n    tag_78:\n        /* \"contracts/solidity/solidity101/ControlFlow.sol\":306:311  false */\n      0x00\n        /* \"contracts/solidity/solidity101/ControlFlow.sol\":298:312  return (false) */\n      swap1\n      pop\n        /* \"contracts/solidity/solidity101/ControlFlow.sol\":146:329  function ifElseTest(uint256 _number) external pure returns (bool) {... */\n    tag_77:\n      swap2\n      swap1\n      pop\n      jump\t// out\n        /* \"contracts/solidity/solidity101/ControlFlow.sol\":335:525  function forLoopTest() external pure returns (uint256) {... */\n    tag_39:\n        /* \"contracts/solidity/solidity101/ControlFlow.sol\":381:388  uint256 */\n      0x00\n        /* \"contracts/solidity/solidity101/ControlFlow.sol\":400:411  uint256 sum */\n      dup1\n        /* \"contracts/solidity/solidity101/ControlFlow.sol\":414:415  1 */\n      0x01\n        /* \"contracts/solidity/solidity101/ControlFlow.sol\":400:415  uint256 sum = 1 */\n      swap1\n      pop\n        /* \"contracts/solidity/solidity101/ControlFlow.sol\":430:439  uint256 i */\n      0x00\n        /* \"contracts/solidity/solidity101/ControlFlow.sol\":442:443  1 */\n      0x01\n        /* \"contracts/solidity/solidity101/ControlFlow.sol\":430:443  uint256 i = 1 */\n      swap1\n      pop\n        /* \"contracts/solidity/solidity101/ControlFlow.sol\":425:497  for (uint256 i = 1; i <= 10; i++) {... */\n    tag_81:\n        /* \"contracts/solidity/solidity101/ControlFlow.sol\":450:452  10 */\n      0x0a\n        /* \"contracts/solidity/solidity101/ControlFlow.sol\":445:446  i */\n      dup2\n        /* \"contracts/solidity/solidity101/ControlFlow.sol\":445:452  i <= 10 */\n      gt\n        /* \"contracts/solidity/solidity101/ControlFlow.sol\":425:497  for (uint256 i = 1; i <= 10; i++) {... */\n      tag_82\n      jumpi\n        /* \"contracts/solidity/solidity101/ControlFlow.sol\":485:486  i */\n      dup1\n        /* \"contracts/solidity/solidity101/ControlFlow.sol\":479:482  sum */\n      dup3\n        /* \"contracts/solidity/solidity101/ControlFlow.sol\":479:486  sum + i */\n      tag_84\n      swap2\n      swap1\n      tag_85\n      jump\t// in\n    tag_84:\n        /* \"contracts/solidity/solidity101/ControlFlow.sol\":473:486  sum = sum + i */\n      swap2\n      pop\n        /* \"contracts/solidity/solidity101/ControlFlow.sol\":454:457  i++ */\n      dup1\n      dup1\n      tag_86\n      swap1\n      tag_53\n      jump\t// in\n    tag_86:\n      swap2\n      pop\n      pop\n        /* \"contracts/solidity/solidity101/ControlFlow.sol\":425:497  for (uint256 i = 1; i <= 10; i++) {... */\n      jump(tag_81)\n    tag_82:\n      pop\n        /* \"contracts/solidity/solidity101/ControlFlow.sol\":514:517  sum */\n      dup1\n        /* \"contracts/solidity/solidity101/ControlFlow.sol\":506:518  return (sum) */\n      swap2\n      pop\n      pop\n        /* \"contracts/solidity/solidity101/ControlFlow.sol\":335:525  function forLoopTest() external pure returns (uint256) {... */\n      swap1\n      jump\t// out\n        /* \"contracts/solidity/solidity101/ControlFlow.sol\":1491:1575  function f(uint256 _in) public pure returns (uint256 out) {... */\n    tag_43:\n        /* \"contracts/solidity/solidity101/ControlFlow.sol\":1536:1547  uint256 out */\n      0x00\n        /* \"contracts/solidity/solidity101/ControlFlow.sol\":1565:1568  _in */\n      dup2\n        /* \"contracts/solidity/solidity101/ControlFlow.sol\":1559:1568  out = _in */\n      swap1\n      pop\n        /* \"contracts/solidity/solidity101/ControlFlow.sol\":1491:1575  function f(uint256 _in) public pure returns (uint256 out) {... */\n      swap2\n      swap1\n      pop\n      jump\t// out\n        /* \"#utility.yul\":7:82   */\n    tag_88:\n        /* \"#utility.yul\":40:46   */\n      0x00\n        /* \"#utility.yul\":73:75   */\n      0x40\n        /* \"#utility.yul\":67:76   */\n      mload\n        /* \"#utility.yul\":57:76   */\n      swap1\n      pop\n        /* \"#utility.yul\":7:82   */\n      swap1\n      jump\t// out\n        /* \"#utility.yul\":88:205   */\n    tag_89:\n        /* \"#utility.yul\":197:198   */\n      0x00\n        /* \"#utility.yul\":194:195   */\n      dup1\n        /* \"#utility.yul\":187:199   */\n      revert\n        /* \"#utility.yul\":211:328   */\n    tag_90:\n        /* \"#utility.yul\":320:321   */\n      0x00\n        /* \"#utility.yul\":317:318   */\n      dup1\n        /* \"#utility.yul\":310:322   */\n      revert\n        /* \"#utility.yul\":334:411   */\n    tag_91:\n        /* \"#utility.yul\":371:378   */\n      0x00\n        /* \"#utility.yul\":400:405   */\n      dup2\n        /* \"#utility.yul\":389:405   */\n      swap1\n      pop\n        /* \"#utility.yul\":334:411   */\n      swap2\n      swap1\n      pop\n      jump\t// out\n        /* \"#utility.yul\":417:539   */\n    tag_92:\n        /* \"#utility.yul\":490:514   */\n      tag_124\n        /* \"#utility.yul\":508:513   */\n      dup2\n        /* \"#utility.yul\":490:514   */\n      tag_91\n      jump\t// in\n    tag_124:\n        /* \"#utility.yul\":483:488   */\n      dup2\n        /* \"#utility.yul\":480:515   */\n      eq\n        /* \"#utility.yul\":470:533   */\n      tag_125\n      jumpi\n        /* \"#utility.yul\":529:530   */\n      0x00\n        /* \"#utility.yul\":526:527   */\n      dup1\n        /* \"#utility.yul\":519:531   */\n      revert\n        /* \"#utility.yul\":470:533   */\n    tag_125:\n        /* \"#utility.yul\":417:539   */\n      pop\n      jump\t// out\n        /* \"#utility.yul\":545:684   */\n    tag_93:\n        /* \"#utility.yul\":591:596   */\n      0x00\n        /* \"#utility.yul\":629:635   */\n      dup2\n        /* \"#utility.yul\":616:636   */\n      calldataload\n        /* \"#utility.yul\":607:636   */\n      swap1\n      pop\n        /* \"#utility.yul\":645:678   */\n      tag_127\n        /* \"#utility.yul\":672:677   */\n      dup2\n        /* \"#utility.yul\":645:678   */\n      tag_92\n      jump\t// in\n    tag_127:\n        /* \"#utility.yul\":545:684   */\n      swap3\n      swap2\n      pop\n      pop\n      jump\t// out\n        /* \"#utility.yul\":690:1164   */\n    tag_13:\n        /* \"#utility.yul\":758:764   */\n      0x00\n        /* \"#utility.yul\":766:772   */\n      dup1\n        /* \"#utility.yul\":815:817   */\n      0x40\n        /* \"#utility.yul\":803:812   */\n      dup4\n        /* \"#utility.yul\":794:801   */\n      dup6\n        /* \"#utility.yul\":790:813   */\n      sub\n        /* \"#utility.yul\":786:818   */\n      slt\n        /* \"#utility.yul\":783:902   */\n      iszero\n      tag_129\n      jumpi\n        /* \"#utility.yul\":821:900   */\n      tag_130\n      tag_89\n      jump\t// in\n    tag_130:\n        /* \"#utility.yul\":783:902   */\n    tag_129:\n        /* \"#utility.yul\":941:942   */\n      0x00\n        /* \"#utility.yul\":966:1019   */\n      tag_131\n        /* \"#utility.yul\":1011:1018   */\n      dup6\n        /* \"#utility.yul\":1002:1008   */\n      dup3\n        /* \"#utility.yul\":991:1000   */\n      dup7\n        /* \"#utility.yul\":987:1009   */\n      add\n        /* \"#utility.yul\":966:1019   */\n      tag_93\n      jump\t// in\n    tag_131:\n        /* \"#utility.yul\":956:1019   */\n      swap3\n      pop\n        /* \"#utility.yul\":912:1029   */\n      pop\n        /* \"#utility.yul\":1068:1070   */\n      0x20\n        /* \"#utility.yul\":1094:1147   */\n      tag_132\n        /* \"#utility.yul\":1139:1146   */\n      dup6\n        /* \"#utility.yul\":1130:1136   */\n      dup3\n        /* \"#utility.yul\":1119:1128   */\n      dup7\n        /* \"#utility.yul\":1115:1137   */\n      add\n        /* \"#utility.yul\":1094:1147   */\n      tag_93\n      jump\t// in\n    tag_132:\n        /* \"#utility.yul\":1084:1147   */\n      swap2\n      pop\n        /* \"#utility.yul\":1039:1157   */\n      pop\n        /* \"#utility.yul\":690:1164   */\n      swap3\n      pop\n      swap3\n      swap1\n      pop\n      jump\t// out\n        /* \"#utility.yul\":1170:1288   */\n    tag_94:\n        /* \"#utility.yul\":1257:1281   */\n      tag_134\n        /* \"#utility.yul\":1275:1280   */\n      dup2\n        /* \"#utility.yul\":1257:1281   */\n      tag_91\n      jump\t// in\n    tag_134:\n        /* \"#utility.yul\":1252:1255   */\n      dup3\n        /* \"#utility.yul\":1245:1282   */\n      mstore\n        /* \"#utility.yul\":1170:1288   */\n      pop\n      pop\n      jump\t// out\n        /* \"#utility.yul\":1294:1516   */\n    tag_16:\n        /* \"#utility.yul\":1387:1391   */\n      0x00\n        /* \"#utility.yul\":1425:1427   */\n      0x20\n        /* \"#utility.yul\":1414:1423   */\n      dup3\n        /* \"#utility.yul\":1410:1428   */\n      add\n        /* \"#utility.yul\":1402:1428   */\n      swap1\n      pop\n        /* \"#utility.yul\":1438:1509   */\n      tag_136\n        /* \"#utility.yul\":1506:1507   */\n      0x00\n        /* \"#utility.yul\":1495:1504   */\n      dup4\n        /* \"#utility.yul\":1491:1508   */\n      add\n        /* \"#utility.yul\":1482:1488   */\n      dup5\n        /* \"#utility.yul\":1438:1509   */\n      tag_94\n      jump\t// in\n    tag_136:\n        /* \"#utility.yul\":1294:1516   */\n      swap3\n      swap2\n      pop\n      pop\n      jump\t// out\n        /* \"#utility.yul\":1522:1608   */\n    tag_95:\n        /* \"#utility.yul\":1557:1564   */\n      0x00\n        /* \"#utility.yul\":1597:1601   */\n      0xff\n        /* \"#utility.yul\":1590:1595   */\n      dup3\n        /* \"#utility.yul\":1586:1602   */\n      and\n        /* \"#utility.yul\":1575:1602   */\n      swap1\n      pop\n        /* \"#utility.yul\":1522:1608   */\n      swap2\n      swap1\n      pop\n      jump\t// out\n        /* \"#utility.yul\":1614:1732   */\n    tag_96:\n        /* \"#utility.yul\":1685:1707   */\n      tag_139\n        /* \"#utility.yul\":1701:1706   */\n      dup2\n        /* \"#utility.yul\":1685:1707   */\n      tag_95\n      jump\t// in\n    tag_139:\n        /* \"#utility.yul\":1678:1683   */\n      dup2\n        /* \"#utility.yul\":1675:1708   */\n      eq\n        /* \"#utility.yul\":1665:1726   */\n      tag_140\n      jumpi\n        /* \"#utility.yul\":1722:1723   */\n      0x00\n        /* \"#utility.yul\":1719:1720   */\n      dup1\n        /* \"#utility.yul\":1712:1724   */\n      revert\n        /* \"#utility.yul\":1665:1726   */\n    tag_140:\n        /* \"#utility.yul\":1614:1732   */\n      pop\n      jump\t// out\n        /* \"#utility.yul\":1738:1873   */\n    tag_97:\n        /* \"#utility.yul\":1782:1787   */\n      0x00\n        /* \"#utility.yul\":1820:1826   */\n      dup2\n        /* \"#utility.yul\":1807:1827   */\n      calldataload\n        /* \"#utility.yul\":1798:1827   */\n      swap1\n      pop\n        /* \"#utility.yul\":1836:1867   */\n      tag_142\n        /* \"#utility.yul\":1861:1866   */\n      dup2\n        /* \"#utility.yul\":1836:1867   */\n      tag_96\n      jump\t// in\n    tag_142:\n        /* \"#utility.yul\":1738:1873   */\n      swap3\n      swap2\n      pop\n      pop\n      jump\t// out\n        /* \"#utility.yul\":1879:2204   */\n    tag_19:\n        /* \"#utility.yul\":1936:1942   */\n      0x00\n        /* \"#utility.yul\":1985:1987   */\n      0x20\n        /* \"#utility.yul\":1973:1982   */\n      dup3\n        /* \"#utility.yul\":1964:1971   */\n      dup5\n        /* \"#utility.yul\":1960:1983   */\n      sub\n        /* \"#utility.yul\":1956:1988   */\n      slt\n        /* \"#utility.yul\":1953:2072   */\n      iszero\n      tag_144\n      jumpi\n        /* \"#utility.yul\":1991:2070   */\n      tag_145\n      tag_89\n      jump\t// in\n    tag_145:\n        /* \"#utility.yul\":1953:2072   */\n    tag_144:\n        /* \"#utility.yul\":2111:2112   */\n      0x00\n        /* \"#utility.yul\":2136:2187   */\n      tag_146\n        /* \"#utility.yul\":2179:2186   */\n      dup5\n        /* \"#utility.yul\":2170:2176   */\n      dup3\n        /* \"#utility.yul\":2159:2168   */\n      dup6\n        /* \"#utility.yul\":2155:2177   */\n      add\n        /* \"#utility.yul\":2136:2187   */\n      tag_97\n      jump\t// in\n    tag_146:\n        /* \"#utility.yul\":2126:2187   */\n      swap2\n      pop\n        /* \"#utility.yul\":2082:2197   */\n      pop\n        /* \"#utility.yul\":1879:2204   */\n      swap3\n      swap2\n      pop\n      pop\n      jump\t// out\n        /* \"#utility.yul\":2210:2322   */\n    tag_98:\n        /* \"#utility.yul\":2293:2315   */\n      tag_148\n        /* \"#utility.yul\":2309:2314   */\n      dup2\n        /* \"#utility.yul\":2293:2315   */\n      tag_95\n      jump\t// in\n    tag_148:\n        /* \"#utility.yul\":2288:2291   */\n      dup3\n        /* \"#utility.yul\":2281:2316   */\n      mstore\n        /* \"#utility.yul\":2210:2322   */\n      pop\n      pop\n      jump\t// out\n        /* \"#utility.yul\":2328:2542   */\n    tag_22:\n        /* \"#utility.yul\":2417:2421   */\n      0x00\n        /* \"#utility.yul\":2455:2457   */\n      0x20\n        /* \"#utility.yul\":2444:2453   */\n      dup3\n        /* \"#utility.yul\":2440:2458   */\n      add\n        /* \"#utility.yul\":2432:2458   */\n      swap1\n      pop\n        /* \"#utility.yul\":2468:2535   */\n      tag_150\n        /* \"#utility.yul\":2532:2533   */\n      0x00\n        /* \"#utility.yul\":2521:2530   */\n      dup4\n        /* \"#utility.yul\":2517:2534   */\n      add\n        /* \"#utility.yul\":2508:2514   */\n      dup5\n        /* \"#utility.yul\":2468:2535   */\n      tag_98\n      jump\t// in\n    tag_150:\n        /* \"#utility.yul\":2328:2542   */\n      swap3\n      swap2\n      pop\n      pop\n      jump\t// out\n        /* \"#utility.yul\":2548:2665   */\n    tag_99:\n        /* \"#utility.yul\":2657:2658   */\n      0x00\n        /* \"#utility.yul\":2654:2655   */\n      dup1\n        /* \"#utility.yul\":2647:2659   */\n      revert\n        /* \"#utility.yul\":2671:2773   */\n    tag_100:\n        /* \"#utility.yul\":2712:2718   */\n      0x00\n        /* \"#utility.yul\":2763:2765   */\n      0x1f\n        /* \"#utility.yul\":2759:2766   */\n      not\n        /* \"#utility.yul\":2754:2756   */\n      0x1f\n        /* \"#utility.yul\":2747:2752   */\n      dup4\n        /* \"#utility.yul\":2743:2757   */\n      add\n        /* \"#utility.yul\":2739:2767   */\n      and\n        /* \"#utility.yul\":2729:2767   */\n      swap1\n      pop\n        /* \"#utility.yul\":2671:2773   */\n      swap2\n      swap1\n      pop\n      jump\t// out\n        /* \"#utility.yul\":2779:2959   */\n    tag_101:\n        /* \"#utility.yul\":2827:2904   */\n      0x4e487b7100000000000000000000000000000000000000000000000000000000\n        /* \"#utility.yul\":2824:2825   */\n      0x00\n        /* \"#utility.yul\":2817:2905   */\n      mstore\n        /* \"#utility.yul\":2924:2928   */\n      0x41\n        /* \"#utility.yul\":2921:2922   */\n      0x04\n        /* \"#utility.yul\":2914:2929   */\n      mstore\n        /* \"#utility.yul\":2948:2952   */\n      0x24\n        /* \"#utility.yul\":2945:2946   */\n      0x00\n        /* \"#utility.yul\":2938:2953   */\n      revert\n        /* \"#utility.yul\":2965:3246   */\n    tag_102:\n        /* \"#utility.yul\":3048:3075   */\n      tag_155\n        /* \"#utility.yul\":3070:3074   */\n      dup3\n        /* \"#utility.yul\":3048:3075   */\n      tag_100\n      jump\t// in\n    tag_155:\n        /* \"#utility.yul\":3040:3046   */\n      dup2\n        /* \"#utility.yul\":3036:3076   */\n      add\n        /* \"#utility.yul\":3178:3184   */\n      dup2\n        /* \"#utility.yul\":3166:3176   */\n      dup2\n        /* \"#utility.yul\":3163:3185   */\n      lt\n        /* \"#utility.yul\":3142:3160   */\n      0xffffffffffffffff\n        /* \"#utility.yul\":3130:3140   */\n      dup3\n        /* \"#utility.yul\":3127:3161   */\n      gt\n        /* \"#utility.yul\":3124:3186   */\n      or\n        /* \"#utility.yul\":3121:3209   */\n      iszero\n      tag_156\n      jumpi\n        /* \"#utility.yul\":3189:3207   */\n      tag_157\n      tag_101\n      jump\t// in\n    tag_157:\n        /* \"#utility.yul\":3121:3209   */\n    tag_156:\n        /* \"#utility.yul\":3229:3239   */\n      dup1\n        /* \"#utility.yul\":3225:3227   */\n      0x40\n        /* \"#utility.yul\":3218:3240   */\n      mstore\n        /* \"#utility.yul\":3008:3246   */\n      pop\n        /* \"#utility.yul\":2965:3246   */\n      pop\n      pop\n      jump\t// out\n        /* \"#utility.yul\":3252:3381   */\n    tag_103:\n        /* \"#utility.yul\":3286:3292   */\n      0x00\n        /* \"#utility.yul\":3313:3333   */\n      tag_159\n      tag_88\n      jump\t// in\n    tag_159:\n        /* \"#utility.yul\":3303:3333   */\n      swap1\n      pop\n        /* \"#utility.yul\":3342:3375   */\n      tag_160\n        /* \"#utility.yul\":3370:3374   */\n      dup3\n        /* \"#utility.yul\":3362:3368   */\n      dup3\n        /* \"#utility.yul\":3342:3375   */\n      tag_102\n      jump\t// in\n    tag_160:\n        /* \"#utility.yul\":3252:3381   */\n      swap2\n      swap1\n      pop\n      jump\t// out\n        /* \"#utility.yul\":3387:3698   */\n    tag_104:\n        /* \"#utility.yul\":3464:3468   */\n      0x00\n        /* \"#utility.yul\":3554:3572   */\n      0xffffffffffffffff\n        /* \"#utility.yul\":3546:3552   */\n      dup3\n        /* \"#utility.yul\":3543:3573   */\n      gt\n        /* \"#utility.yul\":3540:3596   */\n      iszero\n      tag_162\n      jumpi\n        /* \"#utility.yul\":3576:3594   */\n      tag_163\n      tag_101\n      jump\t// in\n    tag_163:\n        /* \"#utility.yul\":3540:3596   */\n    tag_162:\n        /* \"#utility.yul\":3626:3630   */\n      0x20\n        /* \"#utility.yul\":3618:3624   */\n      dup3\n        /* \"#utility.yul\":3614:3631   */\n      mul\n        /* \"#utility.yul\":3606:3631   */\n      swap1\n      pop\n        /* \"#utility.yul\":3686:3690   */\n      0x20\n        /* \"#utility.yul\":3680:3684   */\n      dup2\n        /* \"#utility.yul\":3676:3691   */\n      add\n        /* \"#utility.yul\":3668:3691   */\n      swap1\n      pop\n        /* \"#utility.yul\":3387:3698   */\n      swap2\n      swap1\n      pop\n      jump\t// out\n        /* \"#utility.yul\":3704:3821   */\n    tag_105:\n        /* \"#utility.yul\":3813:3814   */\n      0x00\n        /* \"#utility.yul\":3810:3811   */\n      dup1\n        /* \"#utility.yul\":3803:3815   */\n      revert\n        /* \"#utility.yul\":3844:4554   */\n    tag_106:\n        /* \"#utility.yul\":3940:3945   */\n      0x00\n        /* \"#utility.yul\":3965:4046   */\n      tag_166\n        /* \"#utility.yul\":3981:4045   */\n      tag_167\n        /* \"#utility.yul\":4038:4044   */\n      dup5\n        /* \"#utility.yul\":3981:4045   */\n      tag_104\n      jump\t// in\n    tag_167:\n        /* \"#utility.yul\":3965:4046   */\n      tag_103\n      jump\t// in\n    tag_166:\n        /* \"#utility.yul\":3956:4046   */\n      swap1\n      pop\n        /* \"#utility.yul\":4066:4071   */\n      dup1\n        /* \"#utility.yul\":4095:4101   */\n      dup4\n        /* \"#utility.yul\":4088:4093   */\n      dup3\n        /* \"#utility.yul\":4081:4102   */\n      mstore\n        /* \"#utility.yul\":4129:4133   */\n      0x20\n        /* \"#utility.yul\":4122:4127   */\n      dup3\n        /* \"#utility.yul\":4118:4134   */\n      add\n        /* \"#utility.yul\":4111:4134   */\n      swap1\n      pop\n        /* \"#utility.yul\":4182:4186   */\n      0x20\n        /* \"#utility.yul\":4174:4180   */\n      dup5\n        /* \"#utility.yul\":4170:4187   */\n      mul\n        /* \"#utility.yul\":4162:4168   */\n      dup4\n        /* \"#utility.yul\":4158:4188   */\n      add\n        /* \"#utility.yul\":4211:4214   */\n      dup6\n        /* \"#utility.yul\":4203:4209   */\n      dup2\n        /* \"#utility.yul\":4200:4215   */\n      gt\n        /* \"#utility.yul\":4197:4319   */\n      iszero\n      tag_168\n      jumpi\n        /* \"#utility.yul\":4230:4309   */\n      tag_169\n      tag_105\n      jump\t// in\n    tag_169:\n        /* \"#utility.yul\":4197:4319   */\n    tag_168:\n        /* \"#utility.yul\":4345:4351   */\n      dup4\n        /* \"#utility.yul\":4328:4548   */\n    tag_170:\n        /* \"#utility.yul\":4362:4368   */\n      dup2\n        /* \"#utility.yul\":4357:4360   */\n      dup2\n        /* \"#utility.yul\":4354:4369   */\n      lt\n        /* \"#utility.yul\":4328:4548   */\n      iszero\n      tag_172\n      jumpi\n        /* \"#utility.yul\":4437:4440   */\n      dup1\n        /* \"#utility.yul\":4466:4503   */\n      tag_173\n        /* \"#utility.yul\":4499:4502   */\n      dup9\n        /* \"#utility.yul\":4487:4497   */\n      dup3\n        /* \"#utility.yul\":4466:4503   */\n      tag_93\n      jump\t// in\n    tag_173:\n        /* \"#utility.yul\":4461:4464   */\n      dup5\n        /* \"#utility.yul\":4454:4504   */\n      mstore\n        /* \"#utility.yul\":4533:4537   */\n      0x20\n        /* \"#utility.yul\":4528:4531   */\n      dup5\n        /* \"#utility.yul\":4524:4538   */\n      add\n        /* \"#utility.yul\":4517:4538   */\n      swap4\n      pop\n        /* \"#utility.yul\":4404:4548   */\n      pop\n        /* \"#utility.yul\":4388:4392   */\n      0x20\n        /* \"#utility.yul\":4383:4386   */\n      dup2\n        /* \"#utility.yul\":4379:4393   */\n      add\n        /* \"#utility.yul\":4372:4393   */\n      swap1\n      pop\n        /* \"#utility.yul\":4328:4548   */\n      jump(tag_170)\n    tag_172:\n        /* \"#utility.yul\":4332:4353   */\n      pop\n        /* \"#utility.yul\":3946:4554   */\n      pop\n      pop\n        /* \"#utility.yul\":3844:4554   */\n      swap4\n      swap3\n      pop\n      pop\n      pop\n      jump\t// out\n        /* \"#utility.yul\":4577:4947   */\n    tag_107:\n        /* \"#utility.yul\":4648:4653   */\n      0x00\n        /* \"#utility.yul\":4697:4700   */\n      dup3\n        /* \"#utility.yul\":4690:4694   */\n      0x1f\n        /* \"#utility.yul\":4682:4688   */\n      dup4\n        /* \"#utility.yul\":4678:4695   */\n      add\n        /* \"#utility.yul\":4674:4701   */\n      slt\n        /* \"#utility.yul\":4664:4786   */\n      tag_175\n      jumpi\n        /* \"#utility.yul\":4705:4784   */\n      tag_176\n      tag_99\n      jump\t// in\n    tag_176:\n        /* \"#utility.yul\":4664:4786   */\n    tag_175:\n        /* \"#utility.yul\":4822:4828   */\n      dup2\n        /* \"#utility.yul\":4809:4829   */\n      calldataload\n        /* \"#utility.yul\":4847:4941   */\n      tag_177\n        /* \"#utility.yul\":4937:4940   */\n      dup5\n        /* \"#utility.yul\":4929:4935   */\n      dup3\n        /* \"#utility.yul\":4922:4926   */\n      0x20\n        /* \"#utility.yul\":4914:4920   */\n      dup7\n        /* \"#utility.yul\":4910:4927   */\n      add\n        /* \"#utility.yul\":4847:4941   */\n      tag_106\n      jump\t// in\n    tag_177:\n        /* \"#utility.yul\":4838:4941   */\n      swap2\n      pop\n        /* \"#utility.yul\":4654:4947   */\n      pop\n        /* \"#utility.yul\":4577:4947   */\n      swap3\n      swap2\n      pop\n      pop\n      jump\t// out\n        /* \"#utility.yul\":4953:5492   */\n    tag_28:\n        /* \"#utility.yul\":5037:5043   */\n      0x00\n        /* \"#utility.yul\":5086:5088   */\n      0x20\n        /* \"#utility.yul\":5074:5083   */\n      dup3\n        /* \"#utility.yul\":5065:5072   */\n      dup5\n        /* \"#utility.yul\":5061:5084   */\n      sub\n        /* \"#utility.yul\":5057:5089   */\n      slt\n        /* \"#utility.yul\":5054:5173   */\n      iszero\n      tag_179\n      jumpi\n        /* \"#utility.yul\":5092:5171   */\n      tag_180\n      tag_89\n      jump\t// in\n    tag_180:\n        /* \"#utility.yul\":5054:5173   */\n    tag_179:\n        /* \"#utility.yul\":5240:5241   */\n      0x00\n        /* \"#utility.yul\":5229:5238   */\n      dup3\n        /* \"#utility.yul\":5225:5242   */\n      add\n        /* \"#utility.yul\":5212:5243   */\n      calldataload\n        /* \"#utility.yul\":5270:5288   */\n      0xffffffffffffffff\n        /* \"#utility.yul\":5262:5268   */\n      dup2\n        /* \"#utility.yul\":5259:5289   */\n      gt\n        /* \"#utility.yul\":5256:5373   */\n      iszero\n      tag_181\n      jumpi\n        /* \"#utility.yul\":5292:5371   */\n      tag_182\n      tag_90\n      jump\t// in\n    tag_182:\n        /* \"#utility.yul\":5256:5373   */\n    tag_181:\n        /* \"#utility.yul\":5397:5475   */\n      tag_183\n        /* \"#utility.yul\":5467:5474   */\n      dup5\n        /* \"#utility.yul\":5458:5464   */\n      dup3\n        /* \"#utility.yul\":5447:5456   */\n      dup6\n        /* \"#utility.yul\":5443:5465   */\n      add\n        /* \"#utility.yul\":5397:5475   */\n      tag_107\n      jump\t// in\n    tag_183:\n        /* \"#utility.yul\":5387:5475   */\n      swap2\n      pop\n        /* \"#utility.yul\":5183:5485   */\n      pop\n        /* \"#utility.yul\":4953:5492   */\n      swap3\n      swap2\n      pop\n      pop\n      jump\t// out\n        /* \"#utility.yul\":5498:5612   */\n    tag_108:\n        /* \"#utility.yul\":5565:5571   */\n      0x00\n        /* \"#utility.yul\":5599:5604   */\n      dup2\n        /* \"#utility.yul\":5593:5605   */\n      mload\n        /* \"#utility.yul\":5583:5605   */\n      swap1\n      pop\n        /* \"#utility.yul\":5498:5612   */\n      swap2\n      swap1\n      pop\n      jump\t// out\n        /* \"#utility.yul\":5618:5802   */\n    tag_109:\n        /* \"#utility.yul\":5717:5728   */\n      0x00\n        /* \"#utility.yul\":5751:5757   */\n      dup3\n        /* \"#utility.yul\":5746:5749   */\n      dup3\n        /* \"#utility.yul\":5739:5758   */\n      mstore\n        /* \"#utility.yul\":5791:5795   */\n      0x20\n        /* \"#utility.yul\":5786:5789   */\n      dup3\n        /* \"#utility.yul\":5782:5796   */\n      add\n        /* \"#utility.yul\":5767:5796   */\n      swap1\n      pop\n        /* \"#utility.yul\":5618:5802   */\n      swap3\n      swap2\n      pop\n      pop\n      jump\t// out\n        /* \"#utility.yul\":5808:5940   */\n    tag_110:\n        /* \"#utility.yul\":5875:5879   */\n      0x00\n        /* \"#utility.yul\":5898:5901   */\n      dup2\n        /* \"#utility.yul\":5890:5901   */\n      swap1\n      pop\n        /* \"#utility.yul\":5928:5932   */\n      0x20\n        /* \"#utility.yul\":5923:5926   */\n      dup3\n        /* \"#utility.yul\":5919:5933   */\n      add\n        /* \"#utility.yul\":5911:5933   */\n      swap1\n      pop\n        /* \"#utility.yul\":5808:5940   */\n      swap2\n      swap1\n      pop\n      jump\t// out\n        /* \"#utility.yul\":5946:6054   */\n    tag_111:\n        /* \"#utility.yul\":6023:6047   */\n      tag_188\n        /* \"#utility.yul\":6041:6046   */\n      dup2\n        /* \"#utility.yul\":6023:6047   */\n      tag_91\n      jump\t// in\n    tag_188:\n        /* \"#utility.yul\":6018:6021   */\n      dup3\n        /* \"#utility.yul\":6011:6048   */\n      mstore\n        /* \"#utility.yul\":5946:6054   */\n      pop\n      pop\n      jump\t// out\n        /* \"#utility.yul\":6060:6239   */\n    tag_112:\n        /* \"#utility.yul\":6129:6139   */\n      0x00\n        /* \"#utility.yul\":6150:6196   */\n      tag_190\n        /* \"#utility.yul\":6192:6195   */\n      dup4\n        /* \"#utility.yul\":6184:6190   */\n      dup4\n        /* \"#utility.yul\":6150:6196   */\n      tag_111\n      jump\t// in\n    tag_190:\n        /* \"#utility.yul\":6228:6232   */\n      0x20\n        /* \"#utility.yul\":6223:6226   */\n      dup4\n        /* \"#utility.yul\":6219:6233   */\n      add\n        /* \"#utility.yul\":6205:6233   */\n      swap1\n      pop\n        /* \"#utility.yul\":6060:6239   */\n      swap3\n      swap2\n      pop\n      pop\n      jump\t// out\n        /* \"#utility.yul\":6245:6358   */\n    tag_113:\n        /* \"#utility.yul\":6315:6319   */\n      0x00\n        /* \"#utility.yul\":6347:6351   */\n      0x20\n        /* \"#utility.yul\":6342:6345   */\n      dup3\n        /* \"#utility.yul\":6338:6352   */\n      add\n        /* \"#utility.yul\":6330:6352   */\n      swap1\n      pop\n        /* \"#utility.yul\":6245:6358   */\n      swap2\n      swap1\n      pop\n      jump\t// out\n        /* \"#utility.yul\":6394:7126   */\n    tag_114:\n        /* \"#utility.yul\":6513:6516   */\n      0x00\n        /* \"#utility.yul\":6542:6596   */\n      tag_193\n        /* \"#utility.yul\":6590:6595   */\n      dup3\n        /* \"#utility.yul\":6542:6596   */\n      tag_108\n      jump\t// in\n    tag_193:\n        /* \"#utility.yul\":6612:6698   */\n      tag_194\n        /* \"#utility.yul\":6691:6697   */\n      dup2\n        /* \"#utility.yul\":6686:6689   */\n      dup6\n        /* \"#utility.yul\":6612:6698   */\n      tag_109\n      jump\t// in\n    tag_194:\n        /* \"#utility.yul\":6605:6698   */\n      swap4\n      pop\n        /* \"#utility.yul\":6722:6778   */\n      tag_195\n        /* \"#utility.yul\":6772:6777   */\n      dup4\n        /* \"#utility.yul\":6722:6778   */\n      tag_110\n      jump\t// in\n    tag_195:\n        /* \"#utility.yul\":6801:6808   */\n      dup1\n        /* \"#utility.yul\":6832:6833   */\n      0x00\n        /* \"#utility.yul\":6817:7101   */\n    tag_196:\n        /* \"#utility.yul\":6842:6848   */\n      dup4\n        /* \"#utility.yul\":6839:6840   */\n      dup2\n        /* \"#utility.yul\":6836:6849   */\n      lt\n        /* \"#utility.yul\":6817:7101   */\n      iszero\n      tag_198\n      jumpi\n        /* \"#utility.yul\":6918:6924   */\n      dup2\n        /* \"#utility.yul\":6912:6925   */\n      mload\n        /* \"#utility.yul\":6945:7008   */\n      tag_199\n        /* \"#utility.yul\":7004:7007   */\n      dup9\n        /* \"#utility.yul\":6989:7002   */\n      dup3\n        /* \"#utility.yul\":6945:7008   */\n      tag_112\n      jump\t// in\n    tag_199:\n        /* \"#utility.yul\":6938:7008   */\n      swap8\n      pop\n        /* \"#utility.yul\":7031:7091   */\n      tag_200\n        /* \"#utility.yul\":7084:7090   */\n      dup4\n        /* \"#utility.yul\":7031:7091   */\n      tag_113\n      jump\t// in\n    tag_200:\n        /* \"#utility.yul\":7021:7091   */\n      swap3\n      pop\n        /* \"#utility.yul\":6877:7101   */\n      pop\n        /* \"#utility.yul\":6864:6865   */\n      0x01\n        /* \"#utility.yul\":6861:6862   */\n      dup2\n        /* \"#utility.yul\":6857:6866   */\n      add\n        /* \"#utility.yul\":6852:6866   */\n      swap1\n      pop\n        /* \"#utility.yul\":6817:7101   */\n      jump(tag_196)\n    tag_198:\n        /* \"#utility.yul\":6821:6835   */\n      pop\n        /* \"#utility.yul\":7117:7120   */\n      dup6\n        /* \"#utility.yul\":7110:7120   */\n      swap4\n      pop\n        /* \"#utility.yul\":6518:7126   */\n      pop\n      pop\n      pop\n        /* \"#utility.yul\":6394:7126   */\n      swap3\n      swap2\n      pop\n      pop\n      jump\t// out\n        /* \"#utility.yul\":7132:7505   */\n    tag_31:\n        /* \"#utility.yul\":7275:7279   */\n      0x00\n        /* \"#utility.yul\":7313:7315   */\n      0x20\n        /* \"#utility.yul\":7302:7311   */\n      dup3\n        /* \"#utility.yul\":7298:7316   */\n      add\n        /* \"#utility.yul\":7290:7316   */\n      swap1\n      pop\n        /* \"#utility.yul\":7362:7371   */\n      dup2\n        /* \"#utility.yul\":7356:7360   */\n      dup2\n        /* \"#utility.yul\":7352:7372   */\n      sub\n        /* \"#utility.yul\":7348:7349   */\n      0x00\n        /* \"#utility.yul\":7337:7346   */\n      dup4\n        /* \"#utility.yul\":7333:7350   */\n      add\n        /* \"#utility.yul\":7326:7373   */\n      mstore\n        /* \"#utility.yul\":7390:7498   */\n      tag_202\n        /* \"#utility.yul\":7493:7497   */\n      dup2\n        /* \"#utility.yul\":7484:7490   */\n      dup5\n        /* \"#utility.yul\":7390:7498   */\n      tag_114\n      jump\t// in\n    tag_202:\n        /* \"#utility.yul\":7382:7498   */\n      swap1\n      pop\n        /* \"#utility.yul\":7132:7505   */\n      swap3\n      swap2\n      pop\n      pop\n      jump\t// out\n        /* \"#utility.yul\":7511:7840   */\n    tag_34:\n        /* \"#utility.yul\":7570:7576   */\n      0x00\n        /* \"#utility.yul\":7619:7621   */\n      0x20\n        /* \"#utility.yul\":7607:7616   */\n      dup3\n        /* \"#utility.yul\":7598:7605   */\n      dup5\n        /* \"#utility.yul\":7594:7617   */\n      sub\n        /* \"#utility.yul\":7590:7622   */\n      slt\n        /* \"#utility.yul\":7587:7706   */\n      iszero\n      tag_204\n      jumpi\n        /* \"#utility.yul\":7625:7704   */\n      tag_205\n      tag_89\n      jump\t// in\n    tag_205:\n        /* \"#utility.yul\":7587:7706   */\n    tag_204:\n        /* \"#utility.yul\":7745:7746   */\n      0x00\n        /* \"#utility.yul\":7770:7823   */\n      tag_206\n        /* \"#utility.yul\":7815:7822   */\n      dup5\n        /* \"#utility.yul\":7806:7812   */\n      dup3\n        /* \"#utility.yul\":7795:7804   */\n      dup6\n        /* \"#utility.yul\":7791:7813   */\n      add\n        /* \"#utility.yul\":7770:7823   */\n      tag_93\n      jump\t// in\n    tag_206:\n        /* \"#utility.yul\":7760:7823   */\n      swap2\n      pop\n        /* \"#utility.yul\":7716:7833   */\n      pop\n        /* \"#utility.yul\":7511:7840   */\n      swap3\n      swap2\n      pop\n      pop\n      jump\t// out\n        /* \"#utility.yul\":7846:7936   */\n    tag_115:\n        /* \"#utility.yul\":7880:7887   */\n      0x00\n        /* \"#utility.yul\":7923:7928   */\n      dup2\n        /* \"#utility.yul\":7916:7929   */\n      iszero\n        /* \"#utility.yul\":7909:7930   */\n      iszero\n        /* \"#utility.yul\":7898:7930   */\n      swap1\n      pop\n        /* \"#utility.yul\":7846:7936   */\n      swap2\n      swap1\n      pop\n      jump\t// out\n        /* \"#utility.yul\":7942:8051   */\n    tag_116:\n        /* \"#utility.yul\":8023:8044   */\n      tag_209\n        /* \"#utility.yul\":8038:8043   */\n      dup2\n        /* \"#utility.yul\":8023:8044   */\n      tag_115\n      jump\t// in\n    tag_209:\n        /* \"#utility.yul\":8018:8021   */\n      dup3\n        /* \"#utility.yul\":8011:8045   */\n      mstore\n        /* \"#utility.yul\":7942:8051   */\n      pop\n      pop\n      jump\t// out\n        /* \"#utility.yul\":8057:8267   */\n    tag_37:\n        /* \"#utility.yul\":8144:8148   */\n      0x00\n        /* \"#utility.yul\":8182:8184   */\n      0x20\n        /* \"#utility.yul\":8171:8180   */\n      dup3\n        /* \"#utility.yul\":8167:8185   */\n      add\n        /* \"#utility.yul\":8159:8185   */\n      swap1\n      pop\n        /* \"#utility.yul\":8195:8260   */\n      tag_211\n        /* \"#utility.yul\":8257:8258   */\n      0x00\n        /* \"#utility.yul\":8246:8255   */\n      dup4\n        /* \"#utility.yul\":8242:8259   */\n      add\n        /* \"#utility.yul\":8233:8239   */\n      dup5\n        /* \"#utility.yul\":8195:8260   */\n      tag_116\n      jump\t// in\n    tag_211:\n        /* \"#utility.yul\":8057:8267   */\n      swap3\n      swap2\n      pop\n      pop\n      jump\t// out\n        /* \"#utility.yul\":8273:8453   */\n    tag_117:\n        /* \"#utility.yul\":8321:8398   */\n      0x4e487b7100000000000000000000000000000000000000000000000000000000\n        /* \"#utility.yul\":8318:8319   */\n      0x00\n        /* \"#utility.yul\":8311:8399   */\n      mstore\n        /* \"#utility.yul\":8418:8422   */\n      0x11\n        /* \"#utility.yul\":8415:8416   */\n      0x04\n        /* \"#utility.yul\":8408:8423   */\n      mstore\n        /* \"#utility.yul\":8442:8446   */\n      0x24\n        /* \"#utility.yul\":8439:8440   */\n      0x00\n        /* \"#utility.yul\":8432:8447   */\n      revert\n        /* \"#utility.yul\":8459:8692   */\n    tag_53:\n        /* \"#utility.yul\":8498:8501   */\n      0x00\n        /* \"#utility.yul\":8521:8545   */\n      tag_214\n        /* \"#utility.yul\":8539:8544   */\n      dup3\n        /* \"#utility.yul\":8521:8545   */\n      tag_91\n      jump\t// in\n    tag_214:\n        /* \"#utility.yul\":8512:8545   */\n      swap2\n      pop\n        /* \"#utility.yul\":8567:8633   */\n      0xffffffffffffffffffffffffffffffffffffffffffffffffffffffffffffffff\n        /* \"#utility.yul\":8560:8565   */\n      dup3\n        /* \"#utility.yul\":8557:8634   */\n      sub\n        /* \"#utility.yul\":8554:8657   */\n      tag_215\n      jumpi\n        /* \"#utility.yul\":8637:8655   */\n      tag_216\n      tag_117\n      jump\t// in\n    tag_216:\n        /* \"#utility.yul\":8554:8657   */\n    tag_215:\n        /* \"#utility.yul\":8684:8685   */\n      0x01\n        /* \"#utility.yul\":8677:8682   */\n      dup3\n        /* \"#utility.yul\":8673:8686   */\n      add\n        /* \"#utility.yul\":8666:8686   */\n      swap1\n      pop\n        /* \"#utility.yul\":8459:8692   */\n      swap2\n      swap1\n      pop\n      jump\t// out\n        /* \"#utility.yul\":8698:8878   */\n    tag_60:\n        /* \"#utility.yul\":8746:8823   */\n      0x4e487b7100000000000000000000000000000000000000000000000000000000\n        /* \"#utility.yul\":8743:8744   */\n      0x00\n        /* \"#utility.yul\":8736:8824   */\n      mstore\n        /* \"#utility.yul\":8843:8847   */\n      0x32\n        /* \"#utility.yul\":8840:8841   */\n      0x04\n        /* \"#utility.yul\":8833:8848   */\n      mstore\n        /* \"#utility.yul\":8867:8871   */\n      0x24\n        /* \"#utility.yul\":8864:8865   */\n      0x00\n        /* \"#utility.yul\":8857:8872   */\n      revert\n        /* \"#utility.yul\":8884:9078   */\n    tag_65:\n        /* \"#utility.yul\":8924:8928   */\n      0x00\n        /* \"#utility.yul\":8944:8964   */\n      tag_219\n        /* \"#utility.yul\":8962:8963   */\n      dup3\n        /* \"#utility.yul\":8944:8964   */\n      tag_91\n      jump\t// in\n    tag_219:\n        /* \"#utility.yul\":8939:8964   */\n      swap2\n      pop\n        /* \"#utility.yul\":8978:8998   */\n      tag_220\n        /* \"#utility.yul\":8996:8997   */\n      dup4\n        /* \"#utility.yul\":8978:8998   */\n      tag_91\n      jump\t// in\n    tag_220:\n        /* \"#utility.yul\":8973:8998   */\n      swap3\n      pop\n        /* \"#utility.yul\":9022:9023   */\n      dup3\n        /* \"#utility.yul\":9019:9020   */\n      dup3\n        /* \"#utility.yul\":9015:9024   */\n      sub\n        /* \"#utility.yul\":9007:9024   */\n      swap1\n      pop\n        /* \"#utility.yul\":9046:9047   */\n      dup2\n        /* \"#utility.yul\":9040:9044   */\n      dup2\n        /* \"#utility.yul\":9037:9048   */\n      gt\n        /* \"#utility.yul\":9034:9071   */\n      iszero\n      tag_221\n      jumpi\n        /* \"#utility.yul\":9051:9069   */\n      tag_222\n      tag_117\n      jump\t// in\n    tag_222:\n        /* \"#utility.yul\":9034:9071   */\n    tag_221:\n        /* \"#utility.yul\":8884:9078   */\n      swap3\n      swap2\n      pop\n      pop\n      jump\t// out\n        /* \"#utility.yul\":9084:9255   */\n    tag_74:\n        /* \"#utility.yul\":9123:9126   */\n      0x00\n        /* \"#utility.yul\":9146:9170   */\n      tag_224\n        /* \"#utility.yul\":9164:9169   */\n      dup3\n        /* \"#utility.yul\":9146:9170   */\n      tag_91\n      jump\t// in\n    tag_224:\n        /* \"#utility.yul\":9137:9170   */\n      swap2\n      pop\n        /* \"#utility.yul\":9192:9196   */\n      0x00\n        /* \"#utility.yul\":9185:9190   */\n      dup3\n        /* \"#utility.yul\":9182:9197   */\n      sub\n        /* \"#utility.yul\":9179:9220   */\n      tag_225\n      jumpi\n        /* \"#utility.yul\":9200:9218   */\n      tag_226\n      tag_117\n      jump\t// in\n    tag_226:\n        /* \"#utility.yul\":9179:9220   */\n    tag_225:\n        /* \"#utility.yul\":9247:9248   */\n      0x01\n        /* \"#utility.yul\":9240:9245   */\n      dup3\n        /* \"#utility.yul\":9236:9249   */\n      sub\n        /* \"#utility.yul\":9229:9249   */\n      swap1\n      pop\n        /* \"#utility.yul\":9084:9255   */\n      swap2\n      swap1\n      pop\n      jump\t// out\n        /* \"#utility.yul\":9261:9452   */\n    tag_85:\n        /* \"#utility.yul\":9301:9304   */\n      0x00\n        /* \"#utility.yul\":9320:9340   */\n      tag_228\n        /* \"#utility.yul\":9338:9339   */\n      dup3\n        /* \"#utility.yul\":9320:9340   */\n      tag_91\n      jump\t// in\n    tag_228:\n        /* \"#utility.yul\":9315:9340   */\n      swap2\n      pop\n        /* \"#utility.yul\":9354:9374   */\n      tag_229\n        /* \"#utility.yul\":9372:9373   */\n      dup4\n        /* \"#utility.yul\":9354:9374   */\n      tag_91\n      jump\t// in\n    tag_229:\n        /* \"#utility.yul\":9349:9374   */\n      swap3\n      pop\n        /* \"#utility.yul\":9397:9398   */\n      dup3\n        /* \"#utility.yul\":9394:9395   */\n      dup3\n        /* \"#utility.yul\":9390:9399   */\n      add\n        /* \"#utility.yul\":9383:9399   */\n      swap1\n      pop\n        /* \"#utility.yul\":9418:9421   */\n      dup1\n        /* \"#utility.yul\":9415:9416   */\n      dup3\n        /* \"#utility.yul\":9412:9422   */\n      gt\n        /* \"#utility.yul\":9409:9445   */\n      iszero\n      tag_230\n      jumpi\n        /* \"#utility.yul\":9425:9443   */\n      tag_231\n      tag_117\n      jump\t// in\n    tag_231:\n        /* \"#utility.yul\":9409:9445   */\n    tag_230:\n        /* \"#utility.yul\":9261:9452   */\n      swap3\n      swap2\n      pop\n      pop\n      jump\t// out\n\n    auxdata: 0xa2646970667358221220d9ddbb1b3461d5a27ed9a8a0643bf7643e07e8559c55c0dba385f4bae1cc3c4364736f6c634300081a0033\n}\n",
				"bytecode": {
					"linkReferences": {},
					"object": "6080604052348015600e575f80fd5b506108b98061001c5f395ff3fe608060405234801561000f575f80fd5b506004361061007b575f3560e01c80636297206f116100595780636297206f146100fd5780637141fb001461012d578063b0cfa9fc1461015d578063b3de648b1461017b5761007b565b8063287663201461007f5780633120d434146100af5780635d14639d146100df575b5f80fd5b6100996004803603810190610094919061039a565b6101ab565b6040516100a691906103e7565b60405180910390f35b6100c960048036038101906100c49190610436565b6101c4565b6040516100d69190610470565b60405180910390f35b6100e76101cd565b6040516100f491906103e7565b60405180910390f35b610117600480360381019061011291906105d9565b6101f6565b60405161012491906106d7565b60405180910390f35b610147600480360381019061014291906106f7565b6102f6565b604051610154919061073c565b60405180910390f35b610165610310565b60405161017291906103e7565b60405180910390f35b610195600480360381019061019091906106f7565b61034d565b6040516101a291906103e7565b60405180910390f35b5f818310156101ba57816101bc565b825b905092915050565b5f819050919050565b5f805f90505b600a8110156101ef5780806101e790610782565b9150506101d3565b8091505090565b60605f600190505b82518110156102ed575f83828151811061021b5761021a6107c9565b5b602002602001015190505f8290505b6001811015801561026057508460018261024491906107f6565b81518110610255576102546107c9565b5b602002602001015182105b156102be578460018261027391906107f6565b81518110610284576102836107c9565b5b602002602001015185828151811061029f5761029e6107c9565b5b60200260200101818152505080806102b690610829565b91505061022a565b818582815181106102d2576102d16107c9565b5b602002602001018181525050505080806001019150506101fe565b50819050919050565b5f808203610307576001905061030b565b5f90505b919050565b5f80600190505f600190505b600a81116103455780826103309190610850565b9150808061033d90610782565b91505061031c565b508091505090565b5f819050919050565b5f604051905090565b5f80fd5b5f80fd5b5f819050919050565b61037981610367565b8114610383575f80fd5b50565b5f8135905061039481610370565b92915050565b5f80604083850312156103b0576103af61035f565b5b5f6103bd85828601610386565b92505060206103ce85828601610386565b9150509250929050565b6103e181610367565b82525050565b5f6020820190506103fa5f8301846103d8565b92915050565b5f60ff82169050919050565b61041581610400565b811461041f575f80fd5b50565b5f813590506104308161040c565b92915050565b5f6020828403121561044b5761044a61035f565b5b5f61045884828501610422565b91505092915050565b61046a81610400565b82525050565b5f6020820190506104835f830184610461565b92915050565b5f80fd5b5f601f19601f8301169050919050565b7f4e487b71000000000000000000000000000000000000000000000000000000005f52604160045260245ffd5b6104d38261048d565b810181811067ffffffffffffffff821117156104f2576104f161049d565b5b80604052505050565b5f610504610356565b905061051082826104ca565b919050565b5f67ffffffffffffffff82111561052f5761052e61049d565b5b602082029050602081019050919050565b5f80fd5b5f61055661055184610515565b6104fb565b9050808382526020820190506020840283018581111561057957610578610540565b5b835b818110156105a2578061058e8882610386565b84526020840193505060208101905061057b565b5050509392505050565b5f82601f8301126105c0576105bf610489565b5b81356105d0848260208601610544565b91505092915050565b5f602082840312156105ee576105ed61035f565b5b5f82013567ffffffffffffffff81111561060b5761060a610363565b5b610617848285016105ac565b91505092915050565b5f81519050919050565b5f82825260208201905092915050565b5f819050602082019050919050565b61065281610367565b82525050565b5f6106638383610649565b60208301905092915050565b5f602082019050919050565b5f61068582610620565b61068f818561062a565b935061069a8361063a565b805f5b838110156106ca5781516106b18882610658565b97506106bc8361066f565b92505060018101905061069d565b5085935050505092915050565b5f6020820190508181035f8301526106ef818461067b565b905092915050565b5f6020828403121561070c5761070b61035f565b5b5f61071984828501610386565b91505092915050565b5f8115159050919050565b61073681610722565b82525050565b5f60208201905061074f5f83018461072d565b92915050565b7f4e487b71000000000000000000000000000000000000000000000000000000005f52601160045260245ffd5b5f61078c82610367565b91507fffffffffffffffffffffffffffffffffffffffffffffffffffffffffffffffff82036107be576107bd610755565b5b600182019050919050565b7f4e487b71000000000000000000000000000000000000000000000000000000005f52603260045260245ffd5b5f61080082610367565b915061080b83610367565b925082820390508181111561082357610822610755565b5b92915050565b5f61083382610367565b91505f820361084557610844610755565b5b600182039050919050565b5f61085a82610367565b915061086583610367565b925082820190508082111561087d5761087c610755565b5b9291505056fea2646970667358221220d9ddbb1b3461d5a27ed9a8a0643bf7643e07e8559c55c0dba385f4bae1cc3c4364736f6c634300081a0033",
					"opcodes": "PUSH1 0x80 PUSH1 0x40 MSTORE CALLVALUE DUP1 ISZERO PUSH1 0xE JUMPI PUSH0 DUP1 REVERT JUMPDEST POP PUSH2 0x8B9 DUP1 PUSH2 0x1C PUSH0 CODECOPY PUSH0 RETURN INVALID PUSH1 0x80 PUSH1 0x40 MSTORE CALLVALUE DUP1 ISZERO PUSH2 0xF JUMPI PUSH0 DUP1 REVERT JUMPDEST POP PUSH1 0x4 CALLDATASIZE LT PUSH2 0x7B JUMPI PUSH0 CALLDATALOAD PUSH1 0xE0 SHR DUP1 PUSH4 0x6297206F GT PUSH2 0x59 JUMPI DUP1 PUSH4 0x6297206F EQ PUSH2 0xFD JUMPI DUP1 PUSH4 0x7141FB00 EQ PUSH2 0x12D JUMPI DUP1 PUSH4 0xB0CFA9FC EQ PUSH2 0x15D JUMPI DUP1 PUSH4 0xB3DE648B EQ PUSH2 0x17B JUMPI PUSH2 0x7B JUMP JUMPDEST DUP1 PUSH4 0x28766320 EQ PUSH2 0x7F JUMPI DUP1 PUSH4 0x3120D434 EQ PUSH2 0xAF JUMPI DUP1 PUSH4 0x5D14639D EQ PUSH2 0xDF JUMPI JUMPDEST PUSH0 DUP1 REVERT JUMPDEST PUSH2 0x99 PUSH1 0x4 DUP1 CALLDATASIZE SUB DUP2 ADD SWAP1 PUSH2 0x94 SWAP2 SWAP1 PUSH2 0x39A JUMP JUMPDEST PUSH2 0x1AB JUMP JUMPDEST PUSH1 0x40 MLOAD PUSH2 0xA6 SWAP2 SWAP1 PUSH2 0x3E7 JUMP JUMPDEST PUSH1 0x40 MLOAD DUP1 SWAP2 SUB SWAP1 RETURN JUMPDEST PUSH2 0xC9 PUSH1 0x4 DUP1 CALLDATASIZE SUB DUP2 ADD SWAP1 PUSH2 0xC4 SWAP2 SWAP1 PUSH2 0x436 JUMP JUMPDEST PUSH2 0x1C4 JUMP JUMPDEST PUSH1 0x40 MLOAD PUSH2 0xD6 SWAP2 SWAP1 PUSH2 0x470 JUMP JUMPDEST PUSH1 0x40 MLOAD DUP1 SWAP2 SUB SWAP1 RETURN JUMPDEST PUSH2 0xE7 PUSH2 0x1CD JUMP JUMPDEST PUSH1 0x40 MLOAD PUSH2 0xF4 SWAP2 SWAP1 PUSH2 0x3E7 JUMP JUMPDEST PUSH1 0x40 MLOAD DUP1 SWAP2 SUB SWAP1 RETURN JUMPDEST PUSH2 0x117 PUSH1 0x4 DUP1 CALLDATASIZE SUB DUP2 ADD SWAP1 PUSH2 0x112 SWAP2 SWAP1 PUSH2 0x5D9 JUMP JUMPDEST PUSH2 0x1F6 JUMP JUMPDEST PUSH1 0x40 MLOAD PUSH2 0x124 SWAP2 SWAP1 PUSH2 0x6D7 JUMP JUMPDEST PUSH1 0x40 MLOAD DUP1 SWAP2 SUB SWAP1 RETURN JUMPDEST PUSH2 0x147 PUSH1 0x4 DUP1 CALLDATASIZE SUB DUP2 ADD SWAP1 PUSH2 0x142 SWAP2 SWAP1 PUSH2 0x6F7 JUMP JUMPDEST PUSH2 0x2F6 JUMP JUMPDEST PUSH1 0x40 MLOAD PUSH2 0x154 SWAP2 SWAP1 PUSH2 0x73C JUMP JUMPDEST PUSH1 0x40 MLOAD DUP1 SWAP2 SUB SWAP1 RETURN JUMPDEST PUSH2 0x165 PUSH2 0x310 JUMP JUMPDEST PUSH1 0x40 MLOAD PUSH2 0x172 SWAP2 SWAP1 PUSH2 0x3E7 JUMP JUMPDEST PUSH1 0x40 MLOAD DUP1 SWAP2 SUB SWAP1 RETURN JUMPDEST PUSH2 0x195 PUSH1 0x4 DUP1 CALLDATASIZE SUB DUP2 ADD SWAP1 PUSH2 0x190 SWAP2 SWAP1 PUSH2 0x6F7 JUMP JUMPDEST PUSH2 0x34D JUMP JUMPDEST PUSH1 0x40 MLOAD PUSH2 0x1A2 SWAP2 SWAP1 PUSH2 0x3E7 JUMP JUMPDEST PUSH1 0x40 MLOAD DUP1 SWAP2 SUB SWAP1 RETURN JUMPDEST PUSH0 DUP2 DUP4 LT ISZERO PUSH2 0x1BA JUMPI DUP2 PUSH2 0x1BC JUMP JUMPDEST DUP3 JUMPDEST SWAP1 POP SWAP3 SWAP2 POP POP JUMP JUMPDEST PUSH0 DUP2 SWAP1 POP SWAP2 SWAP1 POP JUMP JUMPDEST PUSH0 DUP1 PUSH0 SWAP1 POP JUMPDEST PUSH1 0xA DUP2 LT ISZERO PUSH2 0x1EF JUMPI DUP1 DUP1 PUSH2 0x1E7 SWAP1 PUSH2 0x782 JUMP JUMPDEST SWAP2 POP POP PUSH2 0x1D3 JUMP JUMPDEST DUP1 SWAP2 POP POP SWAP1 JUMP JUMPDEST PUSH1 0x60 PUSH0 PUSH1 0x1 SWAP1 POP JUMPDEST DUP3 MLOAD DUP2 LT ISZERO PUSH2 0x2ED JUMPI PUSH0 DUP4 DUP3 DUP2 MLOAD DUP2 LT PUSH2 0x21B JUMPI PUSH2 0x21A PUSH2 0x7C9 JUMP JUMPDEST JUMPDEST PUSH1 0x20 MUL PUSH1 0x20 ADD ADD MLOAD SWAP1 POP PUSH0 DUP3 SWAP1 POP JUMPDEST PUSH1 0x1 DUP2 LT ISZERO DUP1 ISZERO PUSH2 0x260 JUMPI POP DUP5 PUSH1 0x1 DUP3 PUSH2 0x244 SWAP2 SWAP1 PUSH2 0x7F6 JUMP JUMPDEST DUP2 MLOAD DUP2 LT PUSH2 0x255 JUMPI PUSH2 0x254 PUSH2 0x7C9 JUMP JUMPDEST JUMPDEST PUSH1 0x20 MUL PUSH1 0x20 ADD ADD MLOAD DUP3 LT JUMPDEST ISZERO PUSH2 0x2BE JUMPI DUP5 PUSH1 0x1 DUP3 PUSH2 0x273 SWAP2 SWAP1 PUSH2 0x7F6 JUMP JUMPDEST DUP2 MLOAD DUP2 LT PUSH2 0x284 JUMPI PUSH2 0x283 PUSH2 0x7C9 JUMP JUMPDEST JUMPDEST PUSH1 0x20 MUL PUSH1 0x20 ADD ADD MLOAD DUP6 DUP3 DUP2 MLOAD DUP2 LT PUSH2 0x29F JUMPI PUSH2 0x29E PUSH2 0x7C9 JUMP JUMPDEST JUMPDEST PUSH1 0x20 MUL PUSH1 0x20 ADD ADD DUP2 DUP2 MSTORE POP POP DUP1 DUP1 PUSH2 0x2B6 SWAP1 PUSH2 0x829 JUMP JUMPDEST SWAP2 POP POP PUSH2 0x22A JUMP JUMPDEST DUP2 DUP6 DUP3 DUP2 MLOAD DUP2 LT PUSH2 0x2D2 JUMPI PUSH2 0x2D1 PUSH2 0x7C9 JUMP JUMPDEST JUMPDEST PUSH1 0x20 MUL PUSH1 0x20 ADD ADD DUP2 DUP2 MSTORE POP POP POP POP DUP1 DUP1 PUSH1 0x1 ADD SWAP2 POP POP PUSH2 0x1FE JUMP JUMPDEST POP DUP2 SWAP1 POP SWAP2 SWAP1 POP JUMP JUMPDEST PUSH0 DUP1 DUP3 SUB PUSH2 0x307 JUMPI PUSH1 0x1 SWAP1 POP PUSH2 0x30B JUMP JUMPDEST PUSH0 SWAP1 POP JUMPDEST SWAP2 SWAP1 POP JUMP JUMPDEST PUSH0 DUP1 PUSH1 0x1 SWAP1 POP PUSH0 PUSH1 0x1 SWAP1 POP JUMPDEST PUSH1 0xA DUP2 GT PUSH2 0x345 JUMPI DUP1 DUP3 PUSH2 0x330 SWAP2 SWAP1 PUSH2 0x850 JUMP JUMPDEST SWAP2 POP DUP1 DUP1 PUSH2 0x33D SWAP1 PUSH2 0x782 JUMP JUMPDEST SWAP2 POP POP PUSH2 0x31C JUMP JUMPDEST POP DUP1 SWAP2 POP POP SWAP1 JUMP JUMPDEST PUSH0 DUP2 SWAP1 POP SWAP2 SWAP1 POP JUMP JUMPDEST PUSH0 PUSH1 0x40 MLOAD SWAP1 POP SWAP1 JUMP JUMPDEST PUSH0 DUP1 REVERT JUMPDEST PUSH0 DUP1 REVERT JUMPDEST PUSH0 DUP2 SWAP1 POP SWAP2 SWAP1 POP JUMP JUMPDEST PUSH2 0x379 DUP2 PUSH2 0x367 JUMP JUMPDEST DUP2 EQ PUSH2 0x383 JUMPI PUSH0 DUP1 REVERT JUMPDEST POP JUMP JUMPDEST PUSH0 DUP2 CALLDATALOAD SWAP1 POP PUSH2 0x394 DUP2 PUSH2 0x370 JUMP JUMPDEST SWAP3 SWAP2 POP POP JUMP JUMPDEST PUSH0 DUP1 PUSH1 0x40 DUP4 DUP6 SUB SLT ISZERO PUSH2 0x3B0 JUMPI PUSH2 0x3AF PUSH2 0x35F JUMP JUMPDEST JUMPDEST PUSH0 PUSH2 0x3BD DUP6 DUP3 DUP7 ADD PUSH2 0x386 JUMP JUMPDEST SWAP3 POP POP PUSH1 0x20 PUSH2 0x3CE DUP6 DUP3 DUP7 ADD PUSH2 0x386 JUMP JUMPDEST SWAP2 POP POP SWAP3 POP SWAP3 SWAP1 POP JUMP JUMPDEST PUSH2 0x3E1 DUP2 PUSH2 0x367 JUMP JUMPDEST DUP3 MSTORE POP POP JUMP JUMPDEST PUSH0 PUSH1 0x20 DUP3 ADD SWAP1 POP PUSH2 0x3FA PUSH0 DUP4 ADD DUP5 PUSH2 0x3D8 JUMP JUMPDEST SWAP3 SWAP2 POP POP JUMP JUMPDEST PUSH0 PUSH1 0xFF DUP3 AND SWAP1 POP SWAP2 SWAP1 POP JUMP JUMPDEST PUSH2 0x415 DUP2 PUSH2 0x400 JUMP JUMPDEST DUP2 EQ PUSH2 0x41F JUMPI PUSH0 DUP1 REVERT JUMPDEST POP JUMP JUMPDEST PUSH0 DUP2 CALLDATALOAD SWAP1 POP PUSH2 0x430 DUP2 PUSH2 0x40C JUMP JUMPDEST SWAP3 SWAP2 POP POP JUMP JUMPDEST PUSH0 PUSH1 0x20 DUP3 DUP5 SUB SLT ISZERO PUSH2 0x44B JUMPI PUSH2 0x44A PUSH2 0x35F JUMP JUMPDEST JUMPDEST PUSH0 PUSH2 0x458 DUP5 DUP3 DUP6 ADD PUSH2 0x422 JUMP JUMPDEST SWAP2 POP POP SWAP3 SWAP2 POP POP JUMP JUMPDEST PUSH2 0x46A DUP2 PUSH2 0x400 JUMP JUMPDEST DUP3 MSTORE POP POP JUMP JUMPDEST PUSH0 PUSH1 0x20 DUP3 ADD SWAP1 POP PUSH2 0x483 PUSH0 DUP4 ADD DUP5 PUSH2 0x461 JUMP JUMPDEST SWAP3 SWAP2 POP POP JUMP JUMPDEST PUSH0 DUP1 REVERT JUMPDEST PUSH0 PUSH1 0x1F NOT PUSH1 0x1F DUP4 ADD AND SWAP1 POP SWAP2 SWAP1 POP JUMP JUMPDEST PUSH32 0x4E487B7100000000000000000000000000000000000000000000000000000000 PUSH0 MSTORE PUSH1 0x41 PUSH1 0x4 MSTORE PUSH1 0x24 PUSH0 REVERT JUMPDEST PUSH2 0x4D3 DUP3 PUSH2 0x48D JUMP JUMPDEST DUP2 ADD DUP2 DUP2 LT PUSH8 0xFFFFFFFFFFFFFFFF DUP3 GT OR ISZERO PUSH2 0x4F2 JUMPI PUSH2 0x4F1 PUSH2 0x49D JUMP JUMPDEST JUMPDEST DUP1 PUSH1 0x40 MSTORE POP POP POP JUMP JUMPDEST PUSH0 PUSH2 0x504 PUSH2 0x356 JUMP JUMPDEST SWAP1 POP PUSH2 0x510 DUP3 DUP3 PUSH2 0x4CA JUMP JUMPDEST SWAP2 SWAP1 POP JUMP JUMPDEST PUSH0 PUSH8 0xFFFFFFFFFFFFFFFF DUP3 GT ISZERO PUSH2 0x52F JUMPI PUSH2 0x52E PUSH2 0x49D JUMP JUMPDEST JUMPDEST PUSH1 0x20 DUP3 MUL SWAP1 POP PUSH1 0x20 DUP2 ADD SWAP1 POP SWAP2 SWAP1 POP JUMP JUMPDEST PUSH0 DUP1 REVERT JUMPDEST PUSH0 PUSH2 0x556 PUSH2 0x551 DUP5 PUSH2 0x515 JUMP JUMPDEST PUSH2 0x4FB JUMP JUMPDEST SWAP1 POP DUP1 DUP4 DUP3 MSTORE PUSH1 0x20 DUP3 ADD SWAP1 POP PUSH1 0x20 DUP5 MUL DUP4 ADD DUP6 DUP2 GT ISZERO PUSH2 0x579 JUMPI PUSH2 0x578 PUSH2 0x540 JUMP JUMPDEST JUMPDEST DUP4 JUMPDEST DUP2 DUP2 LT ISZERO PUSH2 0x5A2 JUMPI DUP1 PUSH2 0x58E DUP9 DUP3 PUSH2 0x386 JUMP JUMPDEST DUP5 MSTORE PUSH1 0x20 DUP5 ADD SWAP4 POP POP PUSH1 0x20 DUP2 ADD SWAP1 POP PUSH2 0x57B JUMP JUMPDEST POP POP POP SWAP4 SWAP3 POP POP POP JUMP JUMPDEST PUSH0 DUP3 PUSH1 0x1F DUP4 ADD SLT PUSH2 0x5C0 JUMPI PUSH2 0x5BF PUSH2 0x489 JUMP JUMPDEST JUMPDEST DUP2 CALLDATALOAD PUSH2 0x5D0 DUP5 DUP3 PUSH1 0x20 DUP7 ADD PUSH2 0x544 JUMP JUMPDEST SWAP2 POP POP SWAP3 SWAP2 POP POP JUMP JUMPDEST PUSH0 PUSH1 0x20 DUP3 DUP5 SUB SLT ISZERO PUSH2 0x5EE JUMPI PUSH2 0x5ED PUSH2 0x35F JUMP JUMPDEST JUMPDEST PUSH0 DUP3 ADD CALLDATALOAD PUSH8 0xFFFFFFFFFFFFFFFF DUP2 GT ISZERO PUSH2 0x60B JUMPI PUSH2 0x60A PUSH2 0x363 JUMP JUMPDEST JUMPDEST PUSH2 0x617 DUP5 DUP3 DUP6 ADD PUSH2 0x5AC JUMP JUMPDEST SWAP2 POP POP SWAP3 SWAP2 POP POP JUMP JUMPDEST PUSH0 DUP2 MLOAD SWAP1 POP SWAP2 SWAP1 POP JUMP JUMPDEST PUSH0 DUP3 DUP3 MSTORE PUSH1 0x20 DUP3 ADD SWAP1 POP SWAP3 SWAP2 POP POP JUMP JUMPDEST PUSH0 DUP2 SWAP1 POP PUSH1 0x20 DUP3 ADD SWAP1 POP SWAP2 SWAP1 POP JUMP JUMPDEST PUSH2 0x652 DUP2 PUSH2 0x367 JUMP JUMPDEST DUP3 MSTORE POP POP JUMP JUMPDEST PUSH0 PUSH2 0x663 DUP4 DUP4 PUSH2 0x649 JUMP JUMPDEST PUSH1 0x20 DUP4 ADD SWAP1 POP SWAP3 SWAP2 POP POP JUMP JUMPDEST PUSH0 PUSH1 0x20 DUP3 ADD SWAP1 POP SWAP2 SWAP1 POP JUMP JUMPDEST PUSH0 PUSH2 0x685 DUP3 PUSH2 0x620 JUMP JUMPDEST PUSH2 0x68F DUP2 DUP6 PUSH2 0x62A JUMP JUMPDEST SWAP4 POP PUSH2 0x69A DUP4 PUSH2 0x63A JUMP JUMPDEST DUP1 PUSH0 JUMPDEST DUP4 DUP2 LT ISZERO PUSH2 0x6CA JUMPI DUP2 MLOAD PUSH2 0x6B1 DUP9 DUP3 PUSH2 0x658 JUMP JUMPDEST SWAP8 POP PUSH2 0x6BC DUP4 PUSH2 0x66F JUMP JUMPDEST SWAP3 POP POP PUSH1 0x1 DUP2 ADD SWAP1 POP PUSH2 0x69D JUMP JUMPDEST POP DUP6 SWAP4 POP POP POP POP SWAP3 SWAP2 POP POP JUMP JUMPDEST PUSH0 PUSH1 0x20 DUP3 ADD SWAP1 POP DUP2 DUP2 SUB PUSH0 DUP4 ADD MSTORE PUSH2 0x6EF DUP2 DUP5 PUSH2 0x67B JUMP JUMPDEST SWAP1 POP SWAP3 SWAP2 POP POP JUMP JUMPDEST PUSH0 PUSH1 0x20 DUP3 DUP5 SUB SLT ISZERO PUSH2 0x70C JUMPI PUSH2 0x70B PUSH2 0x35F JUMP JUMPDEST JUMPDEST PUSH0 PUSH2 0x719 DUP5 DUP3 DUP6 ADD PUSH2 0x386 JUMP JUMPDEST SWAP2 POP POP SWAP3 SWAP2 POP POP JUMP JUMPDEST PUSH0 DUP2 ISZERO ISZERO SWAP1 POP SWAP2 SWAP1 POP JUMP JUMPDEST PUSH2 0x736 DUP2 PUSH2 0x722 JUMP JUMPDEST DUP3 MSTORE POP POP JUMP JUMPDEST PUSH0 PUSH1 0x20 DUP3 ADD SWAP1 POP PUSH2 0x74F PUSH0 DUP4 ADD DUP5 PUSH2 0x72D JUMP JUMPDEST SWAP3 SWAP2 POP POP JUMP JUMPDEST PUSH32 0x4E487B7100000000000000000000000000000000000000000000000000000000 PUSH0 MSTORE PUSH1 0x11 PUSH1 0x4 MSTORE PUSH1 0x24 PUSH0 REVERT JUMPDEST PUSH0 PUSH2 0x78C DUP3 PUSH2 0x367 JUMP JUMPDEST SWAP2 POP PUSH32 0xFFFFFFFFFFFFFFFFFFFFFFFFFFFFFFFFFFFFFFFFFFFFFFFFFFFFFFFFFFFFFFFF DUP3 SUB PUSH2 0x7BE JUMPI PUSH2 0x7BD PUSH2 0x755 JUMP JUMPDEST JUMPDEST PUSH1 0x1 DUP3 ADD SWAP1 POP SWAP2 SWAP1 POP JUMP JUMPDEST PUSH32 0x4E487B7100000000000000000000000000000000000000000000000000000000 PUSH0 MSTORE PUSH1 0x32 PUSH1 0x4 MSTORE PUSH1 0x24 PUSH0 REVERT JUMPDEST PUSH0 PUSH2 0x800 DUP3 PUSH2 0x367 JUMP JUMPDEST SWAP2 POP PUSH2 0x80B DUP4 PUSH2 0x367 JUMP JUMPDEST SWAP3 POP DUP3 DUP3 SUB SWAP1 POP DUP2 DUP2 GT ISZERO PUSH2 0x823 JUMPI PUSH2 0x822 PUSH2 0x755 JUMP JUMPDEST JUMPDEST SWAP3 SWAP2 POP POP JUMP JUMPDEST PUSH0 PUSH2 0x833 DUP3 PUSH2 0x367 JUMP JUMPDEST SWAP2 POP PUSH0 DUP3 SUB PUSH2 0x845 JUMPI PUSH2 0x844 PUSH2 0x755 JUMP JUMPDEST JUMPDEST PUSH1 0x1 DUP3 SUB SWAP1 POP SWAP2 SWAP1 POP JUMP JUMPDEST PUSH0 PUSH2 0x85A DUP3 PUSH2 0x367 JUMP JUMPDEST SWAP2 POP PUSH2 0x865 DUP4 PUSH2 0x367 JUMP JUMPDEST SWAP3 POP DUP3 DUP3 ADD SWAP1 POP DUP1 DUP3 GT ISZERO PUSH2 0x87D JUMPI PUSH2 0x87C PUSH2 0x755 JUMP JUMPDEST JUMPDEST SWAP3 SWAP2 POP POP JUMP INVALID LOG2 PUSH5 0x6970667358 0x22 SLT KECCAK256 0xD9 0xDD 0xBB SHL CALLVALUE PUSH2 0xD5A2 PUSH31 0xD9A8A0643BF7643E07E8559C55C0DBA385F4BAE1CC3C4364736F6C63430008 BYTE STOP CALLER "
				},
				"gasEstimates": {
					"creation": {
						"codeDepositCost": "446600",
						"executionCost": "478",
						"totalCost": "447078"
					},
					"external": {
						"f(uint256)": "infinite",
						"f(uint8)": "infinite",
						"forLoopTest()": "infinite",
						"ifElseTest(uint256)": "655",
						"insertionSort(uint256[])": "infinite",
						"ternaryTest(uint256,uint256)": "infinite",
						"whileTest()": "infinite"
					}
				},
				"methodIdentifiers": {
					"f(uint256)": "b3de648b",
					"f(uint8)": "3120d434",
					"forLoopTest()": "b0cfa9fc",
					"ifElseTest(uint256)": "7141fb00",
					"insertionSort(uint256[])": "6297206f",
					"ternaryTest(uint256,uint256)": "28766320",
					"whileTest()": "5d14639d"
				}
			},
			"storageLayout": {
				"storage": [],
				"types": null
			},
			"userdoc": {
				"kind": "user",
				"methods": {},
				"version": 1
			}
		}
	}
}