{
	"contracts/solidity/solidity101/HelloWeb3.sol": {
		"HelloWeb3": {
			"abi": [
				{
					"inputs": [],
					"name": "add",
					"outputs": [],
					"stateMutability": "nonpayable",
					"type": "function"
				},
				{
					"inputs": [
						{
							"internalType": "uint256",
							"name": "_number",
							"type": "uint256"
						}
					],
					"name": "addPure",
					"outputs": [
						{
							"internalType": "uint256",
							"name": "new_number_pure",
							"type": "uint256"
						}
					],
					"stateMutability": "pure",
					"type": "function"
				},
				{
					"inputs": [],
					"name": "addView",
					"outputs": [
						{
							"internalType": "uint256",
							"name": "new_number_view",
							"type": "uint256"
						}
					],
					"stateMutability": "view",
					"type": "function"
				},
				{
					"inputs": [],
					"name": "arrayPush",
					"outputs": [
						{
							"internalType": "uint256[]",
							"name": "",
							"type": "uint256[]"
						}
					],
					"stateMutability": "nonpayable",
					"type": "function"
				},
				{
					"inputs": [],
					"name": "greeting",
					"outputs": [
						{
							"internalType": "string",
							"name": "",
							"type": "string"
						}
					],
					"stateMutability": "view",
					"type": "function"
				},
				{
					"inputs": [],
					"name": "minusCall",
					"outputs": [],
					"stateMutability": "nonpayable",
					"type": "function"
				},
				{
					"inputs": [],
					"name": "minusPayable",
					"outputs": [
						{
							"internalType": "uint256",
							"name": "balance",
							"type": "uint256"
						}
					],
					"stateMutability": "payable",
					"type": "function"
				},
				{
					"inputs": [],
					"name": "number",
					"outputs": [
						{
							"internalType": "uint256",
							"name": "",
							"type": "uint256"
						}
					],
					"stateMutability": "view",
					"type": "function"
				},
				{
					"inputs": [],
					"name": "readReturn",
					"outputs": [],
					"stateMutability": "pure",
					"type": "function"
				},
				{
					"inputs": [
						{
							"internalType": "uint256",
							"name": "",
							"type": "uint256"
						}
					],
					"name": "result",
					"outputs": [
						{
							"internalType": "uint256",
							"name": "",
							"type": "uint256"
						}
					],
					"stateMutability": "view",
					"type": "function"
				},
				{
					"inputs": [],
					"name": "returnMultiple",
					"outputs": [
						{
							"internalType": "uint256",
							"name": "",
							"type": "uint256"
						},
						{
							"internalType": "bool",
							"name": "",
							"type": "bool"
						},
						{
							"internalType": "uint256[3]",
							"name": "",
							"type": "uint256[3]"
						}
					],
					"stateMutability": "pure",
					"type": "function"
				},
				{
					"inputs": [],
					"name": "returnNamed",
					"outputs": [
						{
							"internalType": "uint256",
							"name": "_number",
							"type": "uint256"
						},
						{
							"internalType": "bool",
							"name": "_bool",
							"type": "bool"
						},
						{
							"internalType": "uint256[3]",
							"name": "_array",
							"type": "uint256[3]"
						}
					],
					"stateMutability": "pure",
					"type": "function"
				}
			],
			"devdoc": {
				"kind": "dev",
				"methods": {},
				"version": 1
			},
			"evm": {
				"assembly": "    /* \"contracts/solidity/solidity101/HelloWeb3.sol\":66:2750  contract HelloWeb3 {... */\n  mstore(0x40, 0x80)\n    /* \"contracts/solidity/solidity101/HelloWeb3.sol\":91:130  string public greeting = \"Hello, Web3!\" */\n  mload(0x40)\n  dup1\n  0x40\n  add\n  0x40\n  mstore\n  dup1\n  0x0c\n  dup2\n  mstore\n  0x20\n  add\n  0x48656c6c6f2c2057656233210000000000000000000000000000000000000000\n  dup2\n  mstore\n  pop\n  0x00\n  swap1\n  dup2\n  tag_1\n  swap2\n  swap1\n  tag_2\n  jump\t// in\ntag_1:\n  pop\n    /* \"contracts/solidity/solidity101/HelloWeb3.sol\":162:163  5 */\n  0x05\n    /* \"contracts/solidity/solidity101/HelloWeb3.sol\":137:163  uint256 public  number = 5 */\n  0x01\n  sstore\n    /* \"contracts/solidity/solidity101/HelloWeb3.sol\":169:199  uint256[2] public result=[1,2] */\n  mload(0x40)\n  dup1\n  0x40\n  add\n  0x40\n  mstore\n  dup1\n    /* \"contracts/solidity/solidity101/HelloWeb3.sol\":195:196  1 */\n  0x01\n    /* \"contracts/solidity/solidity101/HelloWeb3.sol\":169:199  uint256[2] public result=[1,2] */\n  0xff\n  and\n  dup2\n  mstore\n  0x20\n  add\n    /* \"contracts/solidity/solidity101/HelloWeb3.sol\":197:198  2 */\n  0x02\n    /* \"contracts/solidity/solidity101/HelloWeb3.sol\":169:199  uint256[2] public result=[1,2] */\n  0xff\n  and\n  dup2\n  mstore\n  pop\n  0x02\n  swap1\n  0x02\n  tag_3\n  swap3\n  swap2\n  swap1\n  tag_4\n  jump\t// in\ntag_3:\n  pop\n    /* \"contracts/solidity/solidity101/HelloWeb3.sol\":66:2750  contract HelloWeb3 {... */\n  callvalue\n  dup1\n  iszero\n  tag_5\n  jumpi\n  0x00\n  dup1\n  revert\ntag_5:\n  pop\n  jump(tag_6)\ntag_4:\n  dup3\n  0x02\n  dup2\n  add\n  swap3\n  dup3\n  iszero\n  tag_7\n  jumpi\n  swap2\n  0x20\n  mul\n  dup3\n  add\ntag_8:\n  dup3\n  dup2\n  gt\n  iszero\n  tag_9\n  jumpi\n  dup3\n  mload\n  dup3\n  swap1\n  0xff\n  and\n  swap1\n  sstore\n  swap2\n  0x20\n  add\n  swap2\n  swap1\n  0x01\n  add\n  swap1\n  jump(tag_8)\ntag_9:\ntag_7:\n  pop\n  swap1\n  pop\n  tag_10\n  swap2\n  swap1\n  tag_11\n  jump\t// in\ntag_10:\n  pop\n  swap1\n  jump\t// out\ntag_11:\ntag_12:\n  dup1\n  dup3\n  gt\n  iszero\n  tag_13\n  jumpi\n  0x00\n  dup2\n  0x00\n  swap1\n  sstore\n  pop\n  0x01\n  add\n  jump(tag_12)\ntag_13:\n  pop\n  swap1\n  jump\t// out\n    /* \"#utility.yul\":7:106   */\ntag_14:\n    /* \"#utility.yul\":59:65   */\n  0x00\n    /* \"#utility.yul\":93:98   */\n  dup2\n    /* \"#utility.yul\":87:99   */\n  mload\n    /* \"#utility.yul\":77:99   */\n  swap1\n  pop\n    /* \"#utility.yul\":7:106   */\n  swap2\n  swap1\n  pop\n  jump\t// out\n    /* \"#utility.yul\":112:292   */\ntag_15:\n    /* \"#utility.yul\":160:237   */\n  0x4e487b7100000000000000000000000000000000000000000000000000000000\n    /* \"#utility.yul\":157:158   */\n  0x00\n    /* \"#utility.yul\":150:238   */\n  mstore\n    /* \"#utility.yul\":257:261   */\n  0x41\n    /* \"#utility.yul\":254:255   */\n  0x04\n    /* \"#utility.yul\":247:262   */\n  mstore\n    /* \"#utility.yul\":281:285   */\n  0x24\n    /* \"#utility.yul\":278:279   */\n  0x00\n    /* \"#utility.yul\":271:286   */\n  revert\n    /* \"#utility.yul\":298:478   */\ntag_16:\n    /* \"#utility.yul\":346:423   */\n  0x4e487b7100000000000000000000000000000000000000000000000000000000\n    /* \"#utility.yul\":343:344   */\n  0x00\n    /* \"#utility.yul\":336:424   */\n  mstore\n    /* \"#utility.yul\":443:447   */\n  0x22\n    /* \"#utility.yul\":440:441   */\n  0x04\n    /* \"#utility.yul\":433:448   */\n  mstore\n    /* \"#utility.yul\":467:471   */\n  0x24\n    /* \"#utility.yul\":464:465   */\n  0x00\n    /* \"#utility.yul\":457:472   */\n  revert\n    /* \"#utility.yul\":484:804   */\ntag_17:\n    /* \"#utility.yul\":528:534   */\n  0x00\n    /* \"#utility.yul\":565:566   */\n  0x02\n    /* \"#utility.yul\":559:563   */\n  dup3\n    /* \"#utility.yul\":555:567   */\n  div\n    /* \"#utility.yul\":545:567   */\n  swap1\n  pop\n    /* \"#utility.yul\":612:613   */\n  0x01\n    /* \"#utility.yul\":606:610   */\n  dup3\n    /* \"#utility.yul\":602:614   */\n  and\n    /* \"#utility.yul\":633:651   */\n  dup1\n    /* \"#utility.yul\":623:704   */\n  tag_39\n  jumpi\n    /* \"#utility.yul\":689:693   */\n  0x7f\n    /* \"#utility.yul\":681:687   */\n  dup3\n    /* \"#utility.yul\":677:694   */\n  and\n    /* \"#utility.yul\":667:694   */\n  swap2\n  pop\n    /* \"#utility.yul\":623:704   */\ntag_39:\n    /* \"#utility.yul\":751:753   */\n  0x20\n    /* \"#utility.yul\":743:749   */\n  dup3\n    /* \"#utility.yul\":740:754   */\n  lt\n    /* \"#utility.yul\":720:738   */\n  dup2\n    /* \"#utility.yul\":717:755   */\n  sub\n    /* \"#utility.yul\":714:798   */\n  tag_40\n  jumpi\n    /* \"#utility.yul\":770:788   */\n  tag_41\n  tag_16\n  jump\t// in\ntag_41:\n    /* \"#utility.yul\":714:798   */\ntag_40:\n    /* \"#utility.yul\":535:804   */\n  pop\n    /* \"#utility.yul\":484:804   */\n  swap2\n  swap1\n  pop\n  jump\t// out\n    /* \"#utility.yul\":810:951   */\ntag_18:\n    /* \"#utility.yul\":859:863   */\n  0x00\n    /* \"#utility.yul\":882:885   */\n  dup2\n    /* \"#utility.yul\":874:885   */\n  swap1\n  pop\n    /* \"#utility.yul\":905:908   */\n  dup2\n    /* \"#utility.yul\":902:903   */\n  0x00\n    /* \"#utility.yul\":895:909   */\n  mstore\n    /* \"#utility.yul\":939:943   */\n  0x20\n    /* \"#utility.yul\":936:937   */\n  0x00\n    /* \"#utility.yul\":926:944   */\n  keccak256\n    /* \"#utility.yul\":918:944   */\n  swap1\n  pop\n    /* \"#utility.yul\":810:951   */\n  swap2\n  swap1\n  pop\n  jump\t// out\n    /* \"#utility.yul\":957:1050   */\ntag_19:\n    /* \"#utility.yul\":994:1000   */\n  0x00\n    /* \"#utility.yul\":1041:1043   */\n  0x20\n    /* \"#utility.yul\":1036:1038   */\n  0x1f\n    /* \"#utility.yul\":1029:1034   */\n  dup4\n    /* \"#utility.yul\":1025:1039   */\n  add\n    /* \"#utility.yul\":1021:1044   */\n  div\n    /* \"#utility.yul\":1011:1044   */\n  swap1\n  pop\n    /* \"#utility.yul\":957:1050   */\n  swap2\n  swap1\n  pop\n  jump\t// out\n    /* \"#utility.yul\":1056:1163   */\ntag_20:\n    /* \"#utility.yul\":1100:1108   */\n  0x00\n    /* \"#utility.yul\":1150:1155   */\n  dup3\n    /* \"#utility.yul\":1144:1148   */\n  dup3\n    /* \"#utility.yul\":1140:1156   */\n  shl\n    /* \"#utility.yul\":1119:1156   */\n  swap1\n  pop\n    /* \"#utility.yul\":1056:1163   */\n  swap3\n  swap2\n  pop\n  pop\n  jump\t// out\n    /* \"#utility.yul\":1169:1562   */\ntag_21:\n    /* \"#utility.yul\":1238:1244   */\n  0x00\n    /* \"#utility.yul\":1288:1289   */\n  0x08\n    /* \"#utility.yul\":1276:1286   */\n  dup4\n    /* \"#utility.yul\":1272:1290   */\n  mul\n    /* \"#utility.yul\":1311:1408   */\n  tag_46\n    /* \"#utility.yul\":1341:1407   */\n  0xffffffffffffffffffffffffffffffffffffffffffffffffffffffffffffffff\n    /* \"#utility.yul\":1330:1339   */\n  dup3\n    /* \"#utility.yul\":1311:1408   */\n  tag_20\n  jump\t// in\ntag_46:\n    /* \"#utility.yul\":1429:1468   */\n  tag_47\n    /* \"#utility.yul\":1459:1467   */\n  dup7\n    /* \"#utility.yul\":1448:1457   */\n  dup4\n    /* \"#utility.yul\":1429:1468   */\n  tag_20\n  jump\t// in\ntag_47:\n    /* \"#utility.yul\":1417:1468   */\n  swap6\n  pop\n    /* \"#utility.yul\":1501:1505   */\n  dup1\n    /* \"#utility.yul\":1497:1506   */\n  not\n    /* \"#utility.yul\":1490:1495   */\n  dup5\n    /* \"#utility.yul\":1486:1507   */\n  and\n    /* \"#utility.yul\":1477:1507   */\n  swap4\n  pop\n    /* \"#utility.yul\":1550:1554   */\n  dup1\n    /* \"#utility.yul\":1540:1548   */\n  dup7\n    /* \"#utility.yul\":1536:1555   */\n  and\n    /* \"#utility.yul\":1529:1534   */\n  dup5\n    /* \"#utility.yul\":1526:1556   */\n  or\n    /* \"#utility.yul\":1516:1556   */\n  swap3\n  pop\n    /* \"#utility.yul\":1245:1562   */\n  pop\n  pop\n    /* \"#utility.yul\":1169:1562   */\n  swap4\n  swap3\n  pop\n  pop\n  pop\n  jump\t// out\n    /* \"#utility.yul\":1568:1645   */\ntag_22:\n    /* \"#utility.yul\":1605:1612   */\n  0x00\n    /* \"#utility.yul\":1634:1639   */\n  dup2\n    /* \"#utility.yul\":1623:1639   */\n  swap1\n  pop\n    /* \"#utility.yul\":1568:1645   */\n  swap2\n  swap1\n  pop\n  jump\t// out\n    /* \"#utility.yul\":1651:1711   */\ntag_23:\n    /* \"#utility.yul\":1679:1682   */\n  0x00\n    /* \"#utility.yul\":1700:1705   */\n  dup2\n    /* \"#utility.yul\":1693:1705   */\n  swap1\n  pop\n    /* \"#utility.yul\":1651:1711   */\n  swap2\n  swap1\n  pop\n  jump\t// out\n    /* \"#utility.yul\":1717:1859   */\ntag_24:\n    /* \"#utility.yul\":1767:1776   */\n  0x00\n    /* \"#utility.yul\":1800:1853   */\n  tag_51\n    /* \"#utility.yul\":1818:1852   */\n  tag_52\n    /* \"#utility.yul\":1827:1851   */\n  tag_53\n    /* \"#utility.yul\":1845:1850   */\n  dup5\n    /* \"#utility.yul\":1827:1851   */\n  tag_22\n  jump\t// in\ntag_53:\n    /* \"#utility.yul\":1818:1852   */\n  tag_23\n  jump\t// in\ntag_52:\n    /* \"#utility.yul\":1800:1853   */\n  tag_22\n  jump\t// in\ntag_51:\n    /* \"#utility.yul\":1787:1853   */\n  swap1\n  pop\n    /* \"#utility.yul\":1717:1859   */\n  swap2\n  swap1\n  pop\n  jump\t// out\n    /* \"#utility.yul\":1865:1940   */\ntag_25:\n    /* \"#utility.yul\":1908:1911   */\n  0x00\n    /* \"#utility.yul\":1929:1934   */\n  dup2\n    /* \"#utility.yul\":1922:1934   */\n  swap1\n  pop\n    /* \"#utility.yul\":1865:1940   */\n  swap2\n  swap1\n  pop\n  jump\t// out\n    /* \"#utility.yul\":1946:2215   */\ntag_26:\n    /* \"#utility.yul\":2056:2095   */\n  tag_56\n    /* \"#utility.yul\":2087:2094   */\n  dup4\n    /* \"#utility.yul\":2056:2095   */\n  tag_24\n  jump\t// in\ntag_56:\n    /* \"#utility.yul\":2117:2208   */\n  tag_57\n    /* \"#utility.yul\":2166:2207   */\n  tag_58\n    /* \"#utility.yul\":2190:2206   */\n  dup3\n    /* \"#utility.yul\":2166:2207   */\n  tag_25\n  jump\t// in\ntag_58:\n    /* \"#utility.yul\":2158:2164   */\n  dup5\n    /* \"#utility.yul\":2151:2155   */\n  dup5\n    /* \"#utility.yul\":2145:2156   */\n  sload\n    /* \"#utility.yul\":2117:2208   */\n  tag_21\n  jump\t// in\ntag_57:\n    /* \"#utility.yul\":2111:2115   */\n  dup3\n    /* \"#utility.yul\":2104:2209   */\n  sstore\n    /* \"#utility.yul\":2022:2215   */\n  pop\n    /* \"#utility.yul\":1946:2215   */\n  pop\n  pop\n  pop\n  jump\t// out\n    /* \"#utility.yul\":2221:2294   */\ntag_27:\n    /* \"#utility.yul\":2266:2269   */\n  0x00\n    /* \"#utility.yul\":2221:2294   */\n  swap1\n  jump\t// out\n    /* \"#utility.yul\":2300:2489   */\ntag_28:\n    /* \"#utility.yul\":2377:2409   */\n  tag_61\n  tag_27\n  jump\t// in\ntag_61:\n    /* \"#utility.yul\":2418:2483   */\n  tag_62\n    /* \"#utility.yul\":2476:2482   */\n  dup2\n    /* \"#utility.yul\":2468:2474   */\n  dup5\n    /* \"#utility.yul\":2462:2466   */\n  dup5\n    /* \"#utility.yul\":2418:2483   */\n  tag_26\n  jump\t// in\ntag_62:\n    /* \"#utility.yul\":2353:2489   */\n  pop\n    /* \"#utility.yul\":2300:2489   */\n  pop\n  pop\n  jump\t// out\n    /* \"#utility.yul\":2495:2681   */\ntag_29:\n    /* \"#utility.yul\":2555:2675   */\ntag_64:\n    /* \"#utility.yul\":2572:2575   */\n  dup2\n    /* \"#utility.yul\":2565:2570   */\n  dup2\n    /* \"#utility.yul\":2562:2576   */\n  lt\n    /* \"#utility.yul\":2555:2675   */\n  iszero\n  tag_66\n  jumpi\n    /* \"#utility.yul\":2626:2665   */\n  tag_67\n    /* \"#utility.yul\":2663:2664   */\n  0x00\n    /* \"#utility.yul\":2656:2661   */\n  dup3\n    /* \"#utility.yul\":2626:2665   */\n  tag_28\n  jump\t// in\ntag_67:\n    /* \"#utility.yul\":2599:2600   */\n  0x01\n    /* \"#utility.yul\":2592:2597   */\n  dup2\n    /* \"#utility.yul\":2588:2601   */\n  add\n    /* \"#utility.yul\":2579:2601   */\n  swap1\n  pop\n    /* \"#utility.yul\":2555:2675   */\n  jump(tag_64)\ntag_66:\n    /* \"#utility.yul\":2495:2681   */\n  pop\n  pop\n  jump\t// out\n    /* \"#utility.yul\":2687:3230   */\ntag_30:\n    /* \"#utility.yul\":2788:2790   */\n  0x1f\n    /* \"#utility.yul\":2783:2786   */\n  dup3\n    /* \"#utility.yul\":2780:2791   */\n  gt\n    /* \"#utility.yul\":2777:3223   */\n  iszero\n  tag_69\n  jumpi\n    /* \"#utility.yul\":2822:2860   */\n  tag_70\n    /* \"#utility.yul\":2854:2859   */\n  dup2\n    /* \"#utility.yul\":2822:2860   */\n  tag_18\n  jump\t// in\ntag_70:\n    /* \"#utility.yul\":2906:2935   */\n  tag_71\n    /* \"#utility.yul\":2924:2934   */\n  dup5\n    /* \"#utility.yul\":2906:2935   */\n  tag_19\n  jump\t// in\ntag_71:\n    /* \"#utility.yul\":2896:2904   */\n  dup2\n    /* \"#utility.yul\":2892:2936   */\n  add\n    /* \"#utility.yul\":3089:3091   */\n  0x20\n    /* \"#utility.yul\":3077:3087   */\n  dup6\n    /* \"#utility.yul\":3074:3092   */\n  lt\n    /* \"#utility.yul\":3071:3120   */\n  iszero\n  tag_72\n  jumpi\n    /* \"#utility.yul\":3110:3118   */\n  dup2\n    /* \"#utility.yul\":3095:3118   */\n  swap1\n  pop\n    /* \"#utility.yul\":3071:3120   */\ntag_72:\n    /* \"#utility.yul\":3133:3213   */\n  tag_73\n    /* \"#utility.yul\":3189:3211   */\n  tag_74\n    /* \"#utility.yul\":3207:3210   */\n  dup6\n    /* \"#utility.yul\":3189:3211   */\n  tag_19\n  jump\t// in\ntag_74:\n    /* \"#utility.yul\":3179:3187   */\n  dup4\n    /* \"#utility.yul\":3175:3212   */\n  add\n    /* \"#utility.yul\":3162:3173   */\n  dup3\n    /* \"#utility.yul\":3133:3213   */\n  tag_29\n  jump\t// in\ntag_73:\n    /* \"#utility.yul\":2792:3223   */\n  pop\n  pop\n    /* \"#utility.yul\":2777:3223   */\ntag_69:\n    /* \"#utility.yul\":2687:3230   */\n  pop\n  pop\n  pop\n  jump\t// out\n    /* \"#utility.yul\":3236:3353   */\ntag_31:\n    /* \"#utility.yul\":3290:3298   */\n  0x00\n    /* \"#utility.yul\":3340:3345   */\n  dup3\n    /* \"#utility.yul\":3334:3338   */\n  dup3\n    /* \"#utility.yul\":3330:3346   */\n  shr\n    /* \"#utility.yul\":3309:3346   */\n  swap1\n  pop\n    /* \"#utility.yul\":3236:3353   */\n  swap3\n  swap2\n  pop\n  pop\n  jump\t// out\n    /* \"#utility.yul\":3359:3528   */\ntag_32:\n    /* \"#utility.yul\":3403:3409   */\n  0x00\n    /* \"#utility.yul\":3436:3487   */\n  tag_77\n    /* \"#utility.yul\":3484:3485   */\n  0x00\n    /* \"#utility.yul\":3480:3486   */\n  not\n    /* \"#utility.yul\":3472:3477   */\n  dup5\n    /* \"#utility.yul\":3469:3470   */\n  0x08\n    /* \"#utility.yul\":3465:3478   */\n  mul\n    /* \"#utility.yul\":3436:3487   */\n  tag_31\n  jump\t// in\ntag_77:\n    /* \"#utility.yul\":3432:3488   */\n  not\n    /* \"#utility.yul\":3517:3521   */\n  dup1\n    /* \"#utility.yul\":3511:3515   */\n  dup4\n    /* \"#utility.yul\":3507:3522   */\n  and\n    /* \"#utility.yul\":3497:3522   */\n  swap2\n  pop\n    /* \"#utility.yul\":3410:3528   */\n  pop\n    /* \"#utility.yul\":3359:3528   */\n  swap3\n  swap2\n  pop\n  pop\n  jump\t// out\n    /* \"#utility.yul\":3533:3828   */\ntag_33:\n    /* \"#utility.yul\":3609:3613   */\n  0x00\n    /* \"#utility.yul\":3755:3784   */\n  tag_79\n    /* \"#utility.yul\":3780:3783   */\n  dup4\n    /* \"#utility.yul\":3774:3778   */\n  dup4\n    /* \"#utility.yul\":3755:3784   */\n  tag_32\n  jump\t// in\ntag_79:\n    /* \"#utility.yul\":3747:3784   */\n  swap2\n  pop\n    /* \"#utility.yul\":3817:3820   */\n  dup3\n    /* \"#utility.yul\":3814:3815   */\n  0x02\n    /* \"#utility.yul\":3810:3821   */\n  mul\n    /* \"#utility.yul\":3804:3808   */\n  dup3\n    /* \"#utility.yul\":3801:3822   */\n  or\n    /* \"#utility.yul\":3793:3822   */\n  swap1\n  pop\n    /* \"#utility.yul\":3533:3828   */\n  swap3\n  swap2\n  pop\n  pop\n  jump\t// out\n    /* \"#utility.yul\":3833:5228   */\ntag_2:\n    /* \"#utility.yul\":3950:3987   */\n  tag_81\n    /* \"#utility.yul\":3983:3986   */\n  dup3\n    /* \"#utility.yul\":3950:3987   */\n  tag_14\n  jump\t// in\ntag_81:\n    /* \"#utility.yul\":4052:4070   */\n  0xffffffffffffffff\n    /* \"#utility.yul\":4044:4050   */\n  dup2\n    /* \"#utility.yul\":4041:4071   */\n  gt\n    /* \"#utility.yul\":4038:4094   */\n  iszero\n  tag_82\n  jumpi\n    /* \"#utility.yul\":4074:4092   */\n  tag_83\n  tag_15\n  jump\t// in\ntag_83:\n    /* \"#utility.yul\":4038:4094   */\ntag_82:\n    /* \"#utility.yul\":4118:4156   */\n  tag_84\n    /* \"#utility.yul\":4150:4154   */\n  dup3\n    /* \"#utility.yul\":4144:4155   */\n  sload\n    /* \"#utility.yul\":4118:4156   */\n  tag_17\n  jump\t// in\ntag_84:\n    /* \"#utility.yul\":4203:4270   */\n  tag_85\n    /* \"#utility.yul\":4263:4269   */\n  dup3\n    /* \"#utility.yul\":4255:4261   */\n  dup3\n    /* \"#utility.yul\":4249:4253   */\n  dup6\n    /* \"#utility.yul\":4203:4270   */\n  tag_30\n  jump\t// in\ntag_85:\n    /* \"#utility.yul\":4297:4298   */\n  0x00\n    /* \"#utility.yul\":4321:4325   */\n  0x20\n    /* \"#utility.yul\":4308:4325   */\n  swap1\n  pop\n    /* \"#utility.yul\":4353:4355   */\n  0x1f\n    /* \"#utility.yul\":4345:4351   */\n  dup4\n    /* \"#utility.yul\":4342:4356   */\n  gt\n    /* \"#utility.yul\":4370:4371   */\n  0x01\n    /* \"#utility.yul\":4365:4983   */\n  dup2\n  eq\n  tag_87\n  jumpi\n    /* \"#utility.yul\":5027:5028   */\n  0x00\n    /* \"#utility.yul\":5044:5050   */\n  dup5\n    /* \"#utility.yul\":5041:5118   */\n  iszero\n  tag_88\n  jumpi\n    /* \"#utility.yul\":5093:5102   */\n  dup3\n    /* \"#utility.yul\":5088:5091   */\n  dup8\n    /* \"#utility.yul\":5084:5103   */\n  add\n    /* \"#utility.yul\":5078:5104   */\n  mload\n    /* \"#utility.yul\":5069:5104   */\n  swap1\n  pop\n    /* \"#utility.yul\":5041:5118   */\ntag_88:\n    /* \"#utility.yul\":5144:5211   */\n  tag_89\n    /* \"#utility.yul\":5204:5210   */\n  dup6\n    /* \"#utility.yul\":5197:5202   */\n  dup3\n    /* \"#utility.yul\":5144:5211   */\n  tag_33\n  jump\t// in\ntag_89:\n    /* \"#utility.yul\":5138:5142   */\n  dup7\n    /* \"#utility.yul\":5131:5212   */\n  sstore\n    /* \"#utility.yul\":5000:5222   */\n  pop\n    /* \"#utility.yul\":4335:5222   */\n  jump(tag_86)\n    /* \"#utility.yul\":4365:4983   */\ntag_87:\n    /* \"#utility.yul\":4417:4421   */\n  0x1f\n    /* \"#utility.yul\":4413:4422   */\n  not\n    /* \"#utility.yul\":4405:4411   */\n  dup5\n    /* \"#utility.yul\":4401:4423   */\n  and\n    /* \"#utility.yul\":4451:4488   */\n  tag_90\n    /* \"#utility.yul\":4483:4487   */\n  dup7\n    /* \"#utility.yul\":4451:4488   */\n  tag_18\n  jump\t// in\ntag_90:\n    /* \"#utility.yul\":4510:4511   */\n  0x00\n    /* \"#utility.yul\":4524:4732   */\ntag_91:\n    /* \"#utility.yul\":4538:4545   */\n  dup3\n    /* \"#utility.yul\":4535:4536   */\n  dup2\n    /* \"#utility.yul\":4532:4546   */\n  lt\n    /* \"#utility.yul\":4524:4732   */\n  iszero\n  tag_93\n  jumpi\n    /* \"#utility.yul\":4617:4626   */\n  dup5\n    /* \"#utility.yul\":4612:4615   */\n  dup10\n    /* \"#utility.yul\":4608:4627   */\n  add\n    /* \"#utility.yul\":4602:4628   */\n  mload\n    /* \"#utility.yul\":4594:4600   */\n  dup3\n    /* \"#utility.yul\":4587:4629   */\n  sstore\n    /* \"#utility.yul\":4668:4669   */\n  0x01\n    /* \"#utility.yul\":4660:4666   */\n  dup3\n    /* \"#utility.yul\":4656:4670   */\n  add\n    /* \"#utility.yul\":4646:4670   */\n  swap2\n  pop\n    /* \"#utility.yul\":4715:4717   */\n  0x20\n    /* \"#utility.yul\":4704:4713   */\n  dup6\n    /* \"#utility.yul\":4700:4718   */\n  add\n    /* \"#utility.yul\":4687:4718   */\n  swap5\n  pop\n    /* \"#utility.yul\":4561:4565   */\n  0x20\n    /* \"#utility.yul\":4558:4559   */\n  dup2\n    /* \"#utility.yul\":4554:4566   */\n  add\n    /* \"#utility.yul\":4549:4566   */\n  swap1\n  pop\n    /* \"#utility.yul\":4524:4732   */\n  jump(tag_91)\ntag_93:\n    /* \"#utility.yul\":4760:4766   */\n  dup7\n    /* \"#utility.yul\":4751:4758   */\n  dup4\n    /* \"#utility.yul\":4748:4767   */\n  lt\n    /* \"#utility.yul\":4745:4924   */\n  iszero\n  tag_94\n  jumpi\n    /* \"#utility.yul\":4818:4827   */\n  dup5\n    /* \"#utility.yul\":4813:4816   */\n  dup10\n    /* \"#utility.yul\":4809:4828   */\n  add\n    /* \"#utility.yul\":4803:4829   */\n  mload\n    /* \"#utility.yul\":4861:4909   */\n  tag_95\n    /* \"#utility.yul\":4903:4907   */\n  0x1f\n    /* \"#utility.yul\":4895:4901   */\n  dup10\n    /* \"#utility.yul\":4891:4908   */\n  and\n    /* \"#utility.yul\":4880:4889   */\n  dup3\n    /* \"#utility.yul\":4861:4909   */\n  tag_32\n  jump\t// in\ntag_95:\n    /* \"#utility.yul\":4853:4859   */\n  dup4\n    /* \"#utility.yul\":4846:4910   */\n  sstore\n    /* \"#utility.yul\":4768:4924   */\n  pop\n    /* \"#utility.yul\":4745:4924   */\ntag_94:\n    /* \"#utility.yul\":4970:4971   */\n  0x01\n    /* \"#utility.yul\":4966:4967   */\n  0x02\n    /* \"#utility.yul\":4958:4964   */\n  dup9\n    /* \"#utility.yul\":4954:4968   */\n  mul\n    /* \"#utility.yul\":4950:4972   */\n  add\n    /* \"#utility.yul\":4944:4948   */\n  dup9\n    /* \"#utility.yul\":4937:4973   */\n  sstore\n    /* \"#utility.yul\":4372:4983   */\n  pop\n  pop\n  pop\n    /* \"#utility.yul\":4335:5222   */\ntag_86:\n  pop\n    /* \"#utility.yul\":3925:5228   */\n  pop\n  pop\n  pop\n    /* \"#utility.yul\":3833:5228   */\n  pop\n  pop\n  jump\t// out\n    /* \"contracts/solidity/solidity101/HelloWeb3.sol\":66:2750  contract HelloWeb3 {... */\ntag_6:\n  dataSize(sub_0)\n  dup1\n  dataOffset(sub_0)\n  0x00\n  codecopy\n  0x00\n  return\nstop\n\nsub_0: assembly {\n        /* \"contracts/solidity/solidity101/HelloWeb3.sol\":66:2750  contract HelloWeb3 {... */\n      mstore(0x40, 0x80)\n      jumpi(tag_1, lt(calldatasize, 0x04))\n      shr(0xe0, calldataload(0x00))\n      dup1\n      0x7032c4f2\n      gt\n      tag_14\n      jumpi\n      dup1\n      0x7032c4f2\n      eq\n      tag_8\n      jumpi\n      dup1\n      0x80b4ea08\n      eq\n      tag_9\n      jumpi\n      dup1\n      0x8381f58a\n      eq\n      tag_10\n      jumpi\n      dup1\n      0xb262eb7f\n      eq\n      tag_11\n      jumpi\n      dup1\n      0xe61e4008\n      eq\n      tag_12\n      jumpi\n      dup1\n      0xef690cc0\n      eq\n      tag_13\n      jumpi\n      jump(tag_1)\n    tag_14:\n      dup1\n      0x303810a6\n      eq\n      tag_2\n      jumpi\n      dup1\n      0x3c594059\n      eq\n      tag_3\n      jumpi\n      dup1\n      0x3dece511\n      eq\n      tag_4\n      jumpi\n      dup1\n      0x47f6ac11\n      eq\n      tag_5\n      jumpi\n      dup1\n      0x4f2be91f\n      eq\n      tag_6\n      jumpi\n      dup1\n      0x6f590330\n      eq\n      tag_7\n      jumpi\n    tag_1:\n      0x00\n      dup1\n      revert\n        /* \"contracts/solidity/solidity101/HelloWeb3.sol\":1338:1470  function minusPayable() external payable returns (uint256 balance) {... */\n    tag_2:\n      tag_15\n      tag_16\n      jump\t// in\n    tag_15:\n      mload(0x40)\n      tag_17\n      swap2\n      swap1\n      tag_18\n      jump\t// in\n    tag_17:\n      mload(0x40)\n      dup1\n      swap2\n      sub\n      swap1\n      return\n        /* \"contracts/solidity/solidity101/HelloWeb3.sol\":169:199  uint256[2] public result=[1,2] */\n    tag_3:\n      callvalue\n      dup1\n      iszero\n      tag_19\n      jumpi\n      0x00\n      dup1\n      revert\n    tag_19:\n      pop\n      tag_20\n      0x04\n      dup1\n      calldatasize\n      sub\n      dup2\n      add\n      swap1\n      tag_21\n      swap2\n      swap1\n      tag_22\n      jump\t// in\n    tag_21:\n      tag_23\n      jump\t// in\n    tag_20:\n      mload(0x40)\n      tag_24\n      swap2\n      swap1\n      tag_18\n      jump\t// in\n    tag_24:\n      mload(0x40)\n      dup1\n      swap2\n      sub\n      swap1\n      return\n        /* \"contracts/solidity/solidity101/HelloWeb3.sol\":1925:2186  function returnNamed()... */\n    tag_4:\n      callvalue\n      dup1\n      iszero\n      tag_25\n      jumpi\n      0x00\n      dup1\n      revert\n    tag_25:\n      pop\n      tag_26\n      tag_27\n      jump\t// in\n    tag_26:\n      mload(0x40)\n      tag_28\n      swap4\n      swap3\n      swap2\n      swap1\n      tag_29\n      jump\t// in\n    tag_28:\n      mload(0x40)\n      dup1\n      swap2\n      sub\n      swap1\n      return\n        /* \"contracts/solidity/solidity101/HelloWeb3.sol\":2584:2748  function arrayPush() public returns(uint[] memory){... */\n    tag_5:\n      callvalue\n      dup1\n      iszero\n      tag_30\n      jumpi\n      0x00\n      dup1\n      revert\n    tag_30:\n      pop\n      tag_31\n      tag_32\n      jump\t// in\n    tag_31:\n      mload(0x40)\n      tag_33\n      swap2\n      swap1\n      tag_34\n      jump\t// in\n    tag_33:\n      mload(0x40)\n      dup1\n      swap2\n      sub\n      swap1\n      return\n        /* \"contracts/solidity/solidity101/HelloWeb3.sol\":378:438  function add() external {... */\n    tag_6:\n      callvalue\n      dup1\n      iszero\n      tag_35\n      jumpi\n      0x00\n      dup1\n      revert\n    tag_35:\n      pop\n      tag_36\n      tag_37\n      jump\t// in\n    tag_36:\n      stop\n        /* \"contracts/solidity/solidity101/HelloWeb3.sol\":2233:2554  function readReturn() public pure{... */\n    tag_7:\n      callvalue\n      dup1\n      iszero\n      tag_38\n      jumpi\n      0x00\n      dup1\n      revert\n    tag_38:\n      pop\n      tag_39\n      tag_40\n      jump\t// in\n    tag_39:\n      stop\n        /* \"contracts/solidity/solidity101/HelloWeb3.sol\":500:656  function addPure(uint256 _number)... */\n    tag_8:\n      callvalue\n      dup1\n      iszero\n      tag_41\n      jumpi\n      0x00\n      dup1\n      revert\n    tag_41:\n      pop\n      tag_42\n      0x04\n      dup1\n      calldatasize\n      sub\n      dup2\n      add\n      swap1\n      tag_43\n      swap2\n      swap1\n      tag_22\n      jump\t// in\n    tag_43:\n      tag_44\n      jump\t// in\n    tag_42:\n      mload(0x40)\n      tag_45\n      swap2\n      swap1\n      tag_18\n      jump\t// in\n    tag_45:\n      mload(0x40)\n      dup1\n      swap2\n      sub\n      swap1\n      return\n        /* \"contracts/solidity/solidity101/HelloWeb3.sol\":1222:1276  function minusCall() external {... */\n    tag_9:\n      callvalue\n      dup1\n      iszero\n      tag_46\n      jumpi\n      0x00\n      dup1\n      revert\n    tag_46:\n      pop\n      tag_47\n      tag_48\n      jump\t// in\n    tag_47:\n      stop\n        /* \"contracts/solidity/solidity101/HelloWeb3.sol\":137:163  uint256 public  number = 5 */\n    tag_10:\n      callvalue\n      dup1\n      iszero\n      tag_49\n      jumpi\n      0x00\n      dup1\n      revert\n    tag_49:\n      pop\n      tag_50\n      tag_51\n      jump\t// in\n    tag_50:\n      mload(0x40)\n      tag_52\n      swap2\n      swap1\n      tag_18\n      jump\t// in\n    tag_52:\n      mload(0x40)\n      dup1\n      swap2\n      sub\n      swap1\n      return\n        /* \"contracts/solidity/solidity101/HelloWeb3.sol\":722:823  function addView() external view returns (uint256 new_number_view) {... */\n    tag_11:\n      callvalue\n      dup1\n      iszero\n      tag_53\n      jumpi\n      0x00\n      dup1\n      revert\n    tag_53:\n      pop\n      tag_54\n      tag_55\n      jump\t// in\n    tag_54:\n      mload(0x40)\n      tag_56\n      swap2\n      swap1\n      tag_18\n      jump\t// in\n    tag_56:\n      mload(0x40)\n      dup1\n      swap2\n      sub\n      swap1\n      return\n        /* \"contracts/solidity/solidity101/HelloWeb3.sol\":1688:1896  function returnMultiple()... */\n    tag_12:\n      callvalue\n      dup1\n      iszero\n      tag_57\n      jumpi\n      0x00\n      dup1\n      revert\n    tag_57:\n      pop\n      tag_58\n      tag_59\n      jump\t// in\n    tag_58:\n      mload(0x40)\n      tag_60\n      swap4\n      swap3\n      swap2\n      swap1\n      tag_29\n      jump\t// in\n    tag_60:\n      mload(0x40)\n      dup1\n      swap2\n      sub\n      swap1\n      return\n        /* \"contracts/solidity/solidity101/HelloWeb3.sol\":91:130  string public greeting = \"Hello, Web3!\" */\n    tag_13:\n      callvalue\n      dup1\n      iszero\n      tag_61\n      jumpi\n      0x00\n      dup1\n      revert\n    tag_61:\n      pop\n      tag_62\n      tag_63\n      jump\t// in\n    tag_62:\n      mload(0x40)\n      tag_64\n      swap2\n      swap1\n      tag_65\n      jump\t// in\n    tag_64:\n      mload(0x40)\n      dup1\n      swap2\n      sub\n      swap1\n      return\n        /* \"contracts/solidity/solidity101/HelloWeb3.sol\":1338:1470  function minusPayable() external payable returns (uint256 balance) {... */\n    tag_16:\n        /* \"contracts/solidity/solidity101/HelloWeb3.sol\":1388:1403  uint256 balance */\n      0x00\n        /* \"contracts/solidity/solidity101/HelloWeb3.sol\":1415:1422  minus() */\n      tag_67\n        /* \"contracts/solidity/solidity101/HelloWeb3.sol\":1415:1420  minus */\n      tag_68\n        /* \"contracts/solidity/solidity101/HelloWeb3.sol\":1415:1422  minus() */\n      jump\t// in\n    tag_67:\n        /* \"contracts/solidity/solidity101/HelloWeb3.sol\":1442:1463  address(this).balance */\n      selfbalance\n        /* \"contracts/solidity/solidity101/HelloWeb3.sol\":1432:1463  balance = address(this).balance */\n      swap1\n      pop\n        /* \"contracts/solidity/solidity101/HelloWeb3.sol\":1338:1470  function minusPayable() external payable returns (uint256 balance) {... */\n      swap1\n      jump\t// out\n        /* \"contracts/solidity/solidity101/HelloWeb3.sol\":169:199  uint256[2] public result=[1,2] */\n    tag_23:\n      0x02\n      dup2\n      0x02\n      dup2\n      lt\n      tag_69\n      jumpi\n      0x00\n      dup1\n      revert\n    tag_69:\n      add\n      0x00\n      swap2\n      pop\n      swap1\n      pop\n      sload\n      dup2\n      jump\t// out\n        /* \"contracts/solidity/solidity101/HelloWeb3.sol\":1925:2186  function returnNamed()... */\n    tag_27:\n        /* \"contracts/solidity/solidity101/HelloWeb3.sol\":2006:2021  uint256 _number */\n      0x00\n        /* \"contracts/solidity/solidity101/HelloWeb3.sol\":2035:2045  bool _bool */\n      dup1\n        /* \"contracts/solidity/solidity101/HelloWeb3.sol\":2059:2083  uint256[3] memory _array */\n      tag_71\n      tag_72\n      jump\t// in\n    tag_71:\n        /* \"contracts/solidity/solidity101/HelloWeb3.sol\":2118:2119  2 */\n      0x02\n        /* \"contracts/solidity/solidity101/HelloWeb3.sol\":2108:2119  _number = 2 */\n      swap3\n      pop\n        /* \"contracts/solidity/solidity101/HelloWeb3.sol\":2137:2142  false */\n      0x00\n        /* \"contracts/solidity/solidity101/HelloWeb3.sol\":2129:2142  _bool = false */\n      swap2\n      pop\n        /* \"contracts/solidity/solidity101/HelloWeb3.sol\":2152:2179  _array = [uint256(3), 2, 1] */\n      mload(0x40)\n      dup1\n      0x60\n      add\n      0x40\n      mstore\n      dup1\n        /* \"contracts/solidity/solidity101/HelloWeb3.sol\":2170:2171  3 */\n      0x03\n        /* \"contracts/solidity/solidity101/HelloWeb3.sol\":2152:2179  _array = [uint256(3), 2, 1] */\n      dup2\n      mstore\n      0x20\n      add\n        /* \"contracts/solidity/solidity101/HelloWeb3.sol\":2174:2175  2 */\n      0x02\n        /* \"contracts/solidity/solidity101/HelloWeb3.sol\":2152:2179  _array = [uint256(3), 2, 1] */\n      dup2\n      mstore\n      0x20\n      add\n        /* \"contracts/solidity/solidity101/HelloWeb3.sol\":2177:2178  1 */\n      0x01\n        /* \"contracts/solidity/solidity101/HelloWeb3.sol\":2152:2179  _array = [uint256(3), 2, 1] */\n      dup2\n      mstore\n      pop\n      swap1\n      pop\n        /* \"contracts/solidity/solidity101/HelloWeb3.sol\":1925:2186  function returnNamed()... */\n      swap1\n      swap2\n      swap3\n      jump\t// out\n        /* \"contracts/solidity/solidity101/HelloWeb3.sol\":2584:2748  function arrayPush() public returns(uint[] memory){... */\n    tag_32:\n        /* \"contracts/solidity/solidity101/HelloWeb3.sol\":2620:2633  uint[] memory */\n      0x60\n        /* \"contracts/solidity/solidity101/HelloWeb3.sol\":2644:2660  uint[2] memory a */\n      0x00\n        /* \"contracts/solidity/solidity101/HelloWeb3.sol\":2644:2674  uint[2] memory a = [uint(1),2] */\n      mload(0x40)\n      dup1\n      0x40\n      add\n      0x40\n      mstore\n      dup1\n        /* \"contracts/solidity/solidity101/HelloWeb3.sol\":2669:2670  1 */\n      0x01\n        /* \"contracts/solidity/solidity101/HelloWeb3.sol\":2644:2674  uint[2] memory a = [uint(1),2] */\n      dup2\n      mstore\n      0x20\n      add\n        /* \"contracts/solidity/solidity101/HelloWeb3.sol\":2672:2673  2 */\n      0x02\n        /* \"contracts/solidity/solidity101/HelloWeb3.sol\":2644:2674  uint[2] memory a = [uint(1),2] */\n      dup2\n      mstore\n      pop\n      swap1\n      pop\n        /* \"contracts/solidity/solidity101/HelloWeb3.sol\":2693:2694  a */\n      dup1\n        /* \"contracts/solidity/solidity101/HelloWeb3.sol\":2684:2690  array4 */\n      0x04\n        /* \"contracts/solidity/solidity101/HelloWeb3.sol\":2684:2694  array4 = a */\n      swap1\n      0x02\n      tag_75\n      swap3\n      swap2\n      swap1\n      tag_76\n      jump\t// in\n    tag_75:\n      pop\n        /* \"contracts/solidity/solidity101/HelloWeb3.sol\":2704:2710  array4 */\n      0x04\n        /* \"contracts/solidity/solidity101/HelloWeb3.sol\":2716:2717  3 */\n      0x03\n        /* \"contracts/solidity/solidity101/HelloWeb3.sol\":2704:2718  array4.push(3) */\n      swap1\n      dup1\n      0x01\n      dup2\n      sload\n      add\n      dup1\n      dup3\n      sstore\n      dup1\n      swap2\n      pop\n      pop\n      0x01\n      swap1\n      sub\n      swap1\n      0x00\n      mstore\n      keccak256(0x00, 0x20)\n      add\n      0x00\n      swap1\n      swap2\n      swap1\n      swap2\n      swap1\n      swap2\n      pop\n      sstore\n        /* \"contracts/solidity/solidity101/HelloWeb3.sol\":2735:2741  array4 */\n      0x04\n        /* \"contracts/solidity/solidity101/HelloWeb3.sol\":2728:2741  return array4 */\n      dup1\n      sload\n      dup1\n      0x20\n      mul\n      0x20\n      add\n      mload(0x40)\n      swap1\n      dup2\n      add\n      0x40\n      mstore\n      dup1\n      swap3\n      swap2\n      swap1\n      dup2\n      dup2\n      mstore\n      0x20\n      add\n      dup3\n      dup1\n      sload\n      dup1\n      iszero\n      tag_78\n      jumpi\n      0x20\n      mul\n      dup3\n      add\n      swap2\n      swap1\n      0x00\n      mstore\n      keccak256(0x00, 0x20)\n      swap1\n    tag_79:\n      dup2\n      sload\n      dup2\n      mstore\n      0x20\n      add\n      swap1\n      0x01\n      add\n      swap1\n      dup1\n      dup4\n      gt\n      tag_79\n      jumpi\n    tag_78:\n      pop\n      pop\n      pop\n      pop\n      pop\n      swap2\n      pop\n      pop\n        /* \"contracts/solidity/solidity101/HelloWeb3.sol\":2584:2748  function arrayPush() public returns(uint[] memory){... */\n      swap1\n      jump\t// out\n        /* \"contracts/solidity/solidity101/HelloWeb3.sol\":378:438  function add() external {... */\n    tag_37:\n        /* \"contracts/solidity/solidity101/HelloWeb3.sol\":430:431  1 */\n      0x01\n        /* \"contracts/solidity/solidity101/HelloWeb3.sol\":421:427  number */\n      dup1\n      sload\n        /* \"contracts/solidity/solidity101/HelloWeb3.sol\":421:431  number + 1 */\n      tag_81\n      swap2\n      swap1\n      tag_82\n      jump\t// in\n    tag_81:\n        /* \"contracts/solidity/solidity101/HelloWeb3.sol\":412:418  number */\n      0x01\n        /* \"contracts/solidity/solidity101/HelloWeb3.sol\":412:431  number = number + 1 */\n      dup2\n      swap1\n      sstore\n      pop\n        /* \"contracts/solidity/solidity101/HelloWeb3.sol\":378:438  function add() external {... */\n      jump\t// out\n        /* \"contracts/solidity/solidity101/HelloWeb3.sol\":2233:2554  function readReturn() public pure{... */\n    tag_40:\n        /* \"contracts/solidity/solidity101/HelloWeb3.sol\":2309:2324  uint256 _number */\n      0x00\n        /* \"contracts/solidity/solidity101/HelloWeb3.sol\":2334:2344  bool _bool */\n      dup1\n        /* \"contracts/solidity/solidity101/HelloWeb3.sol\":2354:2365  bool _bool2 */\n      0x00\n        /* \"contracts/solidity/solidity101/HelloWeb3.sol\":2375:2399  uint256[3] memory _array */\n      tag_84\n      tag_72\n      jump\t// in\n    tag_84:\n        /* \"contracts/solidity/solidity101/HelloWeb3.sol\":2436:2449  returnNamed() */\n      tag_85\n        /* \"contracts/solidity/solidity101/HelloWeb3.sol\":2436:2447  returnNamed */\n      tag_27\n        /* \"contracts/solidity/solidity101/HelloWeb3.sol\":2436:2449  returnNamed() */\n      jump\t// in\n    tag_85:\n        /* \"contracts/solidity/solidity101/HelloWeb3.sol\":2409:2449  (_number, _bool, _array) = returnNamed() */\n      dup1\n      swap4\n      pop\n      dup2\n      swap6\n      pop\n      dup3\n      swap7\n      pop\n      pop\n      pop\n      pop\n        /* \"contracts/solidity/solidity101/HelloWeb3.sol\":2534:2547  returnNamed() */\n      tag_86\n        /* \"contracts/solidity/solidity101/HelloWeb3.sol\":2534:2545  returnNamed */\n      tag_27\n        /* \"contracts/solidity/solidity101/HelloWeb3.sol\":2534:2547  returnNamed() */\n      jump\t// in\n    tag_86:\n        /* \"contracts/solidity/solidity101/HelloWeb3.sol\":2519:2547  (, _bool2, ) = returnNamed() */\n      swap1\n      swap2\n      pop\n      pop\n      dup1\n      swap3\n      pop\n      pop\n        /* \"contracts/solidity/solidity101/HelloWeb3.sol\":2266:2554  {... */\n      pop\n      pop\n      pop\n      pop\n        /* \"contracts/solidity/solidity101/HelloWeb3.sol\":2233:2554  function readReturn() public pure{... */\n      jump\t// out\n        /* \"contracts/solidity/solidity101/HelloWeb3.sol\":500:656  function addPure(uint256 _number)... */\n    tag_44:\n        /* \"contracts/solidity/solidity101/HelloWeb3.sol\":581:604  uint256 new_number_pure */\n      0x00\n        /* \"contracts/solidity/solidity101/HelloWeb3.sol\":648:649  1 */\n      0x01\n        /* \"contracts/solidity/solidity101/HelloWeb3.sol\":638:645  _number */\n      dup3\n        /* \"contracts/solidity/solidity101/HelloWeb3.sol\":638:649  _number + 1 */\n      tag_88\n      swap2\n      swap1\n      tag_82\n      jump\t// in\n    tag_88:\n        /* \"contracts/solidity/solidity101/HelloWeb3.sol\":620:649  new_number_pure = _number + 1 */\n      swap1\n      pop\n        /* \"contracts/solidity/solidity101/HelloWeb3.sol\":500:656  function addPure(uint256 _number)... */\n      swap2\n      swap1\n      pop\n      jump\t// out\n        /* \"contracts/solidity/solidity101/HelloWeb3.sol\":1222:1276  function minusCall() external {... */\n    tag_48:\n        /* \"contracts/solidity/solidity101/HelloWeb3.sol\":1262:1269  minus() */\n      tag_90\n        /* \"contracts/solidity/solidity101/HelloWeb3.sol\":1262:1267  minus */\n      tag_68\n        /* \"contracts/solidity/solidity101/HelloWeb3.sol\":1262:1269  minus() */\n      jump\t// in\n    tag_90:\n        /* \"contracts/solidity/solidity101/HelloWeb3.sol\":1222:1276  function minusCall() external {... */\n      jump\t// out\n        /* \"contracts/solidity/solidity101/HelloWeb3.sol\":137:163  uint256 public  number = 5 */\n    tag_51:\n      sload(0x01)\n      dup2\n      jump\t// out\n        /* \"contracts/solidity/solidity101/HelloWeb3.sol\":722:823  function addView() external view returns (uint256 new_number_view) {... */\n    tag_55:\n        /* \"contracts/solidity/solidity101/HelloWeb3.sol\":764:787  uint256 new_number_view */\n      0x00\n        /* \"contracts/solidity/solidity101/HelloWeb3.sol\":815:816  1 */\n      0x01\n        /* \"contracts/solidity/solidity101/HelloWeb3.sol\":806:812  number */\n      dup1\n      sload\n        /* \"contracts/solidity/solidity101/HelloWeb3.sol\":806:816  number + 1 */\n      tag_92\n      swap2\n      swap1\n      tag_82\n      jump\t// in\n    tag_92:\n        /* \"contracts/solidity/solidity101/HelloWeb3.sol\":799:816  return number + 1 */\n      swap1\n      pop\n        /* \"contracts/solidity/solidity101/HelloWeb3.sol\":722:823  function addView() external view returns (uint256 new_number_view) {... */\n      swap1\n      jump\t// out\n        /* \"contracts/solidity/solidity101/HelloWeb3.sol\":1688:1896  function returnMultiple()... */\n    tag_59:\n        /* \"contracts/solidity/solidity101/HelloWeb3.sol\":1772:1779  uint256 */\n      0x00\n        /* \"contracts/solidity/solidity101/HelloWeb3.sol\":1793:1797  bool */\n      dup1\n        /* \"contracts/solidity/solidity101/HelloWeb3.sol\":1811:1828  uint256[3] memory */\n      tag_93\n      tag_72\n      jump\t// in\n    tag_93:\n        /* \"contracts/solidity/solidity101/HelloWeb3.sol\":1861:1862  1 */\n      0x01\n        /* \"contracts/solidity/solidity101/HelloWeb3.sol\":1864:1868  true */\n      dup1\n        /* \"contracts/solidity/solidity101/HelloWeb3.sol\":1853:1889  return (1, true, [uint256(1), 2, 5]) */\n      mload(0x40)\n      dup1\n      0x60\n      add\n      0x40\n      mstore\n      dup1\n        /* \"contracts/solidity/solidity101/HelloWeb3.sol\":1879:1880  1 */\n      0x01\n        /* \"contracts/solidity/solidity101/HelloWeb3.sol\":1853:1889  return (1, true, [uint256(1), 2, 5]) */\n      dup2\n      mstore\n      0x20\n      add\n        /* \"contracts/solidity/solidity101/HelloWeb3.sol\":1883:1884  2 */\n      0x02\n        /* \"contracts/solidity/solidity101/HelloWeb3.sol\":1853:1889  return (1, true, [uint256(1), 2, 5]) */\n      dup2\n      mstore\n      0x20\n      add\n        /* \"contracts/solidity/solidity101/HelloWeb3.sol\":1886:1887  5 */\n      0x05\n        /* \"contracts/solidity/solidity101/HelloWeb3.sol\":1853:1889  return (1, true, [uint256(1), 2, 5]) */\n      dup2\n      mstore\n      pop\n      swap3\n      pop\n      swap3\n      pop\n      swap3\n      pop\n        /* \"contracts/solidity/solidity101/HelloWeb3.sol\":1688:1896  function returnMultiple()... */\n      swap1\n      swap2\n      swap3\n      jump\t// out\n        /* \"contracts/solidity/solidity101/HelloWeb3.sol\":91:130  string public greeting = \"Hello, Web3!\" */\n    tag_63:\n      0x00\n      dup1\n      sload\n      tag_95\n      swap1\n      tag_96\n      jump\t// in\n    tag_95:\n      dup1\n      0x1f\n      add\n      0x20\n      dup1\n      swap2\n      div\n      mul\n      0x20\n      add\n      mload(0x40)\n      swap1\n      dup2\n      add\n      0x40\n      mstore\n      dup1\n      swap3\n      swap2\n      swap1\n      dup2\n      dup2\n      mstore\n      0x20\n      add\n      dup3\n      dup1\n      sload\n      tag_97\n      swap1\n      tag_96\n      jump\t// in\n    tag_97:\n      dup1\n      iszero\n      tag_98\n      jumpi\n      dup1\n      0x1f\n      lt\n      tag_99\n      jumpi\n      0x0100\n      dup1\n      dup4\n      sload\n      div\n      mul\n      dup4\n      mstore\n      swap2\n      0x20\n      add\n      swap2\n      jump(tag_98)\n    tag_99:\n      dup3\n      add\n      swap2\n      swap1\n      0x00\n      mstore\n      keccak256(0x00, 0x20)\n      swap1\n    tag_100:\n      dup2\n      sload\n      dup2\n      mstore\n      swap1\n      0x01\n      add\n      swap1\n      0x20\n      add\n      dup1\n      dup4\n      gt\n      tag_100\n      jumpi\n      dup3\n      swap1\n      sub\n      0x1f\n      and\n      dup3\n      add\n      swap2\n    tag_98:\n      pop\n      pop\n      pop\n      pop\n      pop\n      dup2\n      jump\t// out\n        /* \"contracts/solidity/solidity101/HelloWeb3.sol\":895:1067  function minus() internal {... */\n    tag_68:\n        /* \"contracts/solidity/solidity101/HelloWeb3.sol\":980:981  0 */\n      0x00\n        /* \"contracts/solidity/solidity101/HelloWeb3.sol\":970:976  number */\n      sload(0x01)\n        /* \"contracts/solidity/solidity101/HelloWeb3.sol\":970:981  number == 0 */\n      sub\n        /* \"contracts/solidity/solidity101/HelloWeb3.sol\":966:1032  if (number == 0) {... */\n      tag_102\n      jumpi\n        /* \"contracts/solidity/solidity101/HelloWeb3.sol\":997:1021  revert(\"number is zero\") */\n      mload(0x40)\n      0x08c379a000000000000000000000000000000000000000000000000000000000\n      dup2\n      mstore\n      0x04\n      add\n      tag_103\n      swap1\n      tag_104\n      jump\t// in\n    tag_103:\n      mload(0x40)\n      dup1\n      swap2\n      sub\n      swap1\n      revert\n        /* \"contracts/solidity/solidity101/HelloWeb3.sol\":966:1032  if (number == 0) {... */\n    tag_102:\n        /* \"contracts/solidity/solidity101/HelloWeb3.sol\":1059:1060  1 */\n      0x01\n        /* \"contracts/solidity/solidity101/HelloWeb3.sol\":1050:1056  number */\n      dup1\n      sload\n        /* \"contracts/solidity/solidity101/HelloWeb3.sol\":1050:1060  number - 1 */\n      tag_105\n      swap2\n      swap1\n      tag_106\n      jump\t// in\n    tag_105:\n        /* \"contracts/solidity/solidity101/HelloWeb3.sol\":1041:1047  number */\n      0x01\n        /* \"contracts/solidity/solidity101/HelloWeb3.sol\":1041:1060  number = number - 1 */\n      dup2\n      swap1\n      sstore\n      pop\n        /* \"contracts/solidity/solidity101/HelloWeb3.sol\":895:1067  function minus() internal {... */\n      jump\t// out\n    tag_72:\n      mload(0x40)\n      dup1\n      0x60\n      add\n      0x40\n      mstore\n      dup1\n      0x03\n      swap1\n      0x20\n      dup3\n      mul\n      dup1\n      calldatasize\n      dup4\n      calldatacopy\n      dup1\n      dup3\n      add\n      swap2\n      pop\n      pop\n      swap1\n      pop\n      pop\n      swap1\n      jump\t// out\n    tag_76:\n      dup3\n      dup1\n      sload\n      dup3\n      dup3\n      sstore\n      swap1\n      0x00\n      mstore\n      keccak256(0x00, 0x20)\n      swap1\n      dup2\n      add\n      swap3\n      dup3\n      iszero\n      tag_107\n      jumpi\n      swap2\n      0x20\n      mul\n      dup3\n      add\n    tag_108:\n      dup3\n      dup2\n      gt\n      iszero\n      tag_109\n      jumpi\n      dup3\n      mload\n      dup3\n      sstore\n      swap2\n      0x20\n      add\n      swap2\n      swap1\n      0x01\n      add\n      swap1\n      jump(tag_108)\n    tag_109:\n    tag_107:\n      pop\n      swap1\n      pop\n      tag_110\n      swap2\n      swap1\n      tag_111\n      jump\t// in\n    tag_110:\n      pop\n      swap1\n      jump\t// out\n    tag_111:\n    tag_112:\n      dup1\n      dup3\n      gt\n      iszero\n      tag_113\n      jumpi\n      0x00\n      dup2\n      0x00\n      swap1\n      sstore\n      pop\n      0x01\n      add\n      jump(tag_112)\n    tag_113:\n      pop\n      swap1\n      jump\t// out\n        /* \"#utility.yul\":7:84   */\n    tag_114:\n        /* \"#utility.yul\":44:51   */\n      0x00\n        /* \"#utility.yul\":73:78   */\n      dup2\n        /* \"#utility.yul\":62:78   */\n      swap1\n      pop\n        /* \"#utility.yul\":7:84   */\n      swap2\n      swap1\n      pop\n      jump\t// out\n        /* \"#utility.yul\":90:208   */\n    tag_115:\n        /* \"#utility.yul\":177:201   */\n      tag_147\n        /* \"#utility.yul\":195:200   */\n      dup2\n        /* \"#utility.yul\":177:201   */\n      tag_114\n      jump\t// in\n    tag_147:\n        /* \"#utility.yul\":172:175   */\n      dup3\n        /* \"#utility.yul\":165:202   */\n      mstore\n        /* \"#utility.yul\":90:208   */\n      pop\n      pop\n      jump\t// out\n        /* \"#utility.yul\":214:436   */\n    tag_18:\n        /* \"#utility.yul\":307:311   */\n      0x00\n        /* \"#utility.yul\":345:347   */\n      0x20\n        /* \"#utility.yul\":334:343   */\n      dup3\n        /* \"#utility.yul\":330:348   */\n      add\n        /* \"#utility.yul\":322:348   */\n      swap1\n      pop\n        /* \"#utility.yul\":358:429   */\n      tag_149\n        /* \"#utility.yul\":426:427   */\n      0x00\n        /* \"#utility.yul\":415:424   */\n      dup4\n        /* \"#utility.yul\":411:428   */\n      add\n        /* \"#utility.yul\":402:408   */\n      dup5\n        /* \"#utility.yul\":358:429   */\n      tag_115\n      jump\t// in\n    tag_149:\n        /* \"#utility.yul\":214:436   */\n      swap3\n      swap2\n      pop\n      pop\n      jump\t// out\n        /* \"#utility.yul\":523:640   */\n    tag_117:\n        /* \"#utility.yul\":632:633   */\n      0x00\n        /* \"#utility.yul\":629:630   */\n      dup1\n        /* \"#utility.yul\":622:634   */\n      revert\n        /* \"#utility.yul\":769:891   */\n    tag_119:\n        /* \"#utility.yul\":842:866   */\n      tag_154\n        /* \"#utility.yul\":860:865   */\n      dup2\n        /* \"#utility.yul\":842:866   */\n      tag_114\n      jump\t// in\n    tag_154:\n        /* \"#utility.yul\":835:840   */\n      dup2\n        /* \"#utility.yul\":832:867   */\n      eq\n        /* \"#utility.yul\":822:885   */\n      tag_155\n      jumpi\n        /* \"#utility.yul\":881:882   */\n      0x00\n        /* \"#utility.yul\":878:879   */\n      dup1\n        /* \"#utility.yul\":871:883   */\n      revert\n        /* \"#utility.yul\":822:885   */\n    tag_155:\n        /* \"#utility.yul\":769:891   */\n      pop\n      jump\t// out\n        /* \"#utility.yul\":897:1036   */\n    tag_120:\n        /* \"#utility.yul\":943:948   */\n      0x00\n        /* \"#utility.yul\":981:987   */\n      dup2\n        /* \"#utility.yul\":968:988   */\n      calldataload\n        /* \"#utility.yul\":959:988   */\n      swap1\n      pop\n        /* \"#utility.yul\":997:1030   */\n      tag_157\n        /* \"#utility.yul\":1024:1029   */\n      dup2\n        /* \"#utility.yul\":997:1030   */\n      tag_119\n      jump\t// in\n    tag_157:\n        /* \"#utility.yul\":897:1036   */\n      swap3\n      swap2\n      pop\n      pop\n      jump\t// out\n        /* \"#utility.yul\":1042:1371   */\n    tag_22:\n        /* \"#utility.yul\":1101:1107   */\n      0x00\n        /* \"#utility.yul\":1150:1152   */\n      0x20\n        /* \"#utility.yul\":1138:1147   */\n      dup3\n        /* \"#utility.yul\":1129:1136   */\n      dup5\n        /* \"#utility.yul\":1125:1148   */\n      sub\n        /* \"#utility.yul\":1121:1153   */\n      slt\n        /* \"#utility.yul\":1118:1237   */\n      iszero\n      tag_159\n      jumpi\n        /* \"#utility.yul\":1156:1235   */\n      tag_160\n      tag_117\n      jump\t// in\n    tag_160:\n        /* \"#utility.yul\":1118:1237   */\n    tag_159:\n        /* \"#utility.yul\":1276:1277   */\n      0x00\n        /* \"#utility.yul\":1301:1354   */\n      tag_161\n        /* \"#utility.yul\":1346:1353   */\n      dup5\n        /* \"#utility.yul\":1337:1343   */\n      dup3\n        /* \"#utility.yul\":1326:1335   */\n      dup6\n        /* \"#utility.yul\":1322:1344   */\n      add\n        /* \"#utility.yul\":1301:1354   */\n      tag_120\n      jump\t// in\n    tag_161:\n        /* \"#utility.yul\":1291:1354   */\n      swap2\n      pop\n        /* \"#utility.yul\":1247:1364   */\n      pop\n        /* \"#utility.yul\":1042:1371   */\n      swap3\n      swap2\n      pop\n      pop\n      jump\t// out\n        /* \"#utility.yul\":1377:1467   */\n    tag_121:\n        /* \"#utility.yul\":1411:1418   */\n      0x00\n        /* \"#utility.yul\":1454:1459   */\n      dup2\n        /* \"#utility.yul\":1447:1460   */\n      iszero\n        /* \"#utility.yul\":1440:1461   */\n      iszero\n        /* \"#utility.yul\":1429:1461   */\n      swap1\n      pop\n        /* \"#utility.yul\":1377:1467   */\n      swap2\n      swap1\n      pop\n      jump\t// out\n        /* \"#utility.yul\":1473:1582   */\n    tag_122:\n        /* \"#utility.yul\":1554:1575   */\n      tag_164\n        /* \"#utility.yul\":1569:1574   */\n      dup2\n        /* \"#utility.yul\":1554:1575   */\n      tag_121\n      jump\t// in\n    tag_164:\n        /* \"#utility.yul\":1549:1552   */\n      dup3\n        /* \"#utility.yul\":1542:1576   */\n      mstore\n        /* \"#utility.yul\":1473:1582   */\n      pop\n      pop\n      jump\t// out\n        /* \"#utility.yul\":1588:1692   */\n    tag_123:\n        /* \"#utility.yul\":1653:1659   */\n      0x00\n        /* \"#utility.yul\":1681:1685   */\n      0x03\n        /* \"#utility.yul\":1671:1685   */\n      swap1\n      pop\n        /* \"#utility.yul\":1588:1692   */\n      swap2\n      swap1\n      pop\n      jump\t// out\n        /* \"#utility.yul\":1698:1841   */\n    tag_124:\n        /* \"#utility.yul\":1795:1806   */\n      0x00\n        /* \"#utility.yul\":1832:1835   */\n      dup2\n        /* \"#utility.yul\":1817:1835   */\n      swap1\n      pop\n        /* \"#utility.yul\":1698:1841   */\n      swap3\n      swap2\n      pop\n      pop\n      jump\t// out\n        /* \"#utility.yul\":1847:1945   */\n    tag_125:\n        /* \"#utility.yul\":1912:1916   */\n      0x00\n        /* \"#utility.yul\":1935:1938   */\n      dup2\n        /* \"#utility.yul\":1927:1938   */\n      swap1\n      pop\n        /* \"#utility.yul\":1847:1945   */\n      swap2\n      swap1\n      pop\n      jump\t// out\n        /* \"#utility.yul\":1951:2059   */\n    tag_126:\n        /* \"#utility.yul\":2028:2052   */\n      tag_169\n        /* \"#utility.yul\":2046:2051   */\n      dup2\n        /* \"#utility.yul\":2028:2052   */\n      tag_114\n      jump\t// in\n    tag_169:\n        /* \"#utility.yul\":2023:2026   */\n      dup3\n        /* \"#utility.yul\":2016:2053   */\n      mstore\n        /* \"#utility.yul\":1951:2059   */\n      pop\n      pop\n      jump\t// out\n        /* \"#utility.yul\":2065:2244   */\n    tag_127:\n        /* \"#utility.yul\":2134:2144   */\n      0x00\n        /* \"#utility.yul\":2155:2201   */\n      tag_171\n        /* \"#utility.yul\":2197:2200   */\n      dup4\n        /* \"#utility.yul\":2189:2195   */\n      dup4\n        /* \"#utility.yul\":2155:2201   */\n      tag_126\n      jump\t// in\n    tag_171:\n        /* \"#utility.yul\":2233:2237   */\n      0x20\n        /* \"#utility.yul\":2228:2231   */\n      dup4\n        /* \"#utility.yul\":2224:2238   */\n      add\n        /* \"#utility.yul\":2210:2238   */\n      swap1\n      pop\n        /* \"#utility.yul\":2065:2244   */\n      swap3\n      swap2\n      pop\n      pop\n      jump\t// out\n        /* \"#utility.yul\":2250:2361   */\n    tag_128:\n        /* \"#utility.yul\":2318:2322   */\n      0x00\n        /* \"#utility.yul\":2350:2354   */\n      0x20\n        /* \"#utility.yul\":2345:2348   */\n      dup3\n        /* \"#utility.yul\":2341:2355   */\n      add\n        /* \"#utility.yul\":2333:2355   */\n      swap1\n      pop\n        /* \"#utility.yul\":2250:2361   */\n      swap2\n      swap1\n      pop\n      jump\t// out\n        /* \"#utility.yul\":2399:3093   */\n    tag_129:\n        /* \"#utility.yul\":2535:2587   */\n      tag_174\n        /* \"#utility.yul\":2581:2586   */\n      dup2\n        /* \"#utility.yul\":2535:2587   */\n      tag_123\n      jump\t// in\n    tag_174:\n        /* \"#utility.yul\":2603:2687   */\n      tag_175\n        /* \"#utility.yul\":2680:2686   */\n      dup2\n        /* \"#utility.yul\":2675:2678   */\n      dup5\n        /* \"#utility.yul\":2603:2687   */\n      tag_124\n      jump\t// in\n    tag_175:\n        /* \"#utility.yul\":2596:2687   */\n      swap3\n      pop\n        /* \"#utility.yul\":2711:2765   */\n      tag_176\n        /* \"#utility.yul\":2759:2764   */\n      dup3\n        /* \"#utility.yul\":2711:2765   */\n      tag_125\n      jump\t// in\n    tag_176:\n        /* \"#utility.yul\":2788:2795   */\n      dup1\n        /* \"#utility.yul\":2819:2820   */\n      0x00\n        /* \"#utility.yul\":2804:3086   */\n    tag_177:\n        /* \"#utility.yul\":2829:2835   */\n      dup4\n        /* \"#utility.yul\":2826:2827   */\n      dup2\n        /* \"#utility.yul\":2823:2836   */\n      lt\n        /* \"#utility.yul\":2804:3086   */\n      iszero\n      tag_179\n      jumpi\n        /* \"#utility.yul\":2905:2911   */\n      dup2\n        /* \"#utility.yul\":2899:2912   */\n      mload\n        /* \"#utility.yul\":2932:2995   */\n      tag_180\n        /* \"#utility.yul\":2991:2994   */\n      dup8\n        /* \"#utility.yul\":2976:2989   */\n      dup3\n        /* \"#utility.yul\":2932:2995   */\n      tag_127\n      jump\t// in\n    tag_180:\n        /* \"#utility.yul\":2925:2995   */\n      swap7\n      pop\n        /* \"#utility.yul\":3018:3076   */\n      tag_181\n        /* \"#utility.yul\":3069:3075   */\n      dup4\n        /* \"#utility.yul\":3018:3076   */\n      tag_128\n      jump\t// in\n    tag_181:\n        /* \"#utility.yul\":3008:3076   */\n      swap3\n      pop\n        /* \"#utility.yul\":2864:3086   */\n      pop\n        /* \"#utility.yul\":2851:2852   */\n      0x01\n        /* \"#utility.yul\":2848:2849   */\n      dup2\n        /* \"#utility.yul\":2844:2853   */\n      add\n        /* \"#utility.yul\":2839:2853   */\n      swap1\n      pop\n        /* \"#utility.yul\":2804:3086   */\n      jump(tag_177)\n    tag_179:\n        /* \"#utility.yul\":2808:2822   */\n      pop\n        /* \"#utility.yul\":2511:3093   */\n      pop\n      pop\n      pop\n        /* \"#utility.yul\":2399:3093   */\n      pop\n      pop\n      jump\t// out\n        /* \"#utility.yul\":3099:3622   */\n    tag_29:\n        /* \"#utility.yul\":3288:3292   */\n      0x00\n        /* \"#utility.yul\":3326:3329   */\n      0xa0\n        /* \"#utility.yul\":3315:3324   */\n      dup3\n        /* \"#utility.yul\":3311:3330   */\n      add\n        /* \"#utility.yul\":3303:3330   */\n      swap1\n      pop\n        /* \"#utility.yul\":3340:3411   */\n      tag_183\n        /* \"#utility.yul\":3408:3409   */\n      0x00\n        /* \"#utility.yul\":3397:3406   */\n      dup4\n        /* \"#utility.yul\":3393:3410   */\n      add\n        /* \"#utility.yul\":3384:3390   */\n      dup7\n        /* \"#utility.yul\":3340:3411   */\n      tag_115\n      jump\t// in\n    tag_183:\n        /* \"#utility.yul\":3421:3487   */\n      tag_184\n        /* \"#utility.yul\":3483:3485   */\n      0x20\n        /* \"#utility.yul\":3472:3481   */\n      dup4\n        /* \"#utility.yul\":3468:3486   */\n      add\n        /* \"#utility.yul\":3459:3465   */\n      dup6\n        /* \"#utility.yul\":3421:3487   */\n      tag_122\n      jump\t// in\n    tag_184:\n        /* \"#utility.yul\":3497:3615   */\n      tag_185\n        /* \"#utility.yul\":3611:3613   */\n      0x40\n        /* \"#utility.yul\":3600:3609   */\n      dup4\n        /* \"#utility.yul\":3596:3614   */\n      add\n        /* \"#utility.yul\":3587:3593   */\n      dup5\n        /* \"#utility.yul\":3497:3615   */\n      tag_129\n      jump\t// in\n    tag_185:\n        /* \"#utility.yul\":3099:3622   */\n      swap5\n      swap4\n      pop\n      pop\n      pop\n      pop\n      jump\t// out\n        /* \"#utility.yul\":3628:3742   */\n    tag_130:\n        /* \"#utility.yul\":3695:3701   */\n      0x00\n        /* \"#utility.yul\":3729:3734   */\n      dup2\n        /* \"#utility.yul\":3723:3735   */\n      mload\n        /* \"#utility.yul\":3713:3735   */\n      swap1\n      pop\n        /* \"#utility.yul\":3628:3742   */\n      swap2\n      swap1\n      pop\n      jump\t// out\n        /* \"#utility.yul\":3748:3932   */\n    tag_131:\n        /* \"#utility.yul\":3847:3858   */\n      0x00\n        /* \"#utility.yul\":3881:3887   */\n      dup3\n        /* \"#utility.yul\":3876:3879   */\n      dup3\n        /* \"#utility.yul\":3869:3888   */\n      mstore\n        /* \"#utility.yul\":3921:3925   */\n      0x20\n        /* \"#utility.yul\":3916:3919   */\n      dup3\n        /* \"#utility.yul\":3912:3926   */\n      add\n        /* \"#utility.yul\":3897:3926   */\n      swap1\n      pop\n        /* \"#utility.yul\":3748:3932   */\n      swap3\n      swap2\n      pop\n      pop\n      jump\t// out\n        /* \"#utility.yul\":3938:4070   */\n    tag_132:\n        /* \"#utility.yul\":4005:4009   */\n      0x00\n        /* \"#utility.yul\":4028:4031   */\n      dup2\n        /* \"#utility.yul\":4020:4031   */\n      swap1\n      pop\n        /* \"#utility.yul\":4058:4062   */\n      0x20\n        /* \"#utility.yul\":4053:4056   */\n      dup3\n        /* \"#utility.yul\":4049:4063   */\n      add\n        /* \"#utility.yul\":4041:4063   */\n      swap1\n      pop\n        /* \"#utility.yul\":3938:4070   */\n      swap2\n      swap1\n      pop\n      jump\t// out\n        /* \"#utility.yul\":4076:4189   */\n    tag_133:\n        /* \"#utility.yul\":4146:4150   */\n      0x00\n        /* \"#utility.yul\":4178:4182   */\n      0x20\n        /* \"#utility.yul\":4173:4176   */\n      dup3\n        /* \"#utility.yul\":4169:4183   */\n      add\n        /* \"#utility.yul\":4161:4183   */\n      swap1\n      pop\n        /* \"#utility.yul\":4076:4189   */\n      swap2\n      swap1\n      pop\n      jump\t// out\n        /* \"#utility.yul\":4225:4957   */\n    tag_134:\n        /* \"#utility.yul\":4344:4347   */\n      0x00\n        /* \"#utility.yul\":4373:4427   */\n      tag_191\n        /* \"#utility.yul\":4421:4426   */\n      dup3\n        /* \"#utility.yul\":4373:4427   */\n      tag_130\n      jump\t// in\n    tag_191:\n        /* \"#utility.yul\":4443:4529   */\n      tag_192\n        /* \"#utility.yul\":4522:4528   */\n      dup2\n        /* \"#utility.yul\":4517:4520   */\n      dup6\n        /* \"#utility.yul\":4443:4529   */\n      tag_131\n      jump\t// in\n    tag_192:\n        /* \"#utility.yul\":4436:4529   */\n      swap4\n      pop\n        /* \"#utility.yul\":4553:4609   */\n      tag_193\n        /* \"#utility.yul\":4603:4608   */\n      dup4\n        /* \"#utility.yul\":4553:4609   */\n      tag_132\n      jump\t// in\n    tag_193:\n        /* \"#utility.yul\":4632:4639   */\n      dup1\n        /* \"#utility.yul\":4663:4664   */\n      0x00\n        /* \"#utility.yul\":4648:4932   */\n    tag_194:\n        /* \"#utility.yul\":4673:4679   */\n      dup4\n        /* \"#utility.yul\":4670:4671   */\n      dup2\n        /* \"#utility.yul\":4667:4680   */\n      lt\n        /* \"#utility.yul\":4648:4932   */\n      iszero\n      tag_196\n      jumpi\n        /* \"#utility.yul\":4749:4755   */\n      dup2\n        /* \"#utility.yul\":4743:4756   */\n      mload\n        /* \"#utility.yul\":4776:4839   */\n      tag_197\n        /* \"#utility.yul\":4835:4838   */\n      dup9\n        /* \"#utility.yul\":4820:4833   */\n      dup3\n        /* \"#utility.yul\":4776:4839   */\n      tag_127\n      jump\t// in\n    tag_197:\n        /* \"#utility.yul\":4769:4839   */\n      swap8\n      pop\n        /* \"#utility.yul\":4862:4922   */\n      tag_198\n        /* \"#utility.yul\":4915:4921   */\n      dup4\n        /* \"#utility.yul\":4862:4922   */\n      tag_133\n      jump\t// in\n    tag_198:\n        /* \"#utility.yul\":4852:4922   */\n      swap3\n      pop\n        /* \"#utility.yul\":4708:4932   */\n      pop\n        /* \"#utility.yul\":4695:4696   */\n      0x01\n        /* \"#utility.yul\":4692:4693   */\n      dup2\n        /* \"#utility.yul\":4688:4697   */\n      add\n        /* \"#utility.yul\":4683:4697   */\n      swap1\n      pop\n        /* \"#utility.yul\":4648:4932   */\n      jump(tag_194)\n    tag_196:\n        /* \"#utility.yul\":4652:4666   */\n      pop\n        /* \"#utility.yul\":4948:4951   */\n      dup6\n        /* \"#utility.yul\":4941:4951   */\n      swap4\n      pop\n        /* \"#utility.yul\":4349:4957   */\n      pop\n      pop\n      pop\n        /* \"#utility.yul\":4225:4957   */\n      swap3\n      swap2\n      pop\n      pop\n      jump\t// out\n        /* \"#utility.yul\":4963:5336   */\n    tag_34:\n        /* \"#utility.yul\":5106:5110   */\n      0x00\n        /* \"#utility.yul\":5144:5146   */\n      0x20\n        /* \"#utility.yul\":5133:5142   */\n      dup3\n        /* \"#utility.yul\":5129:5147   */\n      add\n        /* \"#utility.yul\":5121:5147   */\n      swap1\n      pop\n        /* \"#utility.yul\":5193:5202   */\n      dup2\n        /* \"#utility.yul\":5187:5191   */\n      dup2\n        /* \"#utility.yul\":5183:5203   */\n      sub\n        /* \"#utility.yul\":5179:5180   */\n      0x00\n        /* \"#utility.yul\":5168:5177   */\n      dup4\n        /* \"#utility.yul\":5164:5181   */\n      add\n        /* \"#utility.yul\":5157:5204   */\n      mstore\n        /* \"#utility.yul\":5221:5329   */\n      tag_200\n        /* \"#utility.yul\":5324:5328   */\n      dup2\n        /* \"#utility.yul\":5315:5321   */\n      dup5\n        /* \"#utility.yul\":5221:5329   */\n      tag_134\n      jump\t// in\n    tag_200:\n        /* \"#utility.yul\":5213:5329   */\n      swap1\n      pop\n        /* \"#utility.yul\":4963:5336   */\n      swap3\n      swap2\n      pop\n      pop\n      jump\t// out\n        /* \"#utility.yul\":5342:5441   */\n    tag_135:\n        /* \"#utility.yul\":5394:5400   */\n      0x00\n        /* \"#utility.yul\":5428:5433   */\n      dup2\n        /* \"#utility.yul\":5422:5434   */\n      mload\n        /* \"#utility.yul\":5412:5434   */\n      swap1\n      pop\n        /* \"#utility.yul\":5342:5441   */\n      swap2\n      swap1\n      pop\n      jump\t// out\n        /* \"#utility.yul\":5447:5616   */\n    tag_136:\n        /* \"#utility.yul\":5531:5542   */\n      0x00\n        /* \"#utility.yul\":5565:5571   */\n      dup3\n        /* \"#utility.yul\":5560:5563   */\n      dup3\n        /* \"#utility.yul\":5553:5572   */\n      mstore\n        /* \"#utility.yul\":5605:5609   */\n      0x20\n        /* \"#utility.yul\":5600:5603   */\n      dup3\n        /* \"#utility.yul\":5596:5610   */\n      add\n        /* \"#utility.yul\":5581:5610   */\n      swap1\n      pop\n        /* \"#utility.yul\":5447:5616   */\n      swap3\n      swap2\n      pop\n      pop\n      jump\t// out\n        /* \"#utility.yul\":5622:5761   */\n    tag_137:\n        /* \"#utility.yul\":5711:5717   */\n      dup3\n        /* \"#utility.yul\":5706:5709   */\n      dup2\n        /* \"#utility.yul\":5701:5704   */\n      dup4\n        /* \"#utility.yul\":5695:5718   */\n      mcopy\n        /* \"#utility.yul\":5752:5753   */\n      0x00\n        /* \"#utility.yul\":5743:5749   */\n      dup4\n        /* \"#utility.yul\":5738:5741   */\n      dup4\n        /* \"#utility.yul\":5734:5750   */\n      add\n        /* \"#utility.yul\":5727:5754   */\n      mstore\n        /* \"#utility.yul\":5622:5761   */\n      pop\n      pop\n      pop\n      jump\t// out\n        /* \"#utility.yul\":5767:5869   */\n    tag_138:\n        /* \"#utility.yul\":5808:5814   */\n      0x00\n        /* \"#utility.yul\":5859:5861   */\n      0x1f\n        /* \"#utility.yul\":5855:5862   */\n      not\n        /* \"#utility.yul\":5850:5852   */\n      0x1f\n        /* \"#utility.yul\":5843:5848   */\n      dup4\n        /* \"#utility.yul\":5839:5853   */\n      add\n        /* \"#utility.yul\":5835:5863   */\n      and\n        /* \"#utility.yul\":5825:5863   */\n      swap1\n      pop\n        /* \"#utility.yul\":5767:5869   */\n      swap2\n      swap1\n      pop\n      jump\t// out\n        /* \"#utility.yul\":5875:6252   */\n    tag_139:\n        /* \"#utility.yul\":5963:5966   */\n      0x00\n        /* \"#utility.yul\":5991:6030   */\n      tag_206\n        /* \"#utility.yul\":6024:6029   */\n      dup3\n        /* \"#utility.yul\":5991:6030   */\n      tag_135\n      jump\t// in\n    tag_206:\n        /* \"#utility.yul\":6046:6117   */\n      tag_207\n        /* \"#utility.yul\":6110:6116   */\n      dup2\n        /* \"#utility.yul\":6105:6108   */\n      dup6\n        /* \"#utility.yul\":6046:6117   */\n      tag_136\n      jump\t// in\n    tag_207:\n        /* \"#utility.yul\":6039:6117   */\n      swap4\n      pop\n        /* \"#utility.yul\":6126:6191   */\n      tag_208\n        /* \"#utility.yul\":6184:6190   */\n      dup2\n        /* \"#utility.yul\":6179:6182   */\n      dup6\n        /* \"#utility.yul\":6172:6176   */\n      0x20\n        /* \"#utility.yul\":6165:6170   */\n      dup7\n        /* \"#utility.yul\":6161:6177   */\n      add\n        /* \"#utility.yul\":6126:6191   */\n      tag_137\n      jump\t// in\n    tag_208:\n        /* \"#utility.yul\":6216:6245   */\n      tag_209\n        /* \"#utility.yul\":6238:6244   */\n      dup2\n        /* \"#utility.yul\":6216:6245   */\n      tag_138\n      jump\t// in\n    tag_209:\n        /* \"#utility.yul\":6211:6214   */\n      dup5\n        /* \"#utility.yul\":6207:6246   */\n      add\n        /* \"#utility.yul\":6200:6246   */\n      swap2\n      pop\n        /* \"#utility.yul\":5967:6252   */\n      pop\n        /* \"#utility.yul\":5875:6252   */\n      swap3\n      swap2\n      pop\n      pop\n      jump\t// out\n        /* \"#utility.yul\":6258:6571   */\n    tag_65:\n        /* \"#utility.yul\":6371:6375   */\n      0x00\n        /* \"#utility.yul\":6409:6411   */\n      0x20\n        /* \"#utility.yul\":6398:6407   */\n      dup3\n        /* \"#utility.yul\":6394:6412   */\n      add\n        /* \"#utility.yul\":6386:6412   */\n      swap1\n      pop\n        /* \"#utility.yul\":6458:6467   */\n      dup2\n        /* \"#utility.yul\":6452:6456   */\n      dup2\n        /* \"#utility.yul\":6448:6468   */\n      sub\n        /* \"#utility.yul\":6444:6445   */\n      0x00\n        /* \"#utility.yul\":6433:6442   */\n      dup4\n        /* \"#utility.yul\":6429:6446   */\n      add\n        /* \"#utility.yul\":6422:6469   */\n      mstore\n        /* \"#utility.yul\":6486:6564   */\n      tag_211\n        /* \"#utility.yul\":6559:6563   */\n      dup2\n        /* \"#utility.yul\":6550:6556   */\n      dup5\n        /* \"#utility.yul\":6486:6564   */\n      tag_139\n      jump\t// in\n    tag_211:\n        /* \"#utility.yul\":6478:6564   */\n      swap1\n      pop\n        /* \"#utility.yul\":6258:6571   */\n      swap3\n      swap2\n      pop\n      pop\n      jump\t// out\n        /* \"#utility.yul\":6577:6757   */\n    tag_140:\n        /* \"#utility.yul\":6625:6702   */\n      0x4e487b7100000000000000000000000000000000000000000000000000000000\n        /* \"#utility.yul\":6622:6623   */\n      0x00\n        /* \"#utility.yul\":6615:6703   */\n      mstore\n        /* \"#utility.yul\":6722:6726   */\n      0x11\n        /* \"#utility.yul\":6719:6720   */\n      0x04\n        /* \"#utility.yul\":6712:6727   */\n      mstore\n        /* \"#utility.yul\":6746:6750   */\n      0x24\n        /* \"#utility.yul\":6743:6744   */\n      0x00\n        /* \"#utility.yul\":6736:6751   */\n      revert\n        /* \"#utility.yul\":6763:6954   */\n    tag_82:\n        /* \"#utility.yul\":6803:6806   */\n      0x00\n        /* \"#utility.yul\":6822:6842   */\n      tag_214\n        /* \"#utility.yul\":6840:6841   */\n      dup3\n        /* \"#utility.yul\":6822:6842   */\n      tag_114\n      jump\t// in\n    tag_214:\n        /* \"#utility.yul\":6817:6842   */\n      swap2\n      pop\n        /* \"#utility.yul\":6856:6876   */\n      tag_215\n        /* \"#utility.yul\":6874:6875   */\n      dup4\n        /* \"#utility.yul\":6856:6876   */\n      tag_114\n      jump\t// in\n    tag_215:\n        /* \"#utility.yul\":6851:6876   */\n      swap3\n      pop\n        /* \"#utility.yul\":6899:6900   */\n      dup3\n        /* \"#utility.yul\":6896:6897   */\n      dup3\n        /* \"#utility.yul\":6892:6901   */\n      add\n        /* \"#utility.yul\":6885:6901   */\n      swap1\n      pop\n        /* \"#utility.yul\":6920:6923   */\n      dup1\n        /* \"#utility.yul\":6917:6918   */\n      dup3\n        /* \"#utility.yul\":6914:6924   */\n      gt\n        /* \"#utility.yul\":6911:6947   */\n      iszero\n      tag_216\n      jumpi\n        /* \"#utility.yul\":6927:6945   */\n      tag_217\n      tag_140\n      jump\t// in\n    tag_217:\n        /* \"#utility.yul\":6911:6947   */\n    tag_216:\n        /* \"#utility.yul\":6763:6954   */\n      swap3\n      swap2\n      pop\n      pop\n      jump\t// out\n        /* \"#utility.yul\":6960:7140   */\n    tag_141:\n        /* \"#utility.yul\":7008:7085   */\n      0x4e487b7100000000000000000000000000000000000000000000000000000000\n        /* \"#utility.yul\":7005:7006   */\n      0x00\n        /* \"#utility.yul\":6998:7086   */\n      mstore\n        /* \"#utility.yul\":7105:7109   */\n      0x22\n        /* \"#utility.yul\":7102:7103   */\n      0x04\n        /* \"#utility.yul\":7095:7110   */\n      mstore\n        /* \"#utility.yul\":7129:7133   */\n      0x24\n        /* \"#utility.yul\":7126:7127   */\n      0x00\n        /* \"#utility.yul\":7119:7134   */\n      revert\n        /* \"#utility.yul\":7146:7466   */\n    tag_96:\n        /* \"#utility.yul\":7190:7196   */\n      0x00\n        /* \"#utility.yul\":7227:7228   */\n      0x02\n        /* \"#utility.yul\":7221:7225   */\n      dup3\n        /* \"#utility.yul\":7217:7229   */\n      div\n        /* \"#utility.yul\":7207:7229   */\n      swap1\n      pop\n        /* \"#utility.yul\":7274:7275   */\n      0x01\n        /* \"#utility.yul\":7268:7272   */\n      dup3\n        /* \"#utility.yul\":7264:7276   */\n      and\n        /* \"#utility.yul\":7295:7313   */\n      dup1\n        /* \"#utility.yul\":7285:7366   */\n      tag_220\n      jumpi\n        /* \"#utility.yul\":7351:7355   */\n      0x7f\n        /* \"#utility.yul\":7343:7349   */\n      dup3\n        /* \"#utility.yul\":7339:7356   */\n      and\n        /* \"#utility.yul\":7329:7356   */\n      swap2\n      pop\n        /* \"#utility.yul\":7285:7366   */\n    tag_220:\n        /* \"#utility.yul\":7413:7415   */\n      0x20\n        /* \"#utility.yul\":7405:7411   */\n      dup3\n        /* \"#utility.yul\":7402:7416   */\n      lt\n        /* \"#utility.yul\":7382:7400   */\n      dup2\n        /* \"#utility.yul\":7379:7417   */\n      sub\n        /* \"#utility.yul\":7376:7460   */\n      tag_221\n      jumpi\n        /* \"#utility.yul\":7432:7450   */\n      tag_222\n      tag_141\n      jump\t// in\n    tag_222:\n        /* \"#utility.yul\":7376:7460   */\n    tag_221:\n        /* \"#utility.yul\":7197:7466   */\n      pop\n        /* \"#utility.yul\":7146:7466   */\n      swap2\n      swap1\n      pop\n      jump\t// out\n        /* \"#utility.yul\":7472:7636   */\n    tag_142:\n        /* \"#utility.yul\":7612:7628   */\n      0x6e756d626572206973207a65726f000000000000000000000000000000000000\n        /* \"#utility.yul\":7608:7609   */\n      0x00\n        /* \"#utility.yul\":7600:7606   */\n      dup3\n        /* \"#utility.yul\":7596:7610   */\n      add\n        /* \"#utility.yul\":7589:7629   */\n      mstore\n        /* \"#utility.yul\":7472:7636   */\n      pop\n      jump\t// out\n        /* \"#utility.yul\":7642:8008   */\n    tag_143:\n        /* \"#utility.yul\":7784:7787   */\n      0x00\n        /* \"#utility.yul\":7805:7872   */\n      tag_225\n        /* \"#utility.yul\":7869:7871   */\n      0x0e\n        /* \"#utility.yul\":7864:7867   */\n      dup4\n        /* \"#utility.yul\":7805:7872   */\n      tag_136\n      jump\t// in\n    tag_225:\n        /* \"#utility.yul\":7798:7872   */\n      swap2\n      pop\n        /* \"#utility.yul\":7881:7974   */\n      tag_226\n        /* \"#utility.yul\":7970:7973   */\n      dup3\n        /* \"#utility.yul\":7881:7974   */\n      tag_142\n      jump\t// in\n    tag_226:\n        /* \"#utility.yul\":7999:8001   */\n      0x20\n        /* \"#utility.yul\":7994:7997   */\n      dup3\n        /* \"#utility.yul\":7990:8002   */\n      add\n        /* \"#utility.yul\":7983:8002   */\n      swap1\n      pop\n        /* \"#utility.yul\":7642:8008   */\n      swap2\n      swap1\n      pop\n      jump\t// out\n        /* \"#utility.yul\":8014:8433   */\n    tag_104:\n        /* \"#utility.yul\":8180:8184   */\n      0x00\n        /* \"#utility.yul\":8218:8220   */\n      0x20\n        /* \"#utility.yul\":8207:8216   */\n      dup3\n        /* \"#utility.yul\":8203:8221   */\n      add\n        /* \"#utility.yul\":8195:8221   */\n      swap1\n      pop\n        /* \"#utility.yul\":8267:8276   */\n      dup2\n        /* \"#utility.yul\":8261:8265   */\n      dup2\n        /* \"#utility.yul\":8257:8277   */\n      sub\n        /* \"#utility.yul\":8253:8254   */\n      0x00\n        /* \"#utility.yul\":8242:8251   */\n      dup4\n        /* \"#utility.yul\":8238:8255   */\n      add\n        /* \"#utility.yul\":8231:8278   */\n      mstore\n        /* \"#utility.yul\":8295:8426   */\n      tag_228\n        /* \"#utility.yul\":8421:8425   */\n      dup2\n        /* \"#utility.yul\":8295:8426   */\n      tag_143\n      jump\t// in\n    tag_228:\n        /* \"#utility.yul\":8287:8426   */\n      swap1\n      pop\n        /* \"#utility.yul\":8014:8433   */\n      swap2\n      swap1\n      pop\n      jump\t// out\n        /* \"#utility.yul\":8439:8633   */\n    tag_106:\n        /* \"#utility.yul\":8479:8483   */\n      0x00\n        /* \"#utility.yul\":8499:8519   */\n      tag_230\n        /* \"#utility.yul\":8517:8518   */\n      dup3\n        /* \"#utility.yul\":8499:8519   */\n      tag_114\n      jump\t// in\n    tag_230:\n        /* \"#utility.yul\":8494:8519   */\n      swap2\n      pop\n        /* \"#utility.yul\":8533:8553   */\n      tag_231\n        /* \"#utility.yul\":8551:8552   */\n      dup4\n        /* \"#utility.yul\":8533:8553   */\n      tag_114\n      jump\t// in\n    tag_231:\n        /* \"#utility.yul\":8528:8553   */\n      swap3\n      pop\n        /* \"#utility.yul\":8577:8578   */\n      dup3\n        /* \"#utility.yul\":8574:8575   */\n      dup3\n        /* \"#utility.yul\":8570:8579   */\n      sub\n        /* \"#utility.yul\":8562:8579   */\n      swap1\n      pop\n        /* \"#utility.yul\":8601:8602   */\n      dup2\n        /* \"#utility.yul\":8595:8599   */\n      dup2\n        /* \"#utility.yul\":8592:8603   */\n      gt\n        /* \"#utility.yul\":8589:8626   */\n      iszero\n      tag_232\n      jumpi\n        /* \"#utility.yul\":8606:8624   */\n      tag_233\n      tag_140\n      jump\t// in\n    tag_233:\n        /* \"#utility.yul\":8589:8626   */\n    tag_232:\n        /* \"#utility.yul\":8439:8633   */\n      swap3\n      swap2\n      pop\n      pop\n      jump\t// out\n\n    auxdata: 0xa2646970667358221220a8320169401591fa0013cd46f05cf32ba4590b0f802c6782eb630e9423f7f8f764736f6c634300081a0033\n}\n",
				"bytecode": {
					"linkReferences": {},
					"object": "60806040526040518060400160405280600c81526020017f48656c6c6f2c20576562332100000000000000000000000000000000000000008152505f90816100479190610326565b5060056001556040518060400160405280600160ff168152602001600260ff16815250600290600261007a92919061008c565b50348015610086575f80fd5b506103f5565b82600281019282156100c0579160200282015b828111156100bf578251829060ff1690559160200191906001019061009f565b5b5090506100cd91906100d1565b5090565b5b808211156100e8575f815f9055506001016100d2565b5090565b5f81519050919050565b7f4e487b71000000000000000000000000000000000000000000000000000000005f52604160045260245ffd5b7f4e487b71000000000000000000000000000000000000000000000000000000005f52602260045260245ffd5b5f600282049050600182168061016757607f821691505b60208210810361017a57610179610123565b5b50919050565b5f819050815f5260205f209050919050565b5f6020601f8301049050919050565b5f82821b905092915050565b5f600883026101dc7fffffffffffffffffffffffffffffffffffffffffffffffffffffffffffffffff826101a1565b6101e686836101a1565b95508019841693508086168417925050509392505050565b5f819050919050565b5f819050919050565b5f61022a610225610220846101fe565b610207565b6101fe565b9050919050565b5f819050919050565b61024383610210565b61025761024f82610231565b8484546101ad565b825550505050565b5f90565b61026b61025f565b61027681848461023a565b505050565b5b818110156102995761028e5f82610263565b60018101905061027c565b5050565b601f8211156102de576102af81610180565b6102b884610192565b810160208510156102c7578190505b6102db6102d385610192565b83018261027b565b50505b505050565b5f82821c905092915050565b5f6102fe5f19846008026102e3565b1980831691505092915050565b5f61031683836102ef565b9150826002028217905092915050565b61032f826100ec565b67ffffffffffffffff811115610348576103476100f6565b5b6103528254610150565b61035d82828561029d565b5f60209050601f83116001811461038e575f841561037c578287015190505b610386858261030b565b8655506103ed565b601f19841661039c86610180565b5f5b828110156103c35784890151825560018201915060208501945060208101905061039e565b868310156103e057848901516103dc601f8916826102ef565b8355505b6001600288020188555050505b505050505050565b6109fe806104025f395ff3fe6080604052600436106100a6575f3560e01c80637032c4f2116100635780637032c4f21461018657806380b4ea08146101c25780638381f58a146101d8578063b262eb7f14610202578063e61e40081461022c578063ef690cc014610258576100a6565b8063303810a6146100aa5780633c594059146100c85780633dece5111461010457806347f6ac11146101305780634f2be91f1461015a5780636f59033014610170575b5f80fd5b6100b2610282565b6040516100bf91906105c9565b60405180910390f35b3480156100d3575f80fd5b506100ee60048036038101906100e99190610610565b610291565b6040516100fb91906105c9565b60405180910390f35b34801561010f575f80fd5b506101186102aa565b604051610127939291906106fa565b60405180910390f35b34801561013b575f80fd5b506101446102e0565b60405161015191906107c0565b60405180910390f35b348015610165575f80fd5b5061016e61038a565b005b34801561017b575f80fd5b506101846103a0565b005b348015610191575f80fd5b506101ac60048036038101906101a79190610610565b6103d5565b6040516101b991906105c9565b60405180910390f35b3480156101cd575f80fd5b506101d66103ea565b005b3480156101e3575f80fd5b506101ec6103f4565b6040516101f991906105c9565b60405180910390f35b34801561020d575f80fd5b506102166103fa565b60405161022391906105c9565b60405180910390f35b348015610237575f80fd5b5061024061040e565b60405161024f939291906106fa565b60405180910390f35b348015610263575f80fd5b5061026c610444565b6040516102799190610850565b60405180910390f35b5f61028b6104cf565b47905090565b600281600281106102a0575f80fd5b015f915090505481565b5f806102b4610529565b600292505f91506040518060600160405280600381526020016002815260200160018152509050909192565b60605f6040518060400160405280600181526020016002815250905080600490600261030d92919061054b565b5060046003908060018154018082558091505060019003905f5260205f20015f9091909190915055600480548060200260200160405190810160405280929190818152602001828054801561037f57602002820191905f5260205f20905b81548152602001906001019080831161036b575b505050505091505090565b60018054610398919061089d565b600181905550565b5f805f6103ab610529565b6103b36102aa565b8093508195508296505050506103c76102aa565b909150508092505050505050565b5f6001826103e3919061089d565b9050919050565b6103f26104cf565b565b60015481565b5f60018054610409919061089d565b905090565b5f80610418610529565b600180604051806060016040528060018152602001600281526020016005815250925092509250909192565b5f8054610450906108fd565b80601f016020809104026020016040519081016040528092919081815260200182805461047c906108fd565b80156104c75780601f1061049e576101008083540402835291602001916104c7565b820191905f5260205f20905b8154815290600101906020018083116104aa57829003601f168201915b505050505081565b5f60015403610513576040517f08c379a000000000000000000000000000000000000000000000000000000000815260040161050a90610977565b60405180910390fd5b600180546105219190610995565b600181905550565b6040518060600160405280600390602082028036833780820191505090505090565b828054828255905f5260205f20908101928215610585579160200282015b82811115610584578251825591602001919060010190610569565b5b5090506105929190610596565b5090565b5b808211156105ad575f815f905550600101610597565b5090565b5f819050919050565b6105c3816105b1565b82525050565b5f6020820190506105dc5f8301846105ba565b92915050565b5f80fd5b6105ef816105b1565b81146105f9575f80fd5b50565b5f8135905061060a816105e6565b92915050565b5f60208284031215610625576106246105e2565b5b5f610632848285016105fc565b91505092915050565b5f8115159050919050565b61064f8161063b565b82525050565b5f60039050919050565b5f81905092915050565b5f819050919050565b61067b816105b1565b82525050565b5f61068c8383610672565b60208301905092915050565b5f602082019050919050565b6106ad81610655565b6106b7818461065f565b92506106c282610669565b805f5b838110156106f25781516106d98782610681565b96506106e483610698565b9250506001810190506106c5565b505050505050565b5f60a08201905061070d5f8301866105ba565b61071a6020830185610646565b61072760408301846106a4565b949350505050565b5f81519050919050565b5f82825260208201905092915050565b5f819050602082019050919050565b5f602082019050919050565b5f61076e8261072f565b6107788185610739565b935061078383610749565b805f5b838110156107b357815161079a8882610681565b97506107a583610758565b925050600181019050610786565b5085935050505092915050565b5f6020820190508181035f8301526107d88184610764565b905092915050565b5f81519050919050565b5f82825260208201905092915050565b8281835e5f83830152505050565b5f601f19601f8301169050919050565b5f610822826107e0565b61082c81856107ea565b935061083c8185602086016107fa565b61084581610808565b840191505092915050565b5f6020820190508181035f8301526108688184610818565b905092915050565b7f4e487b71000000000000000000000000000000000000000000000000000000005f52601160045260245ffd5b5f6108a7826105b1565b91506108b2836105b1565b92508282019050808211156108ca576108c9610870565b5b92915050565b7f4e487b71000000000000000000000000000000000000000000000000000000005f52602260045260245ffd5b5f600282049050600182168061091457607f821691505b602082108103610927576109266108d0565b5b50919050565b7f6e756d626572206973207a65726f0000000000000000000000000000000000005f82015250565b5f610961600e836107ea565b915061096c8261092d565b602082019050919050565b5f6020820190508181035f83015261098e81610955565b9050919050565b5f61099f826105b1565b91506109aa836105b1565b92508282039050818111156109c2576109c1610870565b5b9291505056fea2646970667358221220a8320169401591fa0013cd46f05cf32ba4590b0f802c6782eb630e9423f7f8f764736f6c634300081a0033",
					"opcodes": "PUSH1 0x80 PUSH1 0x40 MSTORE PUSH1 0x40 MLOAD DUP1 PUSH1 0x40 ADD PUSH1 0x40 MSTORE DUP1 PUSH1 0xC DUP2 MSTORE PUSH1 0x20 ADD PUSH32 0x48656C6C6F2C2057656233210000000000000000000000000000000000000000 DUP2 MSTORE POP PUSH0 SWAP1 DUP2 PUSH2 0x47 SWAP2 SWAP1 PUSH2 0x326 JUMP JUMPDEST POP PUSH1 0x5 PUSH1 0x1 SSTORE PUSH1 0x40 MLOAD DUP1 PUSH1 0x40 ADD PUSH1 0x40 MSTORE DUP1 PUSH1 0x1 PUSH1 0xFF AND DUP2 MSTORE PUSH1 0x20 ADD PUSH1 0x2 PUSH1 0xFF AND DUP2 MSTORE POP PUSH1 0x2 SWAP1 PUSH1 0x2 PUSH2 0x7A SWAP3 SWAP2 SWAP1 PUSH2 0x8C JUMP JUMPDEST POP CALLVALUE DUP1 ISZERO PUSH2 0x86 JUMPI PUSH0 DUP1 REVERT JUMPDEST POP PUSH2 0x3F5 JUMP JUMPDEST DUP3 PUSH1 0x2 DUP2 ADD SWAP3 DUP3 ISZERO PUSH2 0xC0 JUMPI SWAP2 PUSH1 0x20 MUL DUP3 ADD JUMPDEST DUP3 DUP2 GT ISZERO PUSH2 0xBF JUMPI DUP3 MLOAD DUP3 SWAP1 PUSH1 0xFF AND SWAP1 SSTORE SWAP2 PUSH1 0x20 ADD SWAP2 SWAP1 PUSH1 0x1 ADD SWAP1 PUSH2 0x9F JUMP JUMPDEST JUMPDEST POP SWAP1 POP PUSH2 0xCD SWAP2 SWAP1 PUSH2 0xD1 JUMP JUMPDEST POP SWAP1 JUMP JUMPDEST JUMPDEST DUP1 DUP3 GT ISZERO PUSH2 0xE8 JUMPI PUSH0 DUP2 PUSH0 SWAP1 SSTORE POP PUSH1 0x1 ADD PUSH2 0xD2 JUMP JUMPDEST POP SWAP1 JUMP JUMPDEST PUSH0 DUP2 MLOAD SWAP1 POP SWAP2 SWAP1 POP JUMP JUMPDEST PUSH32 0x4E487B7100000000000000000000000000000000000000000000000000000000 PUSH0 MSTORE PUSH1 0x41 PUSH1 0x4 MSTORE PUSH1 0x24 PUSH0 REVERT JUMPDEST PUSH32 0x4E487B7100000000000000000000000000000000000000000000000000000000 PUSH0 MSTORE PUSH1 0x22 PUSH1 0x4 MSTORE PUSH1 0x24 PUSH0 REVERT JUMPDEST PUSH0 PUSH1 0x2 DUP3 DIV SWAP1 POP PUSH1 0x1 DUP3 AND DUP1 PUSH2 0x167 JUMPI PUSH1 0x7F DUP3 AND SWAP2 POP JUMPDEST PUSH1 0x20 DUP3 LT DUP2 SUB PUSH2 0x17A JUMPI PUSH2 0x179 PUSH2 0x123 JUMP JUMPDEST JUMPDEST POP SWAP2 SWAP1 POP JUMP JUMPDEST PUSH0 DUP2 SWAP1 POP DUP2 PUSH0 MSTORE PUSH1 0x20 PUSH0 KECCAK256 SWAP1 POP SWAP2 SWAP1 POP JUMP JUMPDEST PUSH0 PUSH1 0x20 PUSH1 0x1F DUP4 ADD DIV SWAP1 POP SWAP2 SWAP1 POP JUMP JUMPDEST PUSH0 DUP3 DUP3 SHL SWAP1 POP SWAP3 SWAP2 POP POP JUMP JUMPDEST PUSH0 PUSH1 0x8 DUP4 MUL PUSH2 0x1DC PUSH32 0xFFFFFFFFFFFFFFFFFFFFFFFFFFFFFFFFFFFFFFFFFFFFFFFFFFFFFFFFFFFFFFFF DUP3 PUSH2 0x1A1 JUMP JUMPDEST PUSH2 0x1E6 DUP7 DUP4 PUSH2 0x1A1 JUMP JUMPDEST SWAP6 POP DUP1 NOT DUP5 AND SWAP4 POP DUP1 DUP7 AND DUP5 OR SWAP3 POP POP POP SWAP4 SWAP3 POP POP POP JUMP JUMPDEST PUSH0 DUP2 SWAP1 POP SWAP2 SWAP1 POP JUMP JUMPDEST PUSH0 DUP2 SWAP1 POP SWAP2 SWAP1 POP JUMP JUMPDEST PUSH0 PUSH2 0x22A PUSH2 0x225 PUSH2 0x220 DUP5 PUSH2 0x1FE JUMP JUMPDEST PUSH2 0x207 JUMP JUMPDEST PUSH2 0x1FE JUMP JUMPDEST SWAP1 POP SWAP2 SWAP1 POP JUMP JUMPDEST PUSH0 DUP2 SWAP1 POP SWAP2 SWAP1 POP JUMP JUMPDEST PUSH2 0x243 DUP4 PUSH2 0x210 JUMP JUMPDEST PUSH2 0x257 PUSH2 0x24F DUP3 PUSH2 0x231 JUMP JUMPDEST DUP5 DUP5 SLOAD PUSH2 0x1AD JUMP JUMPDEST DUP3 SSTORE POP POP POP POP JUMP JUMPDEST PUSH0 SWAP1 JUMP JUMPDEST PUSH2 0x26B PUSH2 0x25F JUMP JUMPDEST PUSH2 0x276 DUP2 DUP5 DUP5 PUSH2 0x23A JUMP JUMPDEST POP POP POP JUMP JUMPDEST JUMPDEST DUP2 DUP2 LT ISZERO PUSH2 0x299 JUMPI PUSH2 0x28E PUSH0 DUP3 PUSH2 0x263 JUMP JUMPDEST PUSH1 0x1 DUP2 ADD SWAP1 POP PUSH2 0x27C JUMP JUMPDEST POP POP JUMP JUMPDEST PUSH1 0x1F DUP3 GT ISZERO PUSH2 0x2DE JUMPI PUSH2 0x2AF DUP2 PUSH2 0x180 JUMP JUMPDEST PUSH2 0x2B8 DUP5 PUSH2 0x192 JUMP JUMPDEST DUP2 ADD PUSH1 0x20 DUP6 LT ISZERO PUSH2 0x2C7 JUMPI DUP2 SWAP1 POP JUMPDEST PUSH2 0x2DB PUSH2 0x2D3 DUP6 PUSH2 0x192 JUMP JUMPDEST DUP4 ADD DUP3 PUSH2 0x27B JUMP JUMPDEST POP POP JUMPDEST POP POP POP JUMP JUMPDEST PUSH0 DUP3 DUP3 SHR SWAP1 POP SWAP3 SWAP2 POP POP JUMP JUMPDEST PUSH0 PUSH2 0x2FE PUSH0 NOT DUP5 PUSH1 0x8 MUL PUSH2 0x2E3 JUMP JUMPDEST NOT DUP1 DUP4 AND SWAP2 POP POP SWAP3 SWAP2 POP POP JUMP JUMPDEST PUSH0 PUSH2 0x316 DUP4 DUP4 PUSH2 0x2EF JUMP JUMPDEST SWAP2 POP DUP3 PUSH1 0x2 MUL DUP3 OR SWAP1 POP SWAP3 SWAP2 POP POP JUMP JUMPDEST PUSH2 0x32F DUP3 PUSH2 0xEC JUMP JUMPDEST PUSH8 0xFFFFFFFFFFFFFFFF DUP2 GT ISZERO PUSH2 0x348 JUMPI PUSH2 0x347 PUSH2 0xF6 JUMP JUMPDEST JUMPDEST PUSH2 0x352 DUP3 SLOAD PUSH2 0x150 JUMP JUMPDEST PUSH2 0x35D DUP3 DUP3 DUP6 PUSH2 0x29D JUMP JUMPDEST PUSH0 PUSH1 0x20 SWAP1 POP PUSH1 0x1F DUP4 GT PUSH1 0x1 DUP2 EQ PUSH2 0x38E JUMPI PUSH0 DUP5 ISZERO PUSH2 0x37C JUMPI DUP3 DUP8 ADD MLOAD SWAP1 POP JUMPDEST PUSH2 0x386 DUP6 DUP3 PUSH2 0x30B JUMP JUMPDEST DUP7 SSTORE POP PUSH2 0x3ED JUMP JUMPDEST PUSH1 0x1F NOT DUP5 AND PUSH2 0x39C DUP7 PUSH2 0x180 JUMP JUMPDEST PUSH0 JUMPDEST DUP3 DUP2 LT ISZERO PUSH2 0x3C3 JUMPI DUP5 DUP10 ADD MLOAD DUP3 SSTORE PUSH1 0x1 DUP3 ADD SWAP2 POP PUSH1 0x20 DUP6 ADD SWAP5 POP PUSH1 0x20 DUP2 ADD SWAP1 POP PUSH2 0x39E JUMP JUMPDEST DUP7 DUP4 LT ISZERO PUSH2 0x3E0 JUMPI DUP5 DUP10 ADD MLOAD PUSH2 0x3DC PUSH1 0x1F DUP10 AND DUP3 PUSH2 0x2EF JUMP JUMPDEST DUP4 SSTORE POP JUMPDEST PUSH1 0x1 PUSH1 0x2 DUP9 MUL ADD DUP9 SSTORE POP POP POP JUMPDEST POP POP POP POP POP POP JUMP JUMPDEST PUSH2 0x9FE DUP1 PUSH2 0x402 PUSH0 CODECOPY PUSH0 RETURN INVALID PUSH1 0x80 PUSH1 0x40 MSTORE PUSH1 0x4 CALLDATASIZE LT PUSH2 0xA6 JUMPI PUSH0 CALLDATALOAD PUSH1 0xE0 SHR DUP1 PUSH4 0x7032C4F2 GT PUSH2 0x63 JUMPI DUP1 PUSH4 0x7032C4F2 EQ PUSH2 0x186 JUMPI DUP1 PUSH4 0x80B4EA08 EQ PUSH2 0x1C2 JUMPI DUP1 PUSH4 0x8381F58A EQ PUSH2 0x1D8 JUMPI DUP1 PUSH4 0xB262EB7F EQ PUSH2 0x202 JUMPI DUP1 PUSH4 0xE61E4008 EQ PUSH2 0x22C JUMPI DUP1 PUSH4 0xEF690CC0 EQ PUSH2 0x258 JUMPI PUSH2 0xA6 JUMP JUMPDEST DUP1 PUSH4 0x303810A6 EQ PUSH2 0xAA JUMPI DUP1 PUSH4 0x3C594059 EQ PUSH2 0xC8 JUMPI DUP1 PUSH4 0x3DECE511 EQ PUSH2 0x104 JUMPI DUP1 PUSH4 0x47F6AC11 EQ PUSH2 0x130 JUMPI DUP1 PUSH4 0x4F2BE91F EQ PUSH2 0x15A JUMPI DUP1 PUSH4 0x6F590330 EQ PUSH2 0x170 JUMPI JUMPDEST PUSH0 DUP1 REVERT JUMPDEST PUSH2 0xB2 PUSH2 0x282 JUMP JUMPDEST PUSH1 0x40 MLOAD PUSH2 0xBF SWAP2 SWAP1 PUSH2 0x5C9 JUMP JUMPDEST PUSH1 0x40 MLOAD DUP1 SWAP2 SUB SWAP1 RETURN JUMPDEST CALLVALUE DUP1 ISZERO PUSH2 0xD3 JUMPI PUSH0 DUP1 REVERT JUMPDEST POP PUSH2 0xEE PUSH1 0x4 DUP1 CALLDATASIZE SUB DUP2 ADD SWAP1 PUSH2 0xE9 SWAP2 SWAP1 PUSH2 0x610 JUMP JUMPDEST PUSH2 0x291 JUMP JUMPDEST PUSH1 0x40 MLOAD PUSH2 0xFB SWAP2 SWAP1 PUSH2 0x5C9 JUMP JUMPDEST PUSH1 0x40 MLOAD DUP1 SWAP2 SUB SWAP1 RETURN JUMPDEST CALLVALUE DUP1 ISZERO PUSH2 0x10F JUMPI PUSH0 DUP1 REVERT JUMPDEST POP PUSH2 0x118 PUSH2 0x2AA JUMP JUMPDEST PUSH1 0x40 MLOAD PUSH2 0x127 SWAP4 SWAP3 SWAP2 SWAP1 PUSH2 0x6FA JUMP JUMPDEST PUSH1 0x40 MLOAD DUP1 SWAP2 SUB SWAP1 RETURN JUMPDEST CALLVALUE DUP1 ISZERO PUSH2 0x13B JUMPI PUSH0 DUP1 REVERT JUMPDEST POP PUSH2 0x144 PUSH2 0x2E0 JUMP JUMPDEST PUSH1 0x40 MLOAD PUSH2 0x151 SWAP2 SWAP1 PUSH2 0x7C0 JUMP JUMPDEST PUSH1 0x40 MLOAD DUP1 SWAP2 SUB SWAP1 RETURN JUMPDEST CALLVALUE DUP1 ISZERO PUSH2 0x165 JUMPI PUSH0 DUP1 REVERT JUMPDEST POP PUSH2 0x16E PUSH2 0x38A JUMP JUMPDEST STOP JUMPDEST CALLVALUE DUP1 ISZERO PUSH2 0x17B JUMPI PUSH0 DUP1 REVERT JUMPDEST POP PUSH2 0x184 PUSH2 0x3A0 JUMP JUMPDEST STOP JUMPDEST CALLVALUE DUP1 ISZERO PUSH2 0x191 JUMPI PUSH0 DUP1 REVERT JUMPDEST POP PUSH2 0x1AC PUSH1 0x4 DUP1 CALLDATASIZE SUB DUP2 ADD SWAP1 PUSH2 0x1A7 SWAP2 SWAP1 PUSH2 0x610 JUMP JUMPDEST PUSH2 0x3D5 JUMP JUMPDEST PUSH1 0x40 MLOAD PUSH2 0x1B9 SWAP2 SWAP1 PUSH2 0x5C9 JUMP JUMPDEST PUSH1 0x40 MLOAD DUP1 SWAP2 SUB SWAP1 RETURN JUMPDEST CALLVALUE DUP1 ISZERO PUSH2 0x1CD JUMPI PUSH0 DUP1 REVERT JUMPDEST POP PUSH2 0x1D6 PUSH2 0x3EA JUMP JUMPDEST STOP JUMPDEST CALLVALUE DUP1 ISZERO PUSH2 0x1E3 JUMPI PUSH0 DUP1 REVERT JUMPDEST POP PUSH2 0x1EC PUSH2 0x3F4 JUMP JUMPDEST PUSH1 0x40 MLOAD PUSH2 0x1F9 SWAP2 SWAP1 PUSH2 0x5C9 JUMP JUMPDEST PUSH1 0x40 MLOAD DUP1 SWAP2 SUB SWAP1 RETURN JUMPDEST CALLVALUE DUP1 ISZERO PUSH2 0x20D JUMPI PUSH0 DUP1 REVERT JUMPDEST POP PUSH2 0x216 PUSH2 0x3FA JUMP JUMPDEST PUSH1 0x40 MLOAD PUSH2 0x223 SWAP2 SWAP1 PUSH2 0x5C9 JUMP JUMPDEST PUSH1 0x40 MLOAD DUP1 SWAP2 SUB SWAP1 RETURN JUMPDEST CALLVALUE DUP1 ISZERO PUSH2 0x237 JUMPI PUSH0 DUP1 REVERT JUMPDEST POP PUSH2 0x240 PUSH2 0x40E JUMP JUMPDEST PUSH1 0x40 MLOAD PUSH2 0x24F SWAP4 SWAP3 SWAP2 SWAP1 PUSH2 0x6FA JUMP JUMPDEST PUSH1 0x40 MLOAD DUP1 SWAP2 SUB SWAP1 RETURN JUMPDEST CALLVALUE DUP1 ISZERO PUSH2 0x263 JUMPI PUSH0 DUP1 REVERT JUMPDEST POP PUSH2 0x26C PUSH2 0x444 JUMP JUMPDEST PUSH1 0x40 MLOAD PUSH2 0x279 SWAP2 SWAP1 PUSH2 0x850 JUMP JUMPDEST PUSH1 0x40 MLOAD DUP1 SWAP2 SUB SWAP1 RETURN JUMPDEST PUSH0 PUSH2 0x28B PUSH2 0x4CF JUMP JUMPDEST SELFBALANCE SWAP1 POP SWAP1 JUMP JUMPDEST PUSH1 0x2 DUP2 PUSH1 0x2 DUP2 LT PUSH2 0x2A0 JUMPI PUSH0 DUP1 REVERT JUMPDEST ADD PUSH0 SWAP2 POP SWAP1 POP SLOAD DUP2 JUMP JUMPDEST PUSH0 DUP1 PUSH2 0x2B4 PUSH2 0x529 JUMP JUMPDEST PUSH1 0x2 SWAP3 POP PUSH0 SWAP2 POP PUSH1 0x40 MLOAD DUP1 PUSH1 0x60 ADD PUSH1 0x40 MSTORE DUP1 PUSH1 0x3 DUP2 MSTORE PUSH1 0x20 ADD PUSH1 0x2 DUP2 MSTORE PUSH1 0x20 ADD PUSH1 0x1 DUP2 MSTORE POP SWAP1 POP SWAP1 SWAP2 SWAP3 JUMP JUMPDEST PUSH1 0x60 PUSH0 PUSH1 0x40 MLOAD DUP1 PUSH1 0x40 ADD PUSH1 0x40 MSTORE DUP1 PUSH1 0x1 DUP2 MSTORE PUSH1 0x20 ADD PUSH1 0x2 DUP2 MSTORE POP SWAP1 POP DUP1 PUSH1 0x4 SWAP1 PUSH1 0x2 PUSH2 0x30D SWAP3 SWAP2 SWAP1 PUSH2 0x54B JUMP JUMPDEST POP PUSH1 0x4 PUSH1 0x3 SWAP1 DUP1 PUSH1 0x1 DUP2 SLOAD ADD DUP1 DUP3 SSTORE DUP1 SWAP2 POP POP PUSH1 0x1 SWAP1 SUB SWAP1 PUSH0 MSTORE PUSH1 0x20 PUSH0 KECCAK256 ADD PUSH0 SWAP1 SWAP2 SWAP1 SWAP2 SWAP1 SWAP2 POP SSTORE PUSH1 0x4 DUP1 SLOAD DUP1 PUSH1 0x20 MUL PUSH1 0x20 ADD PUSH1 0x40 MLOAD SWAP1 DUP2 ADD PUSH1 0x40 MSTORE DUP1 SWAP3 SWAP2 SWAP1 DUP2 DUP2 MSTORE PUSH1 0x20 ADD DUP3 DUP1 SLOAD DUP1 ISZERO PUSH2 0x37F JUMPI PUSH1 0x20 MUL DUP3 ADD SWAP2 SWAP1 PUSH0 MSTORE PUSH1 0x20 PUSH0 KECCAK256 SWAP1 JUMPDEST DUP2 SLOAD DUP2 MSTORE PUSH1 0x20 ADD SWAP1 PUSH1 0x1 ADD SWAP1 DUP1 DUP4 GT PUSH2 0x36B JUMPI JUMPDEST POP POP POP POP POP SWAP2 POP POP SWAP1 JUMP JUMPDEST PUSH1 0x1 DUP1 SLOAD PUSH2 0x398 SWAP2 SWAP1 PUSH2 0x89D JUMP JUMPDEST PUSH1 0x1 DUP2 SWAP1 SSTORE POP JUMP JUMPDEST PUSH0 DUP1 PUSH0 PUSH2 0x3AB PUSH2 0x529 JUMP JUMPDEST PUSH2 0x3B3 PUSH2 0x2AA JUMP JUMPDEST DUP1 SWAP4 POP DUP2 SWAP6 POP DUP3 SWAP7 POP POP POP POP PUSH2 0x3C7 PUSH2 0x2AA JUMP JUMPDEST SWAP1 SWAP2 POP POP DUP1 SWAP3 POP POP POP POP POP POP JUMP JUMPDEST PUSH0 PUSH1 0x1 DUP3 PUSH2 0x3E3 SWAP2 SWAP1 PUSH2 0x89D JUMP JUMPDEST SWAP1 POP SWAP2 SWAP1 POP JUMP JUMPDEST PUSH2 0x3F2 PUSH2 0x4CF JUMP JUMPDEST JUMP JUMPDEST PUSH1 0x1 SLOAD DUP2 JUMP JUMPDEST PUSH0 PUSH1 0x1 DUP1 SLOAD PUSH2 0x409 SWAP2 SWAP1 PUSH2 0x89D JUMP JUMPDEST SWAP1 POP SWAP1 JUMP JUMPDEST PUSH0 DUP1 PUSH2 0x418 PUSH2 0x529 JUMP JUMPDEST PUSH1 0x1 DUP1 PUSH1 0x40 MLOAD DUP1 PUSH1 0x60 ADD PUSH1 0x40 MSTORE DUP1 PUSH1 0x1 DUP2 MSTORE PUSH1 0x20 ADD PUSH1 0x2 DUP2 MSTORE PUSH1 0x20 ADD PUSH1 0x5 DUP2 MSTORE POP SWAP3 POP SWAP3 POP SWAP3 POP SWAP1 SWAP2 SWAP3 JUMP JUMPDEST PUSH0 DUP1 SLOAD PUSH2 0x450 SWAP1 PUSH2 0x8FD JUMP JUMPDEST DUP1 PUSH1 0x1F ADD PUSH1 0x20 DUP1 SWAP2 DIV MUL PUSH1 0x20 ADD PUSH1 0x40 MLOAD SWAP1 DUP2 ADD PUSH1 0x40 MSTORE DUP1 SWAP3 SWAP2 SWAP1 DUP2 DUP2 MSTORE PUSH1 0x20 ADD DUP3 DUP1 SLOAD PUSH2 0x47C SWAP1 PUSH2 0x8FD JUMP JUMPDEST DUP1 ISZERO PUSH2 0x4C7 JUMPI DUP1 PUSH1 0x1F LT PUSH2 0x49E JUMPI PUSH2 0x100 DUP1 DUP4 SLOAD DIV MUL DUP4 MSTORE SWAP2 PUSH1 0x20 ADD SWAP2 PUSH2 0x4C7 JUMP JUMPDEST DUP3 ADD SWAP2 SWAP1 PUSH0 MSTORE PUSH1 0x20 PUSH0 KECCAK256 SWAP1 JUMPDEST DUP2 SLOAD DUP2 MSTORE SWAP1 PUSH1 0x1 ADD SWAP1 PUSH1 0x20 ADD DUP1 DUP4 GT PUSH2 0x4AA JUMPI DUP3 SWAP1 SUB PUSH1 0x1F AND DUP3 ADD SWAP2 JUMPDEST POP POP POP POP POP DUP2 JUMP JUMPDEST PUSH0 PUSH1 0x1 SLOAD SUB PUSH2 0x513 JUMPI PUSH1 0x40 MLOAD PUSH32 0x8C379A000000000000000000000000000000000000000000000000000000000 DUP2 MSTORE PUSH1 0x4 ADD PUSH2 0x50A SWAP1 PUSH2 0x977 JUMP JUMPDEST PUSH1 0x40 MLOAD DUP1 SWAP2 SUB SWAP1 REVERT JUMPDEST PUSH1 0x1 DUP1 SLOAD PUSH2 0x521 SWAP2 SWAP1 PUSH2 0x995 JUMP JUMPDEST PUSH1 0x1 DUP2 SWAP1 SSTORE POP JUMP JUMPDEST PUSH1 0x40 MLOAD DUP1 PUSH1 0x60 ADD PUSH1 0x40 MSTORE DUP1 PUSH1 0x3 SWAP1 PUSH1 0x20 DUP3 MUL DUP1 CALLDATASIZE DUP4 CALLDATACOPY DUP1 DUP3 ADD SWAP2 POP POP SWAP1 POP POP SWAP1 JUMP JUMPDEST DUP3 DUP1 SLOAD DUP3 DUP3 SSTORE SWAP1 PUSH0 MSTORE PUSH1 0x20 PUSH0 KECCAK256 SWAP1 DUP2 ADD SWAP3 DUP3 ISZERO PUSH2 0x585 JUMPI SWAP2 PUSH1 0x20 MUL DUP3 ADD JUMPDEST DUP3 DUP2 GT ISZERO PUSH2 0x584 JUMPI DUP3 MLOAD DUP3 SSTORE SWAP2 PUSH1 0x20 ADD SWAP2 SWAP1 PUSH1 0x1 ADD SWAP1 PUSH2 0x569 JUMP JUMPDEST JUMPDEST POP SWAP1 POP PUSH2 0x592 SWAP2 SWAP1 PUSH2 0x596 JUMP JUMPDEST POP SWAP1 JUMP JUMPDEST JUMPDEST DUP1 DUP3 GT ISZERO PUSH2 0x5AD JUMPI PUSH0 DUP2 PUSH0 SWAP1 SSTORE POP PUSH1 0x1 ADD PUSH2 0x597 JUMP JUMPDEST POP SWAP1 JUMP JUMPDEST PUSH0 DUP2 SWAP1 POP SWAP2 SWAP1 POP JUMP JUMPDEST PUSH2 0x5C3 DUP2 PUSH2 0x5B1 JUMP JUMPDEST DUP3 MSTORE POP POP JUMP JUMPDEST PUSH0 PUSH1 0x20 DUP3 ADD SWAP1 POP PUSH2 0x5DC PUSH0 DUP4 ADD DUP5 PUSH2 0x5BA JUMP JUMPDEST SWAP3 SWAP2 POP POP JUMP JUMPDEST PUSH0 DUP1 REVERT JUMPDEST PUSH2 0x5EF DUP2 PUSH2 0x5B1 JUMP JUMPDEST DUP2 EQ PUSH2 0x5F9 JUMPI PUSH0 DUP1 REVERT JUMPDEST POP JUMP JUMPDEST PUSH0 DUP2 CALLDATALOAD SWAP1 POP PUSH2 0x60A DUP2 PUSH2 0x5E6 JUMP JUMPDEST SWAP3 SWAP2 POP POP JUMP JUMPDEST PUSH0 PUSH1 0x20 DUP3 DUP5 SUB SLT ISZERO PUSH2 0x625 JUMPI PUSH2 0x624 PUSH2 0x5E2 JUMP JUMPDEST JUMPDEST PUSH0 PUSH2 0x632 DUP5 DUP3 DUP6 ADD PUSH2 0x5FC JUMP JUMPDEST SWAP2 POP POP SWAP3 SWAP2 POP POP JUMP JUMPDEST PUSH0 DUP2 ISZERO ISZERO SWAP1 POP SWAP2 SWAP1 POP JUMP JUMPDEST PUSH2 0x64F DUP2 PUSH2 0x63B JUMP JUMPDEST DUP3 MSTORE POP POP JUMP JUMPDEST PUSH0 PUSH1 0x3 SWAP1 POP SWAP2 SWAP1 POP JUMP JUMPDEST PUSH0 DUP2 SWAP1 POP SWAP3 SWAP2 POP POP JUMP JUMPDEST PUSH0 DUP2 SWAP1 POP SWAP2 SWAP1 POP JUMP JUMPDEST PUSH2 0x67B DUP2 PUSH2 0x5B1 JUMP JUMPDEST DUP3 MSTORE POP POP JUMP JUMPDEST PUSH0 PUSH2 0x68C DUP4 DUP4 PUSH2 0x672 JUMP JUMPDEST PUSH1 0x20 DUP4 ADD SWAP1 POP SWAP3 SWAP2 POP POP JUMP JUMPDEST PUSH0 PUSH1 0x20 DUP3 ADD SWAP1 POP SWAP2 SWAP1 POP JUMP JUMPDEST PUSH2 0x6AD DUP2 PUSH2 0x655 JUMP JUMPDEST PUSH2 0x6B7 DUP2 DUP5 PUSH2 0x65F JUMP JUMPDEST SWAP3 POP PUSH2 0x6C2 DUP3 PUSH2 0x669 JUMP JUMPDEST DUP1 PUSH0 JUMPDEST DUP4 DUP2 LT ISZERO PUSH2 0x6F2 JUMPI DUP2 MLOAD PUSH2 0x6D9 DUP8 DUP3 PUSH2 0x681 JUMP JUMPDEST SWAP7 POP PUSH2 0x6E4 DUP4 PUSH2 0x698 JUMP JUMPDEST SWAP3 POP POP PUSH1 0x1 DUP2 ADD SWAP1 POP PUSH2 0x6C5 JUMP JUMPDEST POP POP POP POP POP POP JUMP JUMPDEST PUSH0 PUSH1 0xA0 DUP3 ADD SWAP1 POP PUSH2 0x70D PUSH0 DUP4 ADD DUP7 PUSH2 0x5BA JUMP JUMPDEST PUSH2 0x71A PUSH1 0x20 DUP4 ADD DUP6 PUSH2 0x646 JUMP JUMPDEST PUSH2 0x727 PUSH1 0x40 DUP4 ADD DUP5 PUSH2 0x6A4 JUMP JUMPDEST SWAP5 SWAP4 POP POP POP POP JUMP JUMPDEST PUSH0 DUP2 MLOAD SWAP1 POP SWAP2 SWAP1 POP JUMP JUMPDEST PUSH0 DUP3 DUP3 MSTORE PUSH1 0x20 DUP3 ADD SWAP1 POP SWAP3 SWAP2 POP POP JUMP JUMPDEST PUSH0 DUP2 SWAP1 POP PUSH1 0x20 DUP3 ADD SWAP1 POP SWAP2 SWAP1 POP JUMP JUMPDEST PUSH0 PUSH1 0x20 DUP3 ADD SWAP1 POP SWAP2 SWAP1 POP JUMP JUMPDEST PUSH0 PUSH2 0x76E DUP3 PUSH2 0x72F JUMP JUMPDEST PUSH2 0x778 DUP2 DUP6 PUSH2 0x739 JUMP JUMPDEST SWAP4 POP PUSH2 0x783 DUP4 PUSH2 0x749 JUMP JUMPDEST DUP1 PUSH0 JUMPDEST DUP4 DUP2 LT ISZERO PUSH2 0x7B3 JUMPI DUP2 MLOAD PUSH2 0x79A DUP9 DUP3 PUSH2 0x681 JUMP JUMPDEST SWAP8 POP PUSH2 0x7A5 DUP4 PUSH2 0x758 JUMP JUMPDEST SWAP3 POP POP PUSH1 0x1 DUP2 ADD SWAP1 POP PUSH2 0x786 JUMP JUMPDEST POP DUP6 SWAP4 POP POP POP POP SWAP3 SWAP2 POP POP JUMP JUMPDEST PUSH0 PUSH1 0x20 DUP3 ADD SWAP1 POP DUP2 DUP2 SUB PUSH0 DUP4 ADD MSTORE PUSH2 0x7D8 DUP2 DUP5 PUSH2 0x764 JUMP JUMPDEST SWAP1 POP SWAP3 SWAP2 POP POP JUMP JUMPDEST PUSH0 DUP2 MLOAD SWAP1 POP SWAP2 SWAP1 POP JUMP JUMPDEST PUSH0 DUP3 DUP3 MSTORE PUSH1 0x20 DUP3 ADD SWAP1 POP SWAP3 SWAP2 POP POP JUMP JUMPDEST DUP3 DUP2 DUP4 MCOPY PUSH0 DUP4 DUP4 ADD MSTORE POP POP POP JUMP JUMPDEST PUSH0 PUSH1 0x1F NOT PUSH1 0x1F DUP4 ADD AND SWAP1 POP SWAP2 SWAP1 POP JUMP JUMPDEST PUSH0 PUSH2 0x822 DUP3 PUSH2 0x7E0 JUMP JUMPDEST PUSH2 0x82C DUP2 DUP6 PUSH2 0x7EA JUMP JUMPDEST SWAP4 POP PUSH2 0x83C DUP2 DUP6 PUSH1 0x20 DUP7 ADD PUSH2 0x7FA JUMP JUMPDEST PUSH2 0x845 DUP2 PUSH2 0x808 JUMP JUMPDEST DUP5 ADD SWAP2 POP POP SWAP3 SWAP2 POP POP JUMP JUMPDEST PUSH0 PUSH1 0x20 DUP3 ADD SWAP1 POP DUP2 DUP2 SUB PUSH0 DUP4 ADD MSTORE PUSH2 0x868 DUP2 DUP5 PUSH2 0x818 JUMP JUMPDEST SWAP1 POP SWAP3 SWAP2 POP POP JUMP JUMPDEST PUSH32 0x4E487B7100000000000000000000000000000000000000000000000000000000 PUSH0 MSTORE PUSH1 0x11 PUSH1 0x4 MSTORE PUSH1 0x24 PUSH0 REVERT JUMPDEST PUSH0 PUSH2 0x8A7 DUP3 PUSH2 0x5B1 JUMP JUMPDEST SWAP2 POP PUSH2 0x8B2 DUP4 PUSH2 0x5B1 JUMP JUMPDEST SWAP3 POP DUP3 DUP3 ADD SWAP1 POP DUP1 DUP3 GT ISZERO PUSH2 0x8CA JUMPI PUSH2 0x8C9 PUSH2 0x870 JUMP JUMPDEST JUMPDEST SWAP3 SWAP2 POP POP JUMP JUMPDEST PUSH32 0x4E487B7100000000000000000000000000000000000000000000000000000000 PUSH0 MSTORE PUSH1 0x22 PUSH1 0x4 MSTORE PUSH1 0x24 PUSH0 REVERT JUMPDEST PUSH0 PUSH1 0x2 DUP3 DIV SWAP1 POP PUSH1 0x1 DUP3 AND DUP1 PUSH2 0x914 JUMPI PUSH1 0x7F DUP3 AND SWAP2 POP JUMPDEST PUSH1 0x20 DUP3 LT DUP2 SUB PUSH2 0x927 JUMPI PUSH2 0x926 PUSH2 0x8D0 JUMP JUMPDEST JUMPDEST POP SWAP2 SWAP1 POP JUMP JUMPDEST PUSH32 0x6E756D626572206973207A65726F000000000000000000000000000000000000 PUSH0 DUP3 ADD MSTORE POP JUMP JUMPDEST PUSH0 PUSH2 0x961 PUSH1 0xE DUP4 PUSH2 0x7EA JUMP JUMPDEST SWAP2 POP PUSH2 0x96C DUP3 PUSH2 0x92D JUMP JUMPDEST PUSH1 0x20 DUP3 ADD SWAP1 POP SWAP2 SWAP1 POP JUMP JUMPDEST PUSH0 PUSH1 0x20 DUP3 ADD SWAP1 POP DUP2 DUP2 SUB PUSH0 DUP4 ADD MSTORE PUSH2 0x98E DUP2 PUSH2 0x955 JUMP JUMPDEST SWAP1 POP SWAP2 SWAP1 POP JUMP JUMPDEST PUSH0 PUSH2 0x99F DUP3 PUSH2 0x5B1 JUMP JUMPDEST SWAP2 POP PUSH2 0x9AA DUP4 PUSH2 0x5B1 JUMP JUMPDEST SWAP3 POP DUP3 DUP3 SUB SWAP1 POP DUP2 DUP2 GT ISZERO PUSH2 0x9C2 JUMPI PUSH2 0x9C1 PUSH2 0x870 JUMP JUMPDEST JUMPDEST SWAP3 SWAP2 POP POP JUMP INVALID LOG2 PUSH5 0x6970667358 0x22 SLT KECCAK256 0xA8 ORIGIN ADD PUSH10 0x401591FA0013CD46F05C RETURN 0x2B LOG4 MSIZE SIGNEXTEND 0xF DUP1 0x2C PUSH8 0x82EB630E9423F7F8 0xF7 PUSH5 0x736F6C6343 STOP ADDMOD BYTE STOP CALLER "
				},
				"gasEstimates": {
					"creation": {
						"codeDepositCost": "511600",
						"executionCost": "infinite",
						"totalCost": "infinite"
					},
					"external": {
						"add()": "infinite",
						"addPure(uint256)": "infinite",
						"addView()": "infinite",
						"arrayPush()": "infinite",
						"greeting()": "infinite",
						"minusCall()": "infinite",
						"minusPayable()": "infinite",
						"number()": "2469",
						"readReturn()": "infinite",
						"result(uint256)": "infinite",
						"returnMultiple()": "infinite",
						"returnNamed()": "infinite"
					},
					"internal": {
						"minus()": "infinite"
					}
				},
				"methodIdentifiers": {
					"add()": "4f2be91f",
					"addPure(uint256)": "7032c4f2",
					"addView()": "b262eb7f",
					"arrayPush()": "47f6ac11",
					"greeting()": "ef690cc0",
					"minusCall()": "80b4ea08",
					"minusPayable()": "303810a6",
					"number()": "8381f58a",
					"readReturn()": "6f590330",
					"result(uint256)": "3c594059",
					"returnMultiple()": "e61e4008",
					"returnNamed()": "3dece511"
				}
			},
			"storageLayout": {
				"storage": [
					{
						"astId": 4,
						"contract": "contracts/solidity/solidity101/HelloWeb3.sol:HelloWeb3",
						"label": "greeting",
						"offset": 0,
						"slot": "0",
						"type": "t_string_storage"
					},
					{
						"astId": 7,
						"contract": "contracts/solidity/solidity101/HelloWeb3.sol:HelloWeb3",
						"label": "number",
						"offset": 0,
						"slot": "1",
						"type": "t_uint256"
					},
					{
						"astId": 14,
						"contract": "contracts/solidity/solidity101/HelloWeb3.sol:HelloWeb3",
						"label": "result",
						"offset": 0,
						"slot": "2",
						"type": "t_array(t_uint256)2_storage"
					},
					{
						"astId": 181,
						"contract": "contracts/solidity/solidity101/HelloWeb3.sol:HelloWeb3",
						"label": "array4",
						"offset": 0,
						"slot": "4",
						"type": "t_array(t_uint256)dyn_storage"
					}
				],
				"types": {
					"t_array(t_uint256)2_storage": {
						"base": "t_uint256",
						"encoding": "inplace",
						"label": "uint256[2]",
						"numberOfBytes": "64"
					},
					"t_array(t_uint256)dyn_storage": {
						"base": "t_uint256",
						"encoding": "dynamic_array",
						"label": "uint256[]",
						"numberOfBytes": "32"
					},
					"t_string_storage": {
						"encoding": "bytes",
						"label": "string",
						"numberOfBytes": "32"
					},
					"t_uint256": {
						"encoding": "inplace",
						"label": "uint256",
						"numberOfBytes": "32"
					}
				}
			},
			"userdoc": {
				"kind": "user",
				"methods": {},
				"version": 1
			}
		}
	}
}