{
	"contracts/solidity/solidity101/ControlFlow.sol": {
		"ControlFlow": {
			"abi": [
				{
					"inputs": [],
					"name": "forLoopTest",
					"outputs": [
						{
							"internalType": "uint256",
							"name": "",
							"type": "uint256"
						}
					],
					"stateMutability": "pure",
					"type": "function"
				},
				{
					"inputs": [
						{
							"internalType": "uint256",
							"name": "_number",
							"type": "uint256"
						}
					],
					"name": "ifElseTest",
					"outputs": [
						{
							"internalType": "bool",
							"name": "",
							"type": "bool"
						}
					],
					"stateMutability": "pure",
					"type": "function"
				},
				{
					"inputs": [
						{
							"internalType": "uint256[]",
							"name": "a",
							"type": "uint256[]"
						}
					],
					"name": "insertionSortWrong",
					"outputs": [
						{
							"internalType": "uint256[]",
							"name": "",
							"type": "uint256[]"
						}
					],
					"stateMutability": "pure",
					"type": "function"
				},
				{
					"inputs": [
						{
							"internalType": "uint256",
							"name": "x",
							"type": "uint256"
						},
						{
							"internalType": "uint256",
							"name": "y",
							"type": "uint256"
						}
					],
					"name": "ternaryTest",
					"outputs": [
						{
							"internalType": "uint256",
							"name": "",
							"type": "uint256"
						}
					],
					"stateMutability": "pure",
					"type": "function"
				},
				{
					"inputs": [],
					"name": "whileTest",
					"outputs": [
						{
							"internalType": "uint256",
							"name": "",
							"type": "uint256"
						}
					],
					"stateMutability": "pure",
					"type": "function"
				}
			],
			"devdoc": {
				"kind": "dev",
				"methods": {},
				"version": 1
			},
			"evm": {
				"assembly": "    /* \"contracts/solidity/solidity101/ControlFlow.sol\":66:1431  contract ControlFlow {... */\n  mstore(0x40, 0x80)\n  callvalue\n  dup1\n  iszero\n  tag_1\n  jumpi\n  0x00\n  dup1\n  revert\ntag_1:\n  pop\n  dataSize(sub_0)\n  dup1\n  dataOffset(sub_0)\n  0x00\n  codecopy\n  0x00\n  return\nstop\n\nsub_0: assembly {\n        /* \"contracts/solidity/solidity101/ControlFlow.sol\":66:1431  contract ControlFlow {... */\n      mstore(0x40, 0x80)\n      callvalue\n      dup1\n      iszero\n      tag_1\n      jumpi\n      0x00\n      dup1\n      revert\n    tag_1:\n      pop\n      jumpi(tag_2, lt(calldatasize, 0x04))\n      shr(0xe0, calldataload(0x00))\n      dup1\n      0x28766320\n      eq\n      tag_3\n      jumpi\n      dup1\n      0x5d14639d\n      eq\n      tag_4\n      jumpi\n      dup1\n      0x6188a6c0\n      eq\n      tag_5\n      jumpi\n      dup1\n      0x7141fb00\n      eq\n      tag_6\n      jumpi\n      dup1\n      0xb0cfa9fc\n      eq\n      tag_7\n      jumpi\n    tag_2:\n      0x00\n      dup1\n      revert\n        /* \"contracts/solidity/solidity101/ControlFlow.sol\":697:845  function ternaryTest(uint256 x, uint256 y) public pure returns (uint256) {... */\n    tag_3:\n      tag_8\n      0x04\n      dup1\n      calldatasize\n      sub\n      dup2\n      add\n      swap1\n      tag_9\n      swap2\n      swap1\n      tag_10\n      jump\t// in\n    tag_9:\n      tag_11\n      jump\t// in\n    tag_8:\n      mload(0x40)\n      tag_12\n      swap2\n      swap1\n      tag_13\n      jump\t// in\n    tag_12:\n      mload(0x40)\n      dup1\n      swap2\n      sub\n      swap1\n      return\n        /* \"contracts/solidity/solidity101/ControlFlow.sol\":478:639  function whileTest() public pure returns (uint256) {... */\n    tag_4:\n      tag_14\n      tag_15\n      jump\t// in\n    tag_14:\n      mload(0x40)\n      tag_16\n      swap2\n      swap1\n      tag_13\n      jump\t// in\n    tag_16:\n      mload(0x40)\n      dup1\n      swap2\n      sub\n      swap1\n      return\n        /* \"contracts/solidity/solidity101/ControlFlow.sol\":900:1429  function insertionSortWrong(uint256[] memory a)... */\n    tag_5:\n      tag_17\n      0x04\n      dup1\n      calldatasize\n      sub\n      dup2\n      add\n      swap1\n      tag_18\n      swap2\n      swap1\n      tag_19\n      jump\t// in\n    tag_18:\n      tag_20\n      jump\t// in\n    tag_17:\n      mload(0x40)\n      tag_21\n      swap2\n      swap1\n      tag_22\n      jump\t// in\n    tag_21:\n      mload(0x40)\n      dup1\n      swap2\n      sub\n      swap1\n      return\n        /* \"contracts/solidity/solidity101/ControlFlow.sol\":93:276  function ifElseTest(uint256 _number) external pure returns (bool) {... */\n    tag_6:\n      tag_23\n      0x04\n      dup1\n      calldatasize\n      sub\n      dup2\n      add\n      swap1\n      tag_24\n      swap2\n      swap1\n      tag_25\n      jump\t// in\n    tag_24:\n      tag_26\n      jump\t// in\n    tag_23:\n      mload(0x40)\n      tag_27\n      swap2\n      swap1\n      tag_28\n      jump\t// in\n    tag_27:\n      mload(0x40)\n      dup1\n      swap2\n      sub\n      swap1\n      return\n        /* \"contracts/solidity/solidity101/ControlFlow.sol\":282:472  function forLoopTest() external pure returns (uint256) {... */\n    tag_7:\n      tag_29\n      tag_30\n      jump\t// in\n    tag_29:\n      mload(0x40)\n      tag_31\n      swap2\n      swap1\n      tag_13\n      jump\t// in\n    tag_31:\n      mload(0x40)\n      dup1\n      swap2\n      sub\n      swap1\n      return\n        /* \"contracts/solidity/solidity101/ControlFlow.sol\":697:845  function ternaryTest(uint256 x, uint256 y) public pure returns (uint256) {... */\n    tag_11:\n        /* \"contracts/solidity/solidity101/ControlFlow.sol\":761:768  uint256 */\n      0x00\n        /* \"contracts/solidity/solidity101/ControlFlow.sol\":829:830  y */\n      dup2\n        /* \"contracts/solidity/solidity101/ControlFlow.sol\":824:825  x */\n      dup4\n        /* \"contracts/solidity/solidity101/ControlFlow.sol\":824:830  x >= y */\n      lt\n      iszero\n        /* \"contracts/solidity/solidity101/ControlFlow.sol\":824:838  x >= y ? x : y */\n      tag_33\n      jumpi\n        /* \"contracts/solidity/solidity101/ControlFlow.sol\":837:838  y */\n      dup2\n        /* \"contracts/solidity/solidity101/ControlFlow.sol\":824:838  x >= y ? x : y */\n      jump(tag_34)\n    tag_33:\n        /* \"contracts/solidity/solidity101/ControlFlow.sol\":833:834  x */\n      dup3\n        /* \"contracts/solidity/solidity101/ControlFlow.sol\":824:838  x >= y ? x : y */\n    tag_34:\n        /* \"contracts/solidity/solidity101/ControlFlow.sol\":817:838  return x >= y ? x : y */\n      swap1\n      pop\n        /* \"contracts/solidity/solidity101/ControlFlow.sol\":697:845  function ternaryTest(uint256 x, uint256 y) public pure returns (uint256) {... */\n      swap3\n      swap2\n      pop\n      pop\n      jump\t// out\n        /* \"contracts/solidity/solidity101/ControlFlow.sol\":478:639  function whileTest() public pure returns (uint256) {... */\n    tag_15:\n        /* \"contracts/solidity/solidity101/ControlFlow.sol\":520:527  uint256 */\n      0x00\n        /* \"contracts/solidity/solidity101/ControlFlow.sol\":539:550  uint256 sum */\n      dup1\n        /* \"contracts/solidity/solidity101/ControlFlow.sol\":553:554  0 */\n      0x00\n        /* \"contracts/solidity/solidity101/ControlFlow.sol\":539:554  uint256 sum = 0 */\n      swap1\n      pop\n        /* \"contracts/solidity/solidity101/ControlFlow.sol\":564:611  while (sum < 10) {... */\n    tag_36:\n        /* \"contracts/solidity/solidity101/ControlFlow.sol\":577:579  10 */\n      0x0a\n        /* \"contracts/solidity/solidity101/ControlFlow.sol\":571:574  sum */\n      dup2\n        /* \"contracts/solidity/solidity101/ControlFlow.sol\":571:579  sum < 10 */\n      lt\n        /* \"contracts/solidity/solidity101/ControlFlow.sol\":564:611  while (sum < 10) {... */\n      iszero\n      tag_37\n      jumpi\n        /* \"contracts/solidity/solidity101/ControlFlow.sol\":595:600  sum++ */\n      dup1\n      dup1\n      tag_38\n      swap1\n      tag_39\n      jump\t// in\n    tag_38:\n      swap2\n      pop\n      pop\n        /* \"contracts/solidity/solidity101/ControlFlow.sol\":564:611  while (sum < 10) {... */\n      jump(tag_36)\n    tag_37:\n        /* \"contracts/solidity/solidity101/ControlFlow.sol\":628:631  sum */\n      dup1\n        /* \"contracts/solidity/solidity101/ControlFlow.sol\":620:632  return (sum) */\n      swap2\n      pop\n      pop\n        /* \"contracts/solidity/solidity101/ControlFlow.sol\":478:639  function whileTest() public pure returns (uint256) {... */\n      swap1\n      jump\t// out\n        /* \"contracts/solidity/solidity101/ControlFlow.sol\":900:1429  function insertionSortWrong(uint256[] memory a)... */\n    tag_20:\n        /* \"contracts/solidity/solidity101/ControlFlow.sol\":993:1009  uint256[] memory */\n      0x60\n        /* \"contracts/solidity/solidity101/ControlFlow.sol\":1030:1039  uint256 i */\n      0x00\n        /* \"contracts/solidity/solidity101/ControlFlow.sol\":1025:1403  for (uint256 i = 0; i < a.length - 1; i++) {... */\n    tag_41:\n        /* \"contracts/solidity/solidity101/ControlFlow.sol\":1060:1061  1 */\n      0x01\n        /* \"contracts/solidity/solidity101/ControlFlow.sol\":1049:1050  a */\n      dup4\n        /* \"contracts/solidity/solidity101/ControlFlow.sol\":1049:1057  a.length */\n      mload\n        /* \"contracts/solidity/solidity101/ControlFlow.sol\":1049:1061  a.length - 1 */\n      tag_44\n      swap2\n      swap1\n      tag_45\n      jump\t// in\n    tag_44:\n        /* \"contracts/solidity/solidity101/ControlFlow.sol\":1045:1046  i */\n      dup2\n        /* \"contracts/solidity/solidity101/ControlFlow.sol\":1045:1061  i < a.length - 1 */\n      lt\n        /* \"contracts/solidity/solidity101/ControlFlow.sol\":1025:1403  for (uint256 i = 0; i < a.length - 1; i++) {... */\n      iszero\n      tag_42\n      jumpi\n        /* \"contracts/solidity/solidity101/ControlFlow.sol\":1082:1097  uint256 current */\n      0x00\n        /* \"contracts/solidity/solidity101/ControlFlow.sol\":1100:1101  a */\n      dup4\n        /* \"contracts/solidity/solidity101/ControlFlow.sol\":1102:1103  i */\n      dup3\n        /* \"contracts/solidity/solidity101/ControlFlow.sol\":1100:1104  a[i] */\n      dup2\n      mload\n      dup2\n      lt\n      tag_46\n      jumpi\n      tag_47\n      tag_48\n      jump\t// in\n    tag_47:\n    tag_46:\n      0x20\n      mul\n      0x20\n      add\n      add\n      mload\n        /* \"contracts/solidity/solidity101/ControlFlow.sol\":1082:1104  uint256 current = a[i] */\n      swap1\n      pop\n        /* \"contracts/solidity/solidity101/ControlFlow.sol\":1118:1130  uint256 temp */\n      0x00\n        /* \"contracts/solidity/solidity101/ControlFlow.sol\":1144:1161  uint256 nextIndex */\n      dup1\n        /* \"contracts/solidity/solidity101/ControlFlow.sol\":1168:1169  1 */\n      0x01\n        /* \"contracts/solidity/solidity101/ControlFlow.sol\":1164:1165  i */\n      dup5\n        /* \"contracts/solidity/solidity101/ControlFlow.sol\":1164:1169  i + 1 */\n      tag_49\n      swap2\n      swap1\n      tag_50\n      jump\t// in\n    tag_49:\n        /* \"contracts/solidity/solidity101/ControlFlow.sol\":1144:1169  uint256 nextIndex = i + 1 */\n      swap1\n      pop\n        /* \"contracts/solidity/solidity101/ControlFlow.sol\":1183:1393  while ( nextIndex >0 && a[nextIndex] < current) {... */\n    tag_51:\n        /* \"contracts/solidity/solidity101/ControlFlow.sol\":1202:1203  0 */\n      0x00\n        /* \"contracts/solidity/solidity101/ControlFlow.sol\":1191:1200  nextIndex */\n      dup2\n        /* \"contracts/solidity/solidity101/ControlFlow.sol\":1191:1203  nextIndex >0 */\n      gt\n        /* \"contracts/solidity/solidity101/ControlFlow.sol\":1191:1229  nextIndex >0 && a[nextIndex] < current */\n      dup1\n      iszero\n      tag_53\n      jumpi\n      pop\n        /* \"contracts/solidity/solidity101/ControlFlow.sol\":1222:1229  current */\n      dup3\n        /* \"contracts/solidity/solidity101/ControlFlow.sol\":1207:1208  a */\n      dup7\n        /* \"contracts/solidity/solidity101/ControlFlow.sol\":1209:1218  nextIndex */\n      dup3\n        /* \"contracts/solidity/solidity101/ControlFlow.sol\":1207:1219  a[nextIndex] */\n      dup2\n      mload\n      dup2\n      lt\n      tag_54\n      jumpi\n      tag_55\n      tag_48\n      jump\t// in\n    tag_55:\n    tag_54:\n      0x20\n      mul\n      0x20\n      add\n      add\n      mload\n        /* \"contracts/solidity/solidity101/ControlFlow.sol\":1207:1229  a[nextIndex] < current */\n      lt\n        /* \"contracts/solidity/solidity101/ControlFlow.sol\":1191:1229  nextIndex >0 && a[nextIndex] < current */\n    tag_53:\n        /* \"contracts/solidity/solidity101/ControlFlow.sol\":1183:1393  while ( nextIndex >0 && a[nextIndex] < current) {... */\n      iszero\n      tag_52\n      jumpi\n        /* \"contracts/solidity/solidity101/ControlFlow.sol\":1256:1257  a */\n      dup6\n        /* \"contracts/solidity/solidity101/ControlFlow.sol\":1258:1267  nextIndex */\n      dup2\n        /* \"contracts/solidity/solidity101/ControlFlow.sol\":1256:1268  a[nextIndex] */\n      dup2\n      mload\n      dup2\n      lt\n      tag_56\n      jumpi\n      tag_57\n      tag_48\n      jump\t// in\n    tag_57:\n    tag_56:\n      0x20\n      mul\n      0x20\n      add\n      add\n      mload\n        /* \"contracts/solidity/solidity101/ControlFlow.sol\":1249:1268  temp = a[nextIndex] */\n      swap2\n      pop\n        /* \"contracts/solidity/solidity101/ControlFlow.sol\":1301:1308  current */\n      dup3\n        /* \"contracts/solidity/solidity101/ControlFlow.sol\":1286:1287  a */\n      dup7\n        /* \"contracts/solidity/solidity101/ControlFlow.sol\":1288:1297  nextIndex */\n      dup3\n        /* \"contracts/solidity/solidity101/ControlFlow.sol\":1286:1298  a[nextIndex] */\n      dup2\n      mload\n      dup2\n      lt\n      tag_58\n      jumpi\n      tag_59\n      tag_48\n      jump\t// in\n    tag_59:\n    tag_58:\n      0x20\n      mul\n      0x20\n      add\n      add\n        /* \"contracts/solidity/solidity101/ControlFlow.sol\":1286:1308  a[nextIndex] = current */\n      dup2\n      dup2\n      mstore\n      pop\n      pop\n        /* \"contracts/solidity/solidity101/ControlFlow.sol\":1345:1349  temp */\n      dup2\n        /* \"contracts/solidity/solidity101/ControlFlow.sol\":1326:1327  a */\n      dup7\n        /* \"contracts/solidity/solidity101/ControlFlow.sol\":1340:1341  1 */\n      0x01\n        /* \"contracts/solidity/solidity101/ControlFlow.sol\":1328:1337  nextIndex */\n      dup4\n        /* \"contracts/solidity/solidity101/ControlFlow.sol\":1328:1341  nextIndex - 1 */\n      tag_60\n      swap2\n      swap1\n      tag_45\n      jump\t// in\n    tag_60:\n        /* \"contracts/solidity/solidity101/ControlFlow.sol\":1326:1342  a[nextIndex - 1] */\n      dup2\n      mload\n      dup2\n      lt\n      tag_61\n      jumpi\n      tag_62\n      tag_48\n      jump\t// in\n    tag_62:\n    tag_61:\n      0x20\n      mul\n      0x20\n      add\n      add\n        /* \"contracts/solidity/solidity101/ControlFlow.sol\":1326:1349  a[nextIndex - 1] = temp */\n      dup2\n      dup2\n      mstore\n      pop\n      pop\n        /* \"contracts/solidity/solidity101/ControlFlow.sol\":1367:1378  nextIndex-- */\n      dup1\n      dup1\n      tag_63\n      swap1\n      tag_64\n      jump\t// in\n    tag_63:\n      swap2\n      pop\n      pop\n        /* \"contracts/solidity/solidity101/ControlFlow.sol\":1183:1393  while ( nextIndex >0 && a[nextIndex] < current) {... */\n      jump(tag_51)\n    tag_52:\n        /* \"contracts/solidity/solidity101/ControlFlow.sol\":1068:1403  {... */\n      pop\n      pop\n      pop\n        /* \"contracts/solidity/solidity101/ControlFlow.sol\":1063:1066  i++ */\n      dup1\n      dup1\n      0x01\n      add\n      swap2\n      pop\n      pop\n        /* \"contracts/solidity/solidity101/ControlFlow.sol\":1025:1403  for (uint256 i = 0; i < a.length - 1; i++) {... */\n      jump(tag_41)\n    tag_42:\n      pop\n        /* \"contracts/solidity/solidity101/ControlFlow.sol\":1420:1421  a */\n      dup2\n        /* \"contracts/solidity/solidity101/ControlFlow.sol\":1412:1422  return (a) */\n      swap1\n      pop\n        /* \"contracts/solidity/solidity101/ControlFlow.sol\":900:1429  function insertionSortWrong(uint256[] memory a)... */\n      swap2\n      swap1\n      pop\n      jump\t// out\n        /* \"contracts/solidity/solidity101/ControlFlow.sol\":93:276  function ifElseTest(uint256 _number) external pure returns (bool) {... */\n    tag_26:\n        /* \"contracts/solidity/solidity101/ControlFlow.sol\":153:157  bool */\n      0x00\n        /* \"contracts/solidity/solidity101/ControlFlow.sol\":184:185  0 */\n      dup1\n        /* \"contracts/solidity/solidity101/ControlFlow.sol\":173:180  _number */\n      dup3\n        /* \"contracts/solidity/solidity101/ControlFlow.sol\":173:185  _number == 0 */\n      sub\n        /* \"contracts/solidity/solidity101/ControlFlow.sol\":169:270  if (_number == 0) {... */\n      tag_66\n      jumpi\n        /* \"contracts/solidity/solidity101/ControlFlow.sol\":209:213  true */\n      0x01\n        /* \"contracts/solidity/solidity101/ControlFlow.sol\":201:214  return (true) */\n      swap1\n      pop\n      jump(tag_65)\n        /* \"contracts/solidity/solidity101/ControlFlow.sol\":169:270  if (_number == 0) {... */\n    tag_66:\n        /* \"contracts/solidity/solidity101/ControlFlow.sol\":253:258  false */\n      0x00\n        /* \"contracts/solidity/solidity101/ControlFlow.sol\":245:259  return (false) */\n      swap1\n      pop\n        /* \"contracts/solidity/solidity101/ControlFlow.sol\":93:276  function ifElseTest(uint256 _number) external pure returns (bool) {... */\n    tag_65:\n      swap2\n      swap1\n      pop\n      jump\t// out\n        /* \"contracts/solidity/solidity101/ControlFlow.sol\":282:472  function forLoopTest() external pure returns (uint256) {... */\n    tag_30:\n        /* \"contracts/solidity/solidity101/ControlFlow.sol\":328:335  uint256 */\n      0x00\n        /* \"contracts/solidity/solidity101/ControlFlow.sol\":347:358  uint256 sum */\n      dup1\n        /* \"contracts/solidity/solidity101/ControlFlow.sol\":361:362  1 */\n      0x01\n        /* \"contracts/solidity/solidity101/ControlFlow.sol\":347:362  uint256 sum = 1 */\n      swap1\n      pop\n        /* \"contracts/solidity/solidity101/ControlFlow.sol\":377:386  uint256 i */\n      0x00\n        /* \"contracts/solidity/solidity101/ControlFlow.sol\":389:390  1 */\n      0x01\n        /* \"contracts/solidity/solidity101/ControlFlow.sol\":377:390  uint256 i = 1 */\n      swap1\n      pop\n        /* \"contracts/solidity/solidity101/ControlFlow.sol\":372:444  for (uint256 i = 1; i <= 10; i++) {... */\n    tag_69:\n        /* \"contracts/solidity/solidity101/ControlFlow.sol\":397:399  10 */\n      0x0a\n        /* \"contracts/solidity/solidity101/ControlFlow.sol\":392:393  i */\n      dup2\n        /* \"contracts/solidity/solidity101/ControlFlow.sol\":392:399  i <= 10 */\n      gt\n        /* \"contracts/solidity/solidity101/ControlFlow.sol\":372:444  for (uint256 i = 1; i <= 10; i++) {... */\n      tag_70\n      jumpi\n        /* \"contracts/solidity/solidity101/ControlFlow.sol\":432:433  i */\n      dup1\n        /* \"contracts/solidity/solidity101/ControlFlow.sol\":426:429  sum */\n      dup3\n        /* \"contracts/solidity/solidity101/ControlFlow.sol\":426:433  sum + i */\n      tag_72\n      swap2\n      swap1\n      tag_50\n      jump\t// in\n    tag_72:\n        /* \"contracts/solidity/solidity101/ControlFlow.sol\":420:433  sum = sum + i */\n      swap2\n      pop\n        /* \"contracts/solidity/solidity101/ControlFlow.sol\":401:404  i++ */\n      dup1\n      dup1\n      tag_73\n      swap1\n      tag_39\n      jump\t// in\n    tag_73:\n      swap2\n      pop\n      pop\n        /* \"contracts/solidity/solidity101/ControlFlow.sol\":372:444  for (uint256 i = 1; i <= 10; i++) {... */\n      jump(tag_69)\n    tag_70:\n      pop\n        /* \"contracts/solidity/solidity101/ControlFlow.sol\":461:464  sum */\n      dup1\n        /* \"contracts/solidity/solidity101/ControlFlow.sol\":453:465  return (sum) */\n      swap2\n      pop\n      pop\n        /* \"contracts/solidity/solidity101/ControlFlow.sol\":282:472  function forLoopTest() external pure returns (uint256) {... */\n      swap1\n      jump\t// out\n        /* \"#utility.yul\":7:82   */\n    tag_74:\n        /* \"#utility.yul\":40:46   */\n      0x00\n        /* \"#utility.yul\":73:75   */\n      0x40\n        /* \"#utility.yul\":67:76   */\n      mload\n        /* \"#utility.yul\":57:76   */\n      swap1\n      pop\n        /* \"#utility.yul\":7:82   */\n      swap1\n      jump\t// out\n        /* \"#utility.yul\":88:205   */\n    tag_75:\n        /* \"#utility.yul\":197:198   */\n      0x00\n        /* \"#utility.yul\":194:195   */\n      dup1\n        /* \"#utility.yul\":187:199   */\n      revert\n        /* \"#utility.yul\":211:328   */\n    tag_76:\n        /* \"#utility.yul\":320:321   */\n      0x00\n        /* \"#utility.yul\":317:318   */\n      dup1\n        /* \"#utility.yul\":310:322   */\n      revert\n        /* \"#utility.yul\":334:411   */\n    tag_77:\n        /* \"#utility.yul\":371:378   */\n      0x00\n        /* \"#utility.yul\":400:405   */\n      dup2\n        /* \"#utility.yul\":389:405   */\n      swap1\n      pop\n        /* \"#utility.yul\":334:411   */\n      swap2\n      swap1\n      pop\n      jump\t// out\n        /* \"#utility.yul\":417:539   */\n    tag_78:\n        /* \"#utility.yul\":490:514   */\n      tag_106\n        /* \"#utility.yul\":508:513   */\n      dup2\n        /* \"#utility.yul\":490:514   */\n      tag_77\n      jump\t// in\n    tag_106:\n        /* \"#utility.yul\":483:488   */\n      dup2\n        /* \"#utility.yul\":480:515   */\n      eq\n        /* \"#utility.yul\":470:533   */\n      tag_107\n      jumpi\n        /* \"#utility.yul\":529:530   */\n      0x00\n        /* \"#utility.yul\":526:527   */\n      dup1\n        /* \"#utility.yul\":519:531   */\n      revert\n        /* \"#utility.yul\":470:533   */\n    tag_107:\n        /* \"#utility.yul\":417:539   */\n      pop\n      jump\t// out\n        /* \"#utility.yul\":545:684   */\n    tag_79:\n        /* \"#utility.yul\":591:596   */\n      0x00\n        /* \"#utility.yul\":629:635   */\n      dup2\n        /* \"#utility.yul\":616:636   */\n      calldataload\n        /* \"#utility.yul\":607:636   */\n      swap1\n      pop\n        /* \"#utility.yul\":645:678   */\n      tag_109\n        /* \"#utility.yul\":672:677   */\n      dup2\n        /* \"#utility.yul\":645:678   */\n      tag_78\n      jump\t// in\n    tag_109:\n        /* \"#utility.yul\":545:684   */\n      swap3\n      swap2\n      pop\n      pop\n      jump\t// out\n        /* \"#utility.yul\":690:1164   */\n    tag_10:\n        /* \"#utility.yul\":758:764   */\n      0x00\n        /* \"#utility.yul\":766:772   */\n      dup1\n        /* \"#utility.yul\":815:817   */\n      0x40\n        /* \"#utility.yul\":803:812   */\n      dup4\n        /* \"#utility.yul\":794:801   */\n      dup6\n        /* \"#utility.yul\":790:813   */\n      sub\n        /* \"#utility.yul\":786:818   */\n      slt\n        /* \"#utility.yul\":783:902   */\n      iszero\n      tag_111\n      jumpi\n        /* \"#utility.yul\":821:900   */\n      tag_112\n      tag_75\n      jump\t// in\n    tag_112:\n        /* \"#utility.yul\":783:902   */\n    tag_111:\n        /* \"#utility.yul\":941:942   */\n      0x00\n        /* \"#utility.yul\":966:1019   */\n      tag_113\n        /* \"#utility.yul\":1011:1018   */\n      dup6\n        /* \"#utility.yul\":1002:1008   */\n      dup3\n        /* \"#utility.yul\":991:1000   */\n      dup7\n        /* \"#utility.yul\":987:1009   */\n      add\n        /* \"#utility.yul\":966:1019   */\n      tag_79\n      jump\t// in\n    tag_113:\n        /* \"#utility.yul\":956:1019   */\n      swap3\n      pop\n        /* \"#utility.yul\":912:1029   */\n      pop\n        /* \"#utility.yul\":1068:1070   */\n      0x20\n        /* \"#utility.yul\":1094:1147   */\n      tag_114\n        /* \"#utility.yul\":1139:1146   */\n      dup6\n        /* \"#utility.yul\":1130:1136   */\n      dup3\n        /* \"#utility.yul\":1119:1128   */\n      dup7\n        /* \"#utility.yul\":1115:1137   */\n      add\n        /* \"#utility.yul\":1094:1147   */\n      tag_79\n      jump\t// in\n    tag_114:\n        /* \"#utility.yul\":1084:1147   */\n      swap2\n      pop\n        /* \"#utility.yul\":1039:1157   */\n      pop\n        /* \"#utility.yul\":690:1164   */\n      swap3\n      pop\n      swap3\n      swap1\n      pop\n      jump\t// out\n        /* \"#utility.yul\":1170:1288   */\n    tag_80:\n        /* \"#utility.yul\":1257:1281   */\n      tag_116\n        /* \"#utility.yul\":1275:1280   */\n      dup2\n        /* \"#utility.yul\":1257:1281   */\n      tag_77\n      jump\t// in\n    tag_116:\n        /* \"#utility.yul\":1252:1255   */\n      dup3\n        /* \"#utility.yul\":1245:1282   */\n      mstore\n        /* \"#utility.yul\":1170:1288   */\n      pop\n      pop\n      jump\t// out\n        /* \"#utility.yul\":1294:1516   */\n    tag_13:\n        /* \"#utility.yul\":1387:1391   */\n      0x00\n        /* \"#utility.yul\":1425:1427   */\n      0x20\n        /* \"#utility.yul\":1414:1423   */\n      dup3\n        /* \"#utility.yul\":1410:1428   */\n      add\n        /* \"#utility.yul\":1402:1428   */\n      swap1\n      pop\n        /* \"#utility.yul\":1438:1509   */\n      tag_118\n        /* \"#utility.yul\":1506:1507   */\n      0x00\n        /* \"#utility.yul\":1495:1504   */\n      dup4\n        /* \"#utility.yul\":1491:1508   */\n      add\n        /* \"#utility.yul\":1482:1488   */\n      dup5\n        /* \"#utility.yul\":1438:1509   */\n      tag_80\n      jump\t// in\n    tag_118:\n        /* \"#utility.yul\":1294:1516   */\n      swap3\n      swap2\n      pop\n      pop\n      jump\t// out\n        /* \"#utility.yul\":1522:1639   */\n    tag_81:\n        /* \"#utility.yul\":1631:1632   */\n      0x00\n        /* \"#utility.yul\":1628:1629   */\n      dup1\n        /* \"#utility.yul\":1621:1633   */\n      revert\n        /* \"#utility.yul\":1645:1747   */\n    tag_82:\n        /* \"#utility.yul\":1686:1692   */\n      0x00\n        /* \"#utility.yul\":1737:1739   */\n      0x1f\n        /* \"#utility.yul\":1733:1740   */\n      not\n        /* \"#utility.yul\":1728:1730   */\n      0x1f\n        /* \"#utility.yul\":1721:1726   */\n      dup4\n        /* \"#utility.yul\":1717:1731   */\n      add\n        /* \"#utility.yul\":1713:1741   */\n      and\n        /* \"#utility.yul\":1703:1741   */\n      swap1\n      pop\n        /* \"#utility.yul\":1645:1747   */\n      swap2\n      swap1\n      pop\n      jump\t// out\n        /* \"#utility.yul\":1753:1933   */\n    tag_83:\n        /* \"#utility.yul\":1801:1878   */\n      0x4e487b7100000000000000000000000000000000000000000000000000000000\n        /* \"#utility.yul\":1798:1799   */\n      0x00\n        /* \"#utility.yul\":1791:1879   */\n      mstore\n        /* \"#utility.yul\":1898:1902   */\n      0x41\n        /* \"#utility.yul\":1895:1896   */\n      0x04\n        /* \"#utility.yul\":1888:1903   */\n      mstore\n        /* \"#utility.yul\":1922:1926   */\n      0x24\n        /* \"#utility.yul\":1919:1920   */\n      0x00\n        /* \"#utility.yul\":1912:1927   */\n      revert\n        /* \"#utility.yul\":1939:2220   */\n    tag_84:\n        /* \"#utility.yul\":2022:2049   */\n      tag_123\n        /* \"#utility.yul\":2044:2048   */\n      dup3\n        /* \"#utility.yul\":2022:2049   */\n      tag_82\n      jump\t// in\n    tag_123:\n        /* \"#utility.yul\":2014:2020   */\n      dup2\n        /* \"#utility.yul\":2010:2050   */\n      add\n        /* \"#utility.yul\":2152:2158   */\n      dup2\n        /* \"#utility.yul\":2140:2150   */\n      dup2\n        /* \"#utility.yul\":2137:2159   */\n      lt\n        /* \"#utility.yul\":2116:2134   */\n      0xffffffffffffffff\n        /* \"#utility.yul\":2104:2114   */\n      dup3\n        /* \"#utility.yul\":2101:2135   */\n      gt\n        /* \"#utility.yul\":2098:2160   */\n      or\n        /* \"#utility.yul\":2095:2183   */\n      iszero\n      tag_124\n      jumpi\n        /* \"#utility.yul\":2163:2181   */\n      tag_125\n      tag_83\n      jump\t// in\n    tag_125:\n        /* \"#utility.yul\":2095:2183   */\n    tag_124:\n        /* \"#utility.yul\":2203:2213   */\n      dup1\n        /* \"#utility.yul\":2199:2201   */\n      0x40\n        /* \"#utility.yul\":2192:2214   */\n      mstore\n        /* \"#utility.yul\":1982:2220   */\n      pop\n        /* \"#utility.yul\":1939:2220   */\n      pop\n      pop\n      jump\t// out\n        /* \"#utility.yul\":2226:2355   */\n    tag_85:\n        /* \"#utility.yul\":2260:2266   */\n      0x00\n        /* \"#utility.yul\":2287:2307   */\n      tag_127\n      tag_74\n      jump\t// in\n    tag_127:\n        /* \"#utility.yul\":2277:2307   */\n      swap1\n      pop\n        /* \"#utility.yul\":2316:2349   */\n      tag_128\n        /* \"#utility.yul\":2344:2348   */\n      dup3\n        /* \"#utility.yul\":2336:2342   */\n      dup3\n        /* \"#utility.yul\":2316:2349   */\n      tag_84\n      jump\t// in\n    tag_128:\n        /* \"#utility.yul\":2226:2355   */\n      swap2\n      swap1\n      pop\n      jump\t// out\n        /* \"#utility.yul\":2361:2672   */\n    tag_86:\n        /* \"#utility.yul\":2438:2442   */\n      0x00\n        /* \"#utility.yul\":2528:2546   */\n      0xffffffffffffffff\n        /* \"#utility.yul\":2520:2526   */\n      dup3\n        /* \"#utility.yul\":2517:2547   */\n      gt\n        /* \"#utility.yul\":2514:2570   */\n      iszero\n      tag_130\n      jumpi\n        /* \"#utility.yul\":2550:2568   */\n      tag_131\n      tag_83\n      jump\t// in\n    tag_131:\n        /* \"#utility.yul\":2514:2570   */\n    tag_130:\n        /* \"#utility.yul\":2600:2604   */\n      0x20\n        /* \"#utility.yul\":2592:2598   */\n      dup3\n        /* \"#utility.yul\":2588:2605   */\n      mul\n        /* \"#utility.yul\":2580:2605   */\n      swap1\n      pop\n        /* \"#utility.yul\":2660:2664   */\n      0x20\n        /* \"#utility.yul\":2654:2658   */\n      dup2\n        /* \"#utility.yul\":2650:2665   */\n      add\n        /* \"#utility.yul\":2642:2665   */\n      swap1\n      pop\n        /* \"#utility.yul\":2361:2672   */\n      swap2\n      swap1\n      pop\n      jump\t// out\n        /* \"#utility.yul\":2678:2795   */\n    tag_87:\n        /* \"#utility.yul\":2787:2788   */\n      0x00\n        /* \"#utility.yul\":2784:2785   */\n      dup1\n        /* \"#utility.yul\":2777:2789   */\n      revert\n        /* \"#utility.yul\":2818:3528   */\n    tag_88:\n        /* \"#utility.yul\":2914:2919   */\n      0x00\n        /* \"#utility.yul\":2939:3020   */\n      tag_134\n        /* \"#utility.yul\":2955:3019   */\n      tag_135\n        /* \"#utility.yul\":3012:3018   */\n      dup5\n        /* \"#utility.yul\":2955:3019   */\n      tag_86\n      jump\t// in\n    tag_135:\n        /* \"#utility.yul\":2939:3020   */\n      tag_85\n      jump\t// in\n    tag_134:\n        /* \"#utility.yul\":2930:3020   */\n      swap1\n      pop\n        /* \"#utility.yul\":3040:3045   */\n      dup1\n        /* \"#utility.yul\":3069:3075   */\n      dup4\n        /* \"#utility.yul\":3062:3067   */\n      dup3\n        /* \"#utility.yul\":3055:3076   */\n      mstore\n        /* \"#utility.yul\":3103:3107   */\n      0x20\n        /* \"#utility.yul\":3096:3101   */\n      dup3\n        /* \"#utility.yul\":3092:3108   */\n      add\n        /* \"#utility.yul\":3085:3108   */\n      swap1\n      pop\n        /* \"#utility.yul\":3156:3160   */\n      0x20\n        /* \"#utility.yul\":3148:3154   */\n      dup5\n        /* \"#utility.yul\":3144:3161   */\n      mul\n        /* \"#utility.yul\":3136:3142   */\n      dup4\n        /* \"#utility.yul\":3132:3162   */\n      add\n        /* \"#utility.yul\":3185:3188   */\n      dup6\n        /* \"#utility.yul\":3177:3183   */\n      dup2\n        /* \"#utility.yul\":3174:3189   */\n      gt\n        /* \"#utility.yul\":3171:3293   */\n      iszero\n      tag_136\n      jumpi\n        /* \"#utility.yul\":3204:3283   */\n      tag_137\n      tag_87\n      jump\t// in\n    tag_137:\n        /* \"#utility.yul\":3171:3293   */\n    tag_136:\n        /* \"#utility.yul\":3319:3325   */\n      dup4\n        /* \"#utility.yul\":3302:3522   */\n    tag_138:\n        /* \"#utility.yul\":3336:3342   */\n      dup2\n        /* \"#utility.yul\":3331:3334   */\n      dup2\n        /* \"#utility.yul\":3328:3343   */\n      lt\n        /* \"#utility.yul\":3302:3522   */\n      iszero\n      tag_140\n      jumpi\n        /* \"#utility.yul\":3411:3414   */\n      dup1\n        /* \"#utility.yul\":3440:3477   */\n      tag_141\n        /* \"#utility.yul\":3473:3476   */\n      dup9\n        /* \"#utility.yul\":3461:3471   */\n      dup3\n        /* \"#utility.yul\":3440:3477   */\n      tag_79\n      jump\t// in\n    tag_141:\n        /* \"#utility.yul\":3435:3438   */\n      dup5\n        /* \"#utility.yul\":3428:3478   */\n      mstore\n        /* \"#utility.yul\":3507:3511   */\n      0x20\n        /* \"#utility.yul\":3502:3505   */\n      dup5\n        /* \"#utility.yul\":3498:3512   */\n      add\n        /* \"#utility.yul\":3491:3512   */\n      swap4\n      pop\n        /* \"#utility.yul\":3378:3522   */\n      pop\n        /* \"#utility.yul\":3362:3366   */\n      0x20\n        /* \"#utility.yul\":3357:3360   */\n      dup2\n        /* \"#utility.yul\":3353:3367   */\n      add\n        /* \"#utility.yul\":3346:3367   */\n      swap1\n      pop\n        /* \"#utility.yul\":3302:3522   */\n      jump(tag_138)\n    tag_140:\n        /* \"#utility.yul\":3306:3327   */\n      pop\n        /* \"#utility.yul\":2920:3528   */\n      pop\n      pop\n        /* \"#utility.yul\":2818:3528   */\n      swap4\n      swap3\n      pop\n      pop\n      pop\n      jump\t// out\n        /* \"#utility.yul\":3551:3921   */\n    tag_89:\n        /* \"#utility.yul\":3622:3627   */\n      0x00\n        /* \"#utility.yul\":3671:3674   */\n      dup3\n        /* \"#utility.yul\":3664:3668   */\n      0x1f\n        /* \"#utility.yul\":3656:3662   */\n      dup4\n        /* \"#utility.yul\":3652:3669   */\n      add\n        /* \"#utility.yul\":3648:3675   */\n      slt\n        /* \"#utility.yul\":3638:3760   */\n      tag_143\n      jumpi\n        /* \"#utility.yul\":3679:3758   */\n      tag_144\n      tag_81\n      jump\t// in\n    tag_144:\n        /* \"#utility.yul\":3638:3760   */\n    tag_143:\n        /* \"#utility.yul\":3796:3802   */\n      dup2\n        /* \"#utility.yul\":3783:3803   */\n      calldataload\n        /* \"#utility.yul\":3821:3915   */\n      tag_145\n        /* \"#utility.yul\":3911:3914   */\n      dup5\n        /* \"#utility.yul\":3903:3909   */\n      dup3\n        /* \"#utility.yul\":3896:3900   */\n      0x20\n        /* \"#utility.yul\":3888:3894   */\n      dup7\n        /* \"#utility.yul\":3884:3901   */\n      add\n        /* \"#utility.yul\":3821:3915   */\n      tag_88\n      jump\t// in\n    tag_145:\n        /* \"#utility.yul\":3812:3915   */\n      swap2\n      pop\n        /* \"#utility.yul\":3628:3921   */\n      pop\n        /* \"#utility.yul\":3551:3921   */\n      swap3\n      swap2\n      pop\n      pop\n      jump\t// out\n        /* \"#utility.yul\":3927:4466   */\n    tag_19:\n        /* \"#utility.yul\":4011:4017   */\n      0x00\n        /* \"#utility.yul\":4060:4062   */\n      0x20\n        /* \"#utility.yul\":4048:4057   */\n      dup3\n        /* \"#utility.yul\":4039:4046   */\n      dup5\n        /* \"#utility.yul\":4035:4058   */\n      sub\n        /* \"#utility.yul\":4031:4063   */\n      slt\n        /* \"#utility.yul\":4028:4147   */\n      iszero\n      tag_147\n      jumpi\n        /* \"#utility.yul\":4066:4145   */\n      tag_148\n      tag_75\n      jump\t// in\n    tag_148:\n        /* \"#utility.yul\":4028:4147   */\n    tag_147:\n        /* \"#utility.yul\":4214:4215   */\n      0x00\n        /* \"#utility.yul\":4203:4212   */\n      dup3\n        /* \"#utility.yul\":4199:4216   */\n      add\n        /* \"#utility.yul\":4186:4217   */\n      calldataload\n        /* \"#utility.yul\":4244:4262   */\n      0xffffffffffffffff\n        /* \"#utility.yul\":4236:4242   */\n      dup2\n        /* \"#utility.yul\":4233:4263   */\n      gt\n        /* \"#utility.yul\":4230:4347   */\n      iszero\n      tag_149\n      jumpi\n        /* \"#utility.yul\":4266:4345   */\n      tag_150\n      tag_76\n      jump\t// in\n    tag_150:\n        /* \"#utility.yul\":4230:4347   */\n    tag_149:\n        /* \"#utility.yul\":4371:4449   */\n      tag_151\n        /* \"#utility.yul\":4441:4448   */\n      dup5\n        /* \"#utility.yul\":4432:4438   */\n      dup3\n        /* \"#utility.yul\":4421:4430   */\n      dup6\n        /* \"#utility.yul\":4417:4439   */\n      add\n        /* \"#utility.yul\":4371:4449   */\n      tag_89\n      jump\t// in\n    tag_151:\n        /* \"#utility.yul\":4361:4449   */\n      swap2\n      pop\n        /* \"#utility.yul\":4157:4459   */\n      pop\n        /* \"#utility.yul\":3927:4466   */\n      swap3\n      swap2\n      pop\n      pop\n      jump\t// out\n        /* \"#utility.yul\":4472:4586   */\n    tag_90:\n        /* \"#utility.yul\":4539:4545   */\n      0x00\n        /* \"#utility.yul\":4573:4578   */\n      dup2\n        /* \"#utility.yul\":4567:4579   */\n      mload\n        /* \"#utility.yul\":4557:4579   */\n      swap1\n      pop\n        /* \"#utility.yul\":4472:4586   */\n      swap2\n      swap1\n      pop\n      jump\t// out\n        /* \"#utility.yul\":4592:4776   */\n    tag_91:\n        /* \"#utility.yul\":4691:4702   */\n      0x00\n        /* \"#utility.yul\":4725:4731   */\n      dup3\n        /* \"#utility.yul\":4720:4723   */\n      dup3\n        /* \"#utility.yul\":4713:4732   */\n      mstore\n        /* \"#utility.yul\":4765:4769   */\n      0x20\n        /* \"#utility.yul\":4760:4763   */\n      dup3\n        /* \"#utility.yul\":4756:4770   */\n      add\n        /* \"#utility.yul\":4741:4770   */\n      swap1\n      pop\n        /* \"#utility.yul\":4592:4776   */\n      swap3\n      swap2\n      pop\n      pop\n      jump\t// out\n        /* \"#utility.yul\":4782:4914   */\n    tag_92:\n        /* \"#utility.yul\":4849:4853   */\n      0x00\n        /* \"#utility.yul\":4872:4875   */\n      dup2\n        /* \"#utility.yul\":4864:4875   */\n      swap1\n      pop\n        /* \"#utility.yul\":4902:4906   */\n      0x20\n        /* \"#utility.yul\":4897:4900   */\n      dup3\n        /* \"#utility.yul\":4893:4907   */\n      add\n        /* \"#utility.yul\":4885:4907   */\n      swap1\n      pop\n        /* \"#utility.yul\":4782:4914   */\n      swap2\n      swap1\n      pop\n      jump\t// out\n        /* \"#utility.yul\":4920:5028   */\n    tag_93:\n        /* \"#utility.yul\":4997:5021   */\n      tag_156\n        /* \"#utility.yul\":5015:5020   */\n      dup2\n        /* \"#utility.yul\":4997:5021   */\n      tag_77\n      jump\t// in\n    tag_156:\n        /* \"#utility.yul\":4992:4995   */\n      dup3\n        /* \"#utility.yul\":4985:5022   */\n      mstore\n        /* \"#utility.yul\":4920:5028   */\n      pop\n      pop\n      jump\t// out\n        /* \"#utility.yul\":5034:5213   */\n    tag_94:\n        /* \"#utility.yul\":5103:5113   */\n      0x00\n        /* \"#utility.yul\":5124:5170   */\n      tag_158\n        /* \"#utility.yul\":5166:5169   */\n      dup4\n        /* \"#utility.yul\":5158:5164   */\n      dup4\n        /* \"#utility.yul\":5124:5170   */\n      tag_93\n      jump\t// in\n    tag_158:\n        /* \"#utility.yul\":5202:5206   */\n      0x20\n        /* \"#utility.yul\":5197:5200   */\n      dup4\n        /* \"#utility.yul\":5193:5207   */\n      add\n        /* \"#utility.yul\":5179:5207   */\n      swap1\n      pop\n        /* \"#utility.yul\":5034:5213   */\n      swap3\n      swap2\n      pop\n      pop\n      jump\t// out\n        /* \"#utility.yul\":5219:5332   */\n    tag_95:\n        /* \"#utility.yul\":5289:5293   */\n      0x00\n        /* \"#utility.yul\":5321:5325   */\n      0x20\n        /* \"#utility.yul\":5316:5319   */\n      dup3\n        /* \"#utility.yul\":5312:5326   */\n      add\n        /* \"#utility.yul\":5304:5326   */\n      swap1\n      pop\n        /* \"#utility.yul\":5219:5332   */\n      swap2\n      swap1\n      pop\n      jump\t// out\n        /* \"#utility.yul\":5368:6100   */\n    tag_96:\n        /* \"#utility.yul\":5487:5490   */\n      0x00\n        /* \"#utility.yul\":5516:5570   */\n      tag_161\n        /* \"#utility.yul\":5564:5569   */\n      dup3\n        /* \"#utility.yul\":5516:5570   */\n      tag_90\n      jump\t// in\n    tag_161:\n        /* \"#utility.yul\":5586:5672   */\n      tag_162\n        /* \"#utility.yul\":5665:5671   */\n      dup2\n        /* \"#utility.yul\":5660:5663   */\n      dup6\n        /* \"#utility.yul\":5586:5672   */\n      tag_91\n      jump\t// in\n    tag_162:\n        /* \"#utility.yul\":5579:5672   */\n      swap4\n      pop\n        /* \"#utility.yul\":5696:5752   */\n      tag_163\n        /* \"#utility.yul\":5746:5751   */\n      dup4\n        /* \"#utility.yul\":5696:5752   */\n      tag_92\n      jump\t// in\n    tag_163:\n        /* \"#utility.yul\":5775:5782   */\n      dup1\n        /* \"#utility.yul\":5806:5807   */\n      0x00\n        /* \"#utility.yul\":5791:6075   */\n    tag_164:\n        /* \"#utility.yul\":5816:5822   */\n      dup4\n        /* \"#utility.yul\":5813:5814   */\n      dup2\n        /* \"#utility.yul\":5810:5823   */\n      lt\n        /* \"#utility.yul\":5791:6075   */\n      iszero\n      tag_166\n      jumpi\n        /* \"#utility.yul\":5892:5898   */\n      dup2\n        /* \"#utility.yul\":5886:5899   */\n      mload\n        /* \"#utility.yul\":5919:5982   */\n      tag_167\n        /* \"#utility.yul\":5978:5981   */\n      dup9\n        /* \"#utility.yul\":5963:5976   */\n      dup3\n        /* \"#utility.yul\":5919:5982   */\n      tag_94\n      jump\t// in\n    tag_167:\n        /* \"#utility.yul\":5912:5982   */\n      swap8\n      pop\n        /* \"#utility.yul\":6005:6065   */\n      tag_168\n        /* \"#utility.yul\":6058:6064   */\n      dup4\n        /* \"#utility.yul\":6005:6065   */\n      tag_95\n      jump\t// in\n    tag_168:\n        /* \"#utility.yul\":5995:6065   */\n      swap3\n      pop\n        /* \"#utility.yul\":5851:6075   */\n      pop\n        /* \"#utility.yul\":5838:5839   */\n      0x01\n        /* \"#utility.yul\":5835:5836   */\n      dup2\n        /* \"#utility.yul\":5831:5840   */\n      add\n        /* \"#utility.yul\":5826:5840   */\n      swap1\n      pop\n        /* \"#utility.yul\":5791:6075   */\n      jump(tag_164)\n    tag_166:\n        /* \"#utility.yul\":5795:5809   */\n      pop\n        /* \"#utility.yul\":6091:6094   */\n      dup6\n        /* \"#utility.yul\":6084:6094   */\n      swap4\n      pop\n        /* \"#utility.yul\":5492:6100   */\n      pop\n      pop\n      pop\n        /* \"#utility.yul\":5368:6100   */\n      swap3\n      swap2\n      pop\n      pop\n      jump\t// out\n        /* \"#utility.yul\":6106:6479   */\n    tag_22:\n        /* \"#utility.yul\":6249:6253   */\n      0x00\n        /* \"#utility.yul\":6287:6289   */\n      0x20\n        /* \"#utility.yul\":6276:6285   */\n      dup3\n        /* \"#utility.yul\":6272:6290   */\n      add\n        /* \"#utility.yul\":6264:6290   */\n      swap1\n      pop\n        /* \"#utility.yul\":6336:6345   */\n      dup2\n        /* \"#utility.yul\":6330:6334   */\n      dup2\n        /* \"#utility.yul\":6326:6346   */\n      sub\n        /* \"#utility.yul\":6322:6323   */\n      0x00\n        /* \"#utility.yul\":6311:6320   */\n      dup4\n        /* \"#utility.yul\":6307:6324   */\n      add\n        /* \"#utility.yul\":6300:6347   */\n      mstore\n        /* \"#utility.yul\":6364:6472   */\n      tag_170\n        /* \"#utility.yul\":6467:6471   */\n      dup2\n        /* \"#utility.yul\":6458:6464   */\n      dup5\n        /* \"#utility.yul\":6364:6472   */\n      tag_96\n      jump\t// in\n    tag_170:\n        /* \"#utility.yul\":6356:6472   */\n      swap1\n      pop\n        /* \"#utility.yul\":6106:6479   */\n      swap3\n      swap2\n      pop\n      pop\n      jump\t// out\n        /* \"#utility.yul\":6485:6814   */\n    tag_25:\n        /* \"#utility.yul\":6544:6550   */\n      0x00\n        /* \"#utility.yul\":6593:6595   */\n      0x20\n        /* \"#utility.yul\":6581:6590   */\n      dup3\n        /* \"#utility.yul\":6572:6579   */\n      dup5\n        /* \"#utility.yul\":6568:6591   */\n      sub\n        /* \"#utility.yul\":6564:6596   */\n      slt\n        /* \"#utility.yul\":6561:6680   */\n      iszero\n      tag_172\n      jumpi\n        /* \"#utility.yul\":6599:6678   */\n      tag_173\n      tag_75\n      jump\t// in\n    tag_173:\n        /* \"#utility.yul\":6561:6680   */\n    tag_172:\n        /* \"#utility.yul\":6719:6720   */\n      0x00\n        /* \"#utility.yul\":6744:6797   */\n      tag_174\n        /* \"#utility.yul\":6789:6796   */\n      dup5\n        /* \"#utility.yul\":6780:6786   */\n      dup3\n        /* \"#utility.yul\":6769:6778   */\n      dup6\n        /* \"#utility.yul\":6765:6787   */\n      add\n        /* \"#utility.yul\":6744:6797   */\n      tag_79\n      jump\t// in\n    tag_174:\n        /* \"#utility.yul\":6734:6797   */\n      swap2\n      pop\n        /* \"#utility.yul\":6690:6807   */\n      pop\n        /* \"#utility.yul\":6485:6814   */\n      swap3\n      swap2\n      pop\n      pop\n      jump\t// out\n        /* \"#utility.yul\":6820:6910   */\n    tag_97:\n        /* \"#utility.yul\":6854:6861   */\n      0x00\n        /* \"#utility.yul\":6897:6902   */\n      dup2\n        /* \"#utility.yul\":6890:6903   */\n      iszero\n        /* \"#utility.yul\":6883:6904   */\n      iszero\n        /* \"#utility.yul\":6872:6904   */\n      swap1\n      pop\n        /* \"#utility.yul\":6820:6910   */\n      swap2\n      swap1\n      pop\n      jump\t// out\n        /* \"#utility.yul\":6916:7025   */\n    tag_98:\n        /* \"#utility.yul\":6997:7018   */\n      tag_177\n        /* \"#utility.yul\":7012:7017   */\n      dup2\n        /* \"#utility.yul\":6997:7018   */\n      tag_97\n      jump\t// in\n    tag_177:\n        /* \"#utility.yul\":6992:6995   */\n      dup3\n        /* \"#utility.yul\":6985:7019   */\n      mstore\n        /* \"#utility.yul\":6916:7025   */\n      pop\n      pop\n      jump\t// out\n        /* \"#utility.yul\":7031:7241   */\n    tag_28:\n        /* \"#utility.yul\":7118:7122   */\n      0x00\n        /* \"#utility.yul\":7156:7158   */\n      0x20\n        /* \"#utility.yul\":7145:7154   */\n      dup3\n        /* \"#utility.yul\":7141:7159   */\n      add\n        /* \"#utility.yul\":7133:7159   */\n      swap1\n      pop\n        /* \"#utility.yul\":7169:7234   */\n      tag_179\n        /* \"#utility.yul\":7231:7232   */\n      0x00\n        /* \"#utility.yul\":7220:7229   */\n      dup4\n        /* \"#utility.yul\":7216:7233   */\n      add\n        /* \"#utility.yul\":7207:7213   */\n      dup5\n        /* \"#utility.yul\":7169:7234   */\n      tag_98\n      jump\t// in\n    tag_179:\n        /* \"#utility.yul\":7031:7241   */\n      swap3\n      swap2\n      pop\n      pop\n      jump\t// out\n        /* \"#utility.yul\":7247:7427   */\n    tag_99:\n        /* \"#utility.yul\":7295:7372   */\n      0x4e487b7100000000000000000000000000000000000000000000000000000000\n        /* \"#utility.yul\":7292:7293   */\n      0x00\n        /* \"#utility.yul\":7285:7373   */\n      mstore\n        /* \"#utility.yul\":7392:7396   */\n      0x11\n        /* \"#utility.yul\":7389:7390   */\n      0x04\n        /* \"#utility.yul\":7382:7397   */\n      mstore\n        /* \"#utility.yul\":7416:7420   */\n      0x24\n        /* \"#utility.yul\":7413:7414   */\n      0x00\n        /* \"#utility.yul\":7406:7421   */\n      revert\n        /* \"#utility.yul\":7433:7666   */\n    tag_39:\n        /* \"#utility.yul\":7472:7475   */\n      0x00\n        /* \"#utility.yul\":7495:7519   */\n      tag_182\n        /* \"#utility.yul\":7513:7518   */\n      dup3\n        /* \"#utility.yul\":7495:7519   */\n      tag_77\n      jump\t// in\n    tag_182:\n        /* \"#utility.yul\":7486:7519   */\n      swap2\n      pop\n        /* \"#utility.yul\":7541:7607   */\n      0xffffffffffffffffffffffffffffffffffffffffffffffffffffffffffffffff\n        /* \"#utility.yul\":7534:7539   */\n      dup3\n        /* \"#utility.yul\":7531:7608   */\n      sub\n        /* \"#utility.yul\":7528:7631   */\n      tag_183\n      jumpi\n        /* \"#utility.yul\":7611:7629   */\n      tag_184\n      tag_99\n      jump\t// in\n    tag_184:\n        /* \"#utility.yul\":7528:7631   */\n    tag_183:\n        /* \"#utility.yul\":7658:7659   */\n      0x01\n        /* \"#utility.yul\":7651:7656   */\n      dup3\n        /* \"#utility.yul\":7647:7660   */\n      add\n        /* \"#utility.yul\":7640:7660   */\n      swap1\n      pop\n        /* \"#utility.yul\":7433:7666   */\n      swap2\n      swap1\n      pop\n      jump\t// out\n        /* \"#utility.yul\":7672:7866   */\n    tag_45:\n        /* \"#utility.yul\":7712:7716   */\n      0x00\n        /* \"#utility.yul\":7732:7752   */\n      tag_186\n        /* \"#utility.yul\":7750:7751   */\n      dup3\n        /* \"#utility.yul\":7732:7752   */\n      tag_77\n      jump\t// in\n    tag_186:\n        /* \"#utility.yul\":7727:7752   */\n      swap2\n      pop\n        /* \"#utility.yul\":7766:7786   */\n      tag_187\n        /* \"#utility.yul\":7784:7785   */\n      dup4\n        /* \"#utility.yul\":7766:7786   */\n      tag_77\n      jump\t// in\n    tag_187:\n        /* \"#utility.yul\":7761:7786   */\n      swap3\n      pop\n        /* \"#utility.yul\":7810:7811   */\n      dup3\n        /* \"#utility.yul\":7807:7808   */\n      dup3\n        /* \"#utility.yul\":7803:7812   */\n      sub\n        /* \"#utility.yul\":7795:7812   */\n      swap1\n      pop\n        /* \"#utility.yul\":7834:7835   */\n      dup2\n        /* \"#utility.yul\":7828:7832   */\n      dup2\n        /* \"#utility.yul\":7825:7836   */\n      gt\n        /* \"#utility.yul\":7822:7859   */\n      iszero\n      tag_188\n      jumpi\n        /* \"#utility.yul\":7839:7857   */\n      tag_189\n      tag_99\n      jump\t// in\n    tag_189:\n        /* \"#utility.yul\":7822:7859   */\n    tag_188:\n        /* \"#utility.yul\":7672:7866   */\n      swap3\n      swap2\n      pop\n      pop\n      jump\t// out\n        /* \"#utility.yul\":7872:8052   */\n    tag_48:\n        /* \"#utility.yul\":7920:7997   */\n      0x4e487b7100000000000000000000000000000000000000000000000000000000\n        /* \"#utility.yul\":7917:7918   */\n      0x00\n        /* \"#utility.yul\":7910:7998   */\n      mstore\n        /* \"#utility.yul\":8017:8021   */\n      0x32\n        /* \"#utility.yul\":8014:8015   */\n      0x04\n        /* \"#utility.yul\":8007:8022   */\n      mstore\n        /* \"#utility.yul\":8041:8045   */\n      0x24\n        /* \"#utility.yul\":8038:8039   */\n      0x00\n        /* \"#utility.yul\":8031:8046   */\n      revert\n        /* \"#utility.yul\":8058:8249   */\n    tag_50:\n        /* \"#utility.yul\":8098:8101   */\n      0x00\n        /* \"#utility.yul\":8117:8137   */\n      tag_192\n        /* \"#utility.yul\":8135:8136   */\n      dup3\n        /* \"#utility.yul\":8117:8137   */\n      tag_77\n      jump\t// in\n    tag_192:\n        /* \"#utility.yul\":8112:8137   */\n      swap2\n      pop\n        /* \"#utility.yul\":8151:8171   */\n      tag_193\n        /* \"#utility.yul\":8169:8170   */\n      dup4\n        /* \"#utility.yul\":8151:8171   */\n      tag_77\n      jump\t// in\n    tag_193:\n        /* \"#utility.yul\":8146:8171   */\n      swap3\n      pop\n        /* \"#utility.yul\":8194:8195   */\n      dup3\n        /* \"#utility.yul\":8191:8192   */\n      dup3\n        /* \"#utility.yul\":8187:8196   */\n      add\n        /* \"#utility.yul\":8180:8196   */\n      swap1\n      pop\n        /* \"#utility.yul\":8215:8218   */\n      dup1\n        /* \"#utility.yul\":8212:8213   */\n      dup3\n        /* \"#utility.yul\":8209:8219   */\n      gt\n        /* \"#utility.yul\":8206:8242   */\n      iszero\n      tag_194\n      jumpi\n        /* \"#utility.yul\":8222:8240   */\n      tag_195\n      tag_99\n      jump\t// in\n    tag_195:\n        /* \"#utility.yul\":8206:8242   */\n    tag_194:\n        /* \"#utility.yul\":8058:8249   */\n      swap3\n      swap2\n      pop\n      pop\n      jump\t// out\n        /* \"#utility.yul\":8255:8426   */\n    tag_64:\n        /* \"#utility.yul\":8294:8297   */\n      0x00\n        /* \"#utility.yul\":8317:8341   */\n      tag_197\n        /* \"#utility.yul\":8335:8340   */\n      dup3\n        /* \"#utility.yul\":8317:8341   */\n      tag_77\n      jump\t// in\n    tag_197:\n        /* \"#utility.yul\":8308:8341   */\n      swap2\n      pop\n        /* \"#utility.yul\":8363:8367   */\n      0x00\n        /* \"#utility.yul\":8356:8361   */\n      dup3\n        /* \"#utility.yul\":8353:8368   */\n      sub\n        /* \"#utility.yul\":8350:8391   */\n      tag_198\n      jumpi\n        /* \"#utility.yul\":8371:8389   */\n      tag_199\n      tag_99\n      jump\t// in\n    tag_199:\n        /* \"#utility.yul\":8350:8391   */\n    tag_198:\n        /* \"#utility.yul\":8418:8419   */\n      0x01\n        /* \"#utility.yul\":8411:8416   */\n      dup3\n        /* \"#utility.yul\":8407:8420   */\n      sub\n        /* \"#utility.yul\":8400:8420   */\n      swap1\n      pop\n        /* \"#utility.yul\":8255:8426   */\n      swap2\n      swap1\n      pop\n      jump\t// out\n\n    auxdata: 0xa2646970667358221220c46744d1ac730093fce43604b9a4b691afe944e8ec6ca2555ae3d5dae6b6a00964736f6c634300081a0033\n}\n",
				"bytecode": {
					"linkReferences": {},
					"object": "6080604052348015600e575f80fd5b506107a38061001c5f395ff3fe608060405234801561000f575f80fd5b5060043610610055575f3560e01c806328766320146100595780635d14639d146100895780636188a6c0146100a75780637141fb00146100d7578063b0cfa9fc14610107575b5f80fd5b610073600480360381019061006e919061030d565b610125565b604051610080919061035a565b60405180910390f35b61009161013e565b60405161009e919061035a565b60405180910390f35b6100c160048036038101906100bc91906104c3565b610167565b6040516100ce91906105c1565b60405180910390f35b6100f160048036038101906100ec91906105e1565b610272565b6040516100fe9190610626565b60405180910390f35b61010f61028c565b60405161011c919061035a565b60405180910390f35b5f818310156101345781610136565b825b905092915050565b5f805f90505b600a8110156101605780806101589061066c565b915050610144565b8091505090565b60605f5b6001835161017991906106b3565b811015610269575f838281518110610194576101936106e6565b5b602002602001015190505f806001846101ad9190610713565b90505b5f811180156101d85750828682815181106101ce576101cd6106e6565b5b6020026020010151105b15610259578581815181106101f0576101ef6106e6565b5b602002602001015191508286828151811061020e5761020d6106e6565b5b602002602001018181525050818660018361022991906106b3565b8151811061023a576102396106e6565b5b602002602001018181525050808061025190610746565b9150506101b0565b505050808060010191505061016b565b50819050919050565b5f8082036102835760019050610287565b5f90505b919050565b5f80600190505f600190505b600a81116102c15780826102ac9190610713565b915080806102b99061066c565b915050610298565b508091505090565b5f604051905090565b5f80fd5b5f80fd5b5f819050919050565b6102ec816102da565b81146102f6575f80fd5b50565b5f81359050610307816102e3565b92915050565b5f8060408385031215610323576103226102d2565b5b5f610330858286016102f9565b9250506020610341858286016102f9565b9150509250929050565b610354816102da565b82525050565b5f60208201905061036d5f83018461034b565b92915050565b5f80fd5b5f601f19601f8301169050919050565b7f4e487b71000000000000000000000000000000000000000000000000000000005f52604160045260245ffd5b6103bd82610377565b810181811067ffffffffffffffff821117156103dc576103db610387565b5b80604052505050565b5f6103ee6102c9565b90506103fa82826103b4565b919050565b5f67ffffffffffffffff82111561041957610418610387565b5b602082029050602081019050919050565b5f80fd5b5f61044061043b846103ff565b6103e5565b905080838252602082019050602084028301858111156104635761046261042a565b5b835b8181101561048c578061047888826102f9565b845260208401935050602081019050610465565b5050509392505050565b5f82601f8301126104aa576104a9610373565b5b81356104ba84826020860161042e565b91505092915050565b5f602082840312156104d8576104d76102d2565b5b5f82013567ffffffffffffffff8111156104f5576104f46102d6565b5b61050184828501610496565b91505092915050565b5f81519050919050565b5f82825260208201905092915050565b5f819050602082019050919050565b61053c816102da565b82525050565b5f61054d8383610533565b60208301905092915050565b5f602082019050919050565b5f61056f8261050a565b6105798185610514565b935061058483610524565b805f5b838110156105b457815161059b8882610542565b97506105a683610559565b925050600181019050610587565b5085935050505092915050565b5f6020820190508181035f8301526105d98184610565565b905092915050565b5f602082840312156105f6576105f56102d2565b5b5f610603848285016102f9565b91505092915050565b5f8115159050919050565b6106208161060c565b82525050565b5f6020820190506106395f830184610617565b92915050565b7f4e487b71000000000000000000000000000000000000000000000000000000005f52601160045260245ffd5b5f610676826102da565b91507fffffffffffffffffffffffffffffffffffffffffffffffffffffffffffffffff82036106a8576106a761063f565b5b600182019050919050565b5f6106bd826102da565b91506106c8836102da565b92508282039050818111156106e0576106df61063f565b5b92915050565b7f4e487b71000000000000000000000000000000000000000000000000000000005f52603260045260245ffd5b5f61071d826102da565b9150610728836102da565b92508282019050808211156107405761073f61063f565b5b92915050565b5f610750826102da565b91505f82036107625761076161063f565b5b60018203905091905056fea2646970667358221220c46744d1ac730093fce43604b9a4b691afe944e8ec6ca2555ae3d5dae6b6a00964736f6c634300081a0033",
					"opcodes": "PUSH1 0x80 PUSH1 0x40 MSTORE CALLVALUE DUP1 ISZERO PUSH1 0xE JUMPI PUSH0 DUP1 REVERT JUMPDEST POP PUSH2 0x7A3 DUP1 PUSH2 0x1C PUSH0 CODECOPY PUSH0 RETURN INVALID PUSH1 0x80 PUSH1 0x40 MSTORE CALLVALUE DUP1 ISZERO PUSH2 0xF JUMPI PUSH0 DUP1 REVERT JUMPDEST POP PUSH1 0x4 CALLDATASIZE LT PUSH2 0x55 JUMPI PUSH0 CALLDATALOAD PUSH1 0xE0 SHR DUP1 PUSH4 0x28766320 EQ PUSH2 0x59 JUMPI DUP1 PUSH4 0x5D14639D EQ PUSH2 0x89 JUMPI DUP1 PUSH4 0x6188A6C0 EQ PUSH2 0xA7 JUMPI DUP1 PUSH4 0x7141FB00 EQ PUSH2 0xD7 JUMPI DUP1 PUSH4 0xB0CFA9FC EQ PUSH2 0x107 JUMPI JUMPDEST PUSH0 DUP1 REVERT JUMPDEST PUSH2 0x73 PUSH1 0x4 DUP1 CALLDATASIZE SUB DUP2 ADD SWAP1 PUSH2 0x6E SWAP2 SWAP1 PUSH2 0x30D JUMP JUMPDEST PUSH2 0x125 JUMP JUMPDEST PUSH1 0x40 MLOAD PUSH2 0x80 SWAP2 SWAP1 PUSH2 0x35A JUMP JUMPDEST PUSH1 0x40 MLOAD DUP1 SWAP2 SUB SWAP1 RETURN JUMPDEST PUSH2 0x91 PUSH2 0x13E JUMP JUMPDEST PUSH1 0x40 MLOAD PUSH2 0x9E SWAP2 SWAP1 PUSH2 0x35A JUMP JUMPDEST PUSH1 0x40 MLOAD DUP1 SWAP2 SUB SWAP1 RETURN JUMPDEST PUSH2 0xC1 PUSH1 0x4 DUP1 CALLDATASIZE SUB DUP2 ADD SWAP1 PUSH2 0xBC SWAP2 SWAP1 PUSH2 0x4C3 JUMP JUMPDEST PUSH2 0x167 JUMP JUMPDEST PUSH1 0x40 MLOAD PUSH2 0xCE SWAP2 SWAP1 PUSH2 0x5C1 JUMP JUMPDEST PUSH1 0x40 MLOAD DUP1 SWAP2 SUB SWAP1 RETURN JUMPDEST PUSH2 0xF1 PUSH1 0x4 DUP1 CALLDATASIZE SUB DUP2 ADD SWAP1 PUSH2 0xEC SWAP2 SWAP1 PUSH2 0x5E1 JUMP JUMPDEST PUSH2 0x272 JUMP JUMPDEST PUSH1 0x40 MLOAD PUSH2 0xFE SWAP2 SWAP1 PUSH2 0x626 JUMP JUMPDEST PUSH1 0x40 MLOAD DUP1 SWAP2 SUB SWAP1 RETURN JUMPDEST PUSH2 0x10F PUSH2 0x28C JUMP JUMPDEST PUSH1 0x40 MLOAD PUSH2 0x11C SWAP2 SWAP1 PUSH2 0x35A JUMP JUMPDEST PUSH1 0x40 MLOAD DUP1 SWAP2 SUB SWAP1 RETURN JUMPDEST PUSH0 DUP2 DUP4 LT ISZERO PUSH2 0x134 JUMPI DUP2 PUSH2 0x136 JUMP JUMPDEST DUP3 JUMPDEST SWAP1 POP SWAP3 SWAP2 POP POP JUMP JUMPDEST PUSH0 DUP1 PUSH0 SWAP1 POP JUMPDEST PUSH1 0xA DUP2 LT ISZERO PUSH2 0x160 JUMPI DUP1 DUP1 PUSH2 0x158 SWAP1 PUSH2 0x66C JUMP JUMPDEST SWAP2 POP POP PUSH2 0x144 JUMP JUMPDEST DUP1 SWAP2 POP POP SWAP1 JUMP JUMPDEST PUSH1 0x60 PUSH0 JUMPDEST PUSH1 0x1 DUP4 MLOAD PUSH2 0x179 SWAP2 SWAP1 PUSH2 0x6B3 JUMP JUMPDEST DUP2 LT ISZERO PUSH2 0x269 JUMPI PUSH0 DUP4 DUP3 DUP2 MLOAD DUP2 LT PUSH2 0x194 JUMPI PUSH2 0x193 PUSH2 0x6E6 JUMP JUMPDEST JUMPDEST PUSH1 0x20 MUL PUSH1 0x20 ADD ADD MLOAD SWAP1 POP PUSH0 DUP1 PUSH1 0x1 DUP5 PUSH2 0x1AD SWAP2 SWAP1 PUSH2 0x713 JUMP JUMPDEST SWAP1 POP JUMPDEST PUSH0 DUP2 GT DUP1 ISZERO PUSH2 0x1D8 JUMPI POP DUP3 DUP7 DUP3 DUP2 MLOAD DUP2 LT PUSH2 0x1CE JUMPI PUSH2 0x1CD PUSH2 0x6E6 JUMP JUMPDEST JUMPDEST PUSH1 0x20 MUL PUSH1 0x20 ADD ADD MLOAD LT JUMPDEST ISZERO PUSH2 0x259 JUMPI DUP6 DUP2 DUP2 MLOAD DUP2 LT PUSH2 0x1F0 JUMPI PUSH2 0x1EF PUSH2 0x6E6 JUMP JUMPDEST JUMPDEST PUSH1 0x20 MUL PUSH1 0x20 ADD ADD MLOAD SWAP2 POP DUP3 DUP7 DUP3 DUP2 MLOAD DUP2 LT PUSH2 0x20E JUMPI PUSH2 0x20D PUSH2 0x6E6 JUMP JUMPDEST JUMPDEST PUSH1 0x20 MUL PUSH1 0x20 ADD ADD DUP2 DUP2 MSTORE POP POP DUP2 DUP7 PUSH1 0x1 DUP4 PUSH2 0x229 SWAP2 SWAP1 PUSH2 0x6B3 JUMP JUMPDEST DUP2 MLOAD DUP2 LT PUSH2 0x23A JUMPI PUSH2 0x239 PUSH2 0x6E6 JUMP JUMPDEST JUMPDEST PUSH1 0x20 MUL PUSH1 0x20 ADD ADD DUP2 DUP2 MSTORE POP POP DUP1 DUP1 PUSH2 0x251 SWAP1 PUSH2 0x746 JUMP JUMPDEST SWAP2 POP POP PUSH2 0x1B0 JUMP JUMPDEST POP POP POP DUP1 DUP1 PUSH1 0x1 ADD SWAP2 POP POP PUSH2 0x16B JUMP JUMPDEST POP DUP2 SWAP1 POP SWAP2 SWAP1 POP JUMP JUMPDEST PUSH0 DUP1 DUP3 SUB PUSH2 0x283 JUMPI PUSH1 0x1 SWAP1 POP PUSH2 0x287 JUMP JUMPDEST PUSH0 SWAP1 POP JUMPDEST SWAP2 SWAP1 POP JUMP JUMPDEST PUSH0 DUP1 PUSH1 0x1 SWAP1 POP PUSH0 PUSH1 0x1 SWAP1 POP JUMPDEST PUSH1 0xA DUP2 GT PUSH2 0x2C1 JUMPI DUP1 DUP3 PUSH2 0x2AC SWAP2 SWAP1 PUSH2 0x713 JUMP JUMPDEST SWAP2 POP DUP1 DUP1 PUSH2 0x2B9 SWAP1 PUSH2 0x66C JUMP JUMPDEST SWAP2 POP POP PUSH2 0x298 JUMP JUMPDEST POP DUP1 SWAP2 POP POP SWAP1 JUMP JUMPDEST PUSH0 PUSH1 0x40 MLOAD SWAP1 POP SWAP1 JUMP JUMPDEST PUSH0 DUP1 REVERT JUMPDEST PUSH0 DUP1 REVERT JUMPDEST PUSH0 DUP2 SWAP1 POP SWAP2 SWAP1 POP JUMP JUMPDEST PUSH2 0x2EC DUP2 PUSH2 0x2DA JUMP JUMPDEST DUP2 EQ PUSH2 0x2F6 JUMPI PUSH0 DUP1 REVERT JUMPDEST POP JUMP JUMPDEST PUSH0 DUP2 CALLDATALOAD SWAP1 POP PUSH2 0x307 DUP2 PUSH2 0x2E3 JUMP JUMPDEST SWAP3 SWAP2 POP POP JUMP JUMPDEST PUSH0 DUP1 PUSH1 0x40 DUP4 DUP6 SUB SLT ISZERO PUSH2 0x323 JUMPI PUSH2 0x322 PUSH2 0x2D2 JUMP JUMPDEST JUMPDEST PUSH0 PUSH2 0x330 DUP6 DUP3 DUP7 ADD PUSH2 0x2F9 JUMP JUMPDEST SWAP3 POP POP PUSH1 0x20 PUSH2 0x341 DUP6 DUP3 DUP7 ADD PUSH2 0x2F9 JUMP JUMPDEST SWAP2 POP POP SWAP3 POP SWAP3 SWAP1 POP JUMP JUMPDEST PUSH2 0x354 DUP2 PUSH2 0x2DA JUMP JUMPDEST DUP3 MSTORE POP POP JUMP JUMPDEST PUSH0 PUSH1 0x20 DUP3 ADD SWAP1 POP PUSH2 0x36D PUSH0 DUP4 ADD DUP5 PUSH2 0x34B JUMP JUMPDEST SWAP3 SWAP2 POP POP JUMP JUMPDEST PUSH0 DUP1 REVERT JUMPDEST PUSH0 PUSH1 0x1F NOT PUSH1 0x1F DUP4 ADD AND SWAP1 POP SWAP2 SWAP1 POP JUMP JUMPDEST PUSH32 0x4E487B7100000000000000000000000000000000000000000000000000000000 PUSH0 MSTORE PUSH1 0x41 PUSH1 0x4 MSTORE PUSH1 0x24 PUSH0 REVERT JUMPDEST PUSH2 0x3BD DUP3 PUSH2 0x377 JUMP JUMPDEST DUP2 ADD DUP2 DUP2 LT PUSH8 0xFFFFFFFFFFFFFFFF DUP3 GT OR ISZERO PUSH2 0x3DC JUMPI PUSH2 0x3DB PUSH2 0x387 JUMP JUMPDEST JUMPDEST DUP1 PUSH1 0x40 MSTORE POP POP POP JUMP JUMPDEST PUSH0 PUSH2 0x3EE PUSH2 0x2C9 JUMP JUMPDEST SWAP1 POP PUSH2 0x3FA DUP3 DUP3 PUSH2 0x3B4 JUMP JUMPDEST SWAP2 SWAP1 POP JUMP JUMPDEST PUSH0 PUSH8 0xFFFFFFFFFFFFFFFF DUP3 GT ISZERO PUSH2 0x419 JUMPI PUSH2 0x418 PUSH2 0x387 JUMP JUMPDEST JUMPDEST PUSH1 0x20 DUP3 MUL SWAP1 POP PUSH1 0x20 DUP2 ADD SWAP1 POP SWAP2 SWAP1 POP JUMP JUMPDEST PUSH0 DUP1 REVERT JUMPDEST PUSH0 PUSH2 0x440 PUSH2 0x43B DUP5 PUSH2 0x3FF JUMP JUMPDEST PUSH2 0x3E5 JUMP JUMPDEST SWAP1 POP DUP1 DUP4 DUP3 MSTORE PUSH1 0x20 DUP3 ADD SWAP1 POP PUSH1 0x20 DUP5 MUL DUP4 ADD DUP6 DUP2 GT ISZERO PUSH2 0x463 JUMPI PUSH2 0x462 PUSH2 0x42A JUMP JUMPDEST JUMPDEST DUP4 JUMPDEST DUP2 DUP2 LT ISZERO PUSH2 0x48C JUMPI DUP1 PUSH2 0x478 DUP9 DUP3 PUSH2 0x2F9 JUMP JUMPDEST DUP5 MSTORE PUSH1 0x20 DUP5 ADD SWAP4 POP POP PUSH1 0x20 DUP2 ADD SWAP1 POP PUSH2 0x465 JUMP JUMPDEST POP POP POP SWAP4 SWAP3 POP POP POP JUMP JUMPDEST PUSH0 DUP3 PUSH1 0x1F DUP4 ADD SLT PUSH2 0x4AA JUMPI PUSH2 0x4A9 PUSH2 0x373 JUMP JUMPDEST JUMPDEST DUP2 CALLDATALOAD PUSH2 0x4BA DUP5 DUP3 PUSH1 0x20 DUP7 ADD PUSH2 0x42E JUMP JUMPDEST SWAP2 POP POP SWAP3 SWAP2 POP POP JUMP JUMPDEST PUSH0 PUSH1 0x20 DUP3 DUP5 SUB SLT ISZERO PUSH2 0x4D8 JUMPI PUSH2 0x4D7 PUSH2 0x2D2 JUMP JUMPDEST JUMPDEST PUSH0 DUP3 ADD CALLDATALOAD PUSH8 0xFFFFFFFFFFFFFFFF DUP2 GT ISZERO PUSH2 0x4F5 JUMPI PUSH2 0x4F4 PUSH2 0x2D6 JUMP JUMPDEST JUMPDEST PUSH2 0x501 DUP5 DUP3 DUP6 ADD PUSH2 0x496 JUMP JUMPDEST SWAP2 POP POP SWAP3 SWAP2 POP POP JUMP JUMPDEST PUSH0 DUP2 MLOAD SWAP1 POP SWAP2 SWAP1 POP JUMP JUMPDEST PUSH0 DUP3 DUP3 MSTORE PUSH1 0x20 DUP3 ADD SWAP1 POP SWAP3 SWAP2 POP POP JUMP JUMPDEST PUSH0 DUP2 SWAP1 POP PUSH1 0x20 DUP3 ADD SWAP1 POP SWAP2 SWAP1 POP JUMP JUMPDEST PUSH2 0x53C DUP2 PUSH2 0x2DA JUMP JUMPDEST DUP3 MSTORE POP POP JUMP JUMPDEST PUSH0 PUSH2 0x54D DUP4 DUP4 PUSH2 0x533 JUMP JUMPDEST PUSH1 0x20 DUP4 ADD SWAP1 POP SWAP3 SWAP2 POP POP JUMP JUMPDEST PUSH0 PUSH1 0x20 DUP3 ADD SWAP1 POP SWAP2 SWAP1 POP JUMP JUMPDEST PUSH0 PUSH2 0x56F DUP3 PUSH2 0x50A JUMP JUMPDEST PUSH2 0x579 DUP2 DUP6 PUSH2 0x514 JUMP JUMPDEST SWAP4 POP PUSH2 0x584 DUP4 PUSH2 0x524 JUMP JUMPDEST DUP1 PUSH0 JUMPDEST DUP4 DUP2 LT ISZERO PUSH2 0x5B4 JUMPI DUP2 MLOAD PUSH2 0x59B DUP9 DUP3 PUSH2 0x542 JUMP JUMPDEST SWAP8 POP PUSH2 0x5A6 DUP4 PUSH2 0x559 JUMP JUMPDEST SWAP3 POP POP PUSH1 0x1 DUP2 ADD SWAP1 POP PUSH2 0x587 JUMP JUMPDEST POP DUP6 SWAP4 POP POP POP POP SWAP3 SWAP2 POP POP JUMP JUMPDEST PUSH0 PUSH1 0x20 DUP3 ADD SWAP1 POP DUP2 DUP2 SUB PUSH0 DUP4 ADD MSTORE PUSH2 0x5D9 DUP2 DUP5 PUSH2 0x565 JUMP JUMPDEST SWAP1 POP SWAP3 SWAP2 POP POP JUMP JUMPDEST PUSH0 PUSH1 0x20 DUP3 DUP5 SUB SLT ISZERO PUSH2 0x5F6 JUMPI PUSH2 0x5F5 PUSH2 0x2D2 JUMP JUMPDEST JUMPDEST PUSH0 PUSH2 0x603 DUP5 DUP3 DUP6 ADD PUSH2 0x2F9 JUMP JUMPDEST SWAP2 POP POP SWAP3 SWAP2 POP POP JUMP JUMPDEST PUSH0 DUP2 ISZERO ISZERO SWAP1 POP SWAP2 SWAP1 POP JUMP JUMPDEST PUSH2 0x620 DUP2 PUSH2 0x60C JUMP JUMPDEST DUP3 MSTORE POP POP JUMP JUMPDEST PUSH0 PUSH1 0x20 DUP3 ADD SWAP1 POP PUSH2 0x639 PUSH0 DUP4 ADD DUP5 PUSH2 0x617 JUMP JUMPDEST SWAP3 SWAP2 POP POP JUMP JUMPDEST PUSH32 0x4E487B7100000000000000000000000000000000000000000000000000000000 PUSH0 MSTORE PUSH1 0x11 PUSH1 0x4 MSTORE PUSH1 0x24 PUSH0 REVERT JUMPDEST PUSH0 PUSH2 0x676 DUP3 PUSH2 0x2DA JUMP JUMPDEST SWAP2 POP PUSH32 0xFFFFFFFFFFFFFFFFFFFFFFFFFFFFFFFFFFFFFFFFFFFFFFFFFFFFFFFFFFFFFFFF DUP3 SUB PUSH2 0x6A8 JUMPI PUSH2 0x6A7 PUSH2 0x63F JUMP JUMPDEST JUMPDEST PUSH1 0x1 DUP3 ADD SWAP1 POP SWAP2 SWAP1 POP JUMP JUMPDEST PUSH0 PUSH2 0x6BD DUP3 PUSH2 0x2DA JUMP JUMPDEST SWAP2 POP PUSH2 0x6C8 DUP4 PUSH2 0x2DA JUMP JUMPDEST SWAP3 POP DUP3 DUP3 SUB SWAP1 POP DUP2 DUP2 GT ISZERO PUSH2 0x6E0 JUMPI PUSH2 0x6DF PUSH2 0x63F JUMP JUMPDEST JUMPDEST SWAP3 SWAP2 POP POP JUMP JUMPDEST PUSH32 0x4E487B7100000000000000000000000000000000000000000000000000000000 PUSH0 MSTORE PUSH1 0x32 PUSH1 0x4 MSTORE PUSH1 0x24 PUSH0 REVERT JUMPDEST PUSH0 PUSH2 0x71D DUP3 PUSH2 0x2DA JUMP JUMPDEST SWAP2 POP PUSH2 0x728 DUP4 PUSH2 0x2DA JUMP JUMPDEST SWAP3 POP DUP3 DUP3 ADD SWAP1 POP DUP1 DUP3 GT ISZERO PUSH2 0x740 JUMPI PUSH2 0x73F PUSH2 0x63F JUMP JUMPDEST JUMPDEST SWAP3 SWAP2 POP POP JUMP JUMPDEST PUSH0 PUSH2 0x750 DUP3 PUSH2 0x2DA JUMP JUMPDEST SWAP2 POP PUSH0 DUP3 SUB PUSH2 0x762 JUMPI PUSH2 0x761 PUSH2 0x63F JUMP JUMPDEST JUMPDEST PUSH1 0x1 DUP3 SUB SWAP1 POP SWAP2 SWAP1 POP JUMP INVALID LOG2 PUSH5 0x6970667358 0x22 SLT KECCAK256 0xC4 PUSH8 0x44D1AC730093FCE4 CALLDATASIZE DIV 0xB9 LOG4 0xB6 SWAP2 0xAF 0xE9 PREVRANDAO 0xE8 0xEC PUSH13 0xA2555AE3D5DAE6B6A00964736F PUSH13 0x634300081A0033000000000000 "
				},
				"gasEstimates": {
					"creation": {
						"codeDepositCost": "391000",
						"executionCost": "428",
						"totalCost": "391428"
					},
					"external": {
						"forLoopTest()": "infinite",
						"ifElseTest(uint256)": "677",
						"insertionSortWrong(uint256[])": "infinite",
						"ternaryTest(uint256,uint256)": "infinite",
						"whileTest()": "infinite"
					}
				},
				"methodIdentifiers": {
					"forLoopTest()": "b0cfa9fc",
					"ifElseTest(uint256)": "7141fb00",
					"insertionSortWrong(uint256[])": "6188a6c0",
					"ternaryTest(uint256,uint256)": "28766320",
					"whileTest()": "5d14639d"
				}
			},
			"storageLayout": {
				"storage": [],
				"types": null
			},
			"userdoc": {
				"kind": "user",
				"methods": {},
				"version": 1
			}
		}
	}
}