{
	"contracts/solidity/solidity101/StructTypes.sol": {
		"StructTypes": {
			"abi": [
				{
					"inputs": [
						{
							"internalType": "uint256",
							"name": "",
							"type": "uint256"
						}
					],
					"name": "_addressById",
					"outputs": [
						{
							"internalType": "address",
							"name": "",
							"type": "address"
						}
					],
					"stateMutability": "view",
					"type": "function"
				},
				{
					"inputs": [
						{
							"internalType": "address",
							"name": "",
							"type": "address"
						}
					],
					"name": "_addressByaddress",
					"outputs": [
						{
							"internalType": "address",
							"name": "",
							"type": "address"
						}
					],
					"stateMutability": "view",
					"type": "function"
				},
				{
					"inputs": [],
					"name": "initStudent2",
					"outputs": [],
					"stateMutability": "nonpayable",
					"type": "function"
				},
				{
					"inputs": [],
					"name": "initStudent4",
					"outputs": [],
					"stateMutability": "nonpayable",
					"type": "function"
				},
				{
					"inputs": [],
					"name": "initSudent1",
					"outputs": [],
					"stateMutability": "nonpayable",
					"type": "function"
				},
				{
					"inputs": [],
					"name": "initstudent3",
					"outputs": [],
					"stateMutability": "nonpayable",
					"type": "function"
				},
				{
					"inputs": [],
					"name": "student",
					"outputs": [
						{
							"internalType": "uint256",
							"name": "id",
							"type": "uint256"
						},
						{
							"internalType": "uint256",
							"name": "socpe",
							"type": "uint256"
						}
					],
					"stateMutability": "view",
					"type": "function"
				},
				{
					"inputs": [
						{
							"internalType": "uint256",
							"name": "key",
							"type": "uint256"
						},
						{
							"internalType": "address",
							"name": "value",
							"type": "address"
						}
					],
					"name": "writeMap",
					"outputs": [],
					"stateMutability": "nonpayable",
					"type": "function"
				}
			],
			"devdoc": {
				"kind": "dev",
				"methods": {},
				"version": 1
			},
			"evm": {
				"assembly": "    /* \"contracts/solidity/solidity101/StructTypes.sol\":66:1270  contract StructTypes {... */\n  mstore(0x40, 0x80)\n  callvalue\n  dup1\n  iszero\n  tag_1\n  jumpi\n  0x00\n  dup1\n  revert\ntag_1:\n  pop\n  dataSize(sub_0)\n  dup1\n  dataOffset(sub_0)\n  0x00\n  codecopy\n  0x00\n  return\nstop\n\nsub_0: assembly {\n        /* \"contracts/solidity/solidity101/StructTypes.sol\":66:1270  contract StructTypes {... */\n      mstore(0x40, 0x80)\n      callvalue\n      dup1\n      iszero\n      tag_1\n      jumpi\n      0x00\n      dup1\n      revert\n    tag_1:\n      pop\n      jumpi(tag_2, lt(calldatasize, 0x04))\n      shr(0xe0, calldataload(0x00))\n      dup1\n      0x699450e8\n      gt\n      tag_11\n      jumpi\n      dup1\n      0x699450e8\n      eq\n      tag_7\n      jumpi\n      dup1\n      0x9ebb8d20\n      eq\n      tag_8\n      jumpi\n      dup1\n      0xf01d79e9\n      eq\n      tag_9\n      jumpi\n      dup1\n      0xfa4e5736\n      eq\n      tag_10\n      jumpi\n      jump(tag_2)\n    tag_11:\n      dup1\n      0x07272160\n      eq\n      tag_3\n      jumpi\n      dup1\n      0x1a8d7dc3\n      eq\n      tag_4\n      jumpi\n      dup1\n      0x1ac08174\n      eq\n      tag_5\n      jumpi\n      dup1\n      0x296f7adc\n      eq\n      tag_6\n      jumpi\n    tag_2:\n      0x00\n      dup1\n      revert\n        /* \"contracts/solidity/solidity101/StructTypes.sol\":1143:1268  function writeMap(uint256 key,address value) external {... */\n    tag_3:\n      tag_12\n      0x04\n      dup1\n      calldatasize\n      sub\n      dup2\n      add\n      swap1\n      tag_13\n      swap2\n      swap1\n      tag_14\n      jump\t// in\n    tag_13:\n      tag_15\n      jump\t// in\n    tag_12:\n      stop\n        /* \"contracts/solidity/solidity101/StructTypes.sol\":518:611  function initStudent2() external {... */\n    tag_4:\n      tag_16\n      tag_17\n      jump\t// in\n    tag_16:\n      stop\n        /* \"contracts/solidity/solidity101/StructTypes.sol\":636:711  function initstudent3() external {... */\n    tag_5:\n      tag_18\n      tag_19\n      jump\t// in\n    tag_18:\n      stop\n        /* \"contracts/solidity/solidity101/StructTypes.sol\":1031:1078  mapping(uint256 => address) public _addressById */\n    tag_6:\n      tag_20\n      0x04\n      dup1\n      calldatasize\n      sub\n      dup2\n      add\n      swap1\n      tag_21\n      swap2\n      swap1\n      tag_22\n      jump\t// in\n    tag_21:\n      tag_23\n      jump\t// in\n    tag_20:\n      mload(0x40)\n      tag_24\n      swap2\n      swap1\n      tag_25\n      jump\t// in\n    tag_24:\n      mload(0x40)\n      dup1\n      swap2\n      sub\n      swap1\n      return\n        /* \"contracts/solidity/solidity101/StructTypes.sol\":238:260  Student public student */\n    tag_7:\n      tag_26\n      tag_27\n      jump\t// in\n    tag_26:\n      mload(0x40)\n      tag_28\n      swap3\n      swap2\n      swap1\n      tag_29\n      jump\t// in\n    tag_28:\n      mload(0x40)\n      dup1\n      swap2\n      sub\n      swap1\n      return\n        /* \"contracts/solidity/solidity101/StructTypes.sol\":760:847  function initStudent4() external {... */\n    tag_8:\n      tag_30\n      tag_31\n      jump\t// in\n    tag_30:\n      stop\n        /* \"contracts/solidity/solidity101/StructTypes.sol\":356:493  function initSudent1() external {... */\n    tag_9:\n      tag_32\n      tag_33\n      jump\t// in\n    tag_32:\n      stop\n        /* \"contracts/solidity/solidity101/StructTypes.sol\":1084:1136  mapping(address => address) public _addressByaddress */\n    tag_10:\n      tag_34\n      0x04\n      dup1\n      calldatasize\n      sub\n      dup2\n      add\n      swap1\n      tag_35\n      swap2\n      swap1\n      tag_36\n      jump\t// in\n    tag_35:\n      tag_37\n      jump\t// in\n    tag_34:\n      mload(0x40)\n      tag_38\n      swap2\n      swap1\n      tag_25\n      jump\t// in\n    tag_38:\n      mload(0x40)\n      dup1\n      swap2\n      sub\n      swap1\n      return\n        /* \"contracts/solidity/solidity101/StructTypes.sol\":1143:1268  function writeMap(uint256 key,address value) external {... */\n    tag_15:\n        /* \"contracts/solidity/solidity101/StructTypes.sol\":1223:1227  this */\n      address\n        /* \"contracts/solidity/solidity101/StructTypes.sol\":1207:1228  value = address(this) */\n      swap1\n      pop\n        /* \"contracts/solidity/solidity101/StructTypes.sol\":1256:1261  value */\n      dup1\n        /* \"contracts/solidity/solidity101/StructTypes.sol\":1238:1250  _addressById */\n      0x02\n        /* \"contracts/solidity/solidity101/StructTypes.sol\":1238:1255  _addressById[key] */\n      0x00\n        /* \"contracts/solidity/solidity101/StructTypes.sol\":1251:1254  key */\n      dup5\n        /* \"contracts/solidity/solidity101/StructTypes.sol\":1238:1255  _addressById[key] */\n      dup2\n      mstore\n      0x20\n      add\n      swap1\n      dup2\n      mstore\n      0x20\n      add\n      0x00\n      keccak256\n      0x00\n        /* \"contracts/solidity/solidity101/StructTypes.sol\":1238:1261  _addressById[key]=value */\n      0x0100\n      exp\n      dup2\n      sload\n      dup2\n      0xffffffffffffffffffffffffffffffffffffffff\n      mul\n      not\n      and\n      swap1\n      dup4\n      0xffffffffffffffffffffffffffffffffffffffff\n      and\n      mul\n      or\n      swap1\n      sstore\n      pop\n        /* \"contracts/solidity/solidity101/StructTypes.sol\":1143:1268  function writeMap(uint256 key,address value) external {... */\n      pop\n      pop\n      jump\t// out\n        /* \"contracts/solidity/solidity101/StructTypes.sol\":518:611  function initStudent2() external {... */\n    tag_17:\n        /* \"contracts/solidity/solidity101/StructTypes.sol\":574:575  2 */\n      0x02\n        /* \"contracts/solidity/solidity101/StructTypes.sol\":561:568  student */\n      0x00\n        /* \"contracts/solidity/solidity101/StructTypes.sol\":561:571  student.id */\n      dup1\n      add\n        /* \"contracts/solidity/solidity101/StructTypes.sol\":561:575  student.id = 2 */\n      dup2\n      swap1\n      sstore\n      pop\n        /* \"contracts/solidity/solidity101/StructTypes.sol\":601:604  100 */\n      0x64\n        /* \"contracts/solidity/solidity101/StructTypes.sol\":585:592  student */\n      0x00\n        /* \"contracts/solidity/solidity101/StructTypes.sol\":585:598  student.socpe */\n      0x01\n      add\n        /* \"contracts/solidity/solidity101/StructTypes.sol\":585:604  student.socpe = 100 */\n      dup2\n      swap1\n      sstore\n      pop\n        /* \"contracts/solidity/solidity101/StructTypes.sol\":518:611  function initStudent2() external {... */\n      jump\t// out\n        /* \"contracts/solidity/solidity101/StructTypes.sol\":636:711  function initstudent3() external {... */\n    tag_19:\n        /* \"contracts/solidity/solidity101/StructTypes.sol\":689:704  Student(3, 101) */\n      mload(0x40)\n      dup1\n      0x40\n      add\n      0x40\n      mstore\n      dup1\n        /* \"contracts/solidity/solidity101/StructTypes.sol\":697:698  3 */\n      0x03\n        /* \"contracts/solidity/solidity101/StructTypes.sol\":689:704  Student(3, 101) */\n      dup2\n      mstore\n      0x20\n      add\n        /* \"contracts/solidity/solidity101/StructTypes.sol\":700:703  101 */\n      0x65\n        /* \"contracts/solidity/solidity101/StructTypes.sol\":689:704  Student(3, 101) */\n      dup2\n      mstore\n      pop\n        /* \"contracts/solidity/solidity101/StructTypes.sol\":679:686  student */\n      0x00\n        /* \"contracts/solidity/solidity101/StructTypes.sol\":679:704  student = Student(3, 101) */\n      dup1\n      dup3\n      add\n      mload\n      dup2\n      0x00\n      add\n      sstore\n      0x20\n      dup3\n      add\n      mload\n      dup2\n      0x01\n      add\n      sstore\n      swap1\n      pop\n      pop\n        /* \"contracts/solidity/solidity101/StructTypes.sol\":636:711  function initstudent3() external {... */\n      jump\t// out\n        /* \"contracts/solidity/solidity101/StructTypes.sol\":1031:1078  mapping(uint256 => address) public _addressById */\n    tag_23:\n      mstore(0x20, 0x02)\n      dup1\n      0x00\n      mstore\n      keccak256(0x00, 0x40)\n      0x00\n      swap2\n      pop\n      sload\n      swap1\n      0x0100\n      exp\n      swap1\n      div\n      0xffffffffffffffffffffffffffffffffffffffff\n      and\n      dup2\n      jump\t// out\n        /* \"contracts/solidity/solidity101/StructTypes.sol\":238:260  Student public student */\n    tag_27:\n      0x00\n      dup1\n      0x00\n      add\n      sload\n      swap1\n      dup1\n      0x01\n      add\n      sload\n      swap1\n      pop\n      dup3\n      jump\t// out\n        /* \"contracts/solidity/solidity101/StructTypes.sol\":760:847  function initStudent4() external {... */\n    tag_31:\n        /* \"contracts/solidity/solidity101/StructTypes.sol\":813:840  Student({id: 4, socpe: 60}) */\n      mload(0x40)\n      dup1\n      0x40\n      add\n      0x40\n      mstore\n      dup1\n        /* \"contracts/solidity/solidity101/StructTypes.sol\":826:827  4 */\n      0x04\n        /* \"contracts/solidity/solidity101/StructTypes.sol\":813:840  Student({id: 4, socpe: 60}) */\n      dup2\n      mstore\n      0x20\n      add\n        /* \"contracts/solidity/solidity101/StructTypes.sol\":836:838  60 */\n      0x3c\n        /* \"contracts/solidity/solidity101/StructTypes.sol\":813:840  Student({id: 4, socpe: 60}) */\n      dup2\n      mstore\n      pop\n        /* \"contracts/solidity/solidity101/StructTypes.sol\":803:810  student */\n      0x00\n        /* \"contracts/solidity/solidity101/StructTypes.sol\":803:840  student = Student({id: 4, socpe: 60}) */\n      dup1\n      dup3\n      add\n      mload\n      dup2\n      0x00\n      add\n      sstore\n      0x20\n      dup3\n      add\n      mload\n      dup2\n      0x01\n      add\n      sstore\n      swap1\n      pop\n      pop\n        /* \"contracts/solidity/solidity101/StructTypes.sol\":760:847  function initStudent4() external {... */\n      jump\t// out\n        /* \"contracts/solidity/solidity101/StructTypes.sol\":356:493  function initSudent1() external {... */\n    tag_33:\n        /* \"contracts/solidity/solidity101/StructTypes.sol\":398:422  Student storage _student */\n      0x00\n        /* \"contracts/solidity/solidity101/StructTypes.sol\":456:457  1 */\n      0x01\n        /* \"contracts/solidity/solidity101/StructTypes.sol\":442:450  _student */\n      dup2\n        /* \"contracts/solidity/solidity101/StructTypes.sol\":442:453  _student.id */\n      0x00\n      add\n        /* \"contracts/solidity/solidity101/StructTypes.sol\":442:457  _student.id = 1 */\n      dup2\n      swap1\n      sstore\n      pop\n        /* \"contracts/solidity/solidity101/StructTypes.sol\":484:486  99 */\n      0x63\n        /* \"contracts/solidity/solidity101/StructTypes.sol\":467:475  _student */\n      dup2\n        /* \"contracts/solidity/solidity101/StructTypes.sol\":467:481  _student.socpe */\n      0x01\n      add\n        /* \"contracts/solidity/solidity101/StructTypes.sol\":467:486  _student.socpe = 99 */\n      dup2\n      swap1\n      sstore\n      pop\n        /* \"contracts/solidity/solidity101/StructTypes.sol\":388:493  {... */\n      pop\n        /* \"contracts/solidity/solidity101/StructTypes.sol\":356:493  function initSudent1() external {... */\n      jump\t// out\n        /* \"contracts/solidity/solidity101/StructTypes.sol\":1084:1136  mapping(address => address) public _addressByaddress */\n    tag_37:\n      mstore(0x20, 0x03)\n      dup1\n      0x00\n      mstore\n      keccak256(0x00, 0x40)\n      0x00\n      swap2\n      pop\n      sload\n      swap1\n      0x0100\n      exp\n      swap1\n      div\n      0xffffffffffffffffffffffffffffffffffffffff\n      and\n      dup2\n      jump\t// out\n        /* \"#utility.yul\":88:205   */\n    tag_45:\n        /* \"#utility.yul\":197:198   */\n      0x00\n        /* \"#utility.yul\":194:195   */\n      dup1\n        /* \"#utility.yul\":187:199   */\n      revert\n        /* \"#utility.yul\":334:411   */\n    tag_47:\n        /* \"#utility.yul\":371:378   */\n      0x00\n        /* \"#utility.yul\":400:405   */\n      dup2\n        /* \"#utility.yul\":389:405   */\n      swap1\n      pop\n        /* \"#utility.yul\":334:411   */\n      swap2\n      swap1\n      pop\n      jump\t// out\n        /* \"#utility.yul\":417:539   */\n    tag_48:\n        /* \"#utility.yul\":490:514   */\n      tag_62\n        /* \"#utility.yul\":508:513   */\n      dup2\n        /* \"#utility.yul\":490:514   */\n      tag_47\n      jump\t// in\n    tag_62:\n        /* \"#utility.yul\":483:488   */\n      dup2\n        /* \"#utility.yul\":480:515   */\n      eq\n        /* \"#utility.yul\":470:533   */\n      tag_63\n      jumpi\n        /* \"#utility.yul\":529:530   */\n      0x00\n        /* \"#utility.yul\":526:527   */\n      dup1\n        /* \"#utility.yul\":519:531   */\n      revert\n        /* \"#utility.yul\":470:533   */\n    tag_63:\n        /* \"#utility.yul\":417:539   */\n      pop\n      jump\t// out\n        /* \"#utility.yul\":545:684   */\n    tag_49:\n        /* \"#utility.yul\":591:596   */\n      0x00\n        /* \"#utility.yul\":629:635   */\n      dup2\n        /* \"#utility.yul\":616:636   */\n      calldataload\n        /* \"#utility.yul\":607:636   */\n      swap1\n      pop\n        /* \"#utility.yul\":645:678   */\n      tag_65\n        /* \"#utility.yul\":672:677   */\n      dup2\n        /* \"#utility.yul\":645:678   */\n      tag_48\n      jump\t// in\n    tag_65:\n        /* \"#utility.yul\":545:684   */\n      swap3\n      swap2\n      pop\n      pop\n      jump\t// out\n        /* \"#utility.yul\":690:816   */\n    tag_50:\n        /* \"#utility.yul\":727:734   */\n      0x00\n        /* \"#utility.yul\":767:809   */\n      0xffffffffffffffffffffffffffffffffffffffff\n        /* \"#utility.yul\":760:765   */\n      dup3\n        /* \"#utility.yul\":756:810   */\n      and\n        /* \"#utility.yul\":745:810   */\n      swap1\n      pop\n        /* \"#utility.yul\":690:816   */\n      swap2\n      swap1\n      pop\n      jump\t// out\n        /* \"#utility.yul\":822:918   */\n    tag_51:\n        /* \"#utility.yul\":859:866   */\n      0x00\n        /* \"#utility.yul\":888:912   */\n      tag_68\n        /* \"#utility.yul\":906:911   */\n      dup3\n        /* \"#utility.yul\":888:912   */\n      tag_50\n      jump\t// in\n    tag_68:\n        /* \"#utility.yul\":877:912   */\n      swap1\n      pop\n        /* \"#utility.yul\":822:918   */\n      swap2\n      swap1\n      pop\n      jump\t// out\n        /* \"#utility.yul\":924:1046   */\n    tag_52:\n        /* \"#utility.yul\":997:1021   */\n      tag_70\n        /* \"#utility.yul\":1015:1020   */\n      dup2\n        /* \"#utility.yul\":997:1021   */\n      tag_51\n      jump\t// in\n    tag_70:\n        /* \"#utility.yul\":990:995   */\n      dup2\n        /* \"#utility.yul\":987:1022   */\n      eq\n        /* \"#utility.yul\":977:1040   */\n      tag_71\n      jumpi\n        /* \"#utility.yul\":1036:1037   */\n      0x00\n        /* \"#utility.yul\":1033:1034   */\n      dup1\n        /* \"#utility.yul\":1026:1038   */\n      revert\n        /* \"#utility.yul\":977:1040   */\n    tag_71:\n        /* \"#utility.yul\":924:1046   */\n      pop\n      jump\t// out\n        /* \"#utility.yul\":1052:1191   */\n    tag_53:\n        /* \"#utility.yul\":1098:1103   */\n      0x00\n        /* \"#utility.yul\":1136:1142   */\n      dup2\n        /* \"#utility.yul\":1123:1143   */\n      calldataload\n        /* \"#utility.yul\":1114:1143   */\n      swap1\n      pop\n        /* \"#utility.yul\":1152:1185   */\n      tag_73\n        /* \"#utility.yul\":1179:1184   */\n      dup2\n        /* \"#utility.yul\":1152:1185   */\n      tag_52\n      jump\t// in\n    tag_73:\n        /* \"#utility.yul\":1052:1191   */\n      swap3\n      swap2\n      pop\n      pop\n      jump\t// out\n        /* \"#utility.yul\":1197:1671   */\n    tag_14:\n        /* \"#utility.yul\":1265:1271   */\n      0x00\n        /* \"#utility.yul\":1273:1279   */\n      dup1\n        /* \"#utility.yul\":1322:1324   */\n      0x40\n        /* \"#utility.yul\":1310:1319   */\n      dup4\n        /* \"#utility.yul\":1301:1308   */\n      dup6\n        /* \"#utility.yul\":1297:1320   */\n      sub\n        /* \"#utility.yul\":1293:1325   */\n      slt\n        /* \"#utility.yul\":1290:1409   */\n      iszero\n      tag_75\n      jumpi\n        /* \"#utility.yul\":1328:1407   */\n      tag_76\n      tag_45\n      jump\t// in\n    tag_76:\n        /* \"#utility.yul\":1290:1409   */\n    tag_75:\n        /* \"#utility.yul\":1448:1449   */\n      0x00\n        /* \"#utility.yul\":1473:1526   */\n      tag_77\n        /* \"#utility.yul\":1518:1525   */\n      dup6\n        /* \"#utility.yul\":1509:1515   */\n      dup3\n        /* \"#utility.yul\":1498:1507   */\n      dup7\n        /* \"#utility.yul\":1494:1516   */\n      add\n        /* \"#utility.yul\":1473:1526   */\n      tag_49\n      jump\t// in\n    tag_77:\n        /* \"#utility.yul\":1463:1526   */\n      swap3\n      pop\n        /* \"#utility.yul\":1419:1536   */\n      pop\n        /* \"#utility.yul\":1575:1577   */\n      0x20\n        /* \"#utility.yul\":1601:1654   */\n      tag_78\n        /* \"#utility.yul\":1646:1653   */\n      dup6\n        /* \"#utility.yul\":1637:1643   */\n      dup3\n        /* \"#utility.yul\":1626:1635   */\n      dup7\n        /* \"#utility.yul\":1622:1644   */\n      add\n        /* \"#utility.yul\":1601:1654   */\n      tag_53\n      jump\t// in\n    tag_78:\n        /* \"#utility.yul\":1591:1654   */\n      swap2\n      pop\n        /* \"#utility.yul\":1546:1664   */\n      pop\n        /* \"#utility.yul\":1197:1671   */\n      swap3\n      pop\n      swap3\n      swap1\n      pop\n      jump\t// out\n        /* \"#utility.yul\":1677:2006   */\n    tag_22:\n        /* \"#utility.yul\":1736:1742   */\n      0x00\n        /* \"#utility.yul\":1785:1787   */\n      0x20\n        /* \"#utility.yul\":1773:1782   */\n      dup3\n        /* \"#utility.yul\":1764:1771   */\n      dup5\n        /* \"#utility.yul\":1760:1783   */\n      sub\n        /* \"#utility.yul\":1756:1788   */\n      slt\n        /* \"#utility.yul\":1753:1872   */\n      iszero\n      tag_80\n      jumpi\n        /* \"#utility.yul\":1791:1870   */\n      tag_81\n      tag_45\n      jump\t// in\n    tag_81:\n        /* \"#utility.yul\":1753:1872   */\n    tag_80:\n        /* \"#utility.yul\":1911:1912   */\n      0x00\n        /* \"#utility.yul\":1936:1989   */\n      tag_82\n        /* \"#utility.yul\":1981:1988   */\n      dup5\n        /* \"#utility.yul\":1972:1978   */\n      dup3\n        /* \"#utility.yul\":1961:1970   */\n      dup6\n        /* \"#utility.yul\":1957:1979   */\n      add\n        /* \"#utility.yul\":1936:1989   */\n      tag_49\n      jump\t// in\n    tag_82:\n        /* \"#utility.yul\":1926:1989   */\n      swap2\n      pop\n        /* \"#utility.yul\":1882:1999   */\n      pop\n        /* \"#utility.yul\":1677:2006   */\n      swap3\n      swap2\n      pop\n      pop\n      jump\t// out\n        /* \"#utility.yul\":2012:2130   */\n    tag_54:\n        /* \"#utility.yul\":2099:2123   */\n      tag_84\n        /* \"#utility.yul\":2117:2122   */\n      dup2\n        /* \"#utility.yul\":2099:2123   */\n      tag_51\n      jump\t// in\n    tag_84:\n        /* \"#utility.yul\":2094:2097   */\n      dup3\n        /* \"#utility.yul\":2087:2124   */\n      mstore\n        /* \"#utility.yul\":2012:2130   */\n      pop\n      pop\n      jump\t// out\n        /* \"#utility.yul\":2136:2358   */\n    tag_25:\n        /* \"#utility.yul\":2229:2233   */\n      0x00\n        /* \"#utility.yul\":2267:2269   */\n      0x20\n        /* \"#utility.yul\":2256:2265   */\n      dup3\n        /* \"#utility.yul\":2252:2270   */\n      add\n        /* \"#utility.yul\":2244:2270   */\n      swap1\n      pop\n        /* \"#utility.yul\":2280:2351   */\n      tag_86\n        /* \"#utility.yul\":2348:2349   */\n      0x00\n        /* \"#utility.yul\":2337:2346   */\n      dup4\n        /* \"#utility.yul\":2333:2350   */\n      add\n        /* \"#utility.yul\":2324:2330   */\n      dup5\n        /* \"#utility.yul\":2280:2351   */\n      tag_54\n      jump\t// in\n    tag_86:\n        /* \"#utility.yul\":2136:2358   */\n      swap3\n      swap2\n      pop\n      pop\n      jump\t// out\n        /* \"#utility.yul\":2364:2482   */\n    tag_55:\n        /* \"#utility.yul\":2451:2475   */\n      tag_88\n        /* \"#utility.yul\":2469:2474   */\n      dup2\n        /* \"#utility.yul\":2451:2475   */\n      tag_47\n      jump\t// in\n    tag_88:\n        /* \"#utility.yul\":2446:2449   */\n      dup3\n        /* \"#utility.yul\":2439:2476   */\n      mstore\n        /* \"#utility.yul\":2364:2482   */\n      pop\n      pop\n      jump\t// out\n        /* \"#utility.yul\":2488:2820   */\n    tag_29:\n        /* \"#utility.yul\":2609:2613   */\n      0x00\n        /* \"#utility.yul\":2647:2649   */\n      0x40\n        /* \"#utility.yul\":2636:2645   */\n      dup3\n        /* \"#utility.yul\":2632:2650   */\n      add\n        /* \"#utility.yul\":2624:2650   */\n      swap1\n      pop\n        /* \"#utility.yul\":2660:2731   */\n      tag_90\n        /* \"#utility.yul\":2728:2729   */\n      0x00\n        /* \"#utility.yul\":2717:2726   */\n      dup4\n        /* \"#utility.yul\":2713:2730   */\n      add\n        /* \"#utility.yul\":2704:2710   */\n      dup6\n        /* \"#utility.yul\":2660:2731   */\n      tag_55\n      jump\t// in\n    tag_90:\n        /* \"#utility.yul\":2741:2813   */\n      tag_91\n        /* \"#utility.yul\":2809:2811   */\n      0x20\n        /* \"#utility.yul\":2798:2807   */\n      dup4\n        /* \"#utility.yul\":2794:2812   */\n      add\n        /* \"#utility.yul\":2785:2791   */\n      dup5\n        /* \"#utility.yul\":2741:2813   */\n      tag_55\n      jump\t// in\n    tag_91:\n        /* \"#utility.yul\":2488:2820   */\n      swap4\n      swap3\n      pop\n      pop\n      pop\n      jump\t// out\n        /* \"#utility.yul\":2826:3155   */\n    tag_36:\n        /* \"#utility.yul\":2885:2891   */\n      0x00\n        /* \"#utility.yul\":2934:2936   */\n      0x20\n        /* \"#utility.yul\":2922:2931   */\n      dup3\n        /* \"#utility.yul\":2913:2920   */\n      dup5\n        /* \"#utility.yul\":2909:2932   */\n      sub\n        /* \"#utility.yul\":2905:2937   */\n      slt\n        /* \"#utility.yul\":2902:3021   */\n      iszero\n      tag_93\n      jumpi\n        /* \"#utility.yul\":2940:3019   */\n      tag_94\n      tag_45\n      jump\t// in\n    tag_94:\n        /* \"#utility.yul\":2902:3021   */\n    tag_93:\n        /* \"#utility.yul\":3060:3061   */\n      0x00\n        /* \"#utility.yul\":3085:3138   */\n      tag_95\n        /* \"#utility.yul\":3130:3137   */\n      dup5\n        /* \"#utility.yul\":3121:3127   */\n      dup3\n        /* \"#utility.yul\":3110:3119   */\n      dup6\n        /* \"#utility.yul\":3106:3128   */\n      add\n        /* \"#utility.yul\":3085:3138   */\n      tag_53\n      jump\t// in\n    tag_95:\n        /* \"#utility.yul\":3075:3138   */\n      swap2\n      pop\n        /* \"#utility.yul\":3031:3148   */\n      pop\n        /* \"#utility.yul\":2826:3155   */\n      swap3\n      swap2\n      pop\n      pop\n      jump\t// out\n\n    auxdata: 0xa264697066735822122030fcf7189d4d7647716055bc028121856d6c54c7471c3e6b3fc32206de8efbe564736f6c634300081a0033\n}\n",
				"bytecode": {
					"linkReferences": {},
					"object": "6080604052348015600e575f80fd5b506104568061001c5f395ff3fe608060405234801561000f575f80fd5b5060043610610086575f3560e01c8063699450e811610059578063699450e8146100ea5780639ebb8d2014610109578063f01d79e914610113578063fa4e57361461011d57610086565b8063072721601461008a5780631a8d7dc3146100a65780631ac08174146100b0578063296f7adc146100ba575b5f80fd5b6100a4600480360381019061009f919061032e565b61014d565b005b6100ae6101a3565b005b6100b86101b8565b005b6100d460048036038101906100cf919061036c565b6101e7565b6040516100e191906103a6565b60405180910390f35b6100f2610217565b6040516101009291906103ce565b60405180910390f35b610111610227565b005b61011b610256565b005b610137600480360381019061013291906103f5565b61026d565b60405161014491906103a6565b60405180910390f35b3090508060025f8481526020019081526020015f205f6101000a81548173ffffffffffffffffffffffffffffffffffffffff021916908373ffffffffffffffffffffffffffffffffffffffff1602179055505050565b60025f80018190555060645f60010181905550565b60405180604001604052806003815260200160658152505f80820151815f015560208201518160010155905050565b6002602052805f5260405f205f915054906101000a900473ffffffffffffffffffffffffffffffffffffffff1681565b5f805f0154908060010154905082565b604051806040016040528060048152602001603c8152505f80820151815f015560208201518160010155905050565b5f6001815f01819055506063816001018190555050565b6003602052805f5260405f205f915054906101000a900473ffffffffffffffffffffffffffffffffffffffff1681565b5f80fd5b5f819050919050565b6102b3816102a1565b81146102bd575f80fd5b50565b5f813590506102ce816102aa565b92915050565b5f73ffffffffffffffffffffffffffffffffffffffff82169050919050565b5f6102fd826102d4565b9050919050565b61030d816102f3565b8114610317575f80fd5b50565b5f8135905061032881610304565b92915050565b5f80604083850312156103445761034361029d565b5b5f610351858286016102c0565b92505060206103628582860161031a565b9150509250929050565b5f602082840312156103815761038061029d565b5b5f61038e848285016102c0565b91505092915050565b6103a0816102f3565b82525050565b5f6020820190506103b95f830184610397565b92915050565b6103c8816102a1565b82525050565b5f6040820190506103e15f8301856103bf565b6103ee60208301846103bf565b9392505050565b5f6020828403121561040a5761040961029d565b5b5f6104178482850161031a565b9150509291505056fea264697066735822122030fcf7189d4d7647716055bc028121856d6c54c7471c3e6b3fc32206de8efbe564736f6c634300081a0033",
					"opcodes": "PUSH1 0x80 PUSH1 0x40 MSTORE CALLVALUE DUP1 ISZERO PUSH1 0xE JUMPI PUSH0 DUP1 REVERT JUMPDEST POP PUSH2 0x456 DUP1 PUSH2 0x1C PUSH0 CODECOPY PUSH0 RETURN INVALID PUSH1 0x80 PUSH1 0x40 MSTORE CALLVALUE DUP1 ISZERO PUSH2 0xF JUMPI PUSH0 DUP1 REVERT JUMPDEST POP PUSH1 0x4 CALLDATASIZE LT PUSH2 0x86 JUMPI PUSH0 CALLDATALOAD PUSH1 0xE0 SHR DUP1 PUSH4 0x699450E8 GT PUSH2 0x59 JUMPI DUP1 PUSH4 0x699450E8 EQ PUSH2 0xEA JUMPI DUP1 PUSH4 0x9EBB8D20 EQ PUSH2 0x109 JUMPI DUP1 PUSH4 0xF01D79E9 EQ PUSH2 0x113 JUMPI DUP1 PUSH4 0xFA4E5736 EQ PUSH2 0x11D JUMPI PUSH2 0x86 JUMP JUMPDEST DUP1 PUSH4 0x7272160 EQ PUSH2 0x8A JUMPI DUP1 PUSH4 0x1A8D7DC3 EQ PUSH2 0xA6 JUMPI DUP1 PUSH4 0x1AC08174 EQ PUSH2 0xB0 JUMPI DUP1 PUSH4 0x296F7ADC EQ PUSH2 0xBA JUMPI JUMPDEST PUSH0 DUP1 REVERT JUMPDEST PUSH2 0xA4 PUSH1 0x4 DUP1 CALLDATASIZE SUB DUP2 ADD SWAP1 PUSH2 0x9F SWAP2 SWAP1 PUSH2 0x32E JUMP JUMPDEST PUSH2 0x14D JUMP JUMPDEST STOP JUMPDEST PUSH2 0xAE PUSH2 0x1A3 JUMP JUMPDEST STOP JUMPDEST PUSH2 0xB8 PUSH2 0x1B8 JUMP JUMPDEST STOP JUMPDEST PUSH2 0xD4 PUSH1 0x4 DUP1 CALLDATASIZE SUB DUP2 ADD SWAP1 PUSH2 0xCF SWAP2 SWAP1 PUSH2 0x36C JUMP JUMPDEST PUSH2 0x1E7 JUMP JUMPDEST PUSH1 0x40 MLOAD PUSH2 0xE1 SWAP2 SWAP1 PUSH2 0x3A6 JUMP JUMPDEST PUSH1 0x40 MLOAD DUP1 SWAP2 SUB SWAP1 RETURN JUMPDEST PUSH2 0xF2 PUSH2 0x217 JUMP JUMPDEST PUSH1 0x40 MLOAD PUSH2 0x100 SWAP3 SWAP2 SWAP1 PUSH2 0x3CE JUMP JUMPDEST PUSH1 0x40 MLOAD DUP1 SWAP2 SUB SWAP1 RETURN JUMPDEST PUSH2 0x111 PUSH2 0x227 JUMP JUMPDEST STOP JUMPDEST PUSH2 0x11B PUSH2 0x256 JUMP JUMPDEST STOP JUMPDEST PUSH2 0x137 PUSH1 0x4 DUP1 CALLDATASIZE SUB DUP2 ADD SWAP1 PUSH2 0x132 SWAP2 SWAP1 PUSH2 0x3F5 JUMP JUMPDEST PUSH2 0x26D JUMP JUMPDEST PUSH1 0x40 MLOAD PUSH2 0x144 SWAP2 SWAP1 PUSH2 0x3A6 JUMP JUMPDEST PUSH1 0x40 MLOAD DUP1 SWAP2 SUB SWAP1 RETURN JUMPDEST ADDRESS SWAP1 POP DUP1 PUSH1 0x2 PUSH0 DUP5 DUP2 MSTORE PUSH1 0x20 ADD SWAP1 DUP2 MSTORE PUSH1 0x20 ADD PUSH0 KECCAK256 PUSH0 PUSH2 0x100 EXP DUP2 SLOAD DUP2 PUSH20 0xFFFFFFFFFFFFFFFFFFFFFFFFFFFFFFFFFFFFFFFF MUL NOT AND SWAP1 DUP4 PUSH20 0xFFFFFFFFFFFFFFFFFFFFFFFFFFFFFFFFFFFFFFFF AND MUL OR SWAP1 SSTORE POP POP POP JUMP JUMPDEST PUSH1 0x2 PUSH0 DUP1 ADD DUP2 SWAP1 SSTORE POP PUSH1 0x64 PUSH0 PUSH1 0x1 ADD DUP2 SWAP1 SSTORE POP JUMP JUMPDEST PUSH1 0x40 MLOAD DUP1 PUSH1 0x40 ADD PUSH1 0x40 MSTORE DUP1 PUSH1 0x3 DUP2 MSTORE PUSH1 0x20 ADD PUSH1 0x65 DUP2 MSTORE POP PUSH0 DUP1 DUP3 ADD MLOAD DUP2 PUSH0 ADD SSTORE PUSH1 0x20 DUP3 ADD MLOAD DUP2 PUSH1 0x1 ADD SSTORE SWAP1 POP POP JUMP JUMPDEST PUSH1 0x2 PUSH1 0x20 MSTORE DUP1 PUSH0 MSTORE PUSH1 0x40 PUSH0 KECCAK256 PUSH0 SWAP2 POP SLOAD SWAP1 PUSH2 0x100 EXP SWAP1 DIV PUSH20 0xFFFFFFFFFFFFFFFFFFFFFFFFFFFFFFFFFFFFFFFF AND DUP2 JUMP JUMPDEST PUSH0 DUP1 PUSH0 ADD SLOAD SWAP1 DUP1 PUSH1 0x1 ADD SLOAD SWAP1 POP DUP3 JUMP JUMPDEST PUSH1 0x40 MLOAD DUP1 PUSH1 0x40 ADD PUSH1 0x40 MSTORE DUP1 PUSH1 0x4 DUP2 MSTORE PUSH1 0x20 ADD PUSH1 0x3C DUP2 MSTORE POP PUSH0 DUP1 DUP3 ADD MLOAD DUP2 PUSH0 ADD SSTORE PUSH1 0x20 DUP3 ADD MLOAD DUP2 PUSH1 0x1 ADD SSTORE SWAP1 POP POP JUMP JUMPDEST PUSH0 PUSH1 0x1 DUP2 PUSH0 ADD DUP2 SWAP1 SSTORE POP PUSH1 0x63 DUP2 PUSH1 0x1 ADD DUP2 SWAP1 SSTORE POP POP JUMP JUMPDEST PUSH1 0x3 PUSH1 0x20 MSTORE DUP1 PUSH0 MSTORE PUSH1 0x40 PUSH0 KECCAK256 PUSH0 SWAP2 POP SLOAD SWAP1 PUSH2 0x100 EXP SWAP1 DIV PUSH20 0xFFFFFFFFFFFFFFFFFFFFFFFFFFFFFFFFFFFFFFFF AND DUP2 JUMP JUMPDEST PUSH0 DUP1 REVERT JUMPDEST PUSH0 DUP2 SWAP1 POP SWAP2 SWAP1 POP JUMP JUMPDEST PUSH2 0x2B3 DUP2 PUSH2 0x2A1 JUMP JUMPDEST DUP2 EQ PUSH2 0x2BD JUMPI PUSH0 DUP1 REVERT JUMPDEST POP JUMP JUMPDEST PUSH0 DUP2 CALLDATALOAD SWAP1 POP PUSH2 0x2CE DUP2 PUSH2 0x2AA JUMP JUMPDEST SWAP3 SWAP2 POP POP JUMP JUMPDEST PUSH0 PUSH20 0xFFFFFFFFFFFFFFFFFFFFFFFFFFFFFFFFFFFFFFFF DUP3 AND SWAP1 POP SWAP2 SWAP1 POP JUMP JUMPDEST PUSH0 PUSH2 0x2FD DUP3 PUSH2 0x2D4 JUMP JUMPDEST SWAP1 POP SWAP2 SWAP1 POP JUMP JUMPDEST PUSH2 0x30D DUP2 PUSH2 0x2F3 JUMP JUMPDEST DUP2 EQ PUSH2 0x317 JUMPI PUSH0 DUP1 REVERT JUMPDEST POP JUMP JUMPDEST PUSH0 DUP2 CALLDATALOAD SWAP1 POP PUSH2 0x328 DUP2 PUSH2 0x304 JUMP JUMPDEST SWAP3 SWAP2 POP POP JUMP JUMPDEST PUSH0 DUP1 PUSH1 0x40 DUP4 DUP6 SUB SLT ISZERO PUSH2 0x344 JUMPI PUSH2 0x343 PUSH2 0x29D JUMP JUMPDEST JUMPDEST PUSH0 PUSH2 0x351 DUP6 DUP3 DUP7 ADD PUSH2 0x2C0 JUMP JUMPDEST SWAP3 POP POP PUSH1 0x20 PUSH2 0x362 DUP6 DUP3 DUP7 ADD PUSH2 0x31A JUMP JUMPDEST SWAP2 POP POP SWAP3 POP SWAP3 SWAP1 POP JUMP JUMPDEST PUSH0 PUSH1 0x20 DUP3 DUP5 SUB SLT ISZERO PUSH2 0x381 JUMPI PUSH2 0x380 PUSH2 0x29D JUMP JUMPDEST JUMPDEST PUSH0 PUSH2 0x38E DUP5 DUP3 DUP6 ADD PUSH2 0x2C0 JUMP JUMPDEST SWAP2 POP POP SWAP3 SWAP2 POP POP JUMP JUMPDEST PUSH2 0x3A0 DUP2 PUSH2 0x2F3 JUMP JUMPDEST DUP3 MSTORE POP POP JUMP JUMPDEST PUSH0 PUSH1 0x20 DUP3 ADD SWAP1 POP PUSH2 0x3B9 PUSH0 DUP4 ADD DUP5 PUSH2 0x397 JUMP JUMPDEST SWAP3 SWAP2 POP POP JUMP JUMPDEST PUSH2 0x3C8 DUP2 PUSH2 0x2A1 JUMP JUMPDEST DUP3 MSTORE POP POP JUMP JUMPDEST PUSH0 PUSH1 0x40 DUP3 ADD SWAP1 POP PUSH2 0x3E1 PUSH0 DUP4 ADD DUP6 PUSH2 0x3BF JUMP JUMPDEST PUSH2 0x3EE PUSH1 0x20 DUP4 ADD DUP5 PUSH2 0x3BF JUMP JUMPDEST SWAP4 SWAP3 POP POP POP JUMP JUMPDEST PUSH0 PUSH1 0x20 DUP3 DUP5 SUB SLT ISZERO PUSH2 0x40A JUMPI PUSH2 0x409 PUSH2 0x29D JUMP JUMPDEST JUMPDEST PUSH0 PUSH2 0x417 DUP5 DUP3 DUP6 ADD PUSH2 0x31A JUMP JUMPDEST SWAP2 POP POP SWAP3 SWAP2 POP POP JUMP INVALID LOG2 PUSH5 0x6970667358 0x22 SLT KECCAK256 ADDRESS 0xFC 0xF7 XOR SWAP14 0x4D PUSH23 0x47716055BC028121856D6C54C7471C3E6B3FC32206DE8E 0xFB 0xE5 PUSH5 0x736F6C6343 STOP ADDMOD BYTE STOP CALLER "
				},
				"gasEstimates": {
					"creation": {
						"codeDepositCost": "222000",
						"executionCost": "261",
						"totalCost": "222261"
					},
					"external": {
						"_addressById(uint256)": "2894",
						"_addressByaddress(address)": "infinite",
						"initStudent2()": "44404",
						"initStudent4()": "44474",
						"initSudent1()": "44430",
						"initstudent3()": "44497",
						"student()": "infinite",
						"writeMap(uint256,address)": "24970"
					}
				},
				"methodIdentifiers": {
					"_addressById(uint256)": "296f7adc",
					"_addressByaddress(address)": "fa4e5736",
					"initStudent2()": "1a8d7dc3",
					"initStudent4()": "9ebb8d20",
					"initSudent1()": "f01d79e9",
					"initstudent3()": "1ac08174",
					"student()": "699450e8",
					"writeMap(uint256,address)": "07272160"
				}
			},
			"storageLayout": {
				"storage": [
					{
						"astId": 9,
						"contract": "contracts/solidity/solidity101/StructTypes.sol:StructTypes",
						"label": "student",
						"offset": 0,
						"slot": "0",
						"type": "t_struct(Student)6_storage"
					},
					{
						"astId": 72,
						"contract": "contracts/solidity/solidity101/StructTypes.sol:StructTypes",
						"label": "_addressById",
						"offset": 0,
						"slot": "2",
						"type": "t_mapping(t_uint256,t_address)"
					},
					{
						"astId": 76,
						"contract": "contracts/solidity/solidity101/StructTypes.sol:StructTypes",
						"label": "_addressByaddress",
						"offset": 0,
						"slot": "3",
						"type": "t_mapping(t_address,t_address)"
					}
				],
				"types": {
					"t_address": {
						"encoding": "inplace",
						"label": "address",
						"numberOfBytes": "20"
					},
					"t_mapping(t_address,t_address)": {
						"encoding": "mapping",
						"key": "t_address",
						"label": "mapping(address => address)",
						"numberOfBytes": "32",
						"value": "t_address"
					},
					"t_mapping(t_uint256,t_address)": {
						"encoding": "mapping",
						"key": "t_uint256",
						"label": "mapping(uint256 => address)",
						"numberOfBytes": "32",
						"value": "t_address"
					},
					"t_struct(Student)6_storage": {
						"encoding": "inplace",
						"label": "struct StructTypes.Student",
						"members": [
							{
								"astId": 3,
								"contract": "contracts/solidity/solidity101/StructTypes.sol:StructTypes",
								"label": "id",
								"offset": 0,
								"slot": "0",
								"type": "t_uint256"
							},
							{
								"astId": 5,
								"contract": "contracts/solidity/solidity101/StructTypes.sol:StructTypes",
								"label": "socpe",
								"offset": 0,
								"slot": "1",
								"type": "t_uint256"
							}
						],
						"numberOfBytes": "64"
					},
					"t_uint256": {
						"encoding": "inplace",
						"label": "uint256",
						"numberOfBytes": "32"
					}
				}
			},
			"userdoc": {
				"kind": "user",
				"methods": {},
				"version": 1
			}
		}
	}
}